:100000000C9435000C945D000C945D000C945D0024
:100010000C945D000C945D000C945D000C945D00EC
:100020000C945D000C945D000C945D000C945D00DC
:100030000C945D000C945D000C945D000C945D00CC
:100040000C9496010C945D000C9406020C94E00153
:100050000C945D000C945D000C945D000C945D00AC
:100060000C945D000C945D00ED0211241FBECFEFD7
:10007000D8E0DEBFCDBF11E0A0E0B1E0EEE4F6E0F5
:1000800002C005900D92A431B107D9F721E0A4E197
:10009000B1E001C01D92AA3BB207E1F710E0C5E351
:1000A000D0E004C02197FE010E941A03C433D10797
:1000B000C9F70E9438020C9425030C9400003FB746
:1000C000F8948091B6019091B701A091B801B091D8
:1000D000B90126B5A89B05C02F3F19F00196A11DB7
:1000E000B11D3FBFBA2FA92F982F8827820F911DCE
:1000F000A11DB11DBC01CD0142E0660F771F881F15
:10010000991F4A95D1F70895FC01538D448D252FF1
:1001100030E0842F90E0821B930B541710F0CF96A1
:10012000089501970895FC01918D828D981761F0D3
:10013000828DDF01A80FB11D5D968C91928D9F5F1E
:100140009F73928F90E008958FEF9FEF0895FC01C9
:10015000918D828D981731F0828DE80FF11D858D7C
:1001600090E008958FEF9FEF0895FC01918D228D0F
:10017000892F90E0805C9F4F821B91098F73992794
:10018000089584E191E00E94B50021E0892B09F4F3
:1001900020E0822F0895FC01848DDF01A80FB11D9E
:1001A000A35ABF4F2C91848D90E001968F739927AD
:1001B000848FA689B7892C93A089B1898C9183708B
:1001C00080648C93938D848D981306C00288F38984
:1001D000E02D80818F7D80830895EF92FF920F93B1
:1001E0001F93CF93DF93EC0181E0888F9B8D8C8DE3
:1001F000981305C0E889F989808185FD26C0F62E0F
:100200000B8D10E00F5F1F4F0F731127E02E8C8DA9
:10021000E8120CC00FB607FCFACFE889F989808193
:1002200085FFF5CFCE010E94CB00F1CF8B8DFE0173
:10023000E80FF11DE35AFF4FF0829FB7F8940B8F40
:10024000EA89FB89808180620AC09FB7F894EE89B1
:10025000FF896083E889F989808183708064808365
:100260009FBF81E090E0DF91CF911F910F91FF90B0
:10027000EF900895CF93DF93EC01888D8823C9F028
:10028000EA89FB89808185FD05C0A889B9898C919F
:1002900086FD0FC00FB607FCF5CF808185FFF2CF3A
:1002A000A889B9898C9185FFEDCFCE010E94CB0042
:1002B000E7CFDF91CF91089580E090E0892B29F07E
:1002C0000E94C10081110C9400000895CF92DF922A
:1002D000EF92FF920F931F93CF93DF936C017A01FC
:1002E0008B01C0E0D0E0CE15DF0581F0D8016D9123
:1002F0008D01D601ED91FC910190F081E02DC601B8
:100300000995892B11F02196EECF7E01C701DF916F
:10031000CF911F910F91FF90EF90DF90CF900895B4
:10032000089580E090E008950E9420031F920F92AC
:100330000FB60F9211242F933F938F939F93AF93F8
:10034000BF938091B2019091B301A091B401B0919B
:10035000B5013091B10123E0230F2D3720F4019630
:10036000A11DB11D05C026E8230F0296A11DB11DD8
:100370002093B1018093B2019093B301A093B40193
:10038000B093B5018091B6019091B701A091B801E9
:10039000B091B9010196A11DB11D8093B601909352
:1003A000B701A093B801B093B901BF91AF919F91EC
:1003B0008F913F912F910F900FBE0F901F90189526
:1003C0001F920F920FB60F9211242F933F934F93CA
:1003D0005F936F937F938F939F93AF93BF93EF93AD
:1003E000FF9384E191E00E94CB00FF91EF91BF91D8
:1003F000AF919F918F917F916F915F914F913F91BD
:100400002F910F900FBE0F901F9018951F920F9273
:100410000FB60F9211242F938F939F93EF93FF9317
:10042000E0912401F09125018081E0912A01F09171
:100430002B0182FD12C0908180912D018F5F8F73FF
:1004400020912E01821751F0E0912D01F0E0EC5E39
:10045000FE4F958F80932D0101C08081FF91EF9118
:100460009F918F912F910F900FBE0F901F90189515
:10047000789484B5826084BD84B5816084BD85B57F
:10048000826085BD85B5816085BD80916E0081608B
:1004900080936E0010928100809181008260809331
:1004A0008100809181008160809381008091800033
:1004B0008160809380008091B10084608093B1005E
:1004C0008091B00081608093B00080917A00846058
:1004D00080937A0080917A00826080937A00809184
:1004E0007A00816080937A0080917A00806880939E
:1004F0007A001092C100E0912401F091250182E080
:100500008083E0912001F09121011082E09122018D
:10051000F09123018FEC808310922C01E09128014F
:10052000F091290186E08083E0912601F091270176
:10053000808180618083E0912601F0912701808194
:1005400088608083E0912601F09127018081806896
:100550008083E0912601F091270180818F7D808347
:1005600084E191E00E94B5001816190664F484E154
:1005700091E00E94930041E050E062E171E084E18B
:1005800091E00E9466010E945F004B015C0188EED1
:10059000C82E83E0D82EE12CF12C0E945F00DC01F4
:1005A000CB0188199909AA09BB09883E9340A10586
:1005B000B10598F321E0C21AD108E108F10888EEEC
:1005C000880E83E0981EA11CB11CC114D104E10463
:1005D000F10419F70E945C01C3CFE4E1F1E013825A
:1005E000128288EE93E0A0E0B0E084839583A68336
:1005F000B78384E091E09183808385EC90E09587D8
:10060000848784EC90E09787868780EC90E0918BDC
:10061000808B81EC90E0938B828B82EC90E0958BC9
:10062000848B86EC90E0978B868B118E128E138EC6
:10063000148E0895EE0FFF1F0590F491E02D09949C
:0E06400081E090E0F8940C942503F894FFCF2D
:10064E0000000000ED00660184003A01B500930041
:04065E00A70066008B
:00000001FF
