:100000000C9435000C945D000C945D000C945D0024
:100010000C945D000C945D000C945D000C945D00EC
:100020000C945D000C945D000C945D000C945D00DC
:100030000C945D000C945D000C945D000C945D00CC
:100040000C94EF010C945D000C945F020C94390247
:100050000C945D000C945D000C945D000C945D00AC
:100060000C945D000C945D00A80311241FBECFEF1B
:10007000D8E0DEBFCDBF11E0A0E0B1E0E8E0F8E0FD
:1000800002C005900D92A631B107D9F721E0A6E193
:10009000B1E001C01D92AD3BB207E1F710E0C5E34E
:1000A000D0E004C02197FE010E94F703C433D107BA
:1000B000C9F70E9491020C9402040C9400003FB70F
:1000C000F89480911C0190911D01A0911E01B091A6
:1000D0001F0126B5A89B05C02F3F19F00196A11D51
:1000E000B11D3FBFBA2FA92F982F8827820F911DCE
:1000F000A11DB11DBC01CD0142E0660F771F881F15
:10010000991F4A95D1F70895FC01538D448D252FF1
:1001100030E0842F90E0821B930B541710F0CF96A1
:10012000089501970895FC01918D828D981761F0D3
:10013000828DDF01A80FB11D5D968C91928D9F5F1E
:100140009F73928F90E008958FEF9FEF0895FC01C9
:10015000918D828D981731F0828DE80FF11D858D7C
:1001600090E008958FEF9FEF0895FC01918D228D0F
:10017000892F90E0805C9F4F821B91098F73992794
:10018000089580E291E00E94B50021E0892B09F4F6
:1001900020E0822F0895FC01848DDF01A80FB11D9E
:1001A000A35ABF4F2C91848D90E001968F739927AD
:1001B000848FA689B7892C93A089B1898C9183708B
:1001C00080648C93938D848D981306C00288F38984
:1001D000E02D80818F7D80830895EF92FF920F93B1
:1001E0001F93CF93DF93EC0181E0888F9B8D8C8DE3
:1001F000981305C0E889F989808185FD26C0F62E0F
:100200000B8D10E00F5F1F4F0F731127E02E8C8DA9
:10021000E8120CC00FB607FCFACFE889F989808193
:1002200085FFF5CFCE010E94CB00F1CF8B8DFE0173
:10023000E80FF11DE35AFF4FF0829FB7F8940B8F40
:10024000EA89FB89808180620AC09FB7F894EE89B1
:10025000FF896083E889F989808183708064808365
:100260009FBF81E090E0DF91CF911F910F91FF90B0
:10027000EF900895CF93DF93EC01888D8823C9F028
:10028000EA89FB89808185FD05C0A889B9898C919F
:1002900086FD0FC00FB607FCF5CF808185FFF2CF3A
:1002A000A889B9898C9185FFEDCFCE010E94CB0042
:1002B000E7CFDF91CF91089580E090E0892B29F07E
:1002C0000E94C10081110C9400000895CF92DF922A
:1002D000EF92FF920F931F93CF93DF936C017A01FC
:1002E0008B01C0E0D0E0CE15DF0581F0D8016D9123
:1002F0008D01D601ED91FC910190F081E02DC601B8
:100300000995892B11F02196EECF7E01C701DF916F
:10031000CF911F910F91FF90EF90DF90CF900895B4
:10032000089580E090E008958F929F92AF92BF92DF
:100330000F931F93CF93DF93CDB7DEB7A1970FB67F
:10034000F894DEBF0FBECDBF19A2423008F44AE0D8
:100350008E010F5D1F4F842E912CA12CB12CA50175
:1003600094010E94D503E62FB901CA010150110979
:10037000EA3014F4E05D01C0E95CD801EC93232B72
:10038000242B252B61F70115110571F0F80101905F
:100390000020E9F73197AF01401B510BB80180E213
:1003A00091E00E94660102C080E090E0A1960FB645
:1003B000F894DEBF0FBECDBFDF91CF911F910F919B
:1003C000BF90AF909F908F90089542E050E062E11F
:1003D00071E080E291E00C9466010E94FD031F929F
:1003E0000F920FB60F9211242F933F938F939F93E9
:1003F000AF93BF938091180190911901A0911A01B8
:10040000B0911B013091170123E0230F2D3720F409
:100410000196A11DB11D05C026E8230F0296A11D5E
:10042000B11D209317018093180190931901A09397
:100430001A01B0931B0180911C0190911D01A091A4
:100440001E01B0911F010196A11DB11D80931C01D9
:1004500090931D01A0931E01B0931F01BF91AF9116
:100460009F918F913F912F910F900FBE0F901F90F2
:1004700018951F920F920FB60F9211242F933F934E
:100480004F935F936F937F938F939F93AF93BF939C
:10049000EF93FF9380E291E00E94CB00FF91EF91F8
:1004A000BF91AF919F918F917F916F915F914F918C
:1004B0003F912F910F900FBE0F901F9018951F9294
:1004C0000F920FB60F9211242F938F939F93EF9358
:1004D000FF93E0913001F09131018081E09136018C
:1004E000F091370182FD12C09081809139018F5FB8
:1004F0008F7320913A01821751F0E0913901F0E0B9
:10050000E05EFE4F958F8093390101C08081FF919D
:10051000EF919F918F912F910F900FBE0F901F9091
:100520001895789484B5826084BD84B5816084BD5B
:1005300085B5826085BD85B5816085BD80916E0081
:10054000816080936E0010928100809181008260B2
:1005500080938100809181008160809381008091EF
:1005600080008160809380008091B10084608093DE
:10057000B1008091B00081608093B00080917A00DA
:10058000846080937A0080917A00826080937A0000
:1005900080917A00816080937A0080917A008068EF
:1005A00080937A001092C100E0913001F091310106
:1005B00082E08083E0912C01F0912D011082E09186
:1005C0002E01F0912F018FEC808310923801E09181
:1005D0003401F091350186E08083E0913201F091A1
:1005E0003301808180618083E0913201F091330199
:1005F000808188608083E0913201F09133018081B5
:1006000080688083E0913201F091330180818F7D99
:10061000808380E291E00E94B5001816190634F438
:1006200080E291E00E949300809316018091160170
:10063000982F9B7F923609F446C09EE8980F92301F
:1006400008F441C0982F977F9436E9F198E9980F04
:100650009230C8F1082E000C990B8737910599F15B
:100660008037910581F14AE060E070E0CB010E94A3
:1006700094010E94E5010E945F004B015C0188EE3D
:10068000C82E83E0D82EE12CF12C0E945F00DC0103
:10069000CB0188199909AA09BB09883E9340A10595
:1006A000B10598F381E0C81AD108E108F10828EEF5
:1006B000820E23E0921EA11CB11CC114D104E104DE
:1006C000F10419F73EC02FB7F8948091180190916A
:1006D0001901A0911A01B0911B012FBF092E000C26
:1006E000AA0BBB0B2FB7F894409118015091190138
:1006F00060911A0170911B012FBF481B590B6A0BA7
:100700007B0B483E53406105710560F380E291E048
:100710000E9493006C01990FEE08FF08F7FE14C0C9
:100720006DE280E291E00E94ED0066277727CB0121
:100730006C197D098E099F094AE00E9494010E946C
:10074000E5010E945C0165CF4AE0C701B601F5CF23
:10075000E0E2F1E01382128288EE93E0A0E0B0E0E4
:1007600084839583A683B78384E091E0918380831B
:1007700085EC90E09587848784EC90E09787868766
:1007800080EC90E0918B808B81EC90E0938B828B5E
:1007900082EC90E0958B848B86EC90E0978B868B37
:1007A000118E128E138E148E0895A1E21A2EAA1B9A
:1007B000BB1BFD010DC0AA1FBB1FEE1FFF1FA21711
:1007C000B307E407F50720F0A21BB30BE40BF50B0E
:1007D000661F771F881F991F1A9469F76095709597
:1007E000809590959B01AC01BD01CF010895EE0F5E
:1007F000FF1F0590F491E02D099481E090E0F894BA
:080800000C940204F894FFCFF0
:1008080000000000ED00660184003A01B500930085
:06081800A7000D0A00001C
:00000001FF
