:100000000C9483000C94B4000C94B4000C94B400D1
:100010000C94B4000C94B4000C94B4000C94B40090
:100020000C94B4000C94B4000C94B4000C94B40080
:100030000C94B4000C94B4000C94B4000C94B40070
:100040000C94B4000C94B4000C94B4000C94B40060
:100050000C94B4000C94B4000C94B4000C941C02E6
:100060000C94B4000C9490020C9466020C94B400AE
:100070000C94B4000C94B4000C94B4000C94B40030
:100080000C94B4000C94B4000C94B4000C94B40020
:100090000C94B4000C94B4000C94B4000C94B40010
:1000A0000C94B4000C94B4000C94B4000C94B40000
:1000B0000C94B4000C94B4000C94B4000C94B400F0
:1000C0000C94B4000C94B4000C94B4000C94B400E0
:1000D0000C94B4000C94B4000C94B4000C94B400D0
:1000E0000C94B4000C9472010C9409010C94B503A7
:1000F0000C94DB000C942C010C943A010C94180124
:100100000C94BF01B50311241FBECFEFD1E2DEBFB7
:10011000CDBF00E00CBF12E0A0E0B2E0E2EEF7E0FD
:1001200000E00BBF02C007900D92A831B107D9F7CC
:1001300022E0A8E1B2E001C01D92AE3BB207E1F7B8
:1001400010E0C3E8D0E000E006C021970109802F4D
:10015000FE010E94E203C238D10780E00807A9F738
:100160000E94C6020C94EF030C9400003FB7F89471
:100170008091BA029091BB02A091BC02B091BD02E5
:1001800026B5A89B05C02F3F19F00196A11DB11DF2
:100190003FBFBA2FA92F982F8827820F911DA11D2D
:1001A000B11DBC01CD0142E0660F771F881F991F6A
:1001B0004A95D1F70895CF92DF92EF92FF920F9375
:1001C0001F93CF93DF936C017A018B01C0E0D0E0E5
:1001D000CE15DF0581F0D8016D918D01D601ED912D
:1001E000FC910190F081E02DC6011995892B11F049
:1001F0002196EECF7E01C701DF91CF911F910F9124
:10020000FF90EF90DF90CF900895089580E090E008
:100210000895FC01538D448D252F30E0842F90E00C
:10022000821B930B541710F0CF96089501970895F1
:10023000FC01918D828D981761F0828DDF01A80FEE
:10024000B11D5D968C91928D9F5F9F73928F90E010
:1002500008958FEF9FEF0895FC01918D828D98177F
:1002600031F0828DE80FF11D858D90E008958FEFBC
:100270009FEF0895FC01918D228D892F90E0805C85
:100280009F4F821B91098F739927089588E192E00F
:100290000E943A0121E0892B09F420E0822F089581
:1002A000FC01848DDF01A80FB11DA35ABF4F2C9113
:1002B000848D90E001968F739927848FA689B789E2
:1002C0002C93A089B1898C91837080648C93938DD9
:1002D000848D981306C00288F389E02D80818F7D7C
:1002E00080830895EF92FF920F931F93CF93DF9334
:1002F000EC0181E0888F9B8D8C8D981305C0E88977
:10030000F989808185FD26C0F62E0B8D10E00F5FE8
:100310001F4F0F731127E02E8C8DE8120CC00FB603
:1003200007FCFACFE889F989808185FFF5CFCE01F6
:100330000E945001F1CF8B8DFE01E80FF11DE35AB1
:10034000FF4FF0829FB7F8940B8FEA89FB89808179
:1003500080620AC09FB7F894EE89FF896083E889BC
:10036000F98980818370806480839FBF81E090E001
:10037000DF91CF911F910F91FF90EF900895CF9350
:10038000DF93EC01888D8823C9F0EA89FB8980819D
:1003900085FD05C0A889B9898C9186FD0FC00FB66F
:1003A00007FCF5CF808185FFF2CFA889B9898C91B0
:1003B00085FFEDCFCE010E945001E7CFDF91CF91B5
:1003C000089580E090E0892B21F00E944601811180
:1003D00025C080E090E0892B41F080E090E0892BFF
:1003E00021F00E94000081111CC080E090E0892B68
:1003F00041F080E090E0892B21F00E940000811103
:1004000013C080E090E0892BA1F080E090E0892B80
:1004100081F00E94000081110AC008950E9400002E
:10042000D8CF0E940000E1CF0E940000EACF0C94D8
:10043000000008950E94EA031F920F920FB60F92D8
:1004400011242F933F938F939F93AF93BF938091EA
:10045000B6029091B702A091B802B091B902309162
:10046000B50223E0230F2D3720F40196A11DB11D05
:1004700005C026E8230F0296A11DB11D2093B502E9
:100480008093B6029093B702A093B802B093B902DA
:100490008091BA029091BB02A091BC02B091BD02C2
:1004A0000196A11DB11D8093BA029093BB02A09347
:1004B000BC02B093BD02BF91AF919F918F913F91CC
:1004C0002F910F900FBE0F901F9018951F920F92B3
:1004D0000FB60F9211240BB60F922F933F934F93A9
:1004E0005F936F937F938F939F93AF93BF93EF939C
:1004F000FF9388E192E00E945001FF91EF91BF913C
:10050000AF919F918F917F916F915F914F913F91AB
:100510002F910F900BBE0F900FBE0F901F9018954C
:100520001F920F920FB60F9211240BB60F922F93BA
:100530008F939F93EF93FF93E0912802F09129020C
:100540008081E0912E02F0912F0282FD12C09081F5
:10055000809131028F5F8F7320913202821751F0A8
:10056000E0913102F0E0E85EFD4F958F809331021B
:1005700001C08081FF91EF919F918F912F910F90FA
:100580000BBE0F900FBE0F901F901895789484B5F6
:10059000826084BD84B5816084BD85B5826085BD7F
:1005A00085B5816085BD80916E00816080936E000D
:1005B00010928100809181008260809381008091FF
:1005C00081008160809381008091800081608093B0
:1005D00080008091B10084608093B1008091B00070
:1005E00081608093B000809191008260809391003F
:1005F0008091910081608093910080919000816052
:10060000809390008091A10082608093A1008091EE
:10061000A10081608093A1008091A00081608093FF
:10062000A0008091210182608093210180912101AD
:10063000816080932101809120018160809320015D
:1006400080917A00846080937A0080917A00826041
:1006500080937A0080917A00816080937A00809103
:100660007A00806880937A001092C100E09128029D
:10067000F091290282E08083E0912402F09125022A
:100680001082E0912602F09127028FEC8083109275
:100690003002E0912C02F0912D0286E08083E091FF
:1006A0002A02F0912B02808180618083E0912A02EE
:1006B000F0912B02808188608083E0912A02F09182
:1006C0002B02808180688083E0912A02F0912B02C6
:1006D00080818F7D808388E192E00E943A01181624
:1006E0001906CCF488E192E00E941801682F88E195
:1006F00092E00E94720142E050E062E172E088E123
:1007000092E00E94DB0041E050E065E172E088E1A8
:1007100092E00E94DB000E94B6004B015C0188EE73
:10072000C82E83E0D82EE12CF12C0E94B600DC010B
:10073000CB0188199909AA09BB09883E9340A105F4
:10074000B10598F321E0C21AD108E108F10888EE5A
:10075000880E83E0981EA11CB11CC114D104E104D1
:10076000F10419F70E94E101B6CFE8E1F2E013824B
:10077000128288EE93E0A0E0B0E084839583A683A4
:10078000B78384E092E09183808385EC90E0958745
:10079000848784EC90E09787868780EC90E0918B4B
:1007A000808B81EC90E0938B828B82EC90E0958B38
:1007B000848B86EC90E0978B868B118E128E138E35
:1007C000148E0895EE0FFF1F881F8BBF0790F691C0
:1007D000E02D199481E090E0F8940C94EF03F894E4
:0207E000FFCF49
:1007E200000000007201DB000901BF013A0118019B
:0807F2002C010D0A003100008A
:00000001FF
