:100000000C944C060C947D060C947D060C947D0695
:100010000C947D060C947D060C947D060C947D0654
:100020000C947D060C947D060C947D060C947D0644
:100030000C947D060C947D060C947D060C947D0634
:100040000C947D060C947D060C947D060C947D0624
:100050000C947D060C947D060C947D060C94D32E96
:100060000C947D060C9416280C94EC270C947D06B9
:100070000C947D060C947D060C947D060C947D06F4
:100080000C947D060C947D060C947D060C947D06E4
:100090000C94C2270C9498270C947D060C947D0632
:1000A0000C947D060C947D060C947D060C947D06C4
:1000B0000C947D060C947D060C947D060C947D06B4
:1000C0000C947D060C947D060C947D060C947D06A4
:1000D0000C947D060C947D060C947D060C947D0694
:1000E0000C947D06FB2DFE2DED2DF12DF52D352EDD
:1000F000022E062E0C2E102E142E1A2E1E2E222EFE
:10010000352E282E2C2E302E07634236B79BD8A7CB
:100110001A39685618AEBAAB558C1D3CB7CC57632C
:10012000BD6DEDFD753EF6177231BF000000803FDA
:1001300008000000BE922449123EABAAAA2ABECDF6
:10014000CCCC4C3E00000080BEABAAAAAA3E000068
:100150000000BF000000803F000000000008417860
:10016000D3BB4387D1133D190E3CC3BD4282AD2B97
:100170003E68EC8276BED98FE1A93E4C80EFFFBE8F
:1001800001C4FF7F3F00000000000C94B7260C94D0
:10019000F52D0C943F270C942C2E0C9460180C9485
:1001A000022E0C94142E0C9445150C94F12D0C94E5
:1001B000622C0C946C160C945C110C94352E0C94DF
:1001C00004140C94B1150C949E140C94722B0C9482
:1001D000C3180C941A2E0C94930F0C94A9260C940B
:1001E000AB110C94302E0C94313F0C94DE290C94FE
:1001F00058120C94282E0C94940F0C94C72C0C9429
:10020000FE2D0C94ED2D0C94F8260C9454120C94A5
:10021000062E0C94FC2B0C9486260C9495260C949C
:100220000C2E0C9452140C94222E0C94102E0C9420
:10023000E7160C941E2E0C9455120C94FB2D0C9466
:10024000A8122E89298F2B02E200E401E510E601B5
:10025000E710E870F200EA00EB20EC3CEDC8E9386A
:10026000F1011B1A1A022461255C183619011F8836
:10027000FF051F80FF051F90FF051FD4FF05170511
:1002800036092838FF28283C02000300040005EF47
:10029000060007000801093F0100B903FF8357FF6B
:1002A000FAB30400000606B60125B00168CC0105CA
:1002B000B10600151C1C83AAC0065050013C1E0844
:1002C000B4070240002A2A0D783A01553601C0359C
:1002D0000100440200021100FF962900FF321500C0
:1002E00030009A0010001100200010002834120085
:1002F000020013004610FF00280012001200FF0049
:1003000028001000203413004630FF004600300063
:1003100000003100020432000703330004033400FC
:1003200004003500010436000707370005033800D4
:10033000100639001006010000010200000303004E
:100340003010080008080A0008006000002761005B
:10035000010090003E019200000193000001A00006
:100360000030A30010000700010007002100070073
:100370002300070033000700330100000100FF00E5
:1003800032000100000102000007030030100400E9
:10039000000008000202090000000A0000000C0032
:1003A00000000D0000000F00000010000000110010
:1003B00007001200000013000000FF00C80010003A
:1003C000901611002702FF00320012001A00FF00F1
:1003D00032001300001829002A00FF00320030000C
:1003E0000000310000003200000035000602360037
:1003F00008083700070038000102390000003C00FF
:1004000000003D000000200000002100000050001E
:1004100000005100EF005200000053003F01600057
:1004200000A7610003006A00000090001000920025
:100430000000930003009500001197000000980051
:100440000000070033016D61746368657320746890
:1004500065207475746F7269616C2E00416C736FE6
:10046000206966207573696E672074686520627202
:1004700065616B6F75742C20646F75626C652D639C
:100480006865636B207468617420616C6C207769A7
:1004900072696E67004966207573696E67207468BB
:1004A0006520627265616B6F757420626F61726442
:1004B0002C2069742073686F756C64204E4F542033
:1004C00062652023646566696E6564210073686FE8
:1004D000756C642061707065617220696E2074684B
:1004E00065206C6962726172792068656164657209
:1004F0002028456C65676F6F5F5446542E68292E1F
:1005000000202023646566696E65205553455F456C
:100510006C65676F6F5F534849454C445F50494E67
:100520004F5554004966207573696E67207468657D
:1005300020456C65676F6F20322E38222054465458
:100540002041726475696E6F20736869656C642CF4
:1005500020746865206C696E653A00556E6B6E6F2D
:10056000776E204C4344206472697665722063681C
:1005700069703A2000466F756E64203078393332E6
:1005800038204C43442064726976657200466F756A
:100590006E6420307839333431204C434420647207
:1005A0006976657200466F756E6420485838333539
:1005B0003744204C43442064726976657200466F6C
:1005C000756E6420494C4939333431204C43442002
:1005D00064726976657200466F756E64204858389B
:1005E00033343747204C4344206472697665720087
:1005F000466F756E64204C47445034353335204C7B
:1006000043442064726976657200466F756E64209B
:10061000494C4939333238204C434420647269765E
:10062000657200466F756E6420494C493933323526
:10063000204C434420647269766572005573696E7C
:100640006720456C65676F6F20322E342220544638
:100650005420427265616B6F757420426F617264E1
:100660002050696E6F757400544654204C434420EA
:100670007465737400000020002300260029002CFC
:10068000002F0032000001000003010601090100F3
:10069000000000003E5B4F5B3E3E6B4F6B3E1C3EDE
:1006A0007C3E1C183C7E3C181C577D571C1C5E7FF2
:1006B0005E1C00183C1800FFE7C3E7FF0018241871
:1006C00000FFE7DBE7FF30483A060E2629792926A6
:1006D000407F050507407F05253F5A3CE73C5A7F90
:1006E0003E1C1C08081C1C3E7F14227F22145F5FE6
:1006F000005F5F06097F017F006689956A60606020
:10070000606094A2FFA29408047E040810207E205A
:100710001008082A1C08081C2A08081E10101010AF
:100720000C1E0C1E0C30383E3830060E3E0E0600F5
:100730000000000000005F00000007000700147FB9
:10074000147F14242A7F2A12231308646236495620
:1007500020500008070300001C2241000041221C19
:10076000002A1C7F1C2A08083E0808008070300000
:100770000808080808000060600020100804023E15
:100780005149453E00427F40007249494946214156
:10079000494D331814127F1027454545393C4A49C5
:1007A0004931412111090736494949364649492904
:1007B0001E00001400000040340000000814224114
:1007C0001414141414004122140802015909063E9D
:1007D000415D594E7C1211127C7F494949363E4198
:1007E0004141227F4141413E7F494949417F0909B9
:1007F00009013E414151737F0808087F00417F4154
:10080000002040413F017F081422417F404040408A
:100810007F021C027F7F0408107F3E4141413E7FE2
:10082000090909063E4151215E7F091929462649D9
:1008300049493203017F01033F4040403F1F2040B0
:10084000201F3F4038403F631408146303047804BA
:10085000036159494D43007F414141020408102082
:10086000004141417F0402010204404040404000F9
:100870000307080020545478407F28444438384403
:10088000444428384444287F385454541800087E7F
:10089000090218A4A49C787F0804047800447D40D1
:1008A000002040403D007F1028440000417F400070
:1008B0007C047804787C080404783844444438FC88
:1008C0001824241818242418FC7C0804040848540C
:1008D00054542404043F44243C4040207C1C2040C9
:1008E000201C3C4030403C44281028444C909090C0
:1008F0007C4464544C4400083641000000770000FA
:10090000004136080002010204023C2623263C1E58
:10091000A1A161123A4040207A38545455592155CA
:1009200055794122545478422155547840205455E9
:1009300079400C1E52721239555555593954545438
:100940005939555454580000457C410002457D42B8
:100950000001457C407D1211127DF0282528F07C95
:10096000545545002054547C547C0A097F4932492F
:100970004949323A4444443A324A4848303A41417B
:10098000217A3A42402078009DA0A07D3D4242421B
:100990003D3D4040403D3C24FF2424487E49436681
:1009A0002B2FFC2F2BFF0929F620C0887E0903205E
:1009B000545479410000447D413048484A3238401F
:1009C00040227A007A0A0A727D0D19317D26292982
:1009D0002F28262929292630484D40203808080884
:1009E0000808080808382F10C8ACBA2F102834FAA5
:1009F00000007B000008142A142222142A1408552F
:100A000000550055AA55AA55AAFF55FF55FF0000ED
:100A100000FF00101010FF00141414FF001010FF4E
:100A200000FF1010F010F0141414FC001414F70060
:100A3000FF0000FF00FF1414F404FC141417101F2F
:100A400010101F101F1414141F00101010F00000BD
:100A500000001F101010101F10101010F0100000D8
:100A600000FF101010101010101010FF10000000E8
:100A7000FF140000FF00FF00001F10170000FC041F
:100A8000F414141710171414F404F40000FF00F702
:100A900014141414141414F700F714141417141065
:100AA000101F101F141414F4141010F010F0000094
:100AB0001F101F0000001F14000000FC140000F0B5
:100AC00010F01010FF10FF141414FF141010101F5A
:100AD00000000000F010FFFFFFFFFFF0F0F0F0F06B
:100AE000FFFFFF0000000000FFFF0F0F0F0F0F3888
:100AF00044443844FC4A4A4A347E02020606027ED6
:100B0000027E0263554941633844443C04407E20E0
:100B10001E2006027E020299A5E7A5991C2A492AF1
:100B20001C4C7201724C304A4D4D30304878483080
:100B3000BC625A463D3E494949007E0101017E2A78
:100B40002A2A2A2A44445F444440514A44404044AB
:100B50004A51400000FF0103E080FF000008086BDD
:100B60006B083612362436060F090F0600001818D7
:100B70000000001010003040FF0101001F01011EA5
:100B800000191D1712003C3C3C3C00000000000016
:100B9000002100240027002A002D0030003300012E
:100BA000010000040107010A0101021020200808C9
:100BB00010204010204080020102010804020101BF
:100BC00002040810204080804020100804020180A8
:100BD00004020180402010080402010804020101FF
:100BE0000204081020408001020408102040800008
:100BF000002200250028002B002E003100340002C6
:100C0000010000050108010B0105050505070508A0
:100C1000080808020202020A0A080804040404017F
:100C200001010101010101030303030303030304A1
:100C30000707070C0C0C0C0C0C0C0C020202020631
:100C4000060606060606060B0B0B0B0B0B0B0B0022
:100C5000000A0B02090C0D0E080703040100000036
:100C60000000000000000000000000000000000084
:100C70000000000000000000000000121110000041
:100C80000000000000000000000000000000000064
:100C9000000000000000313F11241FBECFEFD1E261
:100CA000DEBFCDBF00E00CBF13E0A0E0B2E0E0E5A6
:100CB000FDE800E00BBF02C007900D92A639B10716
:100CC000D9F725E0A6E9B3E001C01D92A73BB20722
:100CD000E1F716E0CCE4D6E000E006C02197010978
:100CE000802FFE010E943A45CB34D10780E00807EF
:100CF000A9F70E9439310C94A6460C940000BF92CB
:100D0000CF92DF92EF92FF920F931F93CF93DF93D7
:100D1000EC017A01C901E98DFA8D30812DA12323DF
:100D20002083288D211134C52D89223089F023306C
:100D300021F1213079F5EFEEF0E09F01201B310B1E
:100D4000AB01EE19FF098C01CF017B01B90123C072
:100D50002FEE30E0D901A81BB90BC901861B970BF8
:100D60002FE331E0B901601B710B8901041B150BE6
:100D7000A801FC017B01BD010EC04FE351E09A01C7
:100D8000281B390B461B570BF701C8018A01B70115
:100D9000790101C0FB01AB8DBC8D3C912EA12323B9
:100DA0002C932091020127782093020120910201C7
:100DB000209302012EB1277C2EB92EB12EB9A59811
:100DC00024B324BBAD8DBE8D3C912FA123232C9346
:100DD000AD8DBE8D3C912BA1232B2C932091020134
:100DE00027782093020120910201286020930201BC
:100DF0002EB1277C2EB92EB12EB9A598A59AAD8D0E
:100E0000BE8D3C912FA123232C93AD8DBE8D3C91A3
:100E10002BA1232B2C93272F332727FD3A95CB8CFF
:100E2000DC8CD601BC90AAA1BA2AD601BC92A091B2
:100E30000201A778A0930201B0900201D901A07C21
:100E4000BB276D01B3E0D594C794BA95E1F7D901FA
:100E5000A370BB27689414F8AA0FBB1F1694E1F780
:100E6000AC29AB29A0930201AEB1A77CAEB9BEB04C
:100E7000D901AC70BB276D01CC0CDD1CCC0CDD1C8A
:100E8000D901A072BB27B595A795B595A795AC29B3
:100E9000AB29AEB9A598A4B320713327220F331F15
:100EA0002A2B24BBAD8DBE8D3C912FA123232C93E7
:100EB000AD8DBE8D3C912BA1232B2C932091020153
:100EC000277820930201A09102019B01207C332707
:100ED000690123E0D594C7942A95E1F79B0123701B
:100EE0003327B5E0220F331FBA95E1F72C292A2BBF
:100EF000209302012EB1277C2EB9AEB19B012C703C
:100F000033276901CC0CDD1CCC0CDD1C9B0120724D
:100F1000332735952795359527952C292A2B2EB9DA
:100F2000A598A4B39B0120713327220F331F2A2BCE
:100F300024BBAD8DBE8D3C912FA123232C93AD8D71
:100F4000BE8D3C912BA1232B2C93AB8DBC8D3C9162
:100F50002EA123232C9320910201277820930201B4
:100F600020910201209302012EB1277C2EB92EB1CF
:100F70002EB9A59824B324BBAD8DBE8D3C912FA175
:100F800023232C93AD8DBE8D3C912BA1232B2C9331
:100F9000209102012778209302012091020128620A
:100FA000209302012EB1277C2EB92EB12EB9A5981F
:100FB000A59AAD8DBE8D3C912FA123232C93AD8D91
:100FC000BE8D3C912BA1232B2C93292F332727FD5A
:100FD0003A95AB8DBC8D7C916AA1672B6C93609127
:100FE0000201677860930201A0910201B901607C5F
:100FF00077276B01B3E0D594C794BA95E1F7B901AF
:1010000063707727B5E0660F771FBA95E1F76C2913
:101010006A2B609302016EB1677C6EB9AEB1B90103
:101020006C7077276B01CC0CDD1CCC0CDD1CB9017E
:101030006072772775956795759567956C296A2B0A
:101040006EB9A59864B320713327220F331F262B66
:1010500024BBAD8DBE8D3C912FA123232C93AD8D50
:10106000BE8D3C912BA1232B2C932091020127783C
:1010700020930201609102019C01207C3327D90159
:1010800023E0B595A7952A95E1F79C0123703327B6
:1010900075E0220F331F7A95E1F72A2B262B209338
:1010A00002012EB1277C2EB96EB19C012C70332722
:1010B000D901AA0FBB1FAA0FBB1F9C0120723327A7
:1010C00035952795359527952A2B262B2EB9A5984A
:1010D00024B380719927880F991F822B84BBAD8D13
:1010E000BE8D9C918FA189238C93AD8DBE8D9C91DB
:1010F0008BA1892B8C93AB8DBC8D9C918EA1892368
:101100008C93809102018778809302018091020183
:10111000809302018EB1877C8EB98EB18EB9A5986D
:1011200084B384BBAD8DBE8D9C918FA189238C939C
:10113000AD8DBE8D9C918BA1892B8C9380910201EA
:101140008778809302018091020188648093020174
:101150008EB1877C8EB98EB18EB9A598A59AAD8DCA
:10116000BE8D9C918FA189238C93AD8DBE8D9C915A
:101170008BA1892B8C938F2D992787FD9A95AB8D09
:10118000BC8D3C912AA1232B2C932091020127781E
:1011900020930201609102019C01207C3327D90138
:1011A00023E0B595A7952A95E1F79C012370332795
:1011B00075E0220F331F7A95E1F72A2B262B209317
:1011C00002012EB1277C2EB96EB19C012C70332701
:1011D000D901AA0FBB1FAA0FBB1F9C012072332786
:1011E00035952795359527952A2B262B2EB9A59829
:1011F00024B380719927880F991F822B84BBAD8DF2
:10120000BE8D9C918FA189238C93AD8DBE8D9C91B9
:101210008BA1892B8C9380910201877880930201A6
:1012200020910201C701807C9927BC01B3E075952C
:101230006795BA95E1F7C7018370992735E0880F64
:10124000991F3A95E1F7862B822B809302018EB18C
:10125000877C8EB92EB1C7018C709927BC01660FAF
:10126000771F660F771FC70180729927959587951D
:1012700095958795862B822B8EB9A59884B3970177
:1012800020713327220F331F282B24BBAD8DBE8D39
:101290009C918FA189238C93AD8DBE8D9C918BA148
:1012A000892B8C93AB8DBC8D9C918EA189238C93C3
:1012B00080910201877880930201809102018093DE
:1012C00002018EB1877C8EB98EB18EB9A59884B398
:1012D00084BBAD8DBE8D9C918FA189238C93AD8DE8
:1012E000BE8D9C918BA1892B8C9380910201877874
:1012F00080930201809102018866809302018EB181
:10130000877C8EB98EB18EB9A598A59AAD8DBE8D0C
:101310009C918FA189238C93AD8DBE8D9C918BA1C7
:10132000892B8C93812F992787FD9A95AB8DBC8D46
:101330003C912AA1232B2C93209102012778209302
:101340000201609102019C01207C3327D90133E026
:10135000B595A7953A95E1F79C012370332775E081
:10136000220F331F7A95E1F72A2B262B20930201B7
:101370002EB1277C2EB96EB19C012C703327D90178
:10138000AA0FBB1FAA0FBB1F9C01207233273595E4
:101390002795359527952A2B262B2EB9A59824B36A
:1013A00080719927880F991F822B84BBAD8DBE8DCC
:1013B0009C918FA189238C93AD8DBE8D9C918BA127
:1013C000892B8C9380910201877880930201209170
:1013D0000201C801807C9927BC01B3E0759567952F
:1013E000BA95E1F7C8018370992735E0880F991FF6
:1013F0003A95E1F7862B822B809302018EB1877C90
:101400008EB92EB1C8018C709927BC01660F771F69
:10141000660F771FC80180729927959587959595D6
:101420008795862B822B8EB9A59884B300711127DE
:10143000000F111F082B04BBAD8DBE8D9C918FA199
:1014400089238C93AD8DBE8D9C918BA1892B8C9320
:10145000AB8DBC8D9C918EA189238C9380910201D0
:1014600087788093020180910201809302018EB1FE
:10147000877C8EB98EB18EB9A59884B384BBAD8DAF
:10148000BE8D9C918FA189238C93AD8DBE8D9C9137
:101490008BA1892B8C938091020187788093020124
:1014A00080910201809302018EB1877C8EB9739A7C
:1014B000A59884B384BBAD8DBE8D9C918FA18923EB
:1014C0008C93AD8DBE8D9C918BA1892B8C938F2F8E
:1014D000992787FD9A95AB8DBC8D3C912AA1232B32
:1014E0002C93209102012778209302016091020140
:1014F0009C01207C3327D90133E0B595A7953A9517
:10150000E1F79C012370332775E0220F331F7A9592
:10151000E1F72A2B262B209302012EB1277C2EB92E
:101520006EB19C012C703327D901AA0FBB1FAA0FE3
:10153000BB1F9C012072332735952795359527953C
:101540002A2B262B2EB9A59824B380719927880FB2
:10155000991F822B84BBAD8DBE8D9C918FA1892359
:101560008C93AD8DBE8D9C918BA1892B8C9380919A
:10157000020187788093020120910201CF01807CD3
:101580009927BC01A3E075956795AA95E1F7CF016E
:1015900083709927B5E0880F991FBA95E1F7862BDC
:1015A000822B809302018EB1877C8EB92EB1CF0140
:1015B0008C709927BC01660F771F660F771FCF01CC
:1015C000807299279595879595958795862B822B7F
:1015D0008EB9A59884B3E071FF27EE0FFF1FE82BAB
:1015E000E4BBED8DFE8D90818FA189238083ED8DED
:1015F000FE8D90818BA1892B8083EB8DFC8D90815A
:101600008EA18923808380910201877880930201D3
:1016100080910201809302018EB1877C8EB98EB1D8
:101620008EB9A59884B384BBED8DFE8D90818FA17A
:1016300089238083ED8DFE8D90818BA1892B808302
:10164000809102018778809302018091020180627B
:10165000809302018EB1877C8EB9739AA59884B36A
:1016600084BBED8DFE8D90818FA189238083ED8DCC
:10167000FE8D90818BA1892B8083852F992787FDF3
:101680009A95EB8DFC8D30812AA1232B208320910C
:101690000201277820930201609102019C01207CC5
:1016A0003327F90133E0F595E7953A95E1F79C0189
:1016B0002370332775E0220F331F7A95E1F72E2B25
:1016C000262B209302012EB1277C2EB96EB19C01EE
:1016D0002C703327F901EE0FFF1FEE0FFF1F9C0147
:1016E0002072332735952795359527952E2B262B58
:1016F0002EB9A59824B380719927880F991F822B42
:1017000084BBED8DFE8D90818FA189238083ED8D2B
:10171000FE8D90818BA1892B808380910201877837
:101720008093020120910201CA01807C9927BC01AB
:1017300003E0759567950A95E1F7CA0183709927CB
:1017400035E0880F991F3A95E1F7862B822B80931D
:1017500002018EB1877C8EB92EB1CA018C70992797
:10176000BC01660F771F660F771FCA018072992729
:101770009595879595958795862B822B8EB9A598FB
:1017800084B340715527440F551F482B44BB81C378
:10179000213009F08BC3272F332727FD3A95EB8D96
:1017A000FC8D50814EA14523408340910201477832
:1017B00040930201409102014064409302014EB106
:1017C000477C4EB94EB14EB9A59844B344BBED8D9C
:1017D000FE8D50814FA145234083ED8DFE8D5081BC
:1017E0004BA1452B4083EB8DFC8D50814AA1452BAD
:1017F000408340910201477840930201E091020149
:10180000A901407C5527DA0153E0B595A7955A9573
:10181000E1F7A90143705527F5E0440F551FFA95EC
:10182000E1F74A2B4E2B409302014EB1477C4EB953
:10183000EEB1A9014C705527DA01AA0FBB1FAA0F00
:10184000BB1FA9014072552755954795559547955A
:101850004A2B4E2B4EB9A59844B320713327220F43
:10186000331F242B24BBED8DFE8D30812FA123232C
:101870002083ED8DFE8D30812BA1232B2083EB8DDA
:10188000FC8D30812EA12323208320910201277813
:1018900020930201209102012066209302012EB1C3
:1018A000277C2EB92EB12EB9A59824B324BBED8D7B
:1018B000FE8D30812FA123232083ED8DFE8D30817D
:1018C0002BA1232B2083EB8DFC8D30812AA1232B90
:1018D0002083209102012778209302014091020188
:1018E0009B01207C3327F901B3E0F595E795BA9584
:1018F000E1F79B012370332755E0220F331F5A95E0
:10190000E1F72E2B242B209302012EB1277C2EB938
:101910004EB19B012C703327F901EE0FFF1FEE0F24
:10192000FF1F9B0120723327359527953595279505
:101930002E2B242B2EB9A59844B39B01207133275D
:10194000220F331F242B24BBED8DFE8D30812FA160
:1019500023232083ED8DFE8D30812BA1232B20832B
:101960002F2D332727FD3A95EB8DFC8D50814EA10D
:101970004523408340910201477840930201409102
:1019800002014064409302014EB1477C4EB9749A03
:10199000A59844B344BBED8DFE8D50814FA14523E6
:1019A0004083ED8DFE8D50814BA1452B4083EB8D07
:1019B000FC8D50814AA1452B40834091020147781C
:1019C0004093020160910201A901407C5527FA0170
:1019D00073E0F595E7957A95E1F7A90143705527EE
:1019E000F5E0440F551FFA95E1F74E2B462B409337
:1019F00002014EB1477C4EB96EB1A9014C7055271A
:101A0000FA01EE0FFF1FEE0FFF1FA90140725527CD
:101A100055954795559547954E2B462B4EB9A5980C
:101A200044B320713327220F331F242B24BBED8DA9
:101A3000FE8D30812FA123232083ED8DFE8D3081FB
:101A40002BA1232B2083EB8DFC8D30812EA1232312
:101A50002083209102012778209302012091020126
:101A60002066209302012EB1277C2EB9749AA59886
:101A700024B324BBED8DFE8D30812FA12323208341
:101A8000ED8DFE8D30812BA1232B2083EB8DFC8DE2
:101A900030812AA1232B20832091020127782093D3
:101AA0000201409102019701207C3327B901E3E054
:101AB00075956795EA95E1F7970123703327F5E06F
:101AC000220F331FFA95E1F7262B242B20930201D6
:101AD0002EB1277C2EB94EB197012C703327B90156
:101AE000660F771F660F771F970120723327359592
:101AF000279535952795262B242B2EB9A59844B3E9
:101B0000970120713327220F331F242B24BBED8D27
:101B1000FE8D30812FA123232083ED8DFE8D30811A
:101B20002BA1232B2083292F332727FD3A95EB8DDB
:101B3000FC8D50814EA1452340834091020147789E
:101B40004093020140910201409302014EB1477C53
:101B50004EB9749AA59844B344BBED8DFE8D508167
:101B60004FA145234083ED8DFE8D50814BA1452B28
:101B70004083EB8DFC8D50814AA1452B40834091E1
:101B8000020147784093020160910201A901407C63
:101B90005527FA0173E0F595E7957A95E1F7A901E4
:101BA00043705527F5E0440F551FFA95E1F74E2B8A
:101BB000462B409302014EB1477C4EB96EB1A9014C
:101BC0004C705527FA01EE0FFF1FEE0FFF1FA90102
:101BD0004072552755954795559547954E2B462B61
:101BE0004EB9A59844B320713327220F331F242BFD
:101BF00024BBED8DFE8D30812FA123232083ED8D1D
:101C0000FE8D30812BA1232B2083EB8DFC8D308129
:101C10002EA1232320832091020127782093020103
:101C2000209102012062209302012EB1277C2EB95F
:101C3000749AA59824B324BBED8DFE8D30812FA11D
:101C400023232083ED8DFE8D30812BA1232B208338
:101C5000EB8DFC8D30812AA1232B20832091020162
:101C6000277820930201409102019C01207C3327B8
:101C7000B901E3E075956795EA95E1F79C0123705A
:101C80003327F5E0220F331FFA95E1F7262B242B9B
:101C9000209302012EB1277C2EB94EB19C012C70ED
:101CA0003327B901660F771F660F771F9C012072DB
:101CB00033273595279535952795262B242B2EB937
:101CC000A59824B380719927880F991F822B84BB14
:101CD000ED8DFE8D90818FA189238083ED8DFE8D0A
:101CE00090818BA1892B8083812F992787FD9A95DD
:101CF000EB8DFC8D30812EA12323208320910201C6
:101D000027782093020120910201209302012EB135
:101D1000277C2EB9759AA59824B324BBED8DFE8D32
:101D200030812FA123232083ED8DFE8D30812BA1C7
:101D3000232B2083EB8DFC8D30812AA1232B208344
:101D400020910201277820930201409102019C0119
:101D5000207C3327B90153E0759567955A95E1F7D3
:101D60009C012370332775E0220F331F7A95E1F72A
:101D7000262B242B209302012EB1277C2EB94EB1A5
:101D80009C012C703327B901660F771F660F771FF0
:101D90009C01207233273595279535952795262B5D
:101DA000242B2EB9A59824B380719927880F991FE9
:101DB000822B84BBED8DFE8D90818FA18923808342
:101DC000ED8DFE8D90818BA1892B8083EB8DFC8D19
:101DD00090818EA1892380838091020187788093EE
:101DE0000201809102018062809302018EB1877CA2
:101DF0008EB9759AA59884B384BBED8DFE8D9081C4
:101E00008FA189238083ED8DFE8D90818BA1892BFD
:101E10008083EB8DFC8D90818AA1892B80838091BA
:101E2000020187788093020120910201C801807C21
:101E30009927AC01B3E055954795BA95E1F7C801EC
:101E40008370992735E0880F991F3A95E1F7842B25
:101E5000822B809302018EB1877C8EB92EB1C8018E
:101E60008C709927AC01440F551F440F551FC801B2
:101E7000807299279595879595958795842B822BC8
:101E80008EB9A59884B300711127000F111F082B7C
:101E900004BBED8DFE8D90818FA189238083ED8D14
:101EA000FE8D90818BA1892B80832DC02250223002
:101EB00050F5AB01770F660B770BBA015527442716
:101EC000092E000CAA0BBB0B9A01AB01282B392B56
:101ED0004A2B5B2B6AE2CE010E944028C701FF0C0F
:101EE000AA0BBB0BBC0155274427C801110FAA0B35
:101EF000BB0B9A01AB01282B392B4A2B5B2B6BE2D6
:101F0000CE010E944028E98DFA8D908189A1892B0C
:101F10008083DF91CF911F910F91FF90EF90DF9021
:101F2000CF90BF90089508952F923F924F925F9265
:101F30006F927F928F929F92AF92BF92CF92DF92D9
:101F4000EF92FF920F931F93CF93DF93CDB7DEB73E
:101F50002D970FB6F894DEBF0FBECDBF9D878C873F
:101F60006A30A1F4DC0154962C9154971E968D9101
:101F70009C911F97B8E02B9F800D911D1124EC853B
:101F8000FD859787868715861486FBC06D3009F41A
:101F9000F8C0AC85BD855496BC91B983EC85FD85B0
:101FA0000288F389E02DFD83EC83AC85BD855096D6
:101FB0000D90BC91A02DBF83AE83EC85FD858684FA
:101FC0009784C484D58480859185C816D906C4F0C9
:101FD000AC85BD8554964C915497242F30E01C96C7
:101FE0008D919C911D97B6E04B9F800D911D112402
:101FF000EC85FD8595878487468941119EC0C1C0C7
:10200000AC85BD851A968D919C911B978816990673
:10201000FCF6B981AB2EB12CC601E6E0BE9F800D67
:10202000911D1124181619069CF6C50123E0880F8E
:10203000991F2A95E1F7880D991D1816190644F67F
:10204000AC85BD8557968C91811103C0603B08F02B
:102050006F5FB5E06B9FB001112416011A82FB017E
:10206000EC19FD09F987E8879401285F3F4F3B870A
:102070002A873A81353049F0E885F985E20DF31D6C
:10208000E157F94F54915B8301C01B822401340155
:102090008B8180FF13C0AC85BD85ED91FC91B9812A
:1020A000B13031F40084F185E02D2E813F8119C0DB
:1020B0000288F389E02DEE80FF801EC0EC81FD8157
:1020C0002E813F81E217F307F1F0AC85BD85ED91DC
:1020D000FC91B981B13059F40084F185E02D2C8157
:1020E0003D81A301B1018C859D8519950CC00288A5
:1020F000F389E02DEC80FD8085019501A201B601F8
:102100008C859D851995EB81E695EB83FFEF6F1A22
:102110007F0A4A0C5B1C2A853B856216730609F010
:10212000B7CF3A813F5F3A835FEF251A350ACA0C71
:10213000DB1C363009F09DCF4BCF4AEF4203B00194
:10214000439F700D1124AC85BD8518964D915C910F
:102150001997460F571F481759079CF483E0220F21
:10216000331F8A95E1F71E968D919C911F97280F3A
:10217000391F1F963C932E931E971D961C921E92FC
:102180001C9781E090E02D960FB6F894DEBF0FBE4D
:10219000CDBFDF91CF911F910F91FF90EF90DF9016
:1021A000CF90BF90AF909F908F907F906F905F90F7
:1021B0004F903F902F900895EF92FF920F931F93AF
:1021C000DC01ED91FC9111971A960D911C911B97D2
:1021D00018962D913C9119970288F389E02D7B0187
:1021E00040E050E060E070E019951F910F91FF9082
:1021F000EF9008956F927F928F929F92AF92BF92CD
:10220000CF92DF92EF92FF920F931F93CF93DF93C2
:102210006C015A014801EB013B01620E731EC615A9
:10222000D70574F4D601ED91FC910484F585E02D79
:1022300087019401A501BE01C60119952196EFCF32
:10224000DF91CF911F910F91FF90EF90DF90CF9092
:10225000BF90AF909F908F907F906F900895EF9276
:10226000FF920F931F93DC01ED91FC91260F371F16
:10227000215031090284F385E02D78018A011995F6
:102280001F910F91FF90EF900895EF92FF920F939F
:102290001F937801DC01ED91FC91240F351F89011A
:1022A000015011090284F385E02D9B0119951F91BE
:1022B0000F91FF90EF9008956F927F928F929F926F
:1022C000AF92BF92CF92DF92EF92FF920F931F9344
:1022D000CF93DF93EC014B015A0169013801E8818A
:1022E000F9810684F785E02D87011995E881F98148
:1022F000A501460D571D415051090684F785E02D73
:102300009601B401CE011995E881F9810484F5851F
:10231000E02D9301A501B401CE011995E881F98161
:10232000C80CD91CB601615071090484F585E02DF3
:102330009301A501CE011995DF91CF911F910F91C6
:10234000FF90EF90DF90CF90BF90AF909F908F90D5
:102350007F906F9008952F923F924F925F926F926D
:102360007F928F929F92AF92BF92CF92DF92EF9225
:10237000FF920F931F93CF93DF9300D0CDB7DEB7BB
:102380004C017B836A836A01590117019801241B60
:10239000350B37FF03C0319521953109C5014A81BD
:1023A0005B81841B950B97FF03C0919581959109E3
:1023B00051E059838217930714F019820BC09A2DAC
:1023C0008B2D5801092F182F9A818B81DB82CA82AD
:1023D000C92ED82E8A819B81A816B9065CF49C2D43
:1023E0008D2D6801092F182F9A818B81BB82AA82BB
:1023F000A92EB82E2501AA81BB814A1A5B0A380191
:102400006C187D0877FE03C07194619471087201A5
:1024100057FE03C0BFEFEB1AFB0AF594E794C01612
:10242000D1061CF00FEF1FEF1FC001E010E01CC031
:10243000D401ED91FC91B9810084F185E02D9101E9
:10244000BB23C1F04A815B81B601C4011995E6182E
:10245000F708F7FE04C0C00ED11EE40CF51CEA819B
:10246000FB813196FB83EA834A815B81A416B50622
:10247000FCF604C0A6016A817B81E7CF0F900F9024
:102480000F90DF91CF911F910F91FF90EF90DF9010
:10249000CF90BF90AF909F908F907F906F905F9004
:1024A0004F903F902F900895089580E090E0089518
:1024B000CF92DF92EF92FF92CF93DF93FC01C6851C
:1024C000D785209104023091050287EB9AE0289F7E
:1024D000B001299F700D389F700D11246D5D784EED
:1024E0007093050260930402072E000C880B990B71
:1024F0000E9413426B017C0120E030E0A9010E94A0
:10250000644187FF0AC02AE635ED4CE45DE4C7016B
:10251000B6010E94F8406B017C012AE635ED4CE4DF
:102520005DE4C701B6010E94694120E030E048EA5D
:1025300051E40E9420430E94DB416A507109798373
:102540006883DF91CF91FF90EF90DF90CF90089557
:10255000CF92DF92EF92FF920F931F93CF93DF936F
:10256000EC0110928D0510928C0510928F0510923F
:102570008E0584E080939405EA85FB8580819181B6
:10258000892BE1F180E098EF909393058093920579
:10259000909391058093900561E672E080E895E064
:1025A0000E94442F0E94C72E609316047093170454
:1025B0008093180490931904209114043091150409
:1025C000232BE1F46B017C0128E9C20E2AE3D21E21
:1025D000E11CF11C0E94C72E6C157D058E059F0520
:1025E00068F487EB94E00E9495261816190694F774
:1025F00081E090E09093150480931404EE81FF81B4
:10260000808191818B309105E8F420911204309102
:102610001304223031056CF010929305109292054C
:1026200010929105109290051092130410921204CA
:102630002DC02F5F3F4F309313042093120480E08E
:1026400098EF1CC0C397C0F420911204309113047A
:102650002130310509F380E09CEF9093930580933E
:10266000920590939105809390052F5F3F4F309393
:102670001304209312040AC080EE97E09093930510
:1026800080939205909391058093900566E672E0A1
:1026900080E895E00E94442F80E895E00E94322F68
:1026A000E885F985808191818B309105B8F480911E
:1026B000100490911104823091056CF010929305F2
:1026C00010929205109291051092900510921104AB
:1026D0001092100426C020E038EF0BC0C397B8F466
:1026E00080911004909111048130910539F320E01C
:1026F0003CEF3093930520939205309391052093FE
:102700009005019690931104809310040AC080EE06
:1027100097E0909393058093920590939105809311
:1027200090056EE672E080E895E00E94442F80E814
:1027300095E00E94322F8091140490911504892B0A
:1027400009F059C080910E0490910F04059754F53B
:10275000C0E0D0E000E018EF10928D0510928C05DB
:1027600010928F0510928E05C0FD09C0109293053E
:1027700010929205109291051092900508C0109346
:10278000930500939205109391050093900563E7DC
:1027900072E080E895E00E94442F2196CA30D1056E
:1027A000D9F618C010928D0510928C0510928F05E5
:1027B00010928E0580E098EF909393058093920598
:1027C000909391058093900563E772E080E895E02F
:1027D0000E94442F80910E0490910F048A3091053D
:1027E0002CF010920F0410920E0405C001969093E5
:1027F0000F0480930E04DF91CF911F910F91FF90F2
:10280000EF90DF90CF900895CF92DF92EF92FF92FA
:10281000CF93DF93EC018FE792E00E94121F0E949A
:10282000C72E6B017C01609316047093170480938C
:102830001804909319040E94C72EAB01BC014C19D7
:102840005D096E097F09403D57406105710598F3A8
:1028500087EB94E00E94322F87EB94E00E9495264C
:102860008936910519F4E881F98105C0843691050E
:1028700069F4EA81FB8181E090E091838083DF91BC
:10288000CF91FF90EF90DF90CF9008956AE972E0CA
:1028900087EB94E0DF91CF91FF90EF90DF90CF90A6
:1028A0000C94442FCF92DF92EF92FF920E94C72E9A
:1028B0006B017C01609316047093170480931804D5
:1028C000909319040E94C72EDC01CB018C199D093D
:1028D000AE09BF09803D9740A105B10598F387EB8C
:1028E00094E00E94322F87EB94E00E9495269C0191
:1028F0002B7F22363105A9F08237910591F09C019A
:10290000277F2436310569F08836910551F06AE950
:1029100072E087EB94E0FF90EF90DF90CF900C9403
:10292000442F682F87EB94E00E94F82681EB92E019
:10293000FF90EF90DF90CF900C94121FCF93DF9316
:10294000EC0162EC72E087EB94E00E94442FEE8190
:10295000FF81808191818536910528F084ED92E098
:102960000E94121F04C06AE070E00E948D1F67ED94
:1029700072E087EB94E00E94442FE885F9856AE0D5
:1029800070E0808191810E948D1F66EE72E087EB7E
:1029900094E00E94442FEA85FB856AE070E0808124
:1029A00091810E948D1F6BEF72E087EB94E00E9493
:1029B000442FEC85FD856AE070E0808191810E9462
:1029C0008D1F6FE073E087EB94E00E94442FEC8151
:1029D000FD8180819181892B19F082E293E002C010
:1029E00085E293E00E94121F87EB94E00E94322F51
:1029F0008091980390919903892B21F089E293E0CB
:102A00000E94121F8091960390919703892B21F0C9
:102A100080E393E00E94121FEE81FF81808191810B
:102A2000EA81FB81C29748F481E090E09183808342
:102A300088E393E00E94121F02C011821082E88591
:102A4000F98580819181E881F981C29748F481E01C
:102A500090E09183808384E493E00E94121F02C07F
:102A6000118210826DE473E087EB94E00E94442FA2
:102A7000E0916C05F0916D050190F081E02D808171
:102A80009181DF91CF910C94CC1FEF92FF920F9325
:102A90001F93CF93DF93CDB7DEB7A0970FB6F8940F
:102AA000DEBF0FBECDBF7C010FE010E082E40E94CC
:102AB000492E9AA389A301501109C1F7D701ED91BD
:102AC000FC91CE01019691838083A0960FB6F89475
:102AD000DEBF0FBECDBFDF91CF911F910F91FF9051
:102AE000EF900895AF92BF92CF92DF92EF92FF9254
:102AF0000F931F93CF93DF936B017C01C0E0D0E075
:102B000000E010E0CC15DD0504F5F701A190B190CF
:102B10007F01BE010D2E000C880B990B0E94134201
:102B20009B01AC0160E070E080E090E40E948D4386
:102B30000E94DB41A69E9001A79E300DB69E300DEF
:102B40001124020F131F2196DDCFC801DF91CF9111
:102B50001F910F91FF90EF90DF90CF90BF90AF90BB
:102B60000895AF92BF92CF92DF92EF92FF920F93B0
:102B70001F93CF93DF93CDB7DEB768970FB6F89466
:102B8000DEBF0FBECDBF6C01DC01ED91FC91E0809A
:102B9000F18088EC90E00E9474458C01FC01B096B5
:102BA0002FE030E0C701022E02C0959587950A9468
:102BB000E2F781709927929382932150310990F71F
:102BC000F801E280F38080819181E82AF92A8481EA
:102BD0009581E82AF92A86819781E82AF92A808551
:102BE00091859A8B898B828593859C8B8B8B848531
:102BF00095859E8B8D8B86859785988F8F8B64E0CE
:102C000070E0CE0141960E9472155C01D801509689
:102C10008D919C9151979A83898352968D919C9125
:102C200053979C838B8354968D919C9155979E834B
:102C30008D8356968D919C91579798878F83589640
:102C40008D919C9159979A8789875A968D919C91DD
:102C50005B979C878B875C968D919C915D979E87F7
:102C60008D875E968D919C915F97988B8F8768E09A
:102C700070E0CE0101960E947215EF28E1F0892BD9
:102C8000D1F0D6011296ED91FC91139720813181FC
:102C90001216130684F4BEE0AB16B10411F0AB2893
:102CA00051F0253031051CF41182108204C02550EA
:102CB00031093183208368960FB6F894DEBF0FBECA
:102CC000CDBFDF91CF911F910F91FF90EF90DF90DB
:102CD000CF90BF90AF900895CF92DF92EF92FF9286
:102CE000CF93DF93EC010E94682E609306047093EB
:102CF000070480930804909309046B017C0128E584
:102D0000C20E22E0D21EE11CF11C0E94682EC616E3
:102D1000D706E806F906C8F383E40E94492E25E0A9
:102D2000AC01249FC001259F900D11246FEF73E02B
:102D30000E940445072E000C880B990B0E94134239
:102D400026E636E646EE50E40E9420430E944E42BC
:102D500025E83BEE41E350E40E9420430E944E42AE
:102D60000E94E241EE81FF8171836083E881F981F5
:102D70004081518141305105D1F4603671054CF0EC
:102D8000EC81FD8151834083EA85FB8511821082AD
:102D900017C06233710528F0635371096C327105F5
:102DA00078F4EA85FB8580819181029607C06B30BB
:102DB000710534F4EA81FB8181E090E091838083A6
:102DC000DF91CF91FF90EF90DF90CF9008958F9299
:102DD0009F92AF92BF92CF92DF92EF92FF920F93AA
:102DE0001F93CF93DF93EC0181E090E09093050473
:102DF000809304040091020210910302EE81FF818E
:102E000080819181019769F4C8014996853F21E04D
:102E1000920714F084EF91E09093030280930202F2
:102E20000EC0E885F98580819181019751F4C80130
:102E3000499797FFF1CF109203021092020211827C
:102E40001082AA85BB858D919C911197843691053E
:102E500008F04DC00E94C72E4B015C018DE20E941C
:102E6000AD1F61E08DE20E94CC2DC0900202D09097
:102E700003020D2C000CEE08FF08C80CD91CEA1C3C
:102E8000FB1C0E94C72EC616D706E806F90668F393
:102E90000E94C72E4B015C016093160470931704C7
:102EA00080931804909319048DE20E94AD1F60E096
:102EB0008DE20E94CC2D84EF91E06C01C01AD10A02
:102EC0000D2C000CEE08FF08C80CD91CEA1CFB1CDA
:102ED0000E94C72EC616D706E806F906C8F3EA858B
:102EE000FB858081918101969183808321C04A81F5
:102EF0005B81FA012081318188819981232B31F016
:102F000021E030E0FC013183208303C0FC01118209
:102F100010821D921C92FA0111821082EC81FD81B7
:102F2000118210828AEF90E0909303028093020254
:102F300087EB94E00E94322F63E673E087EB94E026
:102F40000E94442FEA85FB856AE070E080819181D0
:102F50000E948D1F62E773E087EB94E00E94442F8C
:102F60006091020270910302072E000C880B990BEE
:102F700097FF03C00E94661F03C04AE00E94231F00
:102F800080E893E00E94121F87EB94E0DF91CF91DD
:102F90001F910F91FF90EF90DF90CF90BF90AF9077
:102FA0009F908F900C94322FCF92DF92EF92FF92EE
:102FB000CF93DF93C0910C04D0910D0480910A044B
:102FC00090910B04209729F46091A8037091A903B4
:102FD00007C0FE01EE0FFF1FE856FC4F60817181B4
:102FE000681B790B77FF03C0719561957109072EF6
:102FF000000C880B990B2097B9F50E9413426B01C6
:103000007C018091A8039091A903BC0180E090E02D
:103010000E9411422DEC3CEC4CEC5DE30E942043FD
:103020009B01AC01C701B6010E941B4318160CF0AE
:1030300040C083E893E00E94121F80910C0490919D
:103040000D04FC01EE0FFF1FE656FC4F20910A0411
:1030500030910B0431832083873091052CF110923D
:103060000D0410920C0425C00E9413426B017C01D8
:10307000CC0FDD1FC856DC4F88819981BC0180E0F0
:1030800090E00E9411422DEC3CEC4CEC5DE30E9480
:1030900020439B01AC01C701B6010E941B431816D7
:1030A00044F489E893E0C7CF019690930D04809390
:1030B0000C04DF91CF91FF90EF90DF90CF900895B7
:1030C0000F931F93CF93DF93EC01EBEEFBE0649142
:1030D000EBE4FCE0E491F0E0EE0FFF1FEB58F94F5A
:1030E0008591949100E412E42FE030E0462F0E9495
:1030F000F430611571058105910549F0DC01CB01C2
:103100000196A11DB11DBC01CD019F7003C060E0FF
:1031100070E0CB010E9411420E944E420E94DB41AE
:10312000072E000C880B990B0E9413422EE63FEDF0
:103130004BE25FE30E9420430E944E420E94DB412B
:10314000613D47E074071CF080ED97E00AC06436EB
:1031500071052CF070930B0460930A0406C084E69A
:1031600090E090930B0480930A04E881F9818091A8
:103170000A0490910B0491838083DF91CF911F917A
:103180000F910C94D417EF92FF920F931F93CF934C
:10319000DF93EC01790177FD3EC657FD3CC688857B
:1031A0009985681779070CF036C68A859B8548177C
:1031B00059070CF030C6E98DFA8D90818DA18923D5
:1031C0008083888D811192C28D89823059F083303D
:1031D000B1F08130D1F48FEE90E0841B950BAB0100
:1031E000BC0113C08FEE90E09C01261B370BB90188
:1031F0008FE391E09C01241B350BA90106C08FE3EE
:1032000091E0861B970BBA01AC01EB8DFC8D908190
:103210008EA18923808380910201877880930201A7
:1032200080910201809302018EB1877C8EB98EB1AC
:103230008EB9A59884B384BBED8DFE8D90818FA14E
:1032400089238083ED8DFE8D90818BA1892B8083D6
:10325000809102018778809302018091020180931E
:1032600002018EB1877C8EB9739AA59884B384BB12
:10327000ED8DFE8D90818FA189238083ED8DFE8D54
:1032800090818BA1892B8083872F992787FD9A9521
:10329000EB8DFC8D30812AA1232B2083209102010C
:1032A000277820930201E09102019C01207C3327C2
:1032B000D901F3E0B595A795FA95E1F79C01237044
:1032C0003327B5E0220F331FBA95E1F72A2B2E2BB7
:1032D000209302012EB1277C2EB9EEB19C012C70F7
:1032E0003327D901AA0FBB1FAA0FBB1F9C01207255
:1032F000332735952795359527952A2B2E2B2EB9D3
:10330000A59824B380719927880F991F822B84BBBD
:10331000ED8DFE8D90818FA189238083ED8DFE8DB3
:1033200090818BA1892B8083809102018778809383
:10333000020120910201CB01807C9927FC01A3E0CE
:10334000F595E795AA95E1F7CB0183709927B5E04C
:10335000880F991FBA95E1F78E2B822B809302017B
:103360008EB1877C8EB92EB1CB018C709927FC0170
:10337000EE0FFF1FEE0FFF1FCB018072992795956F
:103380008795959587958E2B822B8EB9A59884B3BA
:1033900060717727660F771F682B64BBED8DFE8DFC
:1033A00090818FA189238083ED8DFE8D90818BA1EB
:1033B000892B8083EB8DFC8D90818EA18923808366
:1033C00080910201877880930201809102018093AD
:1033D00002018EB1877C8EB98EB18EB9A59884B367
:1033E00084BBED8DFE8D90818FA189238083ED8D2F
:1033F000FE8D90818BA1892B80838091020187783B
:1034000080930201809102018062809302018EB15B
:10341000877C8EB9739AA59884B384BBED8DFE8D9D
:1034200090818FA189238083ED8DFE8D90818BA16A
:10343000892B8083852F992787FD9A95EB8DFC8DAD
:1034400030812AA1232B2083209102012778209309
:103450000201609102019C01207C3327F90133E0D5
:10346000F595E7953A95E1F79C012370332775E0D0
:10347000220F331F7A95E1F72E2B262B2093020182
:103480002EB1277C2EB96EB19C012C703327F90127
:10349000EE0FFF1FEE0FFF1F9C01207233273595A3
:1034A0002795359527952E2B262B2EB9A59824B335
:1034B00080719927880F991F822B84BBED8DFE8D1B
:1034C00090818FA189238083ED8DFE8D90818BA1CA
:1034D000892B80838091020187788093020120915B
:1034E0000201CA01807C9927BC0103E075956795AC
:1034F0000A95E1F7CA018370992735E0880F991F73
:103500003A95E1F7862B822B809302018EB1877C5E
:103510008EB92EB1CA018C709927BC01660F771F36
:10352000660F771FCA0180729927959587959595A3
:103530008795862B822B8EB9A59884B34071552729
:10354000440F551F482B44BBED8DFE8D90818FA1FC
:1035500089238083ED8DFE8D90818BA1892B8083C3
:10356000EB8DFC8D90818EA1892380838091020157
:1035700087788093020180910201809302018EB1CD
:10358000877C8EB98EB18EB9A59884B384BBED8D3E
:10359000FE8D90818FA189238083ED8DFE8D90819A
:1035A0008BA1892B8083809102018778809302010F
:1035B000809102018064809302018EB1877C8EB974
:1035C000739AA59884B384BBED8DFE8D90818FA1F5
:1035D00089238083ED8DFE8D90818BA1892B808343
:1035E000EB8DFC8D90818AA1892B808380910201D3
:1035F000877880930201409102018F2D99279C01C9
:10360000207C3327B90113E0759567951A95E1F78A
:103610009C012370332705E0220F331F0A95E1F741
:10362000262B242B209302012EB1277C2EB94EB1DC
:103630009C012C703327B901660F771F660F771F27
:103640009C01207233273595279535952795262B94
:10365000242B2EB9A59824B380719927880F991F20
:10366000822B84BBED8DFE8D90818FA18923808379
:10367000ED8DFE8D90818BA1892B8083809102013D
:1036800087788093020120910201C701807C9927ED
:10369000AC0173E0559547957A95E1F7C7018370C2
:1036A0009927E5E0880F991FEA95E1F7842B822B93
:1036B000809302018EB1877C8EB92EB1C7018C70C8
:1036C0009927AC01440F551F440F551FC701807245
:1036D00099279595879595958795842B822B8EB9FB
:1036E000A59884B330E1E322FF24CFC2813009F0F2
:1036F000CFC2ED89E150E33028F4F0E0E45FFD4F04
:10370000808101C080E0EB8DFC8D20819EA1922301
:103710009083909102019778909302019091020119
:103720009064909302019EB1977C9EB9749AA5987B
:10373000A59AED8DFE8D20819FA192239083ED8D22
:10374000FE8D20819BA1922B9083EB8DFC8D20819F
:103750009AA1922B90839091020197789093020105
:1037600020910201982F907C969596959695922B94
:10377000909302019EB1977C9EB92EB1982F9072C2
:10378000892F90E09595879595958795822B8EB991
:10379000A59884B384BBED8DFE8D90818FA1892384
:1037A0008083ED8DFE8D90818BA1892B8083872F67
:1037B000992787FD9A95EB8DFC8D30812EA12323CF
:1037C0002083209102012778209302012091020199
:1037D0002064209302012EB1277C2EB92EB12EB980
:1037E000A59824B324BBED8DFE8D30812FA123231A
:1037F0002083ED8DFE8D30812BA1232B2083EB8D3B
:10380000FC8D30812AA1232B20832091020127786F
:1038100020930201E09102019C01207C3327D90111
:1038200013E0B595A7951A95E1F79C01237033270E
:1038300005E0220F331F0A95E1F72A2B2E2B209348
:1038400002012EB1277C2EB9EEB19C012C703327DA
:10385000D901AA0FBB1FAA0FBB1F9C0120723327DF
:1038600035952795359527952A2B2E2B2EB9A5987A
:1038700024B380719927880F991F822B84BBED8D0B
:10388000FE8D90818FA189238083ED8DFE8D9081A7
:103890008BA1892B8083EB8DFC8D90818EA1892358
:1038A00080838091020187788093020180910201D8
:1038B0008066809302018EB1877C8EB98EB18EB9FD
:1038C000A59884B384BBED8DFE8D90818FA1892353
:1038D0008083ED8DFE8D90818BA1892B8083EB8D74
:1038E000FC8D90818AA1892B808380910201877849
:1038F0008093020120910201CB01807C9927FC0179
:10390000B3E0F595E795BA95E1F7CB018370992778
:1039100015E0880F991F1A95E1F78E2B822B809363
:1039200002018EB1877C8EB92EB1CB018C709927A4
:10393000FC01EE0FFF1FEE0FFF1FCB0180729927D6
:1039400095958795959587958E2B822B8EB9A59801
:1039500084B360717727660F771F682B64BBED8D8A
:10396000FE8D90818FA189238083ED8DFE8D9081C6
:103970008BA1892B8083852F992787FD9A95EB8DC5
:10398000FC8D30812EA123232083209102012778F2
:1039900020930201209102012064209302012EB1A4
:1039A000277C2EB9749AA59824B324BBED8DFE8D87
:1039B00030812FA123232083ED8DFE8D30812BA11B
:1039C000232B2083EB8DFC8D30812AA1232B208398
:1039D00020910201277820930201609102019C014D
:1039E000207C3327F901A3E0F595E795AA95E1F747
:1039F0009C0123703327B5E0220F331FBA95E1F7FE
:103A00002E2B262B209302012EB1277C2EB96EB1CE
:103A10009C012C703327F901EE0FFF1FEE0FFF1FE3
:103A20009C012072332735952795359527952E2BA8
:103A3000262B2EB9A59824B380719927880F991F3A
:103A4000822B84BBED8DFE8D90818FA18923808395
:103A5000ED8DFE8D90818BA1892B8083EB8DFC8D6C
:103A600090818EA189238083809102018778809341
:103A70000201809102018066809302018EB1877CF1
:103A80008EB9749AA59884B384BBED8DFE8D908118
:103A90008FA189238083ED8DFE8D90818BA1892B51
:103AA0008083EB8DFC8D90818AA1892B808380910E
:103AB000020187788093020120910201CA01807C73
:103AC0009927BC01E3E075956795EA95E1F7CA018E
:103AD00083709927F5E0880F991FFA95E1F7862BF7
:103AE000822B809302018EB1877C8EB92EB1CA01E0
:103AF0008C709927BC01660F771F660F771FCA016C
:103B0000807299279595879595958795862B822B19
:103B10008EB9A59884B340715527440F551F482B83
:103B200044BBED8DFE8D90818FA189238083ED8D27
:103B3000FE8D90818BA1892B8083EB8DFC8D9081F4
:103B40008EA189238083809102018778809302016E
:103B5000809102018064809302018EB1877C8EB9CE
:103B6000739AA59884B384BBED8DFE8D90818FA14F
:103B700089238083ED8DFE8D90818BA1892B80839D
:103B8000EB8DFC8D90818AA1892B8083809102012D
:103B9000877880930201409102018F2D99279C0123
:103BA000207C3327B90123E0759567952A95E1F7C5
:103BB0009C012370332755E0220F331F5A95E1F7FC
:103BC000262B242B209302012EB1277C2EB94EB137
:103BD0009C012C703327B901660F771F660F771F82
:103BE0009C01207233273595279535952795262BEF
:103BF000242B2EB9A59824B380719927880F991F7B
:103C0000822B84BBED8DFE8D90818FA189238083D3
:103C1000ED8DFE8D90818BA1892B80838091020197
:103C200087788093020120910201C701807C992747
:103C3000AC01B3E055954795BA95E1F7C70183709C
:103C4000992715E0880F991F1A95E1F7842B822B8D
:103C5000809302018EB1877C8EB92EB1C7018C7022
:103C60009927AC01440F551F440F551FC70180729F
:103C700099279595879595958795842B822B8EB955
:103C8000A59884B390E1E922FF24EE0CFF1CAFC09D
:103C90008250823008F0B9C00A851B850150110995
:103CA0002885398521503109CE010E947F06E98D92
:103CB000FA8D90818DA189238083EB8DFC8D90817D
:103CC0008EA18923808380910201877880930201ED
:103CD00080910201809302018EB1877C8EB98EB1F2
:103CE00088638EB9A59884B384BBED8DFE8D9081D9
:103CF0008FA189238083ED8DFE8D90818BA1892BEF
:103D00008083EB8DFC8D90818AA1892B80838091AB
:103D10000201877880930201409102018F2D99273B
:103D20009C01207C332753E0369527955A95E1F77F
:103D3000382F33703295330F307E232B242B209372
:103D400002012EB1277C2EB94EB1282F2C70522F94
:103D5000550F550F9C0120723327369527953695C0
:103D60002795252B242B2EB9A59894B38071880F05
:103D7000892B84BBED8DFE8D90818FA1892380835B
:103D8000ED8DFE8D90818BA1892B80838091020126
:103D900087788093020120910201C701807C9927D6
:103DA00073E0969587957A95E1F79E2D937092959D
:103DB000990F907E892B822B809302018EB1877C94
:103DC0008EB92EB18E2D8C70382F330F330FC70163
:103DD000807299279695879596958795832B822B48
:103DE0008EB9A59884B39E2D9071E92EEE0CE82A29
:103DF000E4BAED8DFE8D90818FA189238083ED8DB6
:103E0000FE8D90818BA1892B8083E98DFA8D908125
:103E100089A1892B8083DF91CF911F910F91FF9012
:103E2000EF900895CF93DF93BC0187EB94E00E945D
:103E30001D2FEC0187EB94E00E94322F8C0F9D1F09
:103E4000DF91CF9108958F929F92AF92BF920F937F
:103E50001F93CF93DF93CDB7DEB7A1970FB6F8943A
:103E6000DEBF0FBECDBF19A2423008F44AE08E017A
:103E70000F5D1F4F842E912CA12CB12CA501940114
:103E80000E941845E62FB901CA0101501109EA3014
:103E900014F4E05D01C0E95CD801EC93232B242BE2
:103EA000252B61F7B80187EB94E00E941D2FA196A6
:103EB0000FB6F894DEBF0FBECDBFDF91CF911F913B
:103EC0000F91BF90AF909F908F900895CF92DF9207
:103ED000EF92FF92CF93DF936B017C01E091B704E7
:103EE000F091B8040190F081E02D6DE287EB94E051
:103EF0001995EC0166277727CB016C197D098E098E
:103F00009F094AE00E94231F8C0F9D1FDF91CF91D4
:103F1000FF90EF90DF90CF900895CF93DF93AB01A8
:103F2000672B61F4E091B704F091B8040190F0813F
:103F3000E02D682F87EB94E0199505C0BC0180E067
:103F400090E00E94231FEC0187EB94E00E94322F47
:103F50008C0F9D1FDF91CF91089590E0FC01E755F4
:103F6000F44F2491FC01E75FF34F8491882399F08B
:103F700090E0880F991FFC01E157F44FA591B4918F
:103F8000FC01E151F44F859194918FB7F894EC9135
:103F9000E22BEC938FBF0895CF93DF93BC01990F71
:103FA000880B990B97FF03C00E94661F03C04AE06D
:103FB0000E94231FEC0187EB94E00E94322F8C0FAC
:103FC0009D1FDF91CF910895FC01A089B18982E006
:103FD0008C93A485B5851C92A685B7858FEC8C93B0
:103FE000108EA489B58986E08C93A289B3898C91BF
:103FF00080618C93A289B3898C9188608C93A2890B
:10400000B3898C9180688C930288F389E02D80813C
:104010008F7D80830895EF92FF920F931F93CF932C
:10402000DF938370809395052091840530918505F9
:104030004091860550918705813059F0833049F0D1
:10404000309389052093880550938B0540938A050A
:1040500008C0509389054093880530938B052093C1
:104060008A05E0919905F0919A0590818091A505C6
:1040700089238083809198058111D7C0E0919505AF
:10408000E150E33040F4F0E0EE0FFF1FEE5EFD4F35
:104090008081918102C080E390E1E0919B05F091E5
:1040A0009C0530812091A6052323208320910201C5
:1040B00027782093020120910201209302012EB162
:1040C000277C2EB92EB12EB9A59824B324BBE0913C
:1040D0009D05F0919E0530812091A7052323208323
:1040E000E0919D05F0919E0530812091A305232B41
:1040F0002083209102012778209302012091020160
:104100002066209302012EB1277C2EB92EB12EB944
:10411000A59824B324BBE0919D05F0919E053081C4
:104120002091A70523232083E0919D05F0919E0512
:1041300030812091A305232B2083E0919B05F091F2
:104140009C0530812091A205232B20832091020120
:1041500027782093020120910201209302012EB1C1
:10416000277C2EB92EB12EB9A598A59AE0919D0570
:10417000F0919E0530812091A70523232083E091B3
:104180009D05F0919E0530812091A305232B20836E
:1041900020910201277820930201209102012093AF
:1041A00002012EB1277C2EB94EB19C012C70332711
:1041B000B901660F771F660F771F9C0120723327A6
:1041C0003595279535952795262B242B2EB9A5981F
:1041D00024B380719927880F991F822B84BBE091AB
:1041E0009D05F0919E0590818091A705892380838C
:1041F000E0919D05F0919E0590818091A305892B0A
:10420000808300918A0510918B050150110920913E
:104210008805309189052150310940E050E060E087
:1042200070E080E895E00E947F06809198058130DB
:1042300009F075C0E0919505E150E33028F4F0E015
:10424000E15FFD4F808101C080E0E0919B05F0912E
:104250009C0520819091A605922390839091020164
:1042600097789093020190910201906490930201DB
:104270009EB1977C9EB9749AA598A59AE0919D05E8
:10428000F0919E0520819091A70592239083E09163
:104290009D05F0919E0520819091A305922B90831E
:1042A000E0919B05F0919C0520819091A205922BB5
:1042B00090839091020197789093020120910201DE
:1042C000982F907C969596959695922B90930201B7
:1042D0009EB1977C9EB92EB1982F9072892F90E055
:1042E0009595879595958795822B8EB9A59884B3DA
:1042F00084BBE0919D05F0919E0590818091A7057A
:1043000089238083E0919D05F0919E0590818091A5
:10431000A305892B808380E895E00E94462F809139
:104320009805823009F097C080919505813089F019
:1043300060F0823031F0833079F4F8E2EF2EF12C26
:104340000BC0A8E4EA2EF12C07C0E8E8EE2EF12C11
:1043500003C078EEE72EF12CE0919B05F0919C05CF
:1043600090818091A60589238083809102018778BE
:1043700080930201809102018064809302018EB1DA
:10438000877C8EB98EB188618EB9A598A59AE09187
:104390009D05F0919E0590818091A70589238083DA
:1043A000E0919D05F0919E0590818091A305892B58
:1043B0008083E0919B05F0919C0590818091A205FE
:1043C000892B80838091020187788093020120915C
:1043D0000201C701807C992753E0969587955A95ED
:1043E000E1F7822B809302018EB1877C8EB98EB16A
:1043F000806290E2E922FF24F694E794F694E79431
:10440000E82AEEB8A59884B384BBE0919D05F091AD
:104410009E0590818091A70589238083E0919D0569
:10442000F0919E0590818091A305892B8083009156
:104430008A0510918B050150110920918805309152
:1044400089052150310940E050E060E070E080E8EB
:1044500095E00E947F0680919805833009F091C015
:1044600080919505813071F050F0823029F08330D1
:1044700059F4C0E6D0E008C0C0E0D0E005C0C0EC10
:10448000D0E002C0C0EAD0E0E0919B05F0919C052D
:1044900090818091A605892380838091020187788D
:1044A00080930201809102018064809302018EB1A9
:1044B000877C8EB98EB188618EB9A598A59AE09156
:1044C0009D05F0919E0590818091A70589238083A9
:1044D000E0919D05F0919E0590818091A305892B27
:1044E0008083E0919B05F0919C0590818091A205CD
:1044F000892B80838091020187788093020120912B
:104500000201CE01807C992733E0969587953A95F4
:10451000E1F7822B809302018EB1877C8EB98EB138
:10452000C072DD27D695C795D695C795C82BCEB94D
:10453000A59884B384BBE0919D05F0919E05908180
:104540008091A70589238083E0919D05F0919E05C8
:1045500090818091A305892B808300918A05109119
:104560008B05015011092091880530918905215052
:10457000310940E050E060E070E080E895E00E94A2
:104580007F06DF91CF911F910F91FF90EF900895DB
:10459000E0919905F0919A0590818091A105892B70
:1045A0008083E0919D05F0919E0590818091A30507
:1045B000892B8083E0919F05F091A00590818091E7
:1045C000A405892B80838091A905882371F060E080
:1045D0000E94CC2D62E070E080E090E00E948D2E81
:1045E00061E08091A9050E94CC2DE0919905F091A0
:1045F0009A0590818091A50589238083E0919B0590
:10460000F0919C0590818091A605892380838091FB
:104610000201877880930201809102018093020158
:104620008EB1877C8EB98EB18EB9A59884B384BBC8
:10463000E0919D05F0919E0590818091A7058923C9
:104640008083E0919D05F0919E0590818091A30566
:10465000892B808383E0E0919D05F0919E05208168
:104660009091A70592239083E0919D05F0919E057E
:1046700020819091A305922B9083815061F7E09166
:104680009905F0919A0590818091A105892B8083ED
:1046900008950F931F93CF93DF938C01C0E0D0E078
:1046A000F801EC0FFD1F6491662371F0E091B704EF
:1046B000F091B8040190F081E02D87EB94E019951A
:1046C000892B11F02196ECCFCE01DF91CF911F9174
:1046D0000F9108956F927F928F929F92AF92BF92A7
:1046E000CF92DF92EF92FF920F931F93CF93DF93BE
:1046F000FC013B01A18DB28D9C9185A189238C93F6
:10470000A38DB48D9C9186A189238C93808D82305A
:1047100011F181111EC080910201877880930201FE
:1047200080910201809302018EB1877C8EB98EB197
:104730008EB9A59884B384BBA58DB68D9C9187A1B5
:1047400089238C93A58DB68D9C9183A1892B8C9305
:1047500012C0833081F48091020187788093020136
:1047600080910201809302018EB1877C8EB98EB157
:1047700088638EB90EC08091020187788093020110
:10478000809102018064809302018EB1877C8EB992
:10479000739AA59884B384BBA58DB68D9C9187A18F
:1047A00089238C93A58DB68D9C9183A1892B8C93A5
:1047B000A38DB48D9C9182A1892B8C938091020151
:1047C000877880930201B0910201872F90E07C01ED
:1047D000A3E0EA22FF24A5E0EE0CFF1CAA95E1F776
:1047E0008C01007C1127C3E015950795CA95E1F768
:1047F000AE2DA02BBA2BB0930201BEB1B77CBEB9CF
:104800001EB16C01B0E2CB22DD24D594C794D594BF
:10481000C7947C01CCE0EC22FF24EE0CFF1CEE0CD4
:10482000FF1CBC2DBE291B2B1EB9A59814B380718B
:104830009927880F991FF82E812B84BB058D168D23
:10484000E801988187A189238883058D168DE80169
:10485000988183A1892B8883809102018778809336
:104860000201809102016B01D3E0CD22DD24D5E06D
:10487000CC0CDD1CDA95E1F78B01007C112793E06D
:10488000159507959A95E1F71C2D102B812B809398
:1048900002018EB1877C8EB98EB15B0190E2A922B4
:1048A000BB24B594A794B594A7946B01CCE0CC221B
:1048B000DD24CC0CDD1CCC0CDD1C0A2D0C29802B3E
:1048C0008EB9A59884B360717727660F771F762F0E
:1048D000682B64BB858D968DEC01E88067A16E2105
:1048E0006883858D968DEC01E88063A16E296883CD
:1048F000215031094109510949015A0136E0B69464
:10490000A794979487943A95D1F7C40176109CC1E7
:10491000019708F465C060E1A58DB68DCC9177A1B3
:104920007C237C93A58DB68DCC9173A17C2B7C933D
:10493000A58DB68DCC9177A17C237C93A58DB68D6A
:10494000CC9173A17C2B7C93A58DB68DCC9177A156
:104950007C237C93A58DB68DCC9173A17C2B7C930D
:10496000A58DB68DCC9177A17C237C93A58DB68D3A
:10497000CC9173A17C2B7C93A58DB68DCC9177A126
:104980007C237C93A58DB68DCC9173A17C2B7C93DD
:10499000A58DB68DCC9177A17C237C93A58DB68D0A
:1049A000CC9173A17C2B7C93A58DB68DCC9177A1F6
:1049B0007C237C93A58DB68DCC9173A17C2B7C93AD
:1049C000A58DB68DCC9177A17C237C93A58DB68DDA
:1049D000CC9173A17C2B7C93615009F09DCF98CF33
:1049E0002F732150C8F0A58DB68D9C9187A1892386
:1049F0008C93A58DB68D9C9183A1892B8C93A58DCD
:104A0000B68D9C9187A189238C93A58DB68D9C91A1
:104A100083A1892B8C93E5CFA18DB28D9C9181A12F
:104A2000892B8C93DF91CF911F910F91FF90EF9085
:104A3000DF90CF90BF90AF909F908F907F906F90BE
:104A40000895C0910201C778C0930201C09102018C
:104A5000CA2BC0930201CEB1C77CCEB9CEB1CB2B4D
:104A6000CEB9A598C4B3CF29C4BBC58DD68DD88087
:104A7000E7A0ED20E882C58DD68DD880E3A0ED2893
:104A8000E882C0910201C778C0930201C09102017F
:104A9000C12BC0930201CEB1C77CCEB9CEB1C02B21
:104AA000CEB9A598C4B3C72BC4BBC58DD68DD8804D
:104AB000E7A0ED20E882C58DD68DD880E3A0ED2853
:104AC000E882C0910201C778C0930201C09102013F
:104AD000CA2BC0930201CEB1C77CCEB9CEB1CB2BCD
:104AE000CEB9A598C4B3CF29C4BBC58DD68DD88007
:104AF000E7A0ED20E882C58DD68DD880E3A0ED2813
:104B0000E882C0910201C778C0930201C0910201FE
:104B1000C12BC0930201CEB1C77CCEB9CEB1C02BA0
:104B2000CEB9A598C4B3C72BC4BBC58DD68DD880CC
:104B3000E7A0ED20E882C58DD68DD880E3A0ED28D2
:104B4000E882C0910201C778C0930201C0910201BE
:104B5000CA2BC0930201CEB1C77CCEB9CEB1CB2B4C
:104B6000CEB9A598C4B3CF29C4BBC58DD68DD88086
:104B7000E7A0ED20E882C58DD68DD880E3A0ED2892
:104B8000E882C0910201C778C0930201C09102017E
:104B9000C12BC0930201CEB1C77CCEB9CEB1C02B20
:104BA000CEB9A598C4B3C72BC4BBC58DD68DD8804C
:104BB000E7A0ED20E882C58DD68DD880E3A0ED2852
:104BC000E882C0910201C778C0930201C09102013E
:104BD000CA2BC0930201CEB1C77CCEB9CEB1CB2BCC
:104BE000CEB9A598C4B3CF29C4BBC58DD68DD88006
:104BF000E7A0ED20E882C58DD68DD880E3A0ED2812
:104C0000E882C0910201C778C0930201C0910201FD
:104C1000C12BC0930201CEB1C77CCEB9CEB1C02B9F
:104C2000CEB9A598C4B3C72BC4BBC58DD68DD880CB
:104C3000E7A0ED20E882C58DD68DD880E3A0ED28D1
:104C4000E882615009F0FDCE019710F060E1F9CEE5
:104C50002F73215008F4E0CE809102018778809371
:104C60000201809102018A2B809302018EB1877C20
:104C70008EB98EB18B2B8EB9A59884B38F2984BB46
:104C8000C58DD68D988187A189238883C58DD68DC2
:104C9000988183A1892B88838091020187788093F2
:104CA000020180910201812B809302018EB1877CE9
:104CB0008EB98EB1802B8EB9A59884B3872B84BB17
:104CC000C58DD68D988187A189238883C58DD68D82
:104CD000988183A1892B8883BCCFFC01A089B189ED
:104CE0008C91A689B78982FD0FC09C91818D8F5FC1
:104CF0008F73228D821749F0218DDF01A20FB11D24
:104D00005D969C93818F08958C910895FC01538D3D
:104D1000448D252F30E0842F90E0821B930B541795
:104D200010F0CF96089501970895FC01918D828D22
:104D3000981761F0828DDF01A80FB11D5D968C91EF
:104D4000928D9F5F9F73928F90E008958FEF9FEFFA
:104D50000895FC01918D828D981731F0828DE80FB6
:104D6000F11D858D90E008958FEF9FEF0895FC0170
:104D7000918D228D892F90E0805C9F4F821B91093D
:104D80008F73992708958AE194E00E94B72621E065
:104D9000892B09F420E0822F089587EB94E00E948C
:104DA000B72621E0892B09F420E0822F0895FC0129
:104DB000848DDF01A80FB11DA35ABF4F2C91848DA4
:104DC00090E001968F739927848FA689B7892C93D9
:104DD000A089B1898C9180648C93938D848D981374
:104DE00006C00288F389E02D80818F7D808308953D
:104DF000EF92FF920F931F93CF93DF93EC0181E02B
:104E0000888F9B8D8C8D981305C0E889F9898081E6
:104E100085FD24C0F62E0B8D10E00F5F1F4F0F7322
:104E20001127E02E8C8DE8120CC00FB607FCFACFCC
:104E3000E889F989808185FFF5CFCE010E94D726C8
:104E4000F1CF8B8DFE01E80FF11DE35AFF4FF08289
:104E50000B8FEA89FB898081806207C0EE89FF8918
:104E60006083E889F98980818064808381E090E0B3
:104E7000DF91CF911F910F91FF90EF900895CF9305
:104E8000DF93EC01888D8823C9F0EA89FB89808152
:104E900085FD05C0A889B9898C9186FD0FC00FB624
:104EA00007FCF5CF808185FFF2CFA889B9898C9165
:104EB00085FFEDCFCE010E94D726E7CFDF91CF91BE
:104EC000089580E090E0892B21F00E94CD26811189
:104ED00021C080E090E0892B21F00E94C32681113F
:104EE0001CC080E090E0892B41F080E090E0892BAD
:104EF00021F00E940000811113C080E090E0892B16
:104F0000A1F080E090E0892B81F00E9400008111E7
:104F10000AC008950E940000DCCF0E940000E1CF8B
:104F20000E940000EACF0C94000008950E94A14660
:104F30001F920F920FB60F9211240BB60F922F9360
:104F40003F934F935F936F937F938F939F93AF9311
:104F5000BF93EF93FF938AE194E00E94D726FF91DD
:104F6000EF91BF91AF919F918F917F916F915F91E1
:104F70004F913F912F910F900BBE0F900FBE0F904E
:104F80001F9018951F920F920FB60F9211240BB617
:104F90000F922F933F934F935F936F937F938F93D2
:104FA0009F93AF93BF93EF93FF938AE194E00E94A6
:104FB0006D26FF91EF91BF91AF919F918F917F915E
:104FC0006F915F914F913F912F910F900BBE0F907A
:104FD0000FBE0F901F9018951F920F920FB60F9251
:104FE00011240BB60F922F933F934F935F936F93C0
:104FF0007F938F939F93AF93BF93EF93FF9387EB31
:1050000094E00E94D726FF91EF91BF91AF919F91BD
:105010008F917F916F915F914F913F912F910F9061
:105020000BBE0F900FBE0F901F9018951F920F92FE
:105030000FB60F9211240BB60F922F933F934F93FD
:105040005F936F937F938F939F93AF93BF93EF93F0
:10505000FF9387EB94E00E946D26FF91EF91BF9143
:10506000AF919F918F917F916F915F914F913F9100
:105070002F910F900BBE0F900FBE0F901F901895A1
:10508000AF92BF92CF92DF92EF92FF920F931F9356
:10509000CF93DF93FC01A18DB28D9C9185A18923D3
:1050A0008C93A38DB48D9C9186A189238C93A2E0CF
:1050B000B1E08C9187788C937C91862F807CC82F6F
:1050C000C695C695C695962F937000E2909FC00135
:1050D00011248C2B872B8C938EB1877C8EB97EB15B
:1050E000862F8C7014E0819FE0011124962F90721E
:1050F000892F90E095958795959587958C2B872B93
:105100008EB9A59884B36071660F682B64BBC58D9A
:10511000D68D988187A189238883C58DD68D988166
:1051200083A1892B8883C38DD48D988182A1892BFB
:10513000888313E2A12EB12CC5010197F1F78C9160
:1051400087788C931C91652F7727882799276B0187
:105150007C01C0ECCC22DD24EE24FF24C3E0F694D5
:10516000E794D794C794CA95D1F7062F0370029598
:10517000000F007EC02AC12ACC921EB1177C1EB936
:10518000CEB1062F0C70000F000F6B017C01D0E236
:10519000CD22DD24EE24FF24D2E0F694E794D794C8
:1051A000C794DA95D1F7C02ACC2ACEB8A59814B303
:1051B0006071660F612B64BB658D768DEB01988104
:1051C00087A189238883658D768DEB01988183A1E2
:1051D000892B8883C5010197F1F78C9187788C938F
:1051E0001C91BA01882799276B017C01D0ECCD2254
:1051F000DD24EE24FF24C3E0F694E794D794C7940B
:10520000CA95D1F7062F03700295000F007EC02AC1
:10521000C12ACC921EB1177C1EB91EB1062F0C708C
:10522000000F000F6B017C01C0E2CC22DD24EE24D4
:10523000FF24D2E0F694E794D794C794DA95D1F797
:10524000C02AC12ACEB8A59814B36071660F612B2D
:1052500064BB658D768DEB01988187A18923888356
:10526000658D768DEB01988183A1892B8883C5019B
:105270000197F1F78C9187788C931C919927852F52
:10528000742F632F6B017C01D0ECCD22DD24EE2442
:10529000FF24C3E0F694E794D794C794CA95D1F756
:1052A000062F03700295000F007EC02AC12ACC92FF
:1052B0001EB1177C1EB91EB1062F0C70000F000F17
:1052C0006B017C01C0E2CC22DD24EE24FF24D2E07D
:1052D000F694E794D794C794DA95D1F7C02AC12AF7
:1052E000CEB8A598F4B26071660F6F2964BB658D66
:1052F000768DEB01988187A189238883658D768DD2
:10530000EB01988183A1892B8883E5012197F1F72F
:105310008C9187788C938C9169017A01D0ECCD22A5
:10532000DD24EE24FF2413E0F694E794D794C79489
:105330001A95D1F7922F93709295990F907EC92A62
:10534000C82ACC928EB1877C8EB96EB1822F8C70B8
:10535000782F770F770FDA01C90180729927AA2772
:10536000BB2702E0B695A795979587950A95D1F743
:10537000872B862B8EB9A59884B32071220F282BFA
:1053800024BBA58DB68D9C9187A189238C93A58D77
:10539000B68D9C9183A1892B8C93A18DB28D9C910C
:1053A00081A1892B8C93DF91CF911F910F91FF9059
:1053B000EF90DF90CF90BF90AF900895EF92FF9263
:1053C0000F931F93CF93DF93EC017B01888D8111A5
:1053D00069C12D892150233070F430E0F901E45B7C
:1053E000FD4F808190E0220F331FF901EA5BFD4FF2
:1053F0004081518104C040E050E080E090E0E98DC0
:10540000FA8D30812DA123232083EB8DFC8D3081FB
:105410002EA12323208320910201277820930201CB
:1054200020910201209302012EB1277C2EB92EB1CA
:105430002EB9A59824B324BBED8DFE8D30812FA10C
:1054400023232083ED8DFE8D30812BA1232B208300
:1054500020910201277820930201209102012093DC
:1054600002012EB1277C2EB9739AA59824B324BBD0
:10547000ED8DFE8D30812FA123232083ED8DFE8DB8
:1054800030812BA1232B2083EB8DFC8D30812AA131
:10549000232B208320910201277820930201209161
:1054A0000201209302012EB1277C2EB92EB12EB914
:1054B000A59824B324BBED8DFE8D30812FA123232D
:1054C0002083ED8DFE8D30812BA1232B2083209115
:1054D0000201277820930201609102019C01207C47
:1054E0003327F90123E0F595E7952A95E1F79C012B
:1054F0002370332775E0220F331F7A95E1F72E2BA7
:10550000262B209302012EB1277C2EB96EB19C016F
:105510002C703327F901EE0FFF1FEE0FFF1F9C01C8
:105520002072332735952795359527952E2B262BD9
:105530002EB9A59884B384BBED8DFE8D90818FA18B
:1055400089238083ED8DFE8D90818BA1892B8083B3
:10555000EB8DFC8D90818EA1892380838091020147
:1055600087788093020180910201809302018EB1BD
:10557000877C8EB98EB18EB9A59884B384BBED8D2E
:10558000FE8D90818FA189238083ED8DFE8D90818A
:105590008BA1892B808380910201877880930201FF
:1055A000809102018062809302018EB1877C8EB966
:1055B000739AA59884B384BBED8DFE8D90818FA1E5
:1055C00089238083ED8DFE8D90818BA1892B808333
:1055D000EB8DFC8D90818AA1892B808380910201C3
:1055E00087788093020120910201CA0113E0969509
:1055F00087951A95E1F780769927822B809302018F
:105600008EB1877C8EB98EB18EB9A59884B384BBD8
:10561000ED8DFE8D90818FA189238083ED8DFE8D90
:1056200090818BA1892B8083809102018778809360
:10563000020120910201CA018370992705E0880FB9
:10564000991F0A95E1F7822B809302018EB1877C26
:105650008EB92EB1CA018C709927BC01660F771FD5
:10566000660F771FCA018072992795958795959542
:105670008795862B822B8EB9A59824B3CA01807199
:105680009927880F991F822B84BBED8DFE8D908109
:105690008FA189238083ED8DFE8D90818BA1892B35
:1056A000808312C08150833078F40A851B850150B5
:1056B0001109288539852150310940E050E060E02A
:1056C00070E0CE010E947F0620E03CE241E050E025
:1056D000B701CE01DF91CF911F910F91FF90EF9015
:1056E0000C946A238F929F92AF92BF92CF92DF92D7
:1056F000EF92FF920F931F93CF93DF93EC0147013B
:10570000121613060CF06BC0101611060CF067C0D1
:10571000A885B9856A177B070CF061C0CA84DB8451
:105720004C155D050CF05BC05B01A20EB31EC501FC
:10573000019797FD54C07A01E00EF11EF7013197F1
:10574000F7FD4DC077FF49C060E070E057FD02C033
:10575000780102C040E050E08A179B072CF0CD0191
:1057600001975D01A61AB70AEC15FD052CF0F601AC
:1057700031977601E41AF50A8F019C01CE010E944F
:105780007F069701D5010E9442459B01AC01B401FF
:10579000CE010E946A23888D811110C00A851B8565
:1057A00001501109288539852150310940E050E028
:1057B00060E070E0CE010E947F0611C0CE01DF9153
:1057C000CF911F910F91FF90EF90DF90CF90BF90FE
:1057D000AF909F908F900C94462F5901B7CFDF91D7
:1057E000CF911F910F91FF90EF90DF90CF90BF90DE
:1057F000AF909F908F900895CF92DF92EF92FF929B
:105800000F931F93CF93DF93EC01680112161306D9
:105810000CF04FC077FD4DC08885998568177907D2
:105820000CF047C0EA85FB854E175F070CF041C0BE
:105830007A01E20EF31E87010150110917FD39C0EC
:1058400057FF35C040E050E00E171F0734F08F01BE
:10585000015011097F01E41AF50A9B01CE010E9453
:105860007F069701FF0C440B550BB601CE010E9439
:105870006A23888D811110C00A851B85015011098A
:10588000288539852150310940E050E060E070E022
:10589000CE010E947F060DC0CE01DF91CF911F91F6
:1058A0000F91FF90EF90DF90CF900C94462F7901ED
:1058B000CBCFDF91CF911F910F91FF90EF90DF90B1
:1058C000CF900895CF92DF92EF92FF920F931F93A4
:1058D000CF93DF93EC016801121613060CF04EC053
:1058E00057FD4CC08A859B85481759070CF046C068
:1058F000E885F9856E177F070CF040C07B01E20E4A
:10590000F31EC701019797FD39C077FF35C060E0EE
:1059100070E08E179F072CF0CF0101977F01E61AE8
:10592000F70A8A019C01CE010E947F069701FF0CB5
:10593000440B550BB601CE010E946A23888D81115C
:1059400010C00A851B850150110928853985215011
:10595000310940E050E060E070E0CE010E947F0637
:105960000DC0CE01DF91CF911F910F91FF90EF906D
:10597000DF90CF900C94462F7901CBCFDF91CF9160
:105980001F910F91FF90EF90DF90CF900895CF92ED
:10599000DF92EF92FF920F931F93CF93DF936C01EF
:1059A0007A018B01C0E0D0E0CE15DF0589F0D80187
:1059B0006D918D01D601ED91FC910190F081E02D6A
:1059C000C6011995892B11F47E0102C02196ECCFF6
:1059D000C701DF91CF911F910F91FF90EF90DF9062
:1059E000CF900895E0E8F5E0A78DB0A19C9180A547
:1059F00089238C9300C000C000C00000A0E0B1E08B
:105A00009C912C916CB14CB182B3A78DB0A15C91EB
:105A100034A1352B3C93287138E0239FF0011124E9
:105A20009076292F30E095E0359527959A95E1F706
:105A30002E2B3F2B687070E0660F771F660F771F65
:105A4000262B372B407350E0559547955595479534
:105A5000242B352B807290E095958795822B0895A5
:105A6000CF92DF92EF92FF920F931F93CF93DF932A
:105A7000C0E8D5E0E98DFA8D20819DA19223908325
:105A8000EB8DFC8D20819EA192239083E2E0F1E0DA
:105A90009081977890834081282F207C522F5695B3
:105AA00056955695982F937060E2969F9001112419
:105AB000252B242B20839EB1977C9EB94EB1282F95
:105AC0002C7094E0299FB0011124982F9072292FF7
:105AD00030E03595279535952795262B242B2EB923
