:100000000C944C060C947D060C947D060C947D0695
:100010000C947D060C947D060C947D060C947D0654
:100020000C947D060C947D060C947D060C947D0644
:100030000C947D060C947D060C947D060C947D0634
:100040000C947D060C947D060C947D060C947D0624
:100050000C947D060C947D060C947D060C94D4358E
:100060000C947D060C94EE2E0C94C42E0C947D06FC
:100070000C947D060C947D060C947D060C947D06F4
:100080000C947D060C947D060C947D060C947D06E4
:100090000C944E2F0C94242F0C947D060C947D060A
:1000A0000C947D060C947D060C947D060C947D06C4
:1000B0000C947D060C947D060C947D060C947D06B4
:1000C0000C947D060C947D060C947D060C947D06A4
:1000D0000C947D060C947D060C947D060C947D0694
:1000E0000C947D06462C492C382C3C2C402C802C22
:1000F0004D2C512C572C5B2C5F2C652C692C6D2CB6
:10010000802C732C772C7B2C07634236B79BD8A7A7
:100110001A39685618AEBAAB558C1D3CB7CC57632C
:10012000BD6DEDFD753EF6177231BF000000803FDA
:1001300008000000BE922449123EABAAAA2ABECDF6
:10014000CCCC4C3E00000080BEABAAAAAA3E000068
:100150000000BF000000803F000000000008417860
:10016000D3BB4387D1133D190E3CC3BD4282AD2B97
:100170003E68EC8276BED98FE1A93E4C80EFFFBE8F
:1001800001C4FF7F3F00000000000C94A00C0C9401
:10019000512C0C9498090C9448090C94AE210C94A1
:1001A00045090C94692C0C9402130C94382C0C9473
:1001B000412E0C943D310C9469100C94732C0C94CA
:1001C0005B330C945C0A0C943C2C0C947F060C94CE
:1001D00044080C94F42D0C94772C0C945F2C0C9404
:1001E000812D0C94802C0C9480060C94402C0C9443
:1001F000462C0C94572C0C947F0D0C94A42D0C942D
:1002000022110C94D1320C94E60B0C9492440C9471
:100210000E0A0C9444090C945B2C0C94652C0C94E1
:1002200093080C94902D0C94B22D0C94982E0C9451
:10023000C1330C946D2C0C947B2C0C94492C0C9495
:100240004D2C2E89298F2B02E200E401E510E601F6
:10025000E710E870F200EA00EB20EC3CEDC8E9386A
:10026000F1011B1A1A022461255C183619011F8836
:10027000FF051F80FF051F90FF051FD4FF05170511
:1002800036092838FF28283C02000300040005EF47
:10029000060007000801093F0100B903FF8357FF6B
:1002A000FAB30400000606B60125B00168CC0105CA
:1002B000B10600151C1C83AAC0065050013C1E0844
:1002C000B4070240002A2A0D783A01553601C0359C
:1002D0000100440200021100FF962900FF321500C0
:1002E00030009A0010001100200010002834120085
:1002F000020013004610FF00280012001200FF0049
:1003000028001000203413004630FF004600300063
:1003100000003100020432000703330004033400FC
:1003200004003500010436000707370005033800D4
:10033000100639001006010000010200000303004E
:100340003010080008080A0008006000002761005B
:10035000010090003E019200000193000001A00006
:100360000030A30010000700010007002100070073
:100370002300070033000700330100000100FF00E5
:1003800032000100000102000007030030100400E9
:10039000000008000202090000000A0000000C0032
:1003A00000000D0000000F00000010000000110010
:1003B00007001200000013000000FF00C80010003A
:1003C000901611002702FF00320012001A00FF00F1
:1003D00032001300001829002A00FF00320030000C
:1003E0000000310000003200000035000602360037
:1003F00008083700070038000102390000003C00FF
:1004000000003D000000200000002100000050001E
:1004100000005100EF005200000053003F01600057
:1004200000A7610003006A00000090001000920025
:100430000000930003009500001197000000980051
:100440000000070033016D61746368657320746890
:1004500065207475746F7269616C2E00416C736FE6
:10046000206966207573696E672074686520627202
:1004700065616B6F75742C20646F75626C652D639C
:100480006865636B207468617420616C6C207769A7
:1004900072696E67004966207573696E67207468BB
:1004A0006520627265616B6F757420626F61726442
:1004B0002C2069742073686F756C64204E4F542033
:1004C00062652023646566696E6564210073686FE8
:1004D000756C642061707065617220696E2074684B
:1004E00065206C6962726172792068656164657209
:1004F0002028456C65676F6F5F5446542E68292E1F
:1005000000202023646566696E65205553455F456C
:100510006C65676F6F5F534849454C445F50494E67
:100520004F5554004966207573696E67207468657D
:1005300020456C65676F6F20322E38222054465458
:100540002041726475696E6F20736869656C642CF4
:1005500020746865206C696E653A00556E6B6E6F2D
:10056000776E204C4344206472697665722063681C
:1005700069703A2000466F756E64203078393332E6
:1005800038204C43442064726976657200466F756A
:100590006E6420307839333431204C434420647207
:1005A0006976657200466F756E6420485838333539
:1005B0003744204C43442064726976657200466F6C
:1005C000756E6420494C4939333431204C43442002
:1005D00064726976657200466F756E64204858389B
:1005E00033343747204C4344206472697665720087
:1005F000466F756E64204C47445034353335204C7B
:1006000043442064726976657200466F756E64209B
:10061000494C4939333238204C434420647269765E
:10062000657200466F756E6420494C493933323526
:10063000204C434420647269766572005573696E7C
:100640006720456C65676F6F20322E342220544638
:100650005420427265616B6F757420426F617264E1
:100660002050696E6F757400544654204C434420EA
:100670007465737400000020002300260029002CFC
:10068000002F0032000001000003010601090100F3
:10069000000000003E5B4F5B3E3E6B4F6B3E1C3EDE
:1006A0007C3E1C183C7E3C181C577D571C1C5E7FF2
:1006B0005E1C00183C1800FFE7C3E7FF0018241871
:1006C00000FFE7DBE7FF30483A060E2629792926A6
:1006D000407F050507407F05253F5A3CE73C5A7F90
:1006E0003E1C1C08081C1C3E7F14227F22145F5FE6
:1006F000005F5F06097F017F006689956A60606020
:10070000606094A2FFA29408047E040810207E205A
:100710001008082A1C08081C2A08081E10101010AF
:100720000C1E0C1E0C30383E3830060E3E0E0600F5
:100730000000000000005F00000007000700147FB9
:10074000147F14242A7F2A12231308646236495620
:1007500020500008070300001C2241000041221C19
:10076000002A1C7F1C2A08083E0808008070300000
:100770000808080808000060600020100804023E15
:100780005149453E00427F40007249494946214156
:10079000494D331814127F1027454545393C4A49C5
:1007A0004931412111090736494949364649492904
:1007B0001E00001400000040340000000814224114
:1007C0001414141414004122140802015909063E9D
:1007D000415D594E7C1211127C7F494949363E4198
:1007E0004141227F4141413E7F494949417F0909B9
:1007F00009013E414151737F0808087F00417F4154
:10080000002040413F017F081422417F404040408A
:100810007F021C027F7F0408107F3E4141413E7FE2
:10082000090909063E4151215E7F091929462649D9
:1008300049493203017F01033F4040403F1F2040B0
:10084000201F3F4038403F631408146303047804BA
:10085000036159494D43007F414141020408102082
:10086000004141417F0402010204404040404000F9
:100870000307080020545478407F28444438384403
:10088000444428384444287F385454541800087E7F
:10089000090218A4A49C787F0804047800447D40D1
:1008A000002040403D007F1028440000417F400070
:1008B0007C047804787C080404783844444438FC88
:1008C0001824241818242418FC7C0804040848540C
:1008D00054542404043F44243C4040207C1C2040C9
:1008E000201C3C4030403C44281028444C909090C0
:1008F0007C4464544C4400083641000000770000FA
:10090000004136080002010204023C2623263C1E58
:10091000A1A161123A4040207A38545455592155CA
:1009200055794122545478422155547840205455E9
:1009300079400C1E52721239555555593954545438
:100940005939555454580000457C410002457D42B8
:100950000001457C407D1211127DF0282528F07C95
:10096000545545002054547C547C0A097F4932492F
:100970004949323A4444443A324A4848303A41417B
:10098000217A3A42402078009DA0A07D3D4242421B
:100990003D3D4040403D3C24FF2424487E49436681
:1009A0002B2FFC2F2BFF0929F620C0887E0903205E
:1009B000545479410000447D413048484A3238401F
:1009C00040227A007A0A0A727D0D19317D26292982
:1009D0002F28262929292630484D40203808080884
:1009E0000808080808382F10C8ACBA2F102834FAA5
:1009F00000007B000008142A142222142A1408552F
:100A000000550055AA55AA55AAFF55FF55FF0000ED
:100A100000FF00101010FF00141414FF001010FF4E
:100A200000FF1010F010F0141414FC001414F70060
:100A3000FF0000FF00FF1414F404FC141417101F2F
:100A400010101F101F1414141F00101010F00000BD
:100A500000001F101010101F10101010F0100000D8
:100A600000FF101010101010101010FF10000000E8
:100A7000FF140000FF00FF00001F10170000FC041F
:100A8000F414141710171414F404F40000FF00F702
:100A900014141414141414F700F714141417141065
:100AA000101F101F141414F4141010F010F0000094
:100AB0001F101F0000001F14000000FC140000F0B5
:100AC00010F01010FF10FF141414FF141010101F5A
:100AD00000000000F010FFFFFFFFFFF0F0F0F0F06B
:100AE000FFFFFF0000000000FFFF0F0F0F0F0F3888
:100AF00044443844FC4A4A4A347E02020606027ED6
:100B0000027E0263554941633844443C04407E20E0
:100B10001E2006027E020299A5E7A5991C2A492AF1
:100B20001C4C7201724C304A4D4D30304878483080
:100B3000BC625A463D3E494949007E0101017E2A78
:100B40002A2A2A2A44445F444440514A44404044AB
:100B50004A51400000FF0103E080FF000008086BDD
:100B60006B083612362436060F090F0600001818D7
:100B70000000001010003040FF0101001F01011EA5
:100B800000191D1712003C3C3C3C00000000000016
:100B9000002100240027002A002D0030003300012E
:100BA000010000040107010A0101021020200808C9
:100BB00010204010204080020102010804020101BF
:100BC00002040810204080804020100804020180A8
:100BD00004020180402010080402010804020101FF
:100BE0000204081020408001020408102040800008
:100BF000002200250028002B002E003100340002C6
:100C0000010000050108010B0105050505070508A0
:100C1000080808020202020A0A080804040404017F
:100C200001010101010101030303030303030304A1
:100C30000707070C0C0C0C0C0C0C0C020202020631
:100C4000060606060606060B0B0B0B0B0B0B0B0022
:100C5000000A0B02090C0D0E080703040100000036
:100C60000000000000000000000000000000000084
:100C70000000000000000000000000121110000041
:100C80000000000000000000000000000000000064
:100C9000000000000000924411241FBECFEFD1E2FB
:100CA000DEBFCDBF00E00CBF17E0A0E0B2E0E4EF94
:100CB000F7E900E00BBF02C007900D92A83DB10715
:100CC000D9F72AE0A8EDB7E001C01D92AB34B20716
:100CD000E1F716E0CCE4D6E000E006C02197010978
:100CE000802FFE010E94984ACB34D10780E008078C
:100CF000A9F70E9463360C94F84B0C9400000895F9
:100D00002F923F924F925F926F927F928F929F921B
:100D1000AF92BF92CF92DF92EF92FF920F931F9309
:100D2000CF93DF93CDB7DEB72D970FB6F894DEBF24
:100D30000FBECDBF9D878C876A30A1F4DC0154962D
:100D40002C9154971E968D919C911F97B8E02B9FE4
:100D5000800D911D1124EC85FD859787868715866A
:100D60001486F8C06D3009F4F5C0AC85BD851C96BD
:100D7000CD90DC901D9718968D919C911997C8166F
:100D8000D906BCF0EC85FD854489242F30E08485AC
:100D90009585F6E04F9F800D911D1124AC85BD8592
:100DA0001D969C938E931C9756964C914111AEC004
:100DB000D1C0EC85FD8586849784828593858816CD
:100DC000990604F7F489F983AF2EB12CC60126E009
:100DD000F29F800D911D1124181619069CF6C5016D
:100DE00023E0880F991F2A95E1F7880D991D1816A1
:100DF000190644F6AC85BD8557968C91811103C0C8
:100E0000603B08F06F5FEC85FD850288F389E02D7B
:100E1000FD83EC83AC85BD8550960D90BC91A02DD3
:100E2000BF83AE83B5E06B9FB001112416011A8217
:100E3000FB01EC19FD09F987E8879401285F3F4F12
:100E40003B872A873A81353049F0E885F985E20DFC
:100E5000F31DE157F94F54915B8301C01B822401BC
:100E600034018B8180FF13C0AC85BD85ED91FC9171
:100E7000B981B13031F40084F185E02D2E813F81BC
:100E800019C00288F389E02DEE80FF801EC0EC813E
:100E9000FD812E813F81E217F307F1F0AC85BD851E
:100EA000ED91FC91B981B13059F40084F185E02DC8
:100EB0002C813D81A301B1018C859D8519950CC0C4
:100EC0000288F389E02DEC80FD8085019501A20167
:100ED000B6018C859D851995EB81E695EB83FFEF37
:100EE0006F1A7F0A4A0C5B1C2A853B85261537053D
:100EF00009F0B7CF3A813F5F3A835FEF251A350A91
:100F0000CA0CDB1C363009F09DCF3CCF4AEF4203C0
:100F1000B001439F700D1124AC85BD8518964D918D
:100F20005C911997460F571F481759079CF483E0A7
:100F3000220F331F8A95E1F71E968D919C911F9782
:100F4000280F391F1F963C932E931E971D961C92B7
:100F50001E921C9781E090E02D960FB6F894DEBFAC
:100F60000FBECDBFDF91CF911F910F91FF90EF90FA
:100F7000DF90CF90BF90AF909F908F907F906F90B9
:100F80005F904F903F902F900895EF92FF920F93B4
:100F90001F93DC011A960D911C911B9718962D91A9
:100FA0003C911997ED91FC910288F389E02D7B012A
:100FB00040E050E060E070E019951F910F91FF90C4
:100FC000EF9008956F927F928F929F92AF92BF920F
:100FD000CF92DF92EF92FF920F931F93CF93DF9305
:100FE0006C015A014801EB013B01620E731EC615EC
:100FF000D70574F4D601ED91FC910484F585E02DBC
:1010000087019401A501BE01C60119952196EFCF74
:10101000DF91CF911F910F91FF90EF90DF90CF90D4
:10102000BF90AF909F908F907F906F900895EF92B8
:10103000FF920F931F93260F371F21503109DC01B8
:10104000ED91FC910284F385E02D78018A011995D8
:101050001F910F91FF90EF900895EF92FF920F93E1
:101060001F93240F351F21503109DC01ED91FC91B4
:101070000284F385E02D780189019B0119951F9168
:101080000F91FF90EF9008956F927F928F929F92B1
:10109000AF92BF92CF92DF92EF92FF920F931F9386
:1010A000CF93DF93EC014B015A0169013801E881CC
:1010B000F9810684F785E02D87011995A501460D74
:1010C000571D41505109E881F9810684F785E02DCB
:1010D0009601B401CE011995E881F9810484F58562
:1010E000E02D9301A501B401CE011995C80CD91CBE
:1010F000B60161507109E881F9810484F585E02D1C
:101100009301A501CE011995DF91CF911F910F9108
:10111000FF90EF90DF90CF90BF90AF909F908F9017
:101120007F906F9008952F923F924F925F926F92AF
:101130007F928F929F92AF92BF92CF92DF92EF9267
:10114000FF920F931F93CF93DF9300D000D0CDB7C2
:10115000DEB72C017E836D836A015901C801FC82D0
:10116000EB824801841A950A97FE03C091948194FA
:10117000910835012D813E81621A730A77FE03C002
:10118000719461947108681479045CF43A2D2B2DE4
:101190005C01832F922F3D812E81DE82CD82C32E72
:1011A000D22EAD81BE81AA16BB065CF43C2D2D2D3E
:1011B0006C01832F922F3D812E81BE82AD82A32EA2
:1011C000B22E85012D813E81021B130B1C012C18B0
:1011D0003D0837FE03C0319421943108780117FF90
:1011E00003C03FEFE31AF30AF594E794C816D90653
:1011F0002CF08FEF9FEF9A83898304C0A1E0B0E0C9
:10120000BA83A9832D813E81A216B30624F1D201AF
:10121000ED91FC910084F185E02D2B813C816814D7
:10122000790424F44D815E81B60103C0A6016D816D
:101230007E81C2011995E218F308F7FE06C02981E4
:101240003A81C20ED31EE00EF11E8D819E81019661
:101250009E838D83D7CF26960FB6F894DEBF0FBE40
:10126000CDBFDF91CF911F910F91FF90EF90DF9055
:10127000CF90BF90AF909F908F907F906F905F9036
:101280004F903F902F900895089580E090E008954A
:10129000CF92DF92EF92FF92CF93DF93FC01C6854E
:1012A000D785209104023091050287EB9AE0289FB0
:1012B000B001299F700D389F700D11246D5D784E1F
:1012C0007093050260930402072E000C880B990BA3
:1012D0000E946C476B017C0120E030E0A9010E9474
:1012E000BD4687FF0AC02AE635ED4CE45DE4C70140
:1012F000B6010E9451466B017C012AE635ED4CE4B3
:101300005DE4C701B6010E94C24620E030E048EA31
:1013100051E40E9479480E9434476A5071097983E8
:101320006883DF91CF91FF90EF90DF90CF90089589
:10133000CF92DF92EF92FF920E94752D6B017C019C
:101340006093AA087093AB088093AC089093AD08A3
:101350000E94752DDC01CB018C199D09AE09BF09D6
:10136000803D9740A105B10598F38EEA98E00E9470
:10137000992F8EEA98E00E94902D9C012B7F2236B7
:10138000310509F43FC082379105E1F19C01277FC7
:1013900024363105B9F188369105A1F16CE676E085
:1013A0008EEA98E00E949D2F0E94752D6B017C01B2
:1013B0006093AA087093AB088093AC089093AD0833
:1013C0000E94752DDC01CB018C199D09AE09BF0966
:1013D000803D9740A105B10598F38EEA98E00E9400
:1013E000902D8437910531F08436910591F48AE689
:1013F00096E002C088E696E0FF90EF90DF90CF90F5
:101400000C948A1D0E94B21E83E896E00E948A1DF9
:10141000CBCFFF90EF90DF90CF900895CF92DF92E7
:10142000EF92FF92CF93DF93EC0189E996E00E945F
:101430008A1D0E94752D6B017C016093AA08709330
:10144000AB088093AC089093AD080E94752DDC0129
:10145000CB018C199D09AE09BF09803D9740A105BC
:10146000B10598F38EEA98E00E94992F8EEA98E0F1
:101470000E94902D8936910519F4E881F98105C003
:101480008436910569F4EA81FB8181E090E09183E3
:101490008083DF91CF91FF90EF90DF90CF90089500
:1014A0006CE676E08EEA98E0DF91CF91FF90EF90C6
:1014B000DF90CF900C949D2FEF92FF920F931F938C
:1014C000CF93DF93EC011092210A1092200A109220
:1014D000230A1092220A84E08093280AEE81FF8179
:1014E000808191818B309105E0F48091A8089091E2
:1014F000A908823091056CF01092270A1092260AF2
:101500001092250A1092240A1092A9081092A80895
:101510002BC001969093A9088093A80880E098EFCB
:101520001BC0C397B8F48091A8089091A908813096
:10153000910511F320E03CEF3093270A2093260A0F
:101540003093250A2093240A01969093A90880934A
:10155000A8080AC080EE97E09093270A8093260A95
:101560009093250A8093240A64EB76E084E19AE064
:101570000E949D2F84E19AE00E94992FE885F985C9
:10158000808191818B309105B8F48091A60890916B
:10159000A708823091056CF01092270A1092260A53
:1015A0001092250A1092240A1092A7081092A608F9
:1015B00026C020E038EF0BC0C397B8F48091A6088E
:1015C0009091A7088130910539F320E03CEF3093EA
:1015D000270A2093260A3093250A2093240A01968D
:1015E0009093A7088093A6080AC080EE97E0909396
:1015F000270A8093260A9093250A8093240A6CEB8D
:1016000076E084E19AE00E949D2F84E19AE00E94B6
:10161000992F8091D8079091D907892B09F4AFC0F1
:101620008091A4089091A508892B09F0A8C0109278
:10163000210A1092200A81E490E09093230A80937B
:10164000220A80E098EF9093270A8093260A9093CD
:10165000250A8093240A61EC76E084E19AE00E94F6
:101660009D2FC091A208D091A3082196D093A308E2
:10167000C093A2088EEA98E00E94902D18161906D1
:101680003CF481E090E09093A5088093A40804C006
:101690001092A5081092A4088091A4089091A50822
:1016A000892B09F08CC060970CF489C08091A00848
:1016B0009091A1080597BCF5C0E0D0E081E4E82E48
:1016C000F12C00E018EF1092210A1092200AF092FB
:1016D000230AE092220AC0FD09C01092270A109244
:1016E000260A1092250A1092240A08C01093270A8D
:1016F0000093260A1093250A0093240A61EC76E0F1
:1017000084E19AE00E949D2F84E19AE00E94992F43
:1017100062E370E080E090E00E94BA2C2196C43130
:10172000D10589F61AC01092210A1092200A81E48C
:1017300090E09093230A8093220A80E098EF9093A0
:10174000270A8093260A9093250A8093240A61EC45
:1017500076E084E19AE00E949D2F8091A00890910C
:10176000A1088A3091052CF01092A1081092A008CF
:1017700026C001969093A1088093A00820C01092E3
:10178000210A1092200A81E490E09093230A80932A
:10179000220A1092270A1092260A1092250A109205
:1017A000240A61EC76E084E19AE00E949D2F109279
:1017B000A3081092A2081092A5081092A408DF9125
:1017C000CF911F910F91FF90EF900895CF93DF93EA
:1017D000EC0166EC76E08EEA98E00E949D2FEE81A7
:1017E000FF81808191818536910528F088ED96E012
:1017F0000E948A1D04C06AE070E00E94A51D6BED86
:1018000076E08EEA98E00E949D2FE885F9856AE0EF
:1018100070E0808191810E94A51D6AEE76E08EEADB
:1018200098E00E949D2FEA85FB856AE070E0808148
:1018300091810E94A51D6FEF76E08EEA98E00E94EC
:101840009D2FEC85FD856AE070E0808191810E948A
:10185000A51D63E177E08EEA98E00E949D2FEC8160
:10186000FD8180819181892B19F086E297E002C089
:1018700089E297E00E948A1D8EEA98E00E94992FE3
:101880008091DE079091DF07892B21F08DE297E0B0
:101890000E948A1D8091DC079091DD07892B21F041
:1018A00084E397E00E948A1DEE81FF81808191810F
:1018B000EA81FB81C29748F481E090E091838083C4
:1018C0008CE397E00E948A1D02C011821082E88595
:1018D000F98580819181E881F981C29748F481E09E
:1018E00090E09183808388E497E00E948A1D02C083
:1018F0001182108261E577E08EEA98E00E949D2FC8
:10190000E091000AF091010A0190F081E02D8081C0
:1019100091810E94B21E67E677E08EEA98E00E940D
:101920009D2FE889F989608171818281938142E0EC
:101930000E94DE1D8EEA98E0DF91CF910C94992FE2
:10194000CF92DF92EF92FF920F931F93CF93DF938B
:10195000EC01EBEEFBE06491EBE4FCE0E491F0E001
:10196000EE0FFF1FEB58F94F8591949100E412E4BC
:101970002FE030E0462F0E941E366115710581056B
:10198000910549F0DC01CB010196A11DB11DBC01FF
:10199000CD019F7003C060E070E0CB010E946A47F8
:1019A0000E94A7470E943447072E000C880B990B12
:1019B0000E946C472EE63FED4BE25FE30E947948C0
:1019C0000E94A7470E943447613D47E074071CF01E
:1019D00080ED97E00AC0643671052CF070939F0883
:1019E00060939E0806C084E690E090939F088093E1
:1019F0009E0800919E0810919F08E881F98111834B
:101A00000083C0919C08D0919D08209729F4609193
:101A10009A0870919B0807C0FE01EE0FFF1FE65762
:101A2000F74F60817181601B710B77FF03C0719567
:101A300061957109072E000C880B990B209729F5E9
:101A40000E946C476B017C0160919A0870919B0821
:101A500080E090E00E946A472DEC3CEC4CEC5DE3AA
:101A60000E9479489B01AC01C701B6010E947448ED
:101A70001816E4F510938D0800938C0881E090E02F
:101A800090939D0880939C0831C00E946C476B0125
:101A90007C01FE01EE0FFF1FE657F74F6081718159
:101AA00080E090E00E946A472DEC3CEC4CEC5DE35A
:101AB0000E9479489B01AC01C701B6010E9474489D
:101AC0001816A4F4FE01EE0FFF1FE457F74F118321
:101AD0000083C730D1052CF010929D0810929C080D
:101AE00005C02196D0939D08C0939C08DF91CF91AB
:101AF0001F910F91FF90EF90DF90CF9008952F925C
:101B00003F924F925F926F927F928F929F92AF928D
:101B1000BF92CF92DF92EF92FF920F931F93CF93DA
:101B2000DF93CDB7DEB7C251D8400FB6F894DEBF11
:101B30000FBECDBFC55FD74F99838883CB50D840A8
:101B40003E012FEF621A2BEF720A80E092E0F30160
:101B50009C01119221503040E1F773018E010F5F1B
:101B60001D4F8BE8C82EDD24D39482E40E94F82B0D
:101B7000BC01990F880B990B0E946C472AE037ED46
:101B800043E25CE30E94794820E030E040E251E427
:101B90000E94794820E030E040E251E40E94504643
:101BA0000E943447F801619371938F01F7011192FC
:101BB00011927F01C6010197F1F706151705A9F6E5
:101BC0008FEFECE0F2E0DE01B95F01900D928A95B3
:101BD000E1F78FEFEBE0F3E0DE01AF5FB94F01908B
:101BE0000D928A95E1F780E092E0EAE0F4E0DE0110
:101BF000119601900D920197E1F7FE01EF5FFD4F05
:101C000040E050E080E090E020E830E08217930769
:101C10002CF0821B930B35952795F8CF820F931FDD
:101C20004F5F5F4F4F3F5105B9F04817590794F484
:101C300022813381DC01AA0FBB1F61E072E06C0FCF
:101C40007D1FA60FB71F6D917C91119773836283DF
:101C50002D933C933296D8CF88E090E0CF5FD74F5A
:101C600099838883C150D840212C312C41E050E029
:101C7000BA01660F771FFB01EE0FFF1FC75FD74F3B
:101C8000F983E883C950D84053019E012F5F3D4F2F
:101C9000290100E010E0041715070CF002C1CF5E27
:101CA000D74FB982A882C151D840D201C150D84F74
:101CB00019830883CF5FD740C801820D931DE0E0F0
:101CC000F7E0EC0FFD1FE80FF91FC35FD74FF98353
:101CD000E883CD50D84021E036E02C0F3D1F280F7F
:101CE000391FC15FD74F39832883CF50D840C150A7
:101CF000D84F88819981CF5FD7408F3F910511F0F0
:101D00000CF0C6C0C35FD74FE881F981CD50D840F1
:101D10008080082C000C99089D01260F371FC95F91
:101D2000D74F39832883C750D840F9010190F081FB
:101D3000E02DCD5FD74FF983E883C350D840C15F12
:101D4000D74FE881F981CF50D840E0800E2C000CAD
:101D5000FF08CF5ED74F28813981C151D840260F67
:101D6000371FCB5FD74F39832883C550D840F9013F
:101D700080819181CD5FD74FE881F981C350D840F0
:101D80008E9E90018F9E300D9E9E300D1124E89EF8
:101D90006001E99ED00CF89ED00C11242C193D094D
:101DA00037FF02C0215E3F4FF5E035952795FA9544
:101DB000E1F7889E6001899ED00C989ED00C11247A
:101DC000CD5FD74FE881F981C350D840EE9DC00167
:101DD000EF9D900DFE9D900D11248C0D9D1D97FD86
:101DE0004F96E5E095958795EA95E1F7ED90FC90A3
:101DF0001197E21AF30AC95FD74FE881F981C750FA
:101E0000D840F182E082CF5ED74FE881F981C1519D
:101E1000D840E080F180E81AF90ACB5FD74FE8811B
:101E2000F981C550D840F182E082ED90FC90119785
:101E30002E0D3F1D11963C932E93CF5ED74FE88118
:101E4000F981C151D840C080D1808C0D9D1D9183F6
:101E50008083C150D84F28813981CF5FD740260F6A
:101E6000371FC150D84F39832883CF5FD740C75F12
:101E7000D74F88819981C950D840A80FB91FE80F62
:101E8000F91FCF5ED74FF983E883C151D8402FCFD8
:101E90000F5F1F4F92E0490E511CE2E0AE0EB11CE5
:101EA000FACE57FF02C040E050E0240E351ECF5F4F
:101EB000D74F28813981C150D84021503109CF5F97
:101EC000D74F39832883C150D840AB01232B09F069
:101ED000CFCE8E010D5F1D4FDE01AD5FBB4FEE24F7
:101EE000E394F12C60E070E041E050E08D919D9131
:101EF000F801219131918F0137FF03C03195219570
:101F000031092115F2E03F0714F02FEF31E0E1E055
:101F1000F0E0EC0FFD1F2E0F3F1FF901208130E094
:101F200097FF03C09195819591098115F2E09F0774
:101F300014F08FEF91E0E1E0F0E0EC0FFD1F8E0F69
:101F40009F1FFC018081280F311D6217730714F455
:101F5000B9017A014F5F5F4F4038510539F6C55FCF
:101F6000D74FE881F981CB50D8400081118182E3BD
:101F70008E9DB0018F9D700D1124072E000C880BD3
:101F8000990B0E946C476B017C0120E030E0A901B5
:101F90000E947448181624F0F7FAF094F7F8F094B9
:101FA000F801C082D182E282F382E0918A08F09146
:101FB0008B08EE0FFF1FEE0FFF1FE65BF74FC0828F
:101FC000D182E282F3820AE418E09AE8E92E98E0EE
:101FD000F92EF80161917191819191918F0142E007
:101FE0000E94DE1D65E777E08EEA98E00E949D2F53
:101FF000E016F10671F78EEA98E00E94992F809121
:102000008A0890918B08803191052CF010928B08F2
:1020100010928A0805C0019690938B0880938A08D5
:10202000CE5ED74F0FB6F894DEBF0FBECDBFDF91A7
:10203000CF911F910F91FF90EF90DF90CF90BF90C5
:10204000AF909F908F907F906F905F904F903F9058
:102050002F900895AF92BF92CF92DF92EF92FF92AE
:102060000F931F93CF93DF935B017C01C0E0D0E01F
:1020700000E010E0CA15DB0504F5F701C190D1902E
:102080007F01BE010D2E000C880B990B0E946C473E
:102090009B01AC0160E070E080E090E40E94E648C3
:1020A0000E943447C69E9001C79E300DD69E300DCB
:1020B0001124020F131F2196DDCFC801DF91CF91AC
:1020C0001F910F91FF90EF90DF90CF90BF90AF9056
:1020D0000895AF92BF92CF92DF92EF92FF920F934B
:1020E0001F93CF93DF93CDB7DEB768970FB6F89401
:1020F000DEBF0FBECDBF5C01DC01ED91FC91E08045
:10210000F18088EC90E00E94D24A8C01FC01B096EC
:102110008FE090E09701082E02C0359527950A942C
:10212000E2F72170332732932293019798F7F80151
:10213000E080F18082819381E82AF92A8481958167
:10214000E82AF92A86819781E82AF92A80859185EB
:102150009A8B898B828593859C8B8B8B84859585C7
:102160009E8B8D8B86859785988F8F8B64E070E032
:10217000CE0141960E942A106C01D80150968D9193
:102180009C9151979A83898352968D919C915397F4
:102190009C838B8354968D919C9155979E838D83C0
:1021A00056968D919C91579798878F8358968D91CD
:1021B0009C9159979A8789875A968D919C915B97A4
:1021C0009C878B875C968D919C915D979E878D8770
:1021D0005E968D919C915F97988B8F8768E070E0F9
:1021E000CE0101960E942A10EF28D9F0892BC9F060
:1021F000D5011296ED91FC9113978081918118166B
:1022000019067CF4BEE0CB16D10411F0CD2849F0BC
:10221000853091051CF41182108203C005979183CB
:10222000808368960FB6F894DEBF0FBECDBFDF91F6
:10223000CF911F910F91FF90EF90DF90CF90BF90C3
:10224000AF9008954F925F926F927F928F929F927C
:10225000AF92BF92CF92DF92EF92FF920F931F93B4
:10226000CF93DF93EC010E94952C60934608709306
:10227000470880934808909349086B017C0128E542
:10228000C20E22E0D21EE11CF11C0E94952CC61643
:10229000D706E806F906C8F383E40E94F82B25E088
:1022A000AC01249FC001259F900D11246FEF73E0B6
:1022B0000E94624A072E000C880B990B0E946C4703
:1022C00026E636E646EE50E40E9479480E94A7478B
:1022D00025E83BEE41E350E40E9479480E94A7477D
:1022E0000E943B47EE81FF8171836083E881F98121
:1022F000408151814130510509F06AC16036710554
:102300004CF0EC81FD8151834083EA85FB8511828D
:10231000108267C16233710570F48091DA07909181
:10232000DB07EA85FB85009769F080FF0BC08081A1
:10233000918101960AC0635371096C32710538F4BA
:10234000EA85FB858081918102969183808388E76D
:1023500097E00E948A1D0E94752D6093AA087093D1
:10236000AB088093AC089093AD086B017C0150EDF5
:10237000C50E57E0D51EE11CF11C0E94752D6C1591
:102380007D058E059F05C8F38EEA98E00E94902D8A
:10239000181619060CF025C18EEA98E00E94992FB4
:1023A0000E94952C609346087093470880934808D4
:1023B000909349086B017C01E4EFCE0EE1E0DE1E54
:1023C000E11CF11C0E94952C6C157D058E059F0566
:1023D000C8F384E40E94F82B8C0185E40E94F82B5A
:1023E0007C0125E0D22ED09EC001D19E900D1124FB
:1023F0000FEF13E0B8010E94624A072E000C880B11
:10240000990B0E946C4726E636E646E25FE30E949F
:10241000794820E030E040E052E40E94794820E032
:1024200030E044E052E40E9451462B013C01DE9C26
:10243000C001DF9C900D1124B8010E94624A072E52
:10244000000C880B990B0E946C4726E636E646E2A4
:102450005FE30E94794820E030E040E052E40E94CF
:10246000794820E030E044E052E40E9451464B01BC
:102470005C01CE84DF84F6014082518262827382E5
:10248000E889F9896083718382839383009144088A
:1024900010914508F801EE0FFF1FEE0FFF1FEC5FD4
:1024A000F74F4082518262827382F801EE0FFF1F64
:1024B000EE0FFF1FE85FF74F608371838283938382
:1024C000EC84FD840115110539F52AE939E949E95A
:1024D0005FE360913C0870913D0880913E089091C7
:1024E0003F080E9479489B01AC01F601608171812F
:1024F000828193810E94744818160CF442C02AE924
:1025000039E949E95FE360914008709141088091A1
:102510004208909143082BC0F801EE0FFF1FEE0F09
:10252000FF1FE450F84F2AE939E949E95FE3608188
:102530007181828193810E9479489B01AC01F601EF
:1025400060817181828193810E9474481816CCF059
:10255000000F111F000F111FF801E050F84F2AE97A
:1025600039E949E95FE360817181828193810E9449
:1025700079489B01AC01C501B4010E94744818164A
:1025800034F481E090E0F7019183808303C0F70188
:10259000118210826DE977E08EEA98E00E949D2F0B
:1025A000EC85FD85808191810E94B21E8091440856
:1025B000909145080296803191052CF4909345083E
:1025C000809344080EC0109245081092440809C038
:1025D0006B30710534F4EA81FB8181E090E09183F6
:1025E0008083DF91CF911F910F91FF90EF90DF904B
:1025F000CF90BF90AF909F908F907F906F905F90A3
:102600004F9008958F929F92AF92BF92CF92DF9298
:10261000EF92FF920F931F93CF93DF93EC01009102
:10262000020210910302EE81FF8180819181019766
:1026300069F4C8014996853F21E0920714F084EFC0
:1026400091E090930302809302020EC0E885F98521
:1026500080819181019751F4C801499797FFF1CF8B
:10266000109203021092020211821082AA85BB8589
:102670008D919C9111978436910508F04CC00E9471
:10268000752D4B015C018DE20E94BF1D61E08DE262
:102690000E94172CC0900202D09003020D2C000C57
:1026A000EE08FF08C80CD91CEA1CFB1C0E94752D03
:1026B000C616D706E806F90668F30E94752D6B0169
:1026C0007C016093AA087093AB088093AC08909348
:1026D000AD088DE20E94BF1D60E08DE20E94172CC4
:1026E00084EF91E0801B910B092E000CAA0BBB0B11
:1026F000C80ED91EEA1EFB1E0E94752DC616D706EF
:10270000E806F906C8F3EA85FB8580819181019688
:102710009183808321C04A815B81FA0120813181CC
:1027200088819981232B31F021E030E0FC01318355
:10273000208303C0FC01118210821D921C92FA01B9
:1027400011821082EC81FD81118210828AEF90E06B
:1027500090930302809302028EEA98E00E94992FE0
:1027600069EA77E08EEA98E00E949D2FEA85FB8572
:102770006AE070E0808191810E94A51D68EB77E09E
:102780008EEA98E00E949D2F8091020290910302B0
:102790000E949B1D86EC97E00E948A1D8EEA98E0BD
:1027A000DF91CF911F910F91FF90EF90DF90CF902D
:1027B000BF90AF909F908F900C94992F8F929F9283
:1027C000BF92CF92DF92EF92FF920F931F93CF931E
:1027D000DF93EC01CB017A01E98DFA8D50814DA197
:1027E00045234083488D411163C54D89423089F0AE
:1027F000433021F1413081F5AFEEB0E0AD01401B37
:10280000510B4B01AE19BF0989019D017B01CA0122
:1028100025C04FEE50E0BA01621B730B9A01281BD2
:10282000390B8FE391E0AC01401B510B8C010E1969
:102830001F094801D9017A01CB0110C0EFE3F1E093
:10284000AF01421B530B4F01861A970AD70198011B
:102850008401C7017A0102C04701DB016B8D7C8DC9
:10286000FB0150814EA145234083409102014778EE
:102870004093020140910201409302014EB1477C16
:102880004EB94EB14EB9A59844B344BB6D8D7E8D03
:10289000FB0150814FA1452340836D8D7E8DFB014F
:1028A00050814BA1452B40834091020147784093D2
:1028B0000201409102014860409302014EB1477C01
:1028C0004EB94EB14EB9A598A59A6D8D7E8DFB017E
:1028D00050814FA1452340836D8D7E8DFB0150813A
:1028E0004BA1452B4083492F552747FD5A95CB8C4B
:1028F000DC8CF60170816AA1672B60836091020114
:10290000677860930201B0900201BA01607C77277A
:102910006B0163E0D594C7946A95E1F7BA016370DF
:102920007727E5E0660F771FEA95E1F76C296B29B9
:10293000609302016EB1677C6EB9BEB0BA016C7073
:1029400077276B01CC0CDD1CCC0CDD1CBA0160724E
:10295000772775956795759567956C296B296EB97D
:10296000A59864B340715527440F551F462B44BBAF
:102970006D8D7E8DFB0150814FA1452340836D8D70
:102980007E8DFB0150814BA1452B4083409102017C
:1029900047784093020160910201AC01407C5527C9
:1029A0006A0143E0D594C7944A95E1F7AC014370BE
:1029B000552775E0440F551F7A95E1F74C29462BB2
:1029C000409302014EB1477C4EB96EB1AC014C70E0
:1029D00055276A01CC0CDD1CCC0CDD1CAC0140720F
:1029E000552755954795559547954C29462B4EB9F2
:1029F000A59864B380719927880F991F862B84BB93
:102A00004D8D5E8DFA0190818FA1892380834D8D3C
:102A10005E8DFA0190818BA1892B80834B8D5C8D1B
:102A2000FA0190818EA189238083809102018778A9
:102A30008093020180910201809302018EB1877C14
:102A40008EB98EB18EB9A59884B384BB4D8D5E8D41
:102A5000FA0190818FA1892380834D8D5E8DFA01CB
:102A600090818BA1892B808380910201877880934C
:102A70000201809102018862809302018EB1877CFD
:102A80008EB98EB18EB9A598A59A4D8D5E8DFA013D
:102A900090818FA1892380834D8D5E8DFA01908175
:102AA0008BA1892B8083832F992787FD9A956B8D26
:102AB0007C8DFB0150814AA1452B4083409102014E
:102AC00047784093020160910201AC01407C552798
:102AD0006A0173E0D594C7947A95E1F7AC0143702D
:102AE0005527E5E0440F551FEA95E1F74C29462BA1
:102AF000409302014EB1477C4EB96EB1AC014C70AF
:102B000055276A01CC0CDD1CCC0CDD1CAC014072DD
:102B1000552755954795559547954C29462B4EB9C0
:102B2000A59844B380719927880F991F842B84BB83
:102B30004D8D5E8DFA0190818FA1892380834D8D0B
:102B40005E8DFA0190818BA1892B80838091020197
:102B500087788093020140910201C901807C992706
:102B6000BC01F3E075956795FA95E1F7C9018370AB
:102B7000992755E0880F991F5A95E1F7862B842BEA
:102B8000809302018EB1877C8EB94EB1C9018C70E1
:102B90009927BC01660F771F660F771FC9018072E6
:102BA00099279595879595958795862B842B8EB932
:102BB000A59884B320713327220F331F282B24BB01
:102BC0002D8D3E8DF90190818FA1892380832D8DDC
:102BD0003E8DF90190818BA1892B80832B8D3C8DBB
:102BE000F90190818EA189238083809102018778E9
:102BF0008093020180910201809302018EB1877C53
:102C00008EB98EB18EB9A59884B384BB2D8D3E8DBF
:102C1000F90190818FA1892380832D8D3E8DF9014B
:102C200090818BA1892B808380910201877880938A
:102C30000201809102018864809302018EB1877C39
:102C40008EB98EB18EB9A598A59A2D8D3E8DF901BC
:102C500090818FA1892380832D8D3E8DF9019081F4
:102C60008BA1892B80838F2D992787FD9A954B8D7A
:102C70005C8DFA0130812AA1232B2083209102014F
:102C8000277820930201409102019C01207C332788
:102C9000B90133E0759567953A95E1F79C0123708A
:102CA000332755E0220F331F5A95E1F7262B242BAB
:102CB000209302012EB1277C2EB94EB19C012C70BD
:102CC0003327B901660F771F660F771F9C012072AB
:102CD00033273595279535952795262B242B2EB907
:102CE000A59824B380719927880F991F822B84BBE4
:102CF0002D8D3E8DF90190818FA1892380832D8DAB
:102D00003E8DF90190818BA1892B808380910201F6
:102D100087788093020120910201C701807C992766
:102D2000AC0163E0559547956A95E1F7C70183705B
:102D3000992775E0880F991F7A95E1F7842B822BEC
:102D4000809302018EB1877C8EB92EB1C7018C7041
:102D50009927AC01440F551F440F551FC7018072BE
:102D600099279595879595958795842B822B8EB974
:102D7000A59844B3970120713327220F331F242BCA
:102D800024BB2D8D3E8DF90190818FA189238083F5
:102D90002D8D3E8DF90190818BA1892B80832B8D08
:102DA0003C8DF90190818EA189238083809102015D
:102DB00087788093020180910201809302018EB195
:102DC000877C8EB98EB18EB9A59884B384BB2D8DC6
:102DD0003E8DF90190818FA1892380832D8D3E8DB9
:102DE000F90190818BA1892B8083809102018778E2
:102DF00080930201809102018866809302018EB166
:102E0000877C8EB98EB18EB9A598A59A2D8D3E8DF1
:102E1000F90190818FA1892380832D8D3E8DF90149
:102E200090818BA1892B8083812F992787FD9A958B
:102E30004B8D5C8DFA0130812AA1232B20832091B8
:102E40000201277820930201409102019C01207C1D
:102E50003327B90123E0759567952A95E1F79C0121
:102E60002370332755E0220F331F5A95E1F7262BA5
:102E7000242B209302012EB1277C2EB94EB19C0148
:102E80002C703327B901660F771F660F771F9C01DF
:102E9000207233273595279535952795262B242B9A
:102EA0002EB9A59824B380719927880F991F822B7A
:102EB00084BB2D8D3E8DF90190818FA18923808364
:102EC0002D8D3E8DF90190818BA1892B808380917E
:102ED000020187788093020120910201C801807C61
:102EE0009927AC0163E0559547956A95E1F7C801CC
:102EF0008370992775E0880F991F7A95E1F7842BE5
:102F0000822B809302018EB1877C8EB92EB1C801CD
:102F10008C709927AC01440F551F440F551FC801F1
:102F2000807299279595879595958795842B822B07
:102F30008EB9A59824B300711127000F111F022B21
:102F400004BB2D8D3E8DF90190818FA18923808353
:102F50002D8D3E8DF90190818BA1892B80832B8D46
:102F60003C8DF90190818EA189238083809102019B
:102F700087788093020180910201809302018EB1D3
:102F8000877C8EB98EB18EB9A59884B384BB2D8D04
:102F90003E8DF90190818FA1892380832D8D3E8DF7
:102FA000F90190818BA1892B808380910201877820
:102FB0008093020180910201809302018EB1877C8F
:102FC0008EB9739AA59884B384BB2D8D3E8DF9017B
:102FD00090818FA1892380832D8D3E8DF901908171
:102FE0008BA1892B80838B2F992787FD9A954B8DF9
:102FF0005C8DFA0130812AA1232B208320910201CC
:10300000277820930201409102019C01207C332704
:10301000B90123E0759567952A95E1F79C01237026
:10302000332755E0220F331F5A95E1F7262B242B27
:10303000209302012EB1277C2EB94EB19C012C7039
:103040003327B901660F771F660F771F9C01207227
:1030500033273595279535952795262B242B2EB983
:10306000A59824B380719927880F991F822B84BB60
:103070002D8D3E8DF90190818FA1892380832D8D27
:103080003E8DF90190818BA1892B80838091020173
:1030900087788093020120910201CD01807C9927DD
:1030A000AC0103E0559547950A95E1F7CD01837092
:1030B000992735E0880F991F3A95E1F7842B822BE9
:1030C000809302018EB1877C8EB92EB1CD018C70B8
:1030D0009927AC01440F551F440F551FCD01807235
:1030E00099279595879595958795842B822B8EB9F1
:1030F000A59884B3A071BB27AA0FBB1FA82BA4BBA4
:10310000AD8DBE8D9C918FA189238C93AD8DBE8D8D
:103110009C918BA1892B8C93AB8DBC8D9C918EA1A6
:1031200089238C938091020187788093020180919A
:103130000201809302018EB1877C8EB98EB18EB967
:10314000A59884B384BBAD8DBE8D9C918FA189233E
:103150008C93AD8DBE8D9C918BA1892B8C9380918E
:10316000020187788093020180910201806280933E
:1031700002018EB1877C8EB9739AA59884B384BB03
:10318000AD8DBE8D9C918FA189238C93AD8DBE8D0D
:103190009C918BA1892B8C93892D992787FD9A95DA
:1031A000AB8DBC8D3C912AA1232B2C932091020145
:1031B000277820930201409102019C01207C332753
:1031C000B901A3E075956795AA95E1F79C01237075
:1031D0003327B5E0220F331FBA95E1F7262B242BB6
:1031E000209302012EB1277C2EB94EB19C012C7088
:1031F0003327B901660F771F660F771F9C01207276
:1032000033273595279535952795262B242B2EB9D1
:10321000A59824B380719927880F991F822B84BBAE
:10322000AD8DBE8D9C918FA189238C93AD8DBE8D6C
:103230009C918BA1892B8C9380910201877880933C
:10324000020120910201C401807C9927AC0163E056
:10325000559547956A95E1F7C4018370992775E004
:10326000880F991F7A95E1F7842B822B80930201B6
:103270008EB1877C8EB92EB1C4018C709927AC01B8
:10328000440F551F440F551FC4018072992795950F
:10329000879595958795842B822B8EB9A59884B3B5
:1032A000F401E071FF27EE0FFF1FE82BE4BB80C3A2
:1032B000413009F08AC3492F552747FD5A95EB8DB8
:1032C000FC8D70816EA16723608360910201677835
:1032D00060930201609102016064609302016EB12B
:1032E000677C6EB96EB16EB9A59864B364BBED8DA1
:1032F000FE8D70816FA167236083ED8DFE8D7081DF
:103300006BA1672B6083EB8DFC8D70816AA1672BAD
:10331000608360910201677860930201E09102018D
:10332000BA01607C7727DB0173E0B595A7957A95A4
:10333000E1F7BA0163707727F5E0660F771FFA951A
:10334000E1F76A2B6E2B609302016EB1677C6EB958
:10335000EEB1BA016C707727DB01AA0FBB1FAA0F71
:10336000BB1FBA016072772775956795759567954C
:103370006A2B6E2B6EB9A59864B340715527440F24
:10338000551F462B44BBED8DFE8D50814FA145232B
:103390004083ED8DFE8D50814BA1452B4083EB8DFD
:1033A000FC8D50814EA14523408340910201477816
:1033B00040930201409102014066409302014EB1E8
:1033C000477C4EB94EB14EB9A59844B344BBED8D80
:1033D000FE8D50814FA145234083ED8DFE8D5081A0
:1033E0004BA1452B4083EB8DFC8D50814AA1452B91
:1033F00040834091020147784093020160910201AD
:10340000AC01407C5527FA01B3E0F595E795BA95F4
:10341000E1F7AC014370552775E0440F551F7A95CD
:10342000E1F74E2B462B409302014EB1477C4EB93B
:103430006EB1AC014C705527FA01EE0FFF1FEE0F75
:10344000FF1FAC01407255275595479555954795F7
:103450004E2B462B4EB9A59864B380719927880FDF
:10346000991F862B84BBED8DFE8D90818FA18923C2
:103470008083ED8DFE8D90818BA1892B80838F2D94
:10348000992787FD9A95EB8DFC8D50814EA14523A0
:10349000408340910201477840930201409102012C
:1034A0004064409302014EB1477C4EB9749AA5988E
:1034B00044B344BBED8DFE8D50814FA14523408325
:1034C000ED8DFE8D50814BA1452B4083EB8DFC8D06
:1034D00050814AA1452B4083409102014778409397
:1034E000020160910201AC01407C5527FA0173E0B2
:1034F000F595E7957A95E1F7AC0143705527F5E02E
:10350000440F551FFA95E1F74E2B462B40930201CD
:103510004EB1477C4EB96EB1AC014C705527FA01E3
:10352000EE0FFF1FEE0FFF1FAC01407255275595A0
:103530004795559547954E2B462B4EB9A59844B3C4
:1035400080719927880F991F842B84BBED8DFE8D88
:1035500090818FA189238083ED8DFE8D90818BA139
:10356000892B8083EB8DFC8D90818EA189238083B4
:103570008091020187788093020180910201806628
:10358000809302018EB1877C8EB9749AA59884B31A
:1035900084BBED8DFE8D90818FA189238083ED8D7D
:1035A000FE8D90818BA1892B8083EB8DFC8D90818A
:1035B0008AA1892B80838091020187788093020100
:1035C00040910201C701807C9927BC01E3E0759519
:1035D0006795EA95E1F7C70183709927F5E0880FB1
:1035E000991FFA95E1F7862B842B809302018EB107
:1035F000877C8EB94EB1C7018C709927BC01660FCC
:10360000771F660F771FC701807299279595879559
:1036100095958795862B842B8EB9A59844B3F0E1B8
:10362000EF22FF24EE0CFF1CE42AE4BAED8DFE8DA0
:1036300090818FA189238083ED8DFE8D90818BA158
:10364000892B8083832F992787FD9A95EB8DFC8D9D
:1036500050814EA145234083409102014778409319
:10366000020140910201409302014EB1477C4EB9E4
:10367000749AA59844B344BBED8DFE8D50814FA143
:1036800045234083ED8DFE8D50814BA1452B40831A
:10369000EB8DFC8D50814AA1452B40834091020166
:1036A00047784093020160910201AC01407C5527AC
:1036B000FA0143E0F595E7954A95E1F7AC014370CF
:1036C000552775E0440F551F7A95E1F74E2B462B91
:1036D000409302014EB1477C4EB96EB1AC014C70C3
:1036E0005527FA01EE0FFF1FEE0FFF1FAC014072CE
:1036F000552755954795559547954E2B462B4EB9D1
:10370000A59844B380719927880F991F842B84BB97
:10371000ED8DFE8D90818FA189238083ED8DFE8DAF
:1037200090818BA1892B8083EB8DFC8D90818EA164
:1037300089238083809102018778809302018091A0
:1037400002018062809302018EB1877C8EB9749AE7
:10375000A59884B384BBED8DFE8D90818FA18923C4
:103760008083ED8DFE8D90818BA1892B8083EB8DE5
:10377000FC8D90818AA1892B8083809102018778BA
:103780008093020140910201C901807C9927BC010C
:10379000E3E075956795EA95E1F7C901837099278C
:1037A000F5E0880F991FFA95E1F7862B842B80931B
:1037B00002018EB1877C8EB94EB1C9018C709927F8
:1037C000BC01660F771F660F771FC90180729927AA
:1037D0009595879595958795862B842B8EB9A59879
:1037E00084B320713327220F331F282B24BBED8D88
:1037F000FE8D90818FA189238083ED8DFE8D908138
:103800008BA1892B8083812F992787FD9A95EB8D3A
:10381000FC8D30812EA12323208320910201277863
:103820002093020120910201209302012EB1277CF6
:103830002EB9759AA59824B324BBED8DFE8D3081E9
:103840002FA123232083ED8DFE8D30812BA1232BEF
:103850002083EB8DFC8D30812AA1232B20832091A6
:103860000201277820930201409102019C01207CF3
:103870003327B90133E0759567953A95E1F79C01D7
:103880002370332755E0220F331F5A95E1F7262B7B
:10389000242B209302012EB1277C2EB94EB19C011E
:1038A0002C703327B901660F771F660F771F9C01B5
:1038B000207233273595279535952795262B242B70
:1038C0002EB9A59824B380719927880F991F822B50
:1038D00084BBED8DFE8D90818FA189238083ED8D3A
:1038E000FE8D90818BA1892B8083EB8DFC8D908147
:1038F0008EA18923808380910201877880930201C1
:10390000809102018062809302018EB1877C8EB922
:10391000759AA59884B384BBED8DFE8D90818FA19F
:1039200089238083ED8DFE8D90818BA1892B8083EF
:10393000EB8DFC8D90818AA1892B8083809102017F
:1039400087788093020120910201C801807C992729
:10395000AC01B3E055954795BA95E1F7C80183707E
:10396000992735E0880F991F3A95E1F7842B822B30
:10397000809302018EB1877C8EB92EB1C8018C7004
:103980009927AC01440F551F440F551FC801807281
:1039900099279595879595958795842B822B8EB938
:1039A000A59824B300711127000F111F022B04BB2F
:1039B000ED8DFE8D90818FA189238083ED8DFE8D0D
:1039C00090818BA1892B80832FC04250423060F5BB
:1039D000092E000CAA0BBB0BDC0199278827A90133
:1039E000330F660B770B9A01AB01282B392B4A2B2F
:1039F0005B2B6AE2CE010E949F2FC701FF0CAA0B2E
:103A0000BB0BBC0155274427012E000C220B330BA6
:103A1000D901C801842B952BA62BB72B9C01AD0196
:103A20006BE2CE010E949F2FE98DFA8D908189A1D2
:103A3000892B8083DF91CF911F910F91FF90EF90A1
:103A4000DF90CF90BF909F908F9008958F929F921C
:103A5000AF92BF920F931F93CF93DF93CDB7DEB793
:103A6000A1970FB6F894DEBF0FBECDBF19A24230AA
:103A700008F44AE08E010F5D1F4F842E912CA12C7B
:103A8000B12CA50194010E94764AE62FB901CA0122
:103A900001501109EA3014F4E05D01C0E95CD8017D
:103AA000EC93232B242B252B61F7B8018EEA98E0A9
:103AB0000E94842FA1960FB6F894DEBF0FBECDBF33
:103AC000DF91CF911F910F91BF90AF909F908F90FA
:103AD0000895CF92DF92EF92FF92CF93DF936B0125
:103AE0007C016DE28EEA98E00E94F42DEC016627DD
:103AF0007727CB016C197D098E099F094AE00E9446
:103B0000261D8C0F9D1FDF91CF91FF90EF90DF90CE
:103B1000CF900895CF93DF93BC018EEA98E00E9486
:103B2000842FEC018EEA98E00E94992F8C0F9D1F44
:103B3000DF91CF910895BC01990F880B990B97FDE8
:103B40000C94691D4AE00C94261DCF93DF93AB01C2
:103B5000672B31F4682F8EEA98E00E94F42D05C09F
:103B6000BC0180E090E00E94261DEC018EEA98E006
:103B70000E94992F8C0F9D1FDF91CF91089590E0A7
:103B8000FC01E755F44F2491FC01E75FF34F84916A
:103B9000882399F090E0880F991FFC01E157F44FBA
:103BA000A591B491FC01E151F44F859194918FB7A7
:103BB000F894EC91E22BEC938FBF08958F929F9233
:103BC000AF92BF92CF92DF92EF92FF920F931F932B
:103BD000CF93DF936B017C01142F9B01AC010E94FA
:103BE0003649882319F069EC77E027C04601570170
:103BF000E894B7F82FEF3FEF4FE75FE7C501B40157
:103C00000E94364981110DC02FEF3FEF4FE75FE76C
:103C1000C501B4010E94BD4618161CF46DEC77E096
:103C20000CC02FEF3FEF4FE75FE4C701B6010E94E2
:103C30007448181694F461ED77E08EEA98E0DF910D
:103C4000CF911F910F91FF90EF90DF90CF90BF9099
:103C5000AF909F908F900C94842F2FEF3FEF4FE702
:103C60005FECC701B6010E94BD4687FDE4CF20E0AE
:103C700030E0A901C701B6010E94BD4687FF0BC015
:103C80006DE28EEA98E00E94F42DEC01F7FAF094D0
:103C9000F7F8F09402C0C0E0D0E000E060E070E02F
:103CA00080E09FE3101741F020E030E040E251E473
:103CB0000E94C2460F5FF6CFA70196010E945146AF
:103CC0006B017C010E943B474B015C014AE00E9472
:103CD000261DC80FD91F1123B9F1C501B4010E94D7
:103CE0006A479B01AC01C701B6010E9450466B01B7
:103CF0007C016EE28EEA98E00E94F42DC80FD91F75
:103D000020E030E040E251E4C701B6010E9479486A
:103D10004B015C010E943B476B01E12CF12C4AE016
:103D2000C701B6010E94261DC80FD91FC701B601E1
:103D30000E946A479B01AC01C501B4010E94504634
:103D40006B017C011150E1F6CE01DF91CF911F9103
:103D50000F91FF90EF90DF90CF90BF90AF909F902A
:103D60008F900895CF93DF93BC01990F880B990B27
:103D700097FF03C00E94691D03C04AE00E94261DF0
:103D8000EC018EEA98E00E94992F8C0F9D1FDF9125
:103D9000CF910895FC01A089B18982E08C93A4851C
:103DA000B5851C92A685B7858FEC8C93108EA4895F
:103DB000B58986E08C93A289B3898C9180618C93BC
:103DC000A289B3898C9188608C93A289B3898C91E4
:103DD00080688C930288F389E02D80818F7D8083B9
:103DE0000895EF92FF920F931F93CF93DF93837009
:103DF0008093290A2091180A3091190A40911A0AD1
:103E000050911B0A813059F0833049F030931D0ADC
:103E100020931C0A50931F0A40931E0A08C0509317
:103E20001D0A40931C0A30931F0A20931E0AE0913A
:103E30002D0AF0912E0A90818091390A892380837E
:103E400080912C0A8111D7C0E091290AE150E3301A
:103E500040F4F0E0EE0FFF1FE35FF94F80819181A6
:103E600002C080E390E1E0912F0AF091300A3081A6
:103E700020913A0A2323208320910201277820935E
:103E8000020120910201209302012EB1277C2EB95C
:103E90002EB12EB9A59824B324BBE091310AF0913C
:103EA000320A308120913B0A23232083E091310A9A
:103EB000F091320A30812091370A232B2083209100
:103EC00002012778209302012091020120662093AD
:103ED00002012EB1277C2EB92EB12EB9A59824B39C
:103EE00024BBE091310AF091320A308120913B0AE3
:103EF00023232083E091310AF091320A308120910E
:103F0000370A232B2083E0912F0AF091300A308169
:103F10002091360A232B20832091020127782093B9
:103F2000020120910201209302012EB1277C2EB9BB
:103F30002EB12EB9A598A59AE091310AF091320AD6
:103F4000308120913B0A23232083E091310AF091B4
:103F5000320A30812091370A232B208320910201DD
:103F600027782093020120910201209302012EB1B3
:103F7000277C2EB94EB19C012C703327B901660FF6
:103F8000771F660F771F9C01207233273595279581
:103F900035952795262B242B2EB9A59824B380710F
:103FA0009927880F991F822B84BBE091310AF091E9
:103FB000320A908180913B0A89238083E091310A03
:103FC000F091320A90818091370A892B8083009189
:103FD0001E0A10911F0A0150110920911C0A3091EC
:103FE0001D0A2150310940E050E060E070E084E1BA
:103FF0009AE00E94DE1380912C0A813009F075C08E
:10400000E091290AE150E33028F4F0E0E65FF94F4F
:10401000808101C080E0E0912F0AF091300A208178
:1040200090913A0A9223908390910201977890930D
:104030000201909102019064909302019EB1977CDD
:104040009EB9749AA598A59AE091310AF091320A26
:10405000208190913B0A92239083E091310AF09164
:10406000320A20819091370A922B9083E0912F0A97
:10407000F091300A20819091360A922B9083909192
:10408000020197789093020120910201982F907C71
:10409000969596959695922B909302019EB1977C5A
:1040A0009EB92EB1982F9072892F90E095958795A3
:1040B00095958795822B8EB9A59884B384BBE091A2
:1040C000310AF091320A908180913B0A89238083E2
:1040D000E091310AF091320A90818091370A892B60
:1040E000808384E19AE00E94263480912C0A8230F9
:1040F00009F097C08091290A813089F060F0823000
:1041000031F0833079F4F8E2EF2EF12C0BC0A8E403
:10411000EA2EF12C07C0E8E8EE2EF12C03C078EE71
:10412000E72EF12CE0912F0AF091300A90818091D6
:104130003A0A892380838091020187788093020163
:10414000809102018064809302018EB1877C8EB9D8
:104150008EB188618EB9A598A59AE091310AF09147
:10416000320A908180913B0A89238083E091310A51
:10417000F091320A90818091370A892B8083E091F7
:104180002F0AF091300A90818091360A892B808322
:104190008091020187788093020120910201C7017A
:1041A000807C992753E0969587955A95E1F7822B65
:1041B000809302018EB1877C8EB98EB190E2E922A4
:1041C000FF24F694E794F694E7948062E82AEEB828
:1041D000A59884B384BBE091310AF091320A9081B2
:1041E00080913B0A89238083E091310AF091320A61
:1041F00090818091370A892B808300911E0A10914B
:104200001F0A0150110920911C0A30911D0A2150EA
:10421000310940E050E060E070E084E19AE00E9403
:10422000DE1380912C0A833009F091C08091290A15
:10423000813071F050F0823029F0833059F4C0E6BB
:10424000D0E008C0C0E0D0E005C0C0ECD0E002C0C3
:10425000C0EAD0E0E0912F0AF091300A908180917D
:104260003A0A892380838091020187788093020132
:10427000809102018064809302018EB1877C8EB9A7
:104280008EB188618EB9A598A59AE091310AF09116
:10429000320A908180913B0A89238083E091310A20
:1042A000F091320A90818091370A892B8083E091C6
:1042B0002F0AF091300A90818091360A892B8083F1
:1042C0008091020187788093020120910201CE0142
:1042D000807C992733E0969587953A95E1F7822B74
:1042E000809302018EB1877C8EB98EB1C072DD27BA
:1042F000D695C795D695C795C82BCEB9A59884B342
:1043000084BBE091310AF091320A908180913B0A9E
:1043100089238083E091310AF091320A9081809163
:10432000370A892B808300911E0A10911F0A0150C1
:10433000110920911C0A30911D0A2150310940E0D9
:1043400050E060E070E084E19AE00E94DE13DF91CB
:10435000CF911F910F91FF90EF900895EF92FF92F0
:104360000F931F93CF93DF93EC01790177FD3EC646
:1043700057FD3CC688859985681779070CF036C6C5
:104380008A859B85481759070CF030C6E98DFA8D50
:1043900090818DA189238083888D811192C28D891E
:1043A000823059F08330B1F08130D1F48FEE90E05B
:1043B000841B950BAB01BC0113C08FEE90E09C01F8
:1043C000261B370BB9018FE391E09C01241B350BB1
:1043D000A90106C08FE391E0861B970BBA01AC01DF
:1043E000EB8DFC8D90818EA18923808380910201C9
:1043F00087788093020180910201809302018EB13F
:10440000877C8EB98EB18EB9A59884B384BBED8DAF
:10441000FE8D90818FA189238083ED8DFE8D90810B
:104420008BA1892B80838091020187788093020180
:1044300080910201809302018EB1877C8EB9739ABC
:10444000A59884B384BBED8DFE8D90818FA18923C7
:104450008083ED8DFE8D90818BA1892B8083872FAA
:10446000992787FD9A95EB8DFC8D30812AA1232B0E
:10447000208320910201277820930201E09102011C
:104480009C01207C3327D901F3E0B595A795FA95D7
:10449000E1F79C0123703327B5E0220F331FBA9553
:1044A000E1F72A2B2E2B209302012EB1277C2EB967
:1044B000EEB19C012C703327D901AA0FBB1FAA0FA4
:1044C000BB1F9C012072332735952795359527957D
:1044D0002A2B2E2B2EB9A59824B380719927880FEB
:1044E000991F822B84BBED8DFE8D90818FA1892336
:1044F0008083ED8DFE8D90818BA1892B80838091AF
:10450000020187788093020120910201CB01807C17
:104510009927FC01A3E0F595E795AA95E1F7CB0172
:1045200083709927B5E0880F991FBA95E1F78E2B14
:10453000822B809302018EB1877C8EB92EB1CB0184
:104540008C709927FC01EE0FFF1FEE0FFF1FCB01B0
:104550008072992795958795959587958E2B822BB7
:104560008EB9A59884B360717727660F771F682B83
:1045700064BBED8DFE8D90818FA189238083ED8DAD
:10458000FE8D90818BA1892B8083EB8DFC8D90819A
:104590008EA1892380838091020187788093020114
:1045A00080910201809302018EB1877C8EB98EB119
:1045B0008EB9A59884B384BBED8DFE8D90818FA1BB
:1045C00089238083ED8DFE8D90818BA1892B808343
:1045D00080910201877880930201809102018062BC
:1045E000809302018EB1877C8EB9739AA59884B3AB
:1045F00084BBED8DFE8D90818FA189238083ED8D0D
:10460000FE8D90818BA1892B8083852F992787FD33
:104610009A95EB8DFC8D30812AA1232B208320914C
:104620000201277820930201609102019C01207C05
:104630003327F90133E0F595E7953A95E1F79C01C9
:104640002370332775E0220F331F7A95E1F72E2B65
:10465000262B209302012EB1277C2EB96EB19C012E
:104660002C703327F901EE0FFF1FEE0FFF1F9C0187
:104670002072332735952795359527952E2B262B98
:104680002EB9A59824B380719927880F991F822B82
:1046900084BBED8DFE8D90818FA189238083ED8D6C
:1046A000FE8D90818BA1892B808380910201877878
:1046B0008093020120910201CA01807C9927BC01EC
:1046C00003E0759567950A95E1F7CA01837099270C
:1046D00035E0880F991F3A95E1F7862B822B80935E
:1046E00002018EB1877C8EB92EB1CA018C709927D8
:1046F000BC01660F771F660F771FCA01807299276A
:104700009595879595958795862B822B8EB9A5983B
:1047100084B340715527440F551F482B44BBED8D82
:10472000FE8D90818FA189238083ED8DFE8D9081F8
:104730008BA1892B8083EB8DFC8D90818EA18923A9
:104740008083809102018778809302018091020129
:10475000809302018EB1877C8EB98EB18EB9A598F7
:1047600084B384BBED8DFE8D90818FA189238083DE
:10477000ED8DFE8D90818BA1892B8083809102012C
:104780008778809302018091020180648093020106
:104790008EB1877C8EB9739AA59884B384BBED8D56
:1047A000FE8D90818FA189238083ED8DFE8D908178
:1047B0008BA1892B8083EB8DFC8D90818AA1892B25
:1047C00080838091020187788093020140910201E9
:1047D0008F2D99279C01207C3327B90113E0759513
:1047E00067951A95E1F79C012370332705E0220FA6
:1047F000331F0A95E1F7262B242B209302012EB1BB
:10480000277C2EB94EB19C012C703327B901660F5D
:10481000771F660F771F9C012072332735952795E8
:1048200035952795262B242B2EB9A59824B3807176
:104830009927880F991F822B84BBED8DFE8D908167
:104840008FA189238083ED8DFE8D90818BA1892B93
:104850008083809102018778809302012091020178
:10486000C701807C9927AC0173E0559547957A95EF
:10487000E1F7C70183709927E5E0880F991FEA9552
:10488000E1F7842B822B809302018EB1877C8EB955
:104890002EB1C7018C709927AC01440F551F440FEE
:1048A000551FC7018072992795958795959587958E
:1048B000842B822B8EB9A59884B330E1E322FF24A8
:1048C000CFC2813009F0CFC2ED89E150E33028F446
:1048D000F0E0E65FF94F808101C080E0EB8DFC8D58
:1048E00020819EA1922390839091020197789093CA
:1048F0000201909102019064909302019EB1977C15
:104900009EB9749AA598A59AED8DFE8D20819FA1E0
:1049100092239083ED8DFE8D20819BA1922B90831D
:10492000EB8DFC8D20819AA1922B908390910201B6
:1049300097789093020120910201982F907C969590
:1049400096959695922B909302019EB1977C9EB975
:104950002EB1982F9072892F90E095958795959517
:104960008795822B8EB9A59884B384BBED8DFE8D7F
:1049700090818FA189238083ED8DFE8D90818BA105
:10498000892B8083872F992787FD9A95EB8DFC8D46
:1049900030812EA1232320832091020127782093A8
:1049A0000201209102012064209302012EB1277C94
:1049B0002EB92EB12EB9A59824B324BBED8DFE8D52
:1049C00030812FA123232083ED8DFE8D30812BA1FB
:1049D000232B2083EB8DFC8D30812AA1232B208378
:1049E00020910201277820930201E09102019C01AD
:1049F000207C3327D90113E0B595A7951A95E1F7E7
:104A00009C012370332705E0220F331F0A95E1F73D
:104A10002A2B2E2B209302012EB1277C2EB9EEB12A
:104A20009C012C703327D901AA0FBB1FAA0FBB1FF3
:104A30009C012072332735952795359527952A2B8C
:104A40002E2B2EB9A59824B380719927880F991F12
:104A5000822B84BBED8DFE8D90818FA18923808375
:104A6000ED8DFE8D90818BA1892B8083EB8DFC8D4C
:104A700090818EA189238083809102018778809321
:104A80000201809102018066809302018EB1877CD1
:104A90008EB98EB18EB9A59884B384BBED8DFE8D91
:104AA00090818FA189238083ED8DFE8D90818BA1D4
:104AB000892B8083EB8DFC8D90818AA1892B80834B
:104AC0008091020187788093020120910201CB013D
:104AD000807C9927FC01B3E0F595E795BA95E1F75D
:104AE000CB018370992715E0880F991F1A95E1F77C
:104AF0008E2B822B809302018EB1877C8EB92EB1D2
:104B0000CB018C709927FC01EE0FFF1FEE0FFF1FEA
:104B1000CB018072992795958795959587958E2BD2
:104B2000822B8EB9A59884B360717727660F771FA3
:104B3000682B64BBED8DFE8D90818FA189238083CE
:104B4000ED8DFE8D90818BA1892B8083852F9927F8
:104B500087FD9A95EB8DFC8D30812EA12323208338
:104B60002091020127782093020120910201206404
:104B7000209302012EB1277C2EB9749AA59824B3F4
:104B800024BBED8DFE8D30812FA123232083ED8D5D
:104B9000FE8D30812BA1232B2083EB8DFC8D30816A
:104BA0002AA1232B20832091020127782093020140
:104BB000609102019C01207C3327F901A3E0F59567
:104BC000E795AA95E1F79C0123703327B5E0220F02
:104BD000331FBA95E1F72E2B262B209302012EB11D
:104BE000277C2EB96EB19C012C703327F901EE0F92
:104BF000FF1FEE0FFF1F9C0120723327359527956D
:104C0000359527952E2B262B2EB9A59824B3807188
:104C10009927880F991F822B84BBED8DFE8D908183
:104C20008FA189238083ED8DFE8D90818BA1892BAF
:104C30008083EB8DFC8D90818EA189238083809170
:104C4000020187788093020180910201806680933F
:104C500002018EB1877C8EB9749AA59884B384BB07
:104C6000ED8DFE8D90818FA189238083ED8DFE8D4A
:104C700090818BA1892B8083EB8DFC8D90818AA103
:104C8000892B808380910201877880930201209193
:104C90000201CA01807C9927BC01E3E07595679504
:104CA000EA95E1F7CA0183709927F5E0880F991F0B
:104CB000FA95E1F7862B822B809302018EB1877CD7
:104CC0008EB92EB1CA018C709927BC01660F771F6F
:104CD000660F771FCA0180729927959587959595DC
:104CE0008795862B822B8EB9A59884B34071552762
:104CF000440F551F482B44BBED8DFE8D90818FA135
:104D000089238083ED8DFE8D90818BA1892B8083FB
:104D1000EB8DFC8D90818EA189238083809102018F
:104D20008778809302018091020180648093020160
:104D30008EB1877C8EB9739AA59884B384BBED8DB0
:104D4000FE8D90818FA189238083ED8DFE8D9081D2
:104D50008BA1892B8083EB8DFC8D90818AA1892B7F
:104D60008083809102018778809302014091020143
:104D70008F2D99279C01207C3327B90123E075955D
:104D800067952A95E1F79C012370332755E0220FA0
:104D9000331F5A95E1F7262B242B209302012EB1C5
:104DA000277C2EB94EB19C012C703327B901660FB8
:104DB000771F660F771F9C01207233273595279543
:104DC00035952795262B242B2EB9A59824B38071D1
:104DD0009927880F991F822B84BBED8DFE8D9081C2
:104DE0008FA189238083ED8DFE8D90818BA1892BEE
:104DF00080838091020187788093020120910201D3
:104E0000C701807C9927AC01B3E055954795BA95C9
:104E1000E1F7C7018370992715E0880F991F1A954C
:104E2000E1F7842B822B809302018EB1877C8EB9AF
:104E30002EB1C7018C709927AC01440F551F440F48
:104E4000551FC701807299279595879595958795E8
:104E5000842B822B8EB9A59884B390E1E922FF249C
:104E6000EE0CFF1CAFC08250823008F0B9C00A853A
:104E70001B85015011092885398521503109CE0142
:104E80000E94DE13E98DFA8D90818DA189238083A4
:104E9000EB8DFC8D90818EA189238083809102010E
:104EA00087788093020180910201809302018EB184
:104EB000877C8EB98EB188638EB9A59884B384BB84
:104EC000ED8DFE8D90818FA189238083ED8DFE8DE8
:104ED00090818BA1892B8083EB8DFC8D90818AA1A1
:104EE000892B808380910201877880930201409111
:104EF00002018F2D99279C01207C332753E03695A2
:104F000027955A95E1F7382F33703295330F307E5D
:104F1000232B242B209302012EB1277C2EB94EB1D6
:104F2000282F2C70522F550F550F9C0120723327BC
:104F30003695279536952795252B242B2EB9A598A0
:104F400094B38071880F892B84BBED8DFE8D908189
:104F50008FA189238083ED8DFE8D90818BA1892B7C
:104F60008083809102018778809302012091020161
:104F7000C701807C992773E0969587957A95E1F72C
:104F80009E2D93709295990F907E892B822B809302
:104F900002018EB1877C8EB92EB18E2D8C70382F88
:104FA000330F330FC7018072992796958795969591
:104FB0008795832B822B8EB9A59884B39E2D9071F3
:104FC000E92EEE0CE82AE4BAED8DFE8D90818FA1DA
:104FD00089238083ED8DFE8D90818BA1892B808329
:104FE000E98DFA8D908189A1892B8083DF91CF9102
:104FF0001F910F91FF90EF9008950F931F93CF9300
:10500000DF938C01C0E0D0E0F801EC0FFD1F64914C
:10501000662341F08EEA98E00E94F42D892B11F06E
:105020002196F2CFCE01DF91CF911F910F9108957C
:10503000CF93DF930E94FD27EC018EEA98E00E9457
:10504000992F8C0F9D1FDF91CF910895E4E1FAE035
:10505000A78DB0A19C9180A589238C9300C000C02E
:1050600000C00000A0E0B1E05C913C919CB14CB16B
:1050700082B3A78DB0A16C9124A1262B2C933871FB
:1050800068E0369F90011124352F307632953695A1
:105090003770232B9870990F990F922B242F207320
:1050A00026952695292B807290E095958795822BE1
:1050B0000895CF92DF92EF92FF920F931F93CF93B9
:1050C000DF93C4E1DAE0E98DFA8D20819DA192237E
:1050D0009083EB8DFC8D20819EA192239083E2E052
:1050E000F1E09081977890834081282F207C522F87
:1050F000569556955695982F937060E2969F90011D
:105100001124252B242B20839EB1977C9EB94EB170
:10511000282F2C7094E0299FB0011124982F9072B1
:10512000292F30E03595279535952795262B242B6B
:105130002EB9A59894B38071880F892B84BBED8D0F
:10514000FE8D90818FA189238083ED8DFE8D9081CE
:105150008BA1892B808301E011E0F80180818778A1
:1051600080838DB1877C8DB99D98EB8DFC8D90816E
:105170008AA1892B808383EC90E00197F1F70E944C
:105180002628C82ED12CE12CF12CFE2CED2CDC2C69
:10519000CC240E942628C82AFE2CED2CDC2CCC2402
:1051A0000E942628C82AFE2CED2CDC2CCC240E9440
:1051B0002628E98DFA8D208199A1922B9083F80100
:1051C0009081986790839DB198639DB99D9AA7013E
:1051D0009601282BCA01B901DF91CF911F910F9140
:1051E000FF90EF90DF90CF9008956F927F928F9213
:1051F0009F92AF92BF92CF92DF92EF92FF920F9366
:105200001F93CF93DF93FC013B01A18DB28D9C9145
:1052100085A189238C93A38DB48D9C9186A189232C
:105220008C93808D823011F181111EC0809102011A
:1052300087788093020180910201809302018EB1F0
:10524000877C8EB98EB18EB9A59884B384BBA58DA9
:10525000B68D9C9187A189238C93A58DB68D9C9149
:1052600083A1892B8C9312C0833081F48091020139
:1052700087788093020180910201809302018EB1B0
:10528000877C8EB98EB188638EB90EC08091020181
:1052900087788093020180910201806480930201EB
:1052A0008EB1877C8EB9739AA59884B384BBA58D83
:1052B000B68D9C9187A189238C93A58DB68D9C91E9
:1052C00083A1892B8C93A38DB48D9C9182A1892B72
:1052D0008C9380910201877880930201A091020152
:1052E000872F90E07C01B0ECEB22FF24B3E0F59433
:1052F000E794BA95E1F78C0103701127C5E0000F20
:10530000111FCA95E1F7BE2DB02BAB2BA093020164
:10531000AEB1A77CAEB91EB16C01CCE0CC22DD24CD
:10532000CC0CDD1CCC0CDD1C7C01D0E2ED22FF247A
:10533000F594E794F594E794AC2DAE291A2B1EB999
:10534000A59814B380719927880F991FF82E812B87
:1053500084BB058D168DE801988187A189238883F8
:10536000058D168DE801988183A1892B8883809112
:105370000201877880930201809102018B01007CF9
:1053800011276801D3E0D594C794DA95E1F78B0132
:105390000370112795E0000F111F9A95E1F70C2972
:1053A000802B809302018EB1877C8EB98EB15B0118
:1053B000DCE0AD22BB24AA0CBB1CAA0CBB1C6B01FD
:1053C00090E2C922DD24D594C794D594C7941A2DB0
:1053D0001C29812B8EB9A59884B360717727660F3D
:1053E000771F762F682B64BB858D968DEC01E88046
:1053F00067A16E216883858D968DEC01E88063A19D
:105400006E296883215031094109510949015A0126
:1054100036E0B694A794979487943A95D1F7C4014F
:10542000761088C1019708F465C060E1A58DB68D3E
:10543000CC9177A17C237C93A58DB68DCC9173A163
:105440007C2B7C93A58DB68DCC9177A17C237C930E
:10545000A58DB68DCC9173A17C2B7C93A58DB68D3B
:10546000CC9177A17C237C93A58DB68DCC9173A133
:105470007C2B7C93A58DB68DCC9177A17C237C93DE
:10548000A58DB68DCC9173A17C2B7C93A58DB68D0B
:10549000CC9177A17C237C93A58DB68DCC9173A103
:1054A0007C2B7C93A58DB68DCC9177A17C237C93AE
:1054B000A58DB68DCC9173A17C2B7C93A58DB68DDB
:1054C000CC9177A17C237C93A58DB68DCC9173A1D3
:1054D0007C2B7C93A58DB68DCC9177A17C237C937E
:1054E000A58DB68DCC9173A17C2B7C93615009F076
:1054F0009DCF98CF2F73215008F465C1A58DB68D2F
:105500009C9187A189238C93A58DB68D9C9183A1B5
:10551000892B8C93A58DB68D9C9187A189238C9323
:10552000A58DB68D9C9183A1892B8C93E4CFC091DE
:105530000201C778C0930201C0910201CB2BC09336
:105540000201CEB1C77CCEB9CEB1CA2BCEB9A598D7
:10555000C4B3CF29C4BBC58DD68DD880E7A0ED20BC
:10556000E882C58DD68DD880E3A0ED28E882C09171
:105570000201C778C0930201C0910201C02BC09301
:105580000201CEB1C77CCEB9CEB1C12BCEB9A598A0
:10559000C4B3C72BC4BBC58DD68DD880E7A0ED2082
:1055A000E882C58DD68DD880E3A0ED28E882C09131
:1055B0000201C778C0930201C0910201CB2BC093B6
:1055C0000201CEB1C77CCEB9CEB1CA2BCEB9A59857
:1055D000C4B3CF29C4BBC58DD68DD880E7A0ED203C
:1055E000E882C58DD68DD880E3A0ED28E882C091F1
:1055F0000201C778C0930201C0910201C02BC09381
:105600000201CEB1C77CCEB9CEB1C12BCEB9A5981F
:10561000C4B3C72BC4BBC58DD68DD880E7A0ED2001
:10562000E882C58DD68DD880E3A0ED28E882C091B0
:105630000201C778C0930201C0910201CB2BC09335
:105640000201CEB1C77CCEB9CEB1CA2BCEB9A598D6
:10565000C4B3CF29C4BBC58DD68DD880E7A0ED20BB
:10566000E882C58DD68DD880E3A0ED28E882C09170
:105670000201C778C0930201C0910201C02BC09300
:105680000201CEB1C77CCEB9CEB1C12BCEB9A5989F
:10569000C4B3C72BC4BBC58DD68DD880E7A0ED2081
:1056A000E882C58DD68DD880E3A0ED28E882C09130
:1056B0000201C778C0930201C0910201CB2BC093B5
:1056C0000201CEB1C77CCEB9CEB1CA2BCEB9A59856
:1056D000C4B3CF29C4BBC58DD68DD880E7A0ED203B
:1056E000E882C58DD68DD880E3A0ED28E882C091F0
:1056F0000201C778C0930201C0910201C02BC09380
:105700000201CEB1C77CCEB9CEB1C12BCEB9A5981E
:10571000C4B3C72BC4BBC58DD68DD880E7A0ED2000
:10572000E882C58DD68DD880E3A0ED28E88261504F
:1057300009F0FDCE019710F060E1F9CE2F732150F2
:1057400008F441C080910201877880930201809122
:1057500002018B2B809302018EB1877C8EB98EB1B2
:105760008A2B8EB9A59884B38F2984BBC58DD68D1D
:10577000988187A189238883C58DD68D988183A13F
:10578000892B888380910201877880930201809120
:105790000201802B809302018EB1877C8EB98EB17D
:1057A000812B8EB9A59884B3872B84BBC58DD68DEC
:1057B000988187A189238883C58DD68D988183A1FF
:1057C000892B8883BCCFA18DB28D9C9181A1892B1F
:1057D0008C93DF91CF911F910F91FF90EF90DF900D
:1057E000CF90BF90AF909F908F907F906F900895D3
:1057F000863308F0865390917B00282F2870977F7E
:10580000922B90937B008770806480937C008091C2
:105810007A00806480937A0080917A0086FDFCCFC4
:10582000809178002091790090E0922B0895362F96
:1058300090E0FC01E15BF34F4491FC01E755F44F2C
:105840002491FC01E75FF34F9491992309F46CC014
:10585000442309F455C050E0FA013197E231F105D3
:1058600008F04EC08827EE58FF4F8F4F0C94984A8F
:10587000809180008F7707C0809180008F7D03C06A
:1058800080918000877F809380003AC084B58F77B5
:1058900002C084B58F7D84BD33C08091B0008F7706
:1058A00003C08091B0008F7D8093B00029C08091AB
:1058B00090008F7707C0809190008F7D03C080910A
:1058C0009000877F809390001BC08091A0008F770D
:1058D00007C08091A0008F7D03C08091A000877FCA
:1058E0008093A0000DC0809120018F7707C0809128
:1058F00020018F7D03C080912001877F809320014C
:10590000E92FF0E0EE0FFF1FE151F44FA591B491A4
:105910009FB7F894311104C08C912095282302C0C0
:10592000EC912E2B2C939FBF08953FB7F894809154
:10593000420A9091430AA091440AB091450A26B5C3
:10594000A89B05C02F3F19F00196A11DB11D3FBFB7
:10595000BA2FA92F982F8827820F911DA11DB11D45
:10596000BC01CD0142E0660F771F881F991F4A9541
:10597000D1F708958F929F92AF92BF92CF92DF920C
:10598000EF92FF926B017C010E94952C4B015C0110
:10599000C114D104E104F104F1F00E94952CDC0162
:1059A000CB0188199909AA09BB09883E9340A10532
:1059B000B10570F321E0C21AD108E108F10888EEC0
:1059C000880E83E0981EA11CB11CC114D104E1040F
:1059D000F10419F7DDCFFF90EF90DF90CF90BF90EB
:1059E000AF909F908F900895E0912D0AF0912E0A2C
:1059F00090818091350A892B8083E091310AF09162
:105A0000320A90818091370A892B8083E091330A92
:105A1000F091340A90818091380A892B808380919B
:105A20003D0A882371F060E00E94172C62E070E06C
:105A300080E090E00E94BA2C61E080913D0A0E94D3
:105A4000172CE0912D0AF0912E0A90818091390A4D
:105A500089238083E0912F0AF091300A9081809110
:105A60003A0A89238083809102018778809302011A
:105A700080910201809302018EB1877C8EB98EB134
:105A80008EB9A59884B384BBE091310AF091320AB3
:105A9000908180913B0A89238083E091310AF091C3
:105AA000320A90818091370A892B808383E0E091CC
:105AB000310AF091320A208190913B0A922390831F
:105AC000E091310AF091320A20819091370A922BAD
:105AD0009083815061F7E0912D0AF0912E0A908118
