:100000000C943B060C946C060C946C060C946C06D9
:100010000C946C060C946C060C946C060C946C0698
:100020000C946C060C946C060C946C060C946C0688
:100030000C946C060C946C060C946C060C946C0678
:100040000C946C060C946C060C946C060C946C0668
:100050000C946C060C946C060C946C060C9496260E
:100060000C946C060C9497280C946D280C946C06D8
:100070000C946C060C946C060C946C060C946C0638
:100080000C946C060C946C060C946C060C946C0628
:100090000C9437280C940D280C946C060C946C0668
:1000A0000C946C060C946C060C946C060C946C0608
:1000B0000C946C060C946C060C946C060C946C06F8
:1000C0000C946C060C946C060C946C060C946C06E8
:1000D0000C946C060C946C060C946C060C946C06D8
:1000E0000C946C06DC25DF25CE25D225D6251626D8
:1000F000E325E725ED25F125F525FB25FF2503263D
:10010000162609260D26112607634236B79BD8A767
:100110001A39685618AEBAAB558C1D3CB7CC57632C
:10012000BD6DEDFD753EF6177231BF000000803FDA
:1001300008000000BE922449123EABAAAA2ABECDF6
:10014000CCCC4C3E00000080BEABAAAAAA3E000068
:100150000000BF000000803F000000000008417860
:10016000D3BB4387D1133D190E3CC3BD4282AD2B97
:100170003E68EC8276BED98FE1A93E4C80EFFFBE8F
:1001800001C4FF7F3F00000000000C947F120C941C
:10019000D2250C94DF250C94F9120C94FF250C94B5
:1001A000E3250C94CE250C94E7250C9403270C949E
:1001B00087140C94FB250C94F5250C9417270C94AC
:1001C00009260C94D6250C94892C0C94FF2B0C94A6
:1001D0000D260C94CF120C94EF2C0C94F1250C945A
:1001E0001A170C94903C0C9411260C947B120C94CE
:1001F00067270C94B1210C9440150C94ED250C94B8
:100200002C160C94F4260C9425270C9416260C948A
:10021000B4270C94DC250C94B60F0C9403260C9494
:10022000CA110C946B2A0C947C120C94DC150C945F
:10023000A4130C94B70F0C947B112E89298F2B02D9
:10024000E200E401E510E601E710E870F200EA00E0
:10025000EB20EC3CEDC8E938F1011B1A1A022461CD
:10026000255C183619011F88FF051F80FF051F90A8
:10027000FF051FD4FF05170536092838FF28283C3D
:1002800002000300040005EF060007000801093F13
:100290000100B903FF8357FFFAB30400000606B656
:1002A0000125B00168CC0105B10600151C1C83AA0C
:1002B000C0065050013C1E08B4070240002A2A0D17
:1002C000783A01553601C0350100440200021100A0
:1002D000FF962900FF32150030009A00100011002F
:1002E0002000100028341200020013004610FF0006
:1002F000280012001200FF00280010002034130014
:100300004630FF0046003000000031000204320099
:1003100007033300040334000400350001043600F1
:1003200007073700050338001006390010060100E2
:1003300000010200000303003010080008080A0052
:100340000800600000276100010090003E0192005B
:10035000000193000001A0000030A300100007007E
:1003600001000700210007002300070033000700F9
:10037000330100000100FF00320001000001020013
:10038000000703003010040000000800020209000A
:1003900000000A0000000C0000000D0000000F002B
:1003A0000000100000001100070012000000130000
:1003B0000000FF00C8001000901611002702FF0087
:1003C000320012001A00FF0032001300001829004A
:1003D0002A00FF003200300000003100000032002F
:1003E0000000350006023600080837000700380014
:1003F0000102390000003C0000003D000000200028
:10040000000021000000500000005100EF005200E9
:10041000000053003F01600000A7610003006A0074
:10042000000090001000920000009300030095006F
:1004300000119700000098000000070033016D6173
:10044000746368657320746865207475746F72696D
:10045000616C2E00416C736F206966207573696E44
:10046000672074686520627265616B6F75742C20FB
:10047000646F75626C652D636865636B2074686179
:100480007420616C6C20776972696E670049662020
:100490007573696E672074686520627265616B6F41
:1004A000757420626F6172642C2069742073686FA8
:1004B000756C64204E4F5420626520236465666924
:1004C0006E6564210073686F756C6420617070657F
:1004D000617220696E20746865206C696272617255
:1004E00079206865616465722028456C65676F6F67
:1004F0005F5446542E68292E0020202364656669C7
:100500006E65205553455F456C65676F6F5F534857
:1005100049454C445F50494E4F555400496620753B
:1005200073696E672074686520456C65676F6F201E
:10053000322E3822205446542041726475696E6F01
:1005400020736869656C642C20746865206C696E22
:10055000653A00556E6B6E6F776E204C4344206495
:10056000726976657220636869703A2000466F751B
:100570006E6420307839333238204C434420647222
:100580006976657200466F756E6420307839333451
:1005900031204C43442064726976657200466F7561
:1005A0006E642048583833353744204C4344206427
:1005B000726976657200466F756E6420494C4939E0
:1005C000333431204C4344206472697665720046AE
:1005D0006F756E642048583833343747204C434495
:1005E0002064726976657200466F756E64204C47B0
:1005F000445034353335204C434420647269766569
:100600007200466F756E6420494C49393332382088
:100610004C43442064726976657200466F756E645F
:1006200020494C4939333235204C434420647269A7
:10063000766572005573696E6720456C65676F6FEC
:1006400020322E34222054465420427265616B6F52
:10065000757420426F6172642050696E6F7574000A
:10066000544654204C4344207465737400000000C9
:1006700000003E5B4F5B3E3E6B4F6B3E1C3E7C3E44
:100680001C183C7E3C181C577D571C1C5E7F5E1C52
:1006900000183C1800FFE7C3E7FF0018241800FF0C
:1006A000E7DBE7FF30483A060E2629792926407F06
:1006B000050507407F05253F5A3CE73C5A7F3E1C15
:1006C0001C08081C1C3E7F14227F22145F5F005F01
:1006D0005F06097F017F006689956A6060606060DF
:1006E00094A2FFA29408047E040810207E20100823
:1006F000082A1C08081C2A08081E101010100C1EBE
:100700000C1E0C30383E3830060E3E0E060000003F
:10071000000000005F00000007000700147F147F46
:1007200014242A7F2A122313086462364956205063
:100730000008070300001C2241000041221C002A7F
:100740001C7F1C2A08083E0808008070300008083A
:10075000080808000060600020100804023E5149AB
:10076000453E00427F400072494949462141494D7A
:10077000331814127F1027454545393C4A49493101
:1007800041211109073649494936464949291E0080
:10079000001400000040340000000814224114142A
:1007A000141414004122140802015909063E415D47
:1007B000594E7C1211127C7F494949363E414141D4
:1007C000227F4141413E7F494949417F0909090151
:1007D0003E414151737F0808087F00417F4100205E
:1007E00040413F017F081422417F404040407F024A
:1007F0001C027F7F0408107F3E4141413E7F090972
:1008000009063E4151215E7F091929462649494979
:100810003203017F01033F4040403F1F2040201F23
:100820003F4038403F6314081463030478040361B5
:1008300059494D43007F41414102040810200041C5
:1008400041417F0402010204404040404000030750
:10085000080020545478407F2844443838444444A5
:1008600028384444287F385454541800087E09021C
:1008700018A4A49C787F0804047800447D400020DC
:1008800040403D007F1028440000417F40007C0430
:100890007804787C080404783844444438FC1824EC
:1008A000241818242418FC7C0804040848545454C0
:1008B0002404043F44243C4040207C1C2040201C55
:1008C0003C4030403C44281028444C9090907C445C
:1008D00064544C4400083641000000770000004199
:1008E00036080002010204023C2623263C1EA1A178
:1008F00061123A4040207A3854545559215555795F
:10090000412254547842215554784020545579401E
:100910000C1E52721239555555593954545459397F
:10092000555454580000457C410002457D42000169
:10093000457C407D1211127DF0282528F07C54550D
:1009400045002054547C547C0A097F493249494966
:10095000323A4444443A324A4848303A4141217A92
:100960003A42402078009DA0A07D3D4242423D3D5C
:100970004040403D3C24FF2424487E4943662B2FC1
:10098000FC2F2BFF0929F620C0887E090320545430
:1009900079410000447D413048484A323840402285
:1009A0007A007A0A0A727D0D19317D2629292F28AD
:1009B000262929292630484D4020380808080808EB
:1009C000080808382F10C8ACBA2F102834FA0000D5
:1009D0007B000008142A142222142A1408550055FA
:1009E0000055AA55AA55AAFF55FF55FF000000FF64
:1009F00000101010FF00141414FF001010FF00FF6F
:100A00001010F010F0141414FC001414F700FF0080
:100A100000FF00FF1414F404FC141417101F10102E
:100A20001F101F1414141F00101010F000000000FD
:100A30001F101010101F10101010F010000000FFF9
:100A4000101010101010101010FF10000000FF14F4
:100A50000000FF00FF00001F10170000FC04F4144A
:100A6000141710171414F404F40000FF00F7141402
:100A70001414141414F700F7141414171410101F7E
:100A8000101F141414F4141010F010F000001F10B4
:100A90001F0000001F14000000FC140000F010F004
:100AA0001010FF10FF141414FF141010101F00007A
:100AB0000000F010FFFFFFFFFFF0F0F0F0F0FFFF8D
:100AC000FF0000000000FFFF0F0F0F0F0F3844441E
:100AD0003844FC4A4A4A347E02020606027E027EFE
:100AE0000263554941633844443C04407E201E2043
:100AF00006027E020299A5E7A5991C2A492A1C4CE8
:100B00007201724C304A4D4D303048784830BC62EA
:100B10005A463D3E494949007E0101017E2A2A2A62
:100B20002A2A44445F444440514A444040444A5184
:100B3000400000FF0103E080FF000008086B6B0825
:100B40003612362436060F090F060000181800006A
:100B5000001010003040FF0101001F01011E0019AC
:100B60001D1712003C3C3C3C00000000000000212E
:100B700000240027002A002D00300033000101006E
:100B800000040107010A01010210202008081020BA
:100B90004010204080020102010804020101020409
:100BA00008102040808040201008040201800402C8
:100BB000018040201008040201080402010102041F
:100BC000081020408001020408102040800000220C
:100BD00000250028002B002E003100340002010007
:100BE00000050108010B01050505050705080808B2
:100BF00008020202020A0A080804040404010101AE
:100C000001010101010303030303030303040707B5
:100C1000070C0C0C0C0C0C0C0C0202020206060653
:100C200006060606060B0B0B0B0B0B0B0B00000A44
:100C30000B02090C0D0E0807030401000000000060
:100C400000000000000000000000000000000000A4
:100C50000000000000000000001211100000000061
:100C60000000000000000000000000000000000084
:100C700000000000903C11241FBECFEFD1E2DEBF88
:100C8000CDBF00E00CBF13E0A0E0B2E0ECE9F7E874
:100C900000E00BBF02C007900D92A237B107D9F751
:100CA00025E0A2E7B3E001C01D92AF32B207E1F741
:100CB00016E0CBE3D6E000E006C021970109802FC3
:100CC000FE010E946C42CA33D10780E00807A9F7F1
:100CD0000E94172F0C94CC430C9400008F929F928B
:100CE000BF92CF92DF92EF92FF920F931F93CF9319
:100CF000DF93EC01CB017A01E98DFA8D50814DA192
:100D000045234083488D411163C54D89423089F0A8
:100D1000433021F1413081F5AFEEB0E0AD01401B31
:100D2000510B4B01AE19BF0989019D017B01CA011D
:100D300025C04FEE50E0BA01621B730B9A01281BCD
:100D4000390B8FE391E0AC01401B510B8C010E1964
:100D50001F094801D9017A01CB0110C0EFE3F1E08E
:100D6000AF01421B530B4F01861A970AD701980116
:100D70008401C7017A0102C04701DB016B8D7C8DC4
:100D8000FB0150814EA145234083409102014778E9
:100D90004093020140910201409302014EB1477C11
:100DA0004EB94EB14EB9A59844B344BB6D8D7E8DFE
:100DB000FB0150814FA1452340836D8D7E8DFB014A
:100DC00050814BA1452B40834091020147784093CD
:100DD0000201409102014860409302014EB1477CFC
:100DE0004EB94EB14EB9A598A59A6D8D7E8DFB0179
:100DF00050814FA1452340836D8D7E8DFB01508135
:100E00004BA1452B4083492F552747FD5A95CB8C45
:100E1000DC8CF60170816AA1672B6083609102010E
:100E2000677860930201B0900201BA01607C772775
:100E30006B0163E0D594C7946A95E1F7BA016370DA
:100E40007727E5E0660F771FEA95E1F76C296B29B4
:100E5000609302016EB1677C6EB9BEB0BA016C706E
:100E600077276B01CC0CDD1CCC0CDD1CBA01607249
:100E7000772775956795759567956C296B296EB978
:100E8000A59864B340715527440F551F462B44BBAA
:100E90006D8D7E8DFB0150814FA1452340836D8D6B
:100EA0007E8DFB0150814BA1452B40834091020177
:100EB00047784093020160910201AC01407C5527C4
:100EC0006A0143E0D594C7944A95E1F7AC014370B9
:100ED000552775E0440F551F7A95E1F74C29462BAD
:100EE000409302014EB1477C4EB96EB1AC014C70DB
:100EF00055276A01CC0CDD1CCC0CDD1CAC0140720A
:100F0000552755954795559547954C29462B4EB9EC
:100F1000A59864B380719927880F991F862B84BB8D
:100F20004D8D5E8DFA0190818FA1892380834D8D37
:100F30005E8DFA0190818BA1892B80834B8D5C8D16
:100F4000FA0190818EA189238083809102018778A4
:100F50008093020180910201809302018EB1877C0F
:100F60008EB98EB18EB9A59884B384BB4D8D5E8D3C
:100F7000FA0190818FA1892380834D8D5E8DFA01C6
:100F800090818BA1892B8083809102018778809347
:100F90000201809102018862809302018EB1877CF8
:100FA0008EB98EB18EB9A598A59A4D8D5E8DFA0138
:100FB00090818FA1892380834D8D5E8DFA01908170
:100FC0008BA1892B8083832F992787FD9A956B8D21
:100FD0007C8DFB0150814AA1452B40834091020149
:100FE00047784093020160910201AC01407C552793
:100FF0006A0173E0D594C7947A95E1F7AC01437028
:101000005527E5E0440F551FEA95E1F74C29462B9B
:10101000409302014EB1477C4EB96EB1AC014C70A9
:1010200055276A01CC0CDD1CCC0CDD1CAC014072D8
:10103000552755954795559547954C29462B4EB9BB
:10104000A59844B380719927880F991F842B84BB7E
:101050004D8D5E8DFA0190818FA1892380834D8D06
:101060005E8DFA0190818BA1892B80838091020192
:1010700087788093020140910201C901807C992701
:10108000BC01F3E075956795FA95E1F7C9018370A6
:10109000992755E0880F991F5A95E1F7862B842BE5
:1010A000809302018EB1877C8EB94EB1C9018C70DC
:1010B0009927BC01660F771F660F771FC9018072E1
:1010C00099279595879595958795862B842B8EB92D
:1010D000A59884B320713327220F331F282B24BBFC
:1010E0002D8D3E8DF90190818FA1892380832D8DD7
:1010F0003E8DF90190818BA1892B80832B8D3C8DB6
:10110000F90190818EA189238083809102018778E3
:101110008093020180910201809302018EB1877C4D
:101120008EB98EB18EB9A59884B384BB2D8D3E8DBA
:10113000F90190818FA1892380832D8D3E8DF90146
:1011400090818BA1892B8083809102018778809385
:101150000201809102018864809302018EB1877C34
:101160008EB98EB18EB9A598A59A2D8D3E8DF901B7
:1011700090818FA1892380832D8D3E8DF9019081EF
:101180008BA1892B80838F2D992787FD9A954B8D75
:101190005C8DFA0130812AA1232B2083209102014A
:1011A000277820930201409102019C01207C332783
:1011B000B90133E0759567953A95E1F79C01237085
:1011C000332755E0220F331F5A95E1F7262B242BA6
:1011D000209302012EB1277C2EB94EB19C012C70B8
:1011E0003327B901660F771F660F771F9C012072A6
:1011F00033273595279535952795262B242B2EB902
:10120000A59824B380719927880F991F822B84BBDE
:101210002D8D3E8DF90190818FA1892380832D8DA5
:101220003E8DF90190818BA1892B808380910201F1
:1012300087788093020120910201C701807C992761
:10124000AC0163E0559547956A95E1F7C701837056
:10125000992775E0880F991F7A95E1F7842B822BE7
:10126000809302018EB1877C8EB92EB1C7018C703C
:101270009927AC01440F551F440F551FC7018072B9
:1012800099279595879595958795842B822B8EB96F
:10129000A59844B3970120713327220F331F242BC5
:1012A00024BB2D8D3E8DF90190818FA189238083F0
:1012B0002D8D3E8DF90190818BA1892B80832B8D03
:1012C0003C8DF90190818EA1892380838091020158
:1012D00087788093020180910201809302018EB190
:1012E000877C8EB98EB18EB9A59884B384BB2D8DC1
:1012F0003E8DF90190818FA1892380832D8D3E8DB4
:10130000F90190818BA1892B8083809102018778DC
:1013100080930201809102018866809302018EB160
:10132000877C8EB98EB18EB9A598A59A2D8D3E8DEC
:10133000F90190818FA1892380832D8D3E8DF90144
:1013400090818BA1892B8083812F992787FD9A9586
:101350004B8D5C8DFA0130812AA1232B20832091B3
:101360000201277820930201409102019C01207C18
:101370003327B90123E0759567952A95E1F79C011C
:101380002370332755E0220F331F5A95E1F7262BA0
:10139000242B209302012EB1277C2EB94EB19C0143
:1013A0002C703327B901660F771F660F771F9C01DA
:1013B000207233273595279535952795262B242B95
:1013C0002EB9A59824B380719927880F991F822B75
:1013D00084BB2D8D3E8DF90190818FA1892380835F
:1013E0002D8D3E8DF90190818BA1892B8083809179
:1013F000020187788093020120910201C801807C5C
:101400009927AC0163E0559547956A95E1F7C801C6
:101410008370992775E0880F991F7A95E1F7842BDF
:10142000822B809302018EB1877C8EB92EB1C801C8
:101430008C709927AC01440F551F440F551FC801EC
:10144000807299279595879595958795842B822B02
:101450008EB9A59824B300711127000F111F022B1C
:1014600004BB2D8D3E8DF90190818FA1892380834E
:101470002D8D3E8DF90190818BA1892B80832B8D41
:101480003C8DF90190818EA1892380838091020196
:1014900087788093020180910201809302018EB1CE
:1014A000877C8EB98EB18EB9A59884B384BB2D8DFF
:1014B0003E8DF90190818FA1892380832D8D3E8DF2
:1014C000F90190818BA1892B80838091020187781B
:1014D0008093020180910201809302018EB1877C8A
:1014E0008EB9739AA59884B384BB2D8D3E8DF90176
:1014F00090818FA1892380832D8D3E8DF90190816C
:101500008BA1892B80838B2F992787FD9A954B8DF3
:101510005C8DFA0130812AA1232B208320910201C6
:10152000277820930201409102019C01207C3327FF
:10153000B90123E0759567952A95E1F79C01237021
:10154000332755E0220F331F5A95E1F7262B242B22
:10155000209302012EB1277C2EB94EB19C012C7034
:101560003327B901660F771F660F771F9C01207222
:1015700033273595279535952795262B242B2EB97E
:10158000A59824B380719927880F991F822B84BB5B
:101590002D8D3E8DF90190818FA1892380832D8D22
:1015A0003E8DF90190818BA1892B8083809102016E
:1015B00087788093020120910201CD01807C9927D8
:1015C000AC0103E0559547950A95E1F7CD0183708D
:1015D000992735E0880F991F3A95E1F7842B822BE4
:1015E000809302018EB1877C8EB92EB1CD018C70B3
:1015F0009927AC01440F551F440F551FCD01807230
:1016000099279595879595958795842B822B8EB9EB
:10161000A59884B3A071BB27AA0FBB1FA82BA4BB9E
:10162000AD8DBE8D9C918FA189238C93AD8DBE8D88
:101630009C918BA1892B8C93AB8DBC8D9C918EA1A1
:1016400089238C9380910201877880930201809195
:101650000201809302018EB1877C8EB98EB18EB962
:10166000A59884B384BBAD8DBE8D9C918FA1892339
:101670008C93AD8DBE8D9C918BA1892B8C93809189
:101680000201877880930201809102018062809339
:1016900002018EB1877C8EB9739AA59884B384BBFE
:1016A000AD8DBE8D9C918FA189238C93AD8DBE8D08
:1016B0009C918BA1892B8C93892D992787FD9A95D5
:1016C000AB8DBC8D3C912AA1232B2C932091020140
:1016D000277820930201409102019C01207C33274E
:1016E000B901A3E075956795AA95E1F79C01237070
:1016F0003327B5E0220F331FBA95E1F7262B242BB1
:10170000209302012EB1277C2EB94EB19C012C7082
:101710003327B901660F771F660F771F9C01207270
:1017200033273595279535952795262B242B2EB9CC
:10173000A59824B380719927880F991F822B84BBA9
:10174000AD8DBE8D9C918FA189238C93AD8DBE8D67
:101750009C918BA1892B8C93809102018778809337
:10176000020120910201C401807C9927AC0163E051
:10177000559547956A95E1F7C4018370992775E0FF
:10178000880F991F7A95E1F7842B822B80930201B1
:101790008EB1877C8EB92EB1C4018C709927AC01B3
:1017A000440F551F440F551FC4018072992795950A
:1017B000879595958795842B822B8EB9A59884B3B0
:1017C000F401E071FF27EE0FFF1FE82BE4BB80C39D
:1017D000413009F08AC3492F552747FD5A95EB8DB3
:1017E000FC8D70816EA16723608360910201677830
:1017F00060930201609102016064609302016EB126
:10180000677C6EB96EB16EB9A59864B364BBED8D9B
:10181000FE8D70816FA167236083ED8DFE8D7081D9
:101820006BA1672B6083EB8DFC8D70816AA1672BA8
:10183000608360910201677860930201E091020188
:10184000BA01607C7727DB0173E0B595A7957A959F
:10185000E1F7BA0163707727F5E0660F771FFA9515
:10186000E1F76A2B6E2B609302016EB1677C6EB953
:10187000EEB1BA016C707727DB01AA0FBB1FAA0F6C
:10188000BB1FBA0160727727759567957595679547
:101890006A2B6E2B6EB9A59864B340715527440F1F
:1018A000551F462B44BBED8DFE8D50814FA1452326
:1018B0004083ED8DFE8D50814BA1452B4083EB8DF8
:1018C000FC8D50814EA14523408340910201477811
:1018D00040930201409102014066409302014EB1E3
:1018E000477C4EB94EB14EB9A59844B344BBED8D7B
:1018F000FE8D50814FA145234083ED8DFE8D50819B
:101900004BA1452B4083EB8DFC8D50814AA1452B8B
:1019100040834091020147784093020160910201A7
:10192000AC01407C5527FA01B3E0F595E795BA95EF
:10193000E1F7AC014370552775E0440F551F7A95C8
:10194000E1F74E2B462B409302014EB1477C4EB936
:101950006EB1AC014C705527FA01EE0FFF1FEE0F70
:10196000FF1FAC01407255275595479555954795F2
:101970004E2B462B4EB9A59864B380719927880FDA
:10198000991F862B84BBED8DFE8D90818FA18923BD
:101990008083ED8DFE8D90818BA1892B80838F2D8F
:1019A000992787FD9A95EB8DFC8D50814EA145239B
:1019B0004083409102014778409302014091020127
:1019C0004064409302014EB1477C4EB9749AA59889
:1019D00044B344BBED8DFE8D50814FA14523408320
:1019E000ED8DFE8D50814BA1452B4083EB8DFC8D01
:1019F00050814AA1452B4083409102014778409392
:101A0000020160910201AC01407C5527FA0173E0AC
:101A1000F595E7957A95E1F7AC0143705527F5E028
:101A2000440F551FFA95E1F74E2B462B40930201C8
:101A30004EB1477C4EB96EB1AC014C705527FA01DE
:101A4000EE0FFF1FEE0FFF1FAC014072552755959B
:101A50004795559547954E2B462B4EB9A59844B3BF
:101A600080719927880F991F842B84BBED8DFE8D83
:101A700090818FA189238083ED8DFE8D90818BA134
:101A8000892B8083EB8DFC8D90818EA189238083AF
:101A90008091020187788093020180910201806623
:101AA000809302018EB1877C8EB9749AA59884B315
:101AB00084BBED8DFE8D90818FA189238083ED8D78
:101AC000FE8D90818BA1892B8083EB8DFC8D908185
:101AD0008AA1892B808380910201877880930201FB
:101AE00040910201C701807C9927BC01E3E0759514
:101AF0006795EA95E1F7C70183709927F5E0880FAC
:101B0000991FFA95E1F7862B842B809302018EB101
:101B1000877C8EB94EB1C7018C709927BC01660FC6
:101B2000771F660F771FC701807299279595879554
:101B300095958795862B842B8EB9A59844B3F0E1B3
:101B4000EF22FF24EE0CFF1CE42AE4BAED8DFE8D9B
:101B500090818FA189238083ED8DFE8D90818BA153
:101B6000892B8083832F992787FD9A95EB8DFC8D98
:101B700050814EA145234083409102014778409314
:101B8000020140910201409302014EB1477C4EB9DF
:101B9000749AA59844B344BBED8DFE8D50814FA13E
:101BA00045234083ED8DFE8D50814BA1452B408315
:101BB000EB8DFC8D50814AA1452B40834091020161
:101BC00047784093020160910201AC01407C5527A7
:101BD000FA0143E0F595E7954A95E1F7AC014370CA
:101BE000552775E0440F551F7A95E1F74E2B462B8C
:101BF000409302014EB1477C4EB96EB1AC014C70BE
:101C00005527FA01EE0FFF1FEE0FFF1FAC014072C8
:101C1000552755954795559547954E2B462B4EB9CB
:101C2000A59844B380719927880F991F842B84BB92
:101C3000ED8DFE8D90818FA189238083ED8DFE8DAA
:101C400090818BA1892B8083EB8DFC8D90818EA15F
:101C5000892380838091020187788093020180919B
:101C600002018062809302018EB1877C8EB9749AE2
:101C7000A59884B384BBED8DFE8D90818FA18923BF
:101C80008083ED8DFE8D90818BA1892B8083EB8DE0
:101C9000FC8D90818AA1892B8083809102018778B5
:101CA0008093020140910201C901807C9927BC0107
:101CB000E3E075956795EA95E1F7C9018370992787
:101CC000F5E0880F991FFA95E1F7862B842B809316
:101CD00002018EB1877C8EB94EB1C9018C709927F3
:101CE000BC01660F771F660F771FC90180729927A5
:101CF0009595879595958795862B842B8EB9A59874
:101D000084B320713327220F331F282B24BBED8D82
:101D1000FE8D90818FA189238083ED8DFE8D908132
:101D20008BA1892B8083812F992787FD9A95EB8D35
:101D3000FC8D30812EA1232320832091020127785E
:101D40002093020120910201209302012EB1277CF1
:101D50002EB9759AA59824B324BBED8DFE8D3081E4
:101D60002FA123232083ED8DFE8D30812BA1232BEA
:101D70002083EB8DFC8D30812AA1232B20832091A1
:101D80000201277820930201409102019C01207CEE
:101D90003327B90133E0759567953A95E1F79C01D2
:101DA0002370332755E0220F331F5A95E1F7262B76
:101DB000242B209302012EB1277C2EB94EB19C0119
:101DC0002C703327B901660F771F660F771F9C01B0
:101DD000207233273595279535952795262B242B6B
:101DE0002EB9A59824B380719927880F991F822B4B
:101DF00084BBED8DFE8D90818FA189238083ED8D35
:101E0000FE8D90818BA1892B8083EB8DFC8D908141
:101E10008EA18923808380910201877880930201BB
:101E2000809102018062809302018EB1877C8EB91D
:101E3000759AA59884B384BBED8DFE8D90818FA19A
:101E400089238083ED8DFE8D90818BA1892B8083EA
:101E5000EB8DFC8D90818AA1892B8083809102017A
:101E600087788093020120910201C801807C992724
:101E7000AC01B3E055954795BA95E1F7C801837079
:101E8000992735E0880F991F3A95E1F7842B822B2B
:101E9000809302018EB1877C8EB92EB1C8018C70FF
:101EA0009927AC01440F551F440F551FC80180727C
:101EB00099279595879595958795842B822B8EB933
:101EC000A59824B300711127000F111F022B04BB2A
:101ED000ED8DFE8D90818FA189238083ED8DFE8D08
:101EE00090818BA1892B80832FC04250423060F5B6
:101EF000092E000CAA0BBB0BDC0199278827A9012E
:101F0000330F660B770B9A01AB01282B392B4A2B29
:101F10005B2B6AE2CE010E94CD28C701FF0CAA0B01
:101F2000BB0BBC0155274427012E000C220B330BA1
:101F3000D901C801842B952BA62BB72B9C01AD0191
:101F40006BE2CE010E94CD28E98DFA8D908189A1A6
:101F5000892B8083DF91CF911F910F91FF90EF909C
:101F6000DF90CF90BF909F908F90089508952F920B
:101F70003F924F925F926F927F928F929F92AF9219
:101F8000BF92CF92DF92EF92FF920F931F93CF9366
:101F9000DF93CDB7DEB72D970FB6F894DEBF0FBE37
:101FA000CDBF9D878C876A30A1F4DC0154962C91BB
:101FB00054971E968D919C911F97B8E02B9F800D92
:101FC000911D1124EC85FD859787868715861486DB
:101FD000F8C06D3009F4F5C0AC85BD851C96CD9078
:101FE000DC901D9718968D919C911997C816D9066B
:101FF000BCF0EC85FD854489242F30E084859585EF
:10200000F6E04F9F800D911D1124AC85BD851D9676
:102010009C938E931C9756964C914111AEC0D1C0A3
:10202000EC85FD858684978482859385881699063C
:1020300004F7F489F983AF2EB12CC60126E0F29F94
:10204000800D911D1124181619069CF6C50123E078
:10205000880F991F2A95E1F7880D991D1816190602
:1020600044F6AC85BD8557968C91811103C0603BC9
:1020700008F06F5FEC85FD850288F389E02DFD8314
:10208000EC83AC85BD8550960D90BC91A02DBF838F
:10209000AE83B5E06B9FB001112416011A82FB01DB
:1020A000EC19FD09F987E8879401285F3F4F3B87CA
:1020B0002A873A81353049F0E885F985E20DF31D2C
:1020C000E359F94F54915B8301C01B822401340111
:1020D0008B8180FF13C0AC85BD85ED91FC91B981EA
:1020E000B13031F40084F185E02D2E813F8119C09B
:1020F0000288F389E02DEE80FF801EC0EC81FD8117
:102100002E813F81E217F307F1F0AC85BD85ED919B
:10211000FC91B981B13059F40084F185E02D2C8116
:102120003D81A301B1018C859D8519950CC0028864
:10213000F389E02DEC80FD8085019501A201B601B7
:102140008C859D851995EB81E695EB83FFEF6F1AE2
:102150007F0A4A0C5B1C2A853B852615370509F04A
:10216000B7CF3A813F5F3A835FEF251A350ACA0C31
:10217000DB1C363009F09DCF3CCF4AEF4203B00163
:10218000439F700D1124AC85BD8518964D915C91CF
:102190001997460F571F481759079CF483E0220FE1
:1021A000331F8A95E1F71E968D919C911F97280FFA
:1021B000391F1F963C932E931E971D961C921E92BC
:1021C0001C9781E090E02D960FB6F894DEBF0FBE0D
:1021D000CDBFDF91CF911F910F91FF90EF90DF90D6
:1021E000CF90BF90AF909F908F907F906F905F90B7
:1021F0004F903F902F900895EF92FF920F931F936F
:10220000DC011A960D911C911B9718962D913C910B
:102210001997ED91FC910288F389E02D7B0140E054
:1022200050E060E070E019951F910F91FF90EF90E2
:1022300008956F927F928F929F92AF92BF92CF92AA
:10224000DF92EF92FF920F931F93CF93DF936C0176
:102250005A014801EB013B01620E731EC615D705FA
:1022600074F4D601ED91FC910484F585E02D87018D
:102270009401A501BE01C60119952196EFCFDF910A
:10228000CF911F910F91FF90EF90DF90CF90BF9073
:10229000AF909F908F907F906F900895EF92FF92F4
:1022A0000F931F93260F371F21503109DC01ED9149
:1022B000FC910284F385E02D78018A0119951F9124
:1022C0000F91FF90EF900895EF92FF920F931F935D
:1022D000240F351F21503109DC01ED91FC9102845E
:1022E000F385E02D780189019B0119951F910F91CC
:1022F000FF90EF9008956F927F928F929F92AF928E
:10230000BF92CF92DF92EF92FF920F931F93CF93E2
:10231000DF93EC014B015A0169013801E881F98131
:102320000684F785E02D87011995A501460D571DF7
:1023300041505109E881F9810684F785E02D960125
:10234000B401CE011995E881F9810484F585E02D69
:102350009301A501B401CE011995C80CD91CB60191
:1023600061507109E881F9810484F585E02D9301BC
:10237000A501CE011995DF91CF911F910F91FF908B
:10238000EF90DF90CF90BF90AF909F908F907F9015
:102390006F9008952F923F924F925F926F927F922B
:1023A0008F929F92AF92BF92CF92DF92EF92FF9265
:1023B0000F931F93CF93DF9300D000D0CDB7DEB73C
:1023C0002C017E836D836A015901C801FC82EB8276
:1023D0004801841A950A97FE03C09194819491084C
:1023E00035012D813E81621A730A77FE03C0719414
:1023F00061947108681479045CF43A2D2B2D5C010A
:10240000832F922F3D812E81DE82CD82C32ED22E4C
:10241000AD81BE81AA16BB065CF43C2D2D2D6C014E
:10242000832F922F3D812E81BE82AD82A32EB22EAC
:1024300085012D813E81021B130B1C012C183D08C8
:1024400037FE03C0319421943108780117FF03C08F
:102450003FEFE31AF30AF594E794C816D9062CF077
:102460008FEF9FEF9A83898304C0A1E0B0E0BA8325
:10247000A9832D813E81A216B30624F1D201ED91EC
:10248000FC910084F185E02D2B813C816814790456
:1024900024F44D815E81B60103C0A6016D817E8169
:1024A000C2011995E218F308F7FE06C029813A81A6
:1024B000C20ED31EE00EF11E8D819E8101969E8379
:1024C0008D83D7CF26960FB6F894DEBF0FBECDBF53
:1024D000DF91CF911F910F91FF90EF90DF90CF9000
:1024E000BF90AF909F908F907F906F905F904F9034
:1024F0003F902F900895089580E090E00895CF9246
:10250000DF92EF92FF92CF93DF93FC01C685D785D0
:10251000209104023091050287EB9AE0289FB001D8
:10252000299F700D389F700D11246D5D784E70934A
:10253000050260930402072E000C880B990B0E9481
:102540004A3F6B017C0120E030E0A9010E949B3EE4
:1025500087FF0AC02AE635ED4CE45DE4C701B60109
:102560000E942F3E6B017C012AE635ED4CE45DE4D0
:10257000C701B6010E94A03E20E030E048EA51E4E5
:102580000E9452400E94123F6A5071097983688309
:10259000DF91CF91FF90EF90DF90CF90089566EF9D
:1025A00072E08AE993E00E94B21D6BE572E087E376
:1025B00094E00E94B21D8AE993E00E942527181634
:1025C00019068CF087E394E00E940327AC01990F71
:1025D000660B770B8AE993E00E94C41D8AE993E0B9
:1025E0000E94E026E8CF63E772E087E394E00C9472
:1025F000B21DCF93DF93EC011092050510920405F4
:10260000109207051092060584E080930C05EE8178
:10261000FF81808191818B309105E0F48091980356
:1026200090919903823091056CF010920B051092F5
:102630000A0510920905109208051092990310924C
:1026400098032BC00196909399038093980380E0A0
:1026500098EF1BC0C397B8F48091980390919903A9
:102660008130910511F320E03CEF30930B0520936E
:102670000A05309309052093080501969093990364
:10268000809398030AC080EE97E090930B058093A7
:102690000A05909309058093080564E872E088EFC5
:1026A00094E00E94F22688EF94E00E94E026E885FC
:1026B000F985808191818B309105B8F480919603E2
:1026C00090919703823091056CF010920B05109257
:1026D0000A051092090510920805109297031092AE
:1026E000960326C020E038EF0BC0C397B8F4809162
:1026F0009603909197038130910539F320E03CEFE8
:1027000030930B0520930A053093090520930805A3
:10271000019690939703809396030AC080EE97E00A
:1027200090930B0580930A05909309058093080503
:102730006CE872E088EF94E00E94F22688EF94E063
:10274000DF91CF910C94E026CF93DF93EC0161E908
:1027500072E087E394E00E94F226EE81FF8180819F
:1027600091818536910538F063EA72E087E394E061
:102770000E94B21D04C06AE070E00E94F61D66EA85
:1027800072E087E394E00E94F226E885F9856AE02A
:1027900070E0808191810E94F61D65EB72E087E315
:1027A00094E00E94F226EA85FB856AE070E0808171
:1027B00091810E94F61D6AEC72E087E394E00E942A
:1027C000F226EC85FD856AE070E0808191810E94AF
:1027D000F61D6EED72E087E394E00E94F226EC8134
:1027E000FD8180819181892B19F061EF72E002C037
:1027F00064EF72E087E394E00E94B21D87E394E007
:102800000E94E0268091760390917703892B31F026
:1028100068EF72E087E394E00E94B21D8091740338
:1028200090917503892B31F06FEF72E087E394E0AC
:102830000E94B21DEE81FF8180819181EA81FB813E
:10284000C29758F481E090E09183808367E073E061
:1028500087E394E00E94B21D02C011821082E885D5
:10286000F98580819181E881F981C29760F481E0E6
:1028700090E09183808363E173E087E394E0DF91EC
:10288000CF910C94B21D11821082DF91CF910895E7
:10289000AF92BF92CF92DF92EF92FF920F931F936E
:1028A000CF93DF935B017C01C0E0D0E000E010E05B
:1028B000CA15DB0504F5F701C190D1907F01BE0177
:1028C0000D2E000C880B990B0E944A3F9B01AC0116
:1028D00060E070E080E090E40E94BF400E94123F00
:1028E000C69E9001C79E300DD69E300D1124020F5A
:1028F000131F2196DDCFC801DF91CF911F910F915A
:10290000FF90EF90DF90CF90BF90AF900895AF927F
:10291000BF92CF92DF92EF92FF920F931F93CF93CC
:10292000DF93CDB7DEB768970FB6F894DEBF0FBE62
:10293000CDBF5C01DC01ED91FC91E080F18088EC81
:1029400090E00E94A6428C01FC01B0968FE090E0DE
:102950009701082E02C0359527950A94E2F7217059
:10296000332732932293019798F7F801E080F180A2
:1029700082819381E82AF92A84819581E82AF92ABB
:1029800086819781E82AF92A808591859A8B898B9F
:10299000828593859C8B8B8B848595859E8B8D8B77
:1029A00086859785988F8F8B64E070E0CE01419685
:1029B0000E9448146C01D80150968D919C915197BA
:1029C0009A83898352968D919C9153979C838B8394
:1029D00054968D919C9155979E838D8356968D919B
:1029E0009C91579798878F8358968D919C91599772
:1029F0009A8789875A968D919C915B979C878B8744
:102A00005C968D919C915D979E878D875E968D914A
:102A10009C915F97988B8F8768E070E0CE0101965C
:102A20000E944814EF28D9F0892BC9F0D5011296DD
:102A3000ED91FC91139780819181181619067CF411
:102A4000BEE0CB16D10411F0CD2849F085309105B8
:102A50001CF41182108203C00597918380836896CD
:102A60000FB6F894DEBF0FBECDBFDF91CF911F919F
:102A70000F91FF90EF90DF90CF90BF90AF900895AF
:102A8000CF92DF92EF92FF92CF93DF93EC010E94FF
:102A90002B266093920370939303809394039093F7
:102AA00095036B017C0128E5C20E22E0D21EE11CD9
:102AB000F11C0E942B26C616D706E806F906C8F3B5
:102AC00080917B00886080937B0085E480937C000C
:102AD00080917A00806480937A0080917A0086FDEC
:102AE000FCCF209178008091790030E0382B45E0D0
:102AF000429FC001439F900D11246FEF73E00E942D
:102B00003642072E000C880B990B0E944A3F26E69E
:102B100036E646EE50E40E9452400E94853F25E88A
:102B20003BEE41E350E40E9452400E94853F0E94E8
:102B3000193FEE81FF8171836083E881F9814081D3
:102B400051814130510541F5603671054CF0EC8101
:102B5000FD8151834083EA85FB851182108225C067
:102B60006233710570F48091720390917303EA856A
:102B7000FB85009769F080FF0BC0808191810196F1
:102B800012C0635371096C32710578F4EA85FB85D4
:102B900080819181029607C06B30710534F4EA811F
:102BA000FB8181E090E091838083DF91CF91FF9062
:102BB000EF90DF90CF900895CF92DF92EF92FF9247
:102BC000CF93DF93EC016CE173E087E394E00E9424
:102BD000B21D0E948A266B017C0160938E03709364
:102BE0008F0380939003909391030E948A26DC01C7
:102BF000CB018C199D09AE09BF09803D9740A10505
:102C0000B10598F387E394E00E94E02687E394E01F
:102C10000E9403278936910519F4E881F98105C0DE
:102C20008436910569F4EA81FB8181E090E091832B
:102C30008083DF91CF91FF90EF90DF90CF90089548
:102C400067E373E087E394E0DF91CF91FF90EF902B
:102C5000DF90CF900C94F2268F929F92AF92BF920A
:102C6000CF92DF92EF92FF920F931F93CF93DF9358
:102C7000EC010091020210910302EE81FF8180813C
:102C80009181019769F4C8014996853F21E0920737
:102C900014F084EF91E090930302809302020EC03F
:102CA000E885F98580819181019751F4C8014997A0
:102CB00097FFF1CF1092030210920202118210824C
:102CC000AA85BB858D919C9111978436910508F05A
:102CD00056C00E948A264B015C0160938E0370935C
:102CE0008F038093900390939103C0900202D09041
:102CF00003020D2C000CEE08FF08C80CD91CEA1CBE
:102D0000FB1C0E948A26C616D706E806F90640F480
:102D10008DE00E94121E61E08DE00E94AD25E5CF9E
:102D20000E948A2660938E0370938F038093900392
:102D30009093910324EF31E0201B310B8901330F75
:102D4000220B330B68017901C60ED71EE81EF91E4F
:102D50000E948A26C616D706E806F90640F48DE0DA
:102D60000E94121E60E08DE00E94AD25F1CFEA8541
:102D7000FB85808191810A969183808321C04A815D
:102D80005B81FA012081318188819981232B31F087
:102D900021E030E0FC013183208303C0FC0111827B
:102DA00010821D921C92FA0111821082EC81FD8129
:102DB000118210828AEF90E09093030280930202C6
:102DC00087E394E00E94E0266EE473E087E394E0FA
:102DD0000E94F226EA85FB856AE070E0808191819D
:102DE0000E94F61D6DE573E087E394E00E94F226F1
:102DF0004091020250910302052E000C660B770BE6
:102E000087E394E00E94C41D6BE673E087E394E0DF
:102E10000E94B21D87E394E0DF91CF911F910F9143
:102E2000FF90EF90DF90CF90BF90AF909F908F90EA
:102E30000C94E026EF92FF920F931F93CF93DF93B2
:102E4000EC01790177FD3EC657FD3CC68885998522
:102E5000681779070CF036C68A859B85481759078D
:102E60000CF030C6E98DFA8D90818DA18923808385
:102E7000888D811192C28D89823059F08330B1F0F2
:102E80008130D1F48FEE90E0841B950BAB01BC0137
:102E900013C08FEE90E09C01261B370BB9018FE326
:102EA00091E09C01241B350BA90106C08FE391E042
:102EB000861B970BBA01AC01EB8DFC8D90818EA126
:102EC0008923808380910201877880930201809119
:102ED0000201809302018EB1877C8EB98EB18EB9CA
:102EE000A59884B384BBED8DFE8D90818FA189233D
:102EF0008083ED8DFE8D90818BA1892B80838091C5
:102F0000020187788093020180910201809302017F
:102F10008EB1877C8EB9739AA59884B384BBED8DEE
:102F2000FE8D90818FA189238083ED8DFE8D908110
:102F30008BA1892B8083872F992787FD9A95EB8D0D
:102F4000FC8D30812AA1232B208320910201277838
:102F500020930201E09102019C01207C3327D901DA
:102F6000F3E0B595A795FA95E1F79C012370332717
:102F7000B5E0220F331FBA95E1F72A2B2E2B2093B1
:102F800002012EB1277C2EB9EEB19C012C703327A3
:102F9000D901AA0FBB1FAA0FBB1F9C0120723327A8
:102FA00035952795359527952A2B2E2B2EB9A59843
:102FB00024B380719927880F991F822B84BBED8DD4
:102FC000FE8D90818FA189238083ED8DFE8D908170
:102FD0008BA1892B808380910201877880930201E5
:102FE00020910201CB01807C9927FC01A3E0F5959B
:102FF000E795AA95E1F7CB0183709927B5E0880F93
:10300000991FBA95E1F78E2B822B809302018EB126
:10301000877C8EB92EB1CB018C709927FC01EE0F05
:10302000FF1FEE0FFF1FCB018072992795958795A3
:10303000959587958E2B822B8EB9A59884B3607158
:103040007727660F771F682B64BBED8DFE8D90810F
:103050008FA189238083ED8DFE8D90818BA1892B9B
:103060008083EB8DFC8D90818EA18923808380915C
:10307000020187788093020180910201809302010E
:103080008EB1877C8EB98EB18EB9A59884B384BB7E
:10309000ED8DFE8D90818FA189238083ED8DFE8D36
:1030A00090818BA1892B8083809102018778809306
:1030B0000201809102018062809302018EB1877CBF
:1030C0008EB9739AA59884B384BBED8DFE8D9081E3
:1030D0008FA189238083ED8DFE8D90818BA1892B1B
:1030E0008083852F992787FD9A95EB8DFC8D308104
:1030F0002AA1232B2083209102012778209302010B
:10310000609102019C01207C3327F90133E0F595A1
:10311000E7953A95E1F79C012370332775E0220F7C
:10312000331F7A95E1F72E2B262B209302012EB127
:10313000277C2EB96EB19C012C703327F901EE0F5C
:10314000FF1FEE0FFF1F9C01207233273595279537
:10315000359527952E2B262B2EB9A59824B3807153
:103160009927880F991F822B84BBED8DFE8D90814E
:103170008FA189238083ED8DFE8D90818BA1892B7A
:10318000808380910201877880930201209102015F
:10319000CA01807C9927BC0103E0759567950A9563
:1031A000E1F7CA018370992735E0880F991F3A9596
:1031B000E1F7862B822B809302018EB1877C8EB93A
:1031C0002EB1CA018C709927BC01660F771F660F5C
:1031D000771FCA0180729927959587959595879550
:1031E000862B822B8EB9A59884B340715527440F46
:1031F000551F482B44BBED8DFE8D90818FA18923F7
:103200008083ED8DFE8D90818BA1892B8083EB8D4A
:10321000FC8D90818EA18923808380910201877823
:103220008093020180910201809302018EB1877C1C
:103230008EB98EB18EB9A59884B384BBED8DFE8D09
:1032400090818FA189238083ED8DFE8D90818BA14C
:10325000892B80838091020187788093020180917D
:1032600002018064809302018EB1877C8EB9739ACB
:10327000A59884B384BBED8DFE8D90818FA18923A9
:103280008083ED8DFE8D90818BA1892B8083EB8DCA
:10329000FC8D90818AA1892B80838091020187789F
:1032A00080930201409102018F2D99279C01207C7F
:1032B0003327B90113E0759567951A95E1F79C01DD
:1032C0002370332705E0220F331F0A95E1F7262BE1
:1032D000242B209302012EB1277C2EB94EB19C01E4
:1032E0002C703327B901660F771F660F771F9C017B
:1032F000207233273595279535952795262B242B36
:103300002EB9A59824B380719927880F991F822B15
:1033100084BBED8DFE8D90818FA189238083ED8DFF
:10332000FE8D90818BA1892B80838091020187780B
:103330008093020120910201C701807C9927AC0192
:1033400073E0559547957A95E1F7C7018370992702
:10335000E5E0880F991FEA95E1F7842B822B809393
:1033600002018EB1877C8EB92EB1C7018C7099276E
:10337000AC01440F551F440F551FC7018072992798
:103380009595879595958795842B822B8EB9A598D1
:1033900084B330E1E322FF24CFC2813009F0CFC2F1
:1033A000ED89E150E33028F4F0E0E45FFD4F8081E7
:1033B00001C080E0EB8DFC8D20819EA19223908343
:1033C000909102019778909302019091020190648C
:1033D000909302019EB1977C9EB9749AA598A59A84
:1033E000ED8DFE8D20819FA192239083ED8DFE8D2A
:1033F00020819BA1922B9083EB8DFC8D20819AA143
:10340000922B9083909102019778909302012091E2
:103410000201982F907C969596959695922B909375
:1034200002019EB1977C9EB92EB1982F9072892F80
:1034300090E09595879595958795822B8EB9A5985F
:1034400084B384BBED8DFE8D90818FA18923808311
:10345000ED8DFE8D90818BA1892B8083872F9927FD
:1034600087FD9A95EB8DFC8D30812EA1232320833F
:10347000209102012778209302012091020120640B
:10348000209302012EB1277C2EB92EB12EB9A5981A
:1034900024B324BBED8DFE8D30812FA12323208307
:1034A000ED8DFE8D30812BA1232B2083EB8DFC8DA8
:1034B00030812AA1232B2083209102012778209399
:1034C0000201E09102019C01207C3327D90113E025
:1034D000B595A7951A95E1F79C012370332705E070
:1034E000220F331F0A95E1F72A2B2E2B209302017E
:1034F0002EB1277C2EB9EEB19C012C703327D90157
:10350000AA0FBB1FAA0FBB1F9C0120723327359542
:103510002795359527952A2B2E2B2EB9A59824B3C0
:1035200080719927880F991F822B84BBED8DFE8DAA
:1035300090818FA189238083ED8DFE8D90818BA159
:10354000892B8083EB8DFC8D90818EA189238083D4
:103550008091020187788093020180910201806648
:10356000809302018EB1877C8EB98EB18EB9A598F9
:1035700084B384BBED8DFE8D90818FA189238083E0
:10358000ED8DFE8D90818BA1892B8083EB8DFC8D41
:1035900090818AA1892B8083809102018778809312
:1035A000020120910201CB01807C9927FC01B3E04C
:1035B000F595E795BA95E1F7CB018370992715E06A
:1035C000880F991F1A95E1F78E2B822B80930201A9
:1035D0008EB1877C8EB92EB1CB018C709927FC01FE
:1035E000EE0FFF1FEE0FFF1FCB01807299279595FD
:1035F0008795959587958E2B822B8EB9A59884B348
:1036000060717727660F771F682B64BBED8DFE8D89
:1036100090818FA189238083ED8DFE8D90818BA178
:10362000892B8083852F992787FD9A95EB8DFC8DBB
:1036300030812EA12323208320910201277820931B
:103640000201209102012064209302012EB1277C07
:103650002EB9749AA59824B324BBED8DFE8D3081CC
:103660002FA123232083ED8DFE8D30812BA1232BD1
:103670002083EB8DFC8D30812AA1232B2083209188
:103680000201277820930201609102019C01207CB5
:103690003327F901A3E0F595E795AA95E1F79C0199
:1036A00023703327B5E0220F331FBA95E1F72E2B95
:1036B000262B209302012EB1277C2EB96EB19C01DE
:1036C0002C703327F901EE0FFF1FEE0FFF1F9C0137
:1036D0002072332735952795359527952E2B262B48
:1036E0002EB9A59824B380719927880F991F822B32
:1036F00084BBED8DFE8D90818FA189238083ED8D1C
:10370000FE8D90818BA1892B8083EB8DFC8D908128
:103710008EA18923808380910201877880930201A2
:10372000809102018066809302018EB1877C8EB900
:10373000749AA59884B384BBED8DFE8D90818FA182
:1037400089238083ED8DFE8D90818BA1892B8083D1
:10375000EB8DFC8D90818AA1892B80838091020161
:1037600087788093020120910201CA01807C992709
:10377000BC01E3E075956795EA95E1F7CA018370AE
:103780009927F5E0880F991FFA95E1F7862B822B90
:10379000809302018EB1877C8EB92EB1CA018C70E4
:1037A0009927BC01660F771F660F771FCA018072C9
:1037B00099279595879595958795862B822B8EB918
:1037C000A59884B340715527440F551F482B44BB1F
:1037D000ED8DFE8D90818FA189238083ED8DFE8DEF
:1037E00090818BA1892B8083EB8DFC8D90818EA1A4
:1037F00089238083809102018778809302018091E0
:1038000002018064809302018EB1877C8EB9739A25
:10381000A59884B384BBED8DFE8D90818FA1892303
:103820008083ED8DFE8D90818BA1892B8083EB8D24
:10383000FC8D90818AA1892B8083809102018778F9
:1038400080930201409102018F2D99279C01207CD9
:103850003327B90123E0759567952A95E1F79C0117
:103860002370332755E0220F331F5A95E1F7262B9B
:10387000242B209302012EB1277C2EB94EB19C013E
:103880002C703327B901660F771F660F771F9C01D5
:10389000207233273595279535952795262B242B90
:1038A0002EB9A59824B380719927880F991F822B70
:1038B00084BBED8DFE8D90818FA189238083ED8D5A
:1038C000FE8D90818BA1892B808380910201877866
:1038D0008093020120910201C701807C9927AC01ED
:1038E000B3E055954795BA95E1F7C70183709927DD
:1038F00015E0880F991F1A95E1F7842B822B80938E
:1039000002018EB1877C8EB92EB1C7018C709927C8
:10391000AC01440F551F440F551FC70180729927F2
:103920009595879595958795842B822B8EB9A5982B
:1039300084B390E1E922FF24EE0CFF1CAFC082505B
:10394000823008F0B9C00A851B850150110928850D
:10395000398521503109CE010E946E06E98DFA8D1C
:1039600090818DA189238083EB8DFC8D90818EA128
:10397000892380838091020187788093020180915E
:103980000201809302018EB1877C8EB98EB188636B
:103990008EB9A59884B384BBED8DFE8D90818FA1E7
:1039A00089238083ED8DFE8D90818BA1892B80836F
:1039B000EB8DFC8D90818AA1892B808380910201FF
:1039C000877880930201409102018F2D99279C01F5
:1039D000207C332753E0369527955A95E1F7382F09
:1039E00033703295330F307E232B242B209302012A
:1039F0002EB1277C2EB94EB1282F2C70522F550F87
:103A0000550F9C01207233273695279536952795BB
:103A1000252B242B2EB9A59894B38071880F892B60
:103A200084BBED8DFE8D90818FA189238083ED8DE8
:103A3000FE8D90818BA1892B8083809102018778F4
:103A40008093020120910201C701807C992773E0D5
:103A5000969587957A95E1F79E2D93709295990F9B
:103A6000907E892B822B809302018EB1877C8EB948
:103A70002EB18E2D8C70382F330F330FC70180720B
:103A800099279695879596958795832B822B8EB946
:103A9000A59884B39E2D9071E92EEE0CE82AE4BA25
:103AA000ED8DFE8D90818FA189238083ED8DFE8D1C
:103AB00090818BA1892B8083E98DFA8D908189A1DA
:103AC000892B8083DF91CF911F910F91FF90EF9011
:103AD00008958F929F92AF92BF92EF92FF920F93B1
:103AE0001F93CF93DF93CDB7DEB7A1970FB6F894AE
:103AF000DEBF0FBECDBF7C01FA01CB0119A222307F
:103B000008F42AE08E010F5D1F4F822E912CA12C0C
:103B1000B12CBF01A50194010E944A42F901CA01DA
:103B2000015011096A3014F4605D01C0695CD8016C
:103B30006C93232B242B252B61F7B801C7010E941E
:103B4000022FA1960FB6F894DEBF0FBECDBFDF9156
:103B5000CF911F910F91FF90EF90BF90AF909F90EA
:103B60008F9008950F931F93CF93DF93EC010E94E2
:103B7000022F8C01CE010E94E026800F911FDF9161
:103B8000CF911F910F910895CF92DF92EF92FF9204
:103B90000F931F93CF93DF9377FF1DC06A017B01C3
:103BA000EC016DE20E9467278C0144275527BA017A
:103BB0004C195D096E097F092AE0CE010E94691D3A
:103BC000800F911FDF91CF911F910F91FF90EF9088
:103BD000DF90CF9008952AE0DF91CF911F910F9150
:103BE000FF90EF90DF90CF900C94691DCF93DF93FF
:103BF0009B01672B31F4682F87E394E00E946727CD
:103C000007C0AC0160E070E087E394E00E94691DAA
:103C1000EC0187E394E00E94E0268C0F9D1FDF916A
:103C2000CF91089590E0FC01E957F44F2491FC01F5
:103C3000E951F44F8491882399F090E0880F991FFF
:103C4000FC01E359F44FA591B491FC01E353F44F07
:103C5000859194918FB7F894EC91E22BEC938FBF00
:103C60000895FC01A089B18982E08C93A485B58573
:103C70001C92A685B7858FEC8C93108EA489B5898C
:103C800086E08C93A289B3898C9180618C93A28900
:103C9000B3898C9188608C93A289B3898C91806858
:103CA0008C930288F389E02D80818F7D8083089535
:103CB000EF92FF920F931F93CF93DF9383708093C4
:103CC0000D052091FC043091FD044091FE045091BB
:103CD000FF04813059F0833049F03093010520937F
:103CE0000005509303054093020508C05093010559
:103CF000409300053093030520930205E0911105E0
:103D0000F0911205908180911D0589238083809117
:103D100010058111D7C0E0910D05E150E33040F46A
:103D2000F0E0EE0FFF1FE15FFD4F8081918102C047
:103D300080E390E1E0911305F0911405308120912A
:103D40001E0523232083209102012778209302015E
:103D500020910201209302012EB1277C2EB92EB1B1
:103D60002EB9A59824B324BBE0911505F091160552
:103D7000308120911F0523232083E0911505F091C8
:103D80001605308120911B05232B208320910201F1
:103D900027782093020120910201206620930201DE
:103DA0002EB1277C2EB92EB12EB9A59824B324BBF1
:103DB000E0911505F0911605308120911F05232310
:103DC0002083E0911505F0911605308120911B05A7
:103DD000232B2083E0911305F0911405308120916D
:103DE0001A05232B208320910201277820930201BA
:103DF00020910201209302012EB1277C2EB92EB111
:103E00002EB9A598A59AE0911505F0911605308177
:103E100020911F0523232083E0911505F0911605BD
:103E2000308120911B05232B2083209102012778CC
:103E30002093020120910201209302012EB1277CE0
:103E40002EB94EB19C012C703327B901660F771F34
:103E5000660F771F9C01207233273595279535957E
:103E60002795262B242B2EB9A59824B3807199274A
:103E7000880F991F822B84BBE0911505F0911605E0
:103E8000908180911F0589238083E0911505F09131
:103E90001605908180911B05892B80830091020576
:103EA0001091030501501109209100053091010581
:103EB0002150310940E050E060E070E088EF94E08C
:103EC0000E946E0680911005813009F075C0E09166
:103ED0000D05E150E33028F4F0E0E45FFD4F808110
:103EE00001C080E0E0911305F091140520819091CC
:103EF0001E0592239083909102019778909302017E
:103F0000909102019064909302019EB1977C9EB9BA
:103F1000749AA598A59AE0911505F091160520814F
:103F200090911F0592239083E0911505F09116055D
:103F3000208190911B05922B9083E0911305F091C5
:103F40001405208190911A05922B90839091020183
:103F500097789093020120910201982F907C96957A
:103F600096959695922B909302019EB1977C9EB95F
:103F70002EB1982F9072892F90E095958795959501
:103F80008795822B8EB9A59884B384BBE0911505E3
:103F9000F0911605908180911F0589238083E0911F
:103FA0001505F0911605908180911B05892B808362
:103FB00088EF94E00E94542D80911005823009F022
:103FC00097C080910D05813089F060F0823031F02A
:103FD000833079F4F8E2EF2EF12C0BC0A8E4EA2E3E
:103FE000F12C07C0E8E8EE2EF12C03C078EEE72EA6
:103FF000F12CE0911305F0911405908180911E053C
:1040000089238083809102018778809302018091C7
:1040100002018064809302018EB1877C8EB98EB1DB
:1040200088618EB9A598A59AE0911505F0911605BD
:10403000908180911F0589238083E0911505F0917F
:104040001605908180911B05892B8083E0911305D3
:10405000F0911405908180911A05892B80838091BD
:10406000020187788093020120910201C701807CC0
:10407000992753E0969587955A95E1F7822B80937F
:1040800002018EB1877C8EB98EB190E2E922FF24C5
:10409000F694E794F694E7948062E82AEEB8A5983F
:1040A00084B384BBE0911505F09116059081809151
:1040B0001F0589238083E0911505F09116059081F5
:1040C00080911B05892B80830091020510910305C7
:1040D000015011092091000530910105215031094D
:1040E00040E050E060E070E088EF94E00E946E06EF
:1040F00080911005833009F091C080910D058130C9
:1041000071F050F0823029F0833059F4C0E6D0E0ED
:1041100008C0C0E0D0E005C0C0ECD0E002C0C0EAFA
:10412000D0E0E0911305F0911405908180911E0577
:104130008923808380910201877880930201809196
:1041400002018064809302018EB1877C8EB98EB1AA
:1041500088618EB9A598A59AE0911505F09116058C
:10416000908180911F0589238083E0911505F0914E
:104170001605908180911B05892B8083E0911305A2
:10418000F0911405908180911A05892B808380918C
:10419000020187788093020120910201CE01807C88
:1041A000992733E0969587953A95E1F7822B80938E
:1041B00002018EB1877C8EB98EB1C072DD27D69593
:1041C000C795D695C795C82BCEB9A59884B384BB9F
:1041D000E0911505F0911605908180911F058923C6
:1041E0008083E0911505F0911605908180911B0563
:1041F000892B80830091020510910305015011095C
:1042000020910005309101052150310940E050E036
:1042100060E070E088EF94E00E946E06DF91CF913D
:104220001F910F91FF90EF900895E0911105F0918B
:104230001205908180911905892B8083E0911505E5
:10424000F0911605908180911B05892B8083E09168
:104250001705F0911805908180911C05892B8083AA
:1042600080912105882371F060E00E94AD2562E015
:1042700070E080E090E00E94502661E0809121058E
:104280000E94AD25E0911105F09112059081809179
:104290001D0589238083E0911305F0911405908119
:1042A00080911E0589238083809102018778809305
:1042B000020180910201809302018EB1877C8EB948
:1042C0008EB18EB9A59884B384BBE0911505F091A9
:1042D0001605908180911F0589238083E091150543
:1042E000F0911605908180911B05892B808383E0D6
:1042F000E0911505F0911605208190911F059223FC
:104300009083E0911505F0911605208190911B0591
:10431000922B9083815061F7E0911105F091120585
:10432000908180911905892B808308950F931F93A5
:10433000CF93DF938C01C0E0D0E0F801EC0FFD1FBC
:104340006491662341F087E394E00E946727892BFC
:1043500011F02196F2CFCE01DF91CF911F910F91F5
:104360000895CF92DF92EF92FF920F931F93CF9316
:10437000DF936C017A018B01C0E0D0E0CE15DF0540
:1043800081F0D8016D918D01D601ED91FC910190E4
:10439000F081E02DC6011995892B11F02196EECF01
:1043A0007E01C701DF91CF911F910F91FF90EF9098
:1043B000DF90CF900895E8EFF4E0A78DB0A19C9135
:1043C00080A589238C9300C000C000C00000A0E03D
:1043D000B1E05C913C919CB14CB182B3A78DB0A18E
:1043E0006C9124A1262B2C93387168E0369F9001A4
:1043F0001124352F3076329536953770232B9870EF
:10440000990F990F922B242F207326952695292BEF
:10441000807290E095958795822B0895CF92DF92D8
:10442000EF92FF920F931F93CF93DF93C8EFD4E0E7
:10443000E98DFA8D20819DA192239083EB8DFC8DD7
:1044400020819EA192239083E2E0F1E09081977811
:1044500090834081282F207C522F56955695569553
:10446000982F937060E2969F90011124252B242BA6
:1044700020839EB1977C9EB94EB1282F2C7094E07A
:10448000299FB0011124982F9072292F30E0359583
:10449000279535952795262B242B2EB9A59894B3CF
:1044A0008071880F892B84BBED8DFE8D90818FA14B
:1044B00089238083ED8DFE8D90818BA1892B808354
:1044C00001E011E0F8018081877880838DB1877CDD
:1044D0008DB99D98EB8DFC8D90818AA1892B80836D
:1044E00083EC90E00197F1F70E94DB21C82ED12CDC
:1044F000E12CF12CFE2CED2CDC2CCC240E94DB21B9
:10450000C82AFE2CED2CDC2CCC240E94DB21C82AEE
:10451000FE2CED2CDC2CCC240E94DB21E98DFA8DC5
:10452000208199A1922B9083F801908198679083C4
:104530009DB198639DB99D9AA7019601282BCA0148
:10454000B901DF91CF911F910F91FF90EF90DF9014
:10455000CF9008956F927F928F929F92AF92BF9269
:10456000CF92DF92EF92FF920F931F93CF93DF933F
:10457000FC013B01A18DB28D9C9185A189238C9377
:10458000A38DB48D9C9186A189238C93808D8230DC
:1045900011F181111EC08091020187788093020180
:1045A00080910201809302018EB1877C8EB98EB119
:1045B0008EB9A59884B384BBA58DB68D9C9187A137
:1045C00089238C93A58DB68D9C9183A1892B8C9387
:1045D00012C0833081F480910201877880930201B8
:1045E00080910201809302018EB1877C8EB98EB1D9
:1045F00088638EB90EC08091020187788093020192
:10460000809102018064809302018EB1877C8EB913
:10461000739AA59884B384BBA58DB68D9C9187A110
:1046200089238C93A58DB68D9C9183A1892B8C9326
:10463000A38DB48D9C9182A1892B8C9380910201D2
:10464000877880930201A0910201872F90E07C017E
:10465000B0ECEB22FF24B3E0F594E794BA95E1F7D0
:104660008C0103701127C5E0000F111FCA95E1F7F7
:10467000BE2DB02BAB2BA0930201AEB1A77CAEB97F
:104680001EB16C01CCE0CC22DD24CC0CDD1CCC0CAA
:10469000DD1C7C01D0E2ED22FF24F594E794F59433
:1046A000E794AC2DAE291A2B1EB9A59814B38071CE
:1046B0009927880F991FF82E812B84BB058D168DA5
:1046C000E801988187A189238883058D168DE801EB
:1046D000988183A1892B88838091020187788093B8
:1046E0000201809102018B01007C11276801D3E057
:1046F000D594C794DA95E1F78B010370112795E003
:10470000000F111F9A95E1F70C29802B809302016D
:104710008EB1877C8EB98EB15B01DCE0AD22BB240B
:10472000AA0CBB1CAA0CBB1C6B0190E2C922DD24A5
:10473000D594C794D594C7941A2D1C29812B8EB972
:10474000A59884B360717727660F771F762F682B43
:1047500064BB858D968DEC01E88067A16E2168832E
:10476000858D968DEC01E88063A16E2968832150C8
:1047700031094109510949015A0136E0B694A7941B
:10478000979487943A95D1F7C401761088C1019720
:1047900008F465C060E1A58DB68DCC9177A17C232E
:1047A0007C93A58DB68DCC9173A17C2B7C93A58D2C
:1047B000B68DCC9177A17C237C93A58DB68DCC91C1
:1047C00073A17C2B7C93A58DB68DCC9177A17C2396
:1047D0007C93A58DB68DCC9173A17C2B7C93A58DFC
:1047E000B68DCC9177A17C237C93A58DB68DCC9191
:1047F00073A17C2B7C93A58DB68DCC9177A17C2366
:104800007C93A58DB68DCC9173A17C2B7C93A58DCB
:10481000B68DCC9177A17C237C93A58DB68DCC9160
:1048200073A17C2B7C93A58DB68DCC9177A17C2335
:104830007C93A58DB68DCC9173A17C2B7C93A58D9B
:10484000B68DCC9177A17C237C93A58DB68DCC9130
:1048500073A17C2B7C93615009F09DCF98CF2F736F
:10486000215008F465C1A58DB68D9C9187A189233F
:104870008C93A58DB68D9C9183A1892B8C93A58D4E
:10488000B68D9C9187A189238C93A58DB68D9C9123
:1048900083A1892B8C93E4CFC0910201C778C09388
:1048A0000201C0910201CB2BC0930201CEB1C77CA3
:1048B000CEB9CEB1CA2BCEB9A598C4B3CF29C4BB4B
:1048C000C58DD68DD880E7A0ED20E882C58DD68D28
:1048D000D880E3A0ED28E882C0910201C778C09398
:1048E0000201C0910201C02BC0930201CEB1C77C6E
:1048F000CEB9CEB1C12BCEB9A598C4B3C72BC4BB1A
:10490000C58DD68DD880E7A0ED20E882C58DD68DE7
:10491000D880E3A0ED28E882C0910201C778C09357
:104920000201C0910201CB2BC0930201CEB1C77C22
:10493000CEB9CEB1CA2BCEB9A598C4B3CF29C4BBCA
:10494000C58DD68DD880E7A0ED20E882C58DD68DA7
:10495000D880E3A0ED28E882C0910201C778C09317
:104960000201C0910201C02BC0930201CEB1C77CED
:10497000CEB9CEB1C12BCEB9A598C4B3C72BC4BB99
:10498000C58DD68DD880E7A0ED20E882C58DD68D67
:10499000D880E3A0ED28E882C0910201C778C093D7
:1049A0000201C0910201CB2BC0930201CEB1C77CA2
:1049B000CEB9CEB1CA2BCEB9A598C4B3CF29C4BB4A
:1049C000C58DD68DD880E7A0ED20E882C58DD68D27
:1049D000D880E3A0ED28E882C0910201C778C09397
:1049E0000201C0910201C02BC0930201CEB1C77C6D
:1049F000CEB9CEB1C12BCEB9A598C4B3C72BC4BB19
:104A0000C58DD68DD880E7A0ED20E882C58DD68DE6
:104A1000D880E3A0ED28E882C0910201C778C09356
:104A20000201C0910201CB2BC0930201CEB1C77C21
:104A3000CEB9CEB1CA2BCEB9A598C4B3CF29C4BBC9
:104A4000C58DD68DD880E7A0ED20E882C58DD68DA6
:104A5000D880E3A0ED28E882C0910201C778C09316
:104A60000201C0910201C02BC0930201CEB1C77CEC
:104A7000CEB9CEB1C12BCEB9A598C4B3C72BC4BB98
:104A8000C58DD68DD880E7A0ED20E882C58DD68D66
:104A9000D880E3A0ED28E882615009F0FDCE0197AF
:104AA00010F060E1F9CE2F73215008F441C08091DD
:104AB0000201877880930201809102018B2B809301
:104AC00002018EB1877C8EB98EB18A2B8EB9A598E2
:104AD00084B38F2984BBC58DD68D988187A1892306
:104AE0008883C58DD68D988183A1892B88838091F9
:104AF000020187788093020180910201802B8093CC
:104B000002018EB1877C8EB98EB1812B8EB9A598AA
:104B100084B3872B84BBC58DD68D988187A18923CB
:104B20008883C58DD68D988183A1892B8883BCCF3E
:104B3000A18DB28D9C9181A1892B8C93DF91CF9116
:104B40001F910F91FF90EF90DF90CF90BF90AF90AB
:104B50009F908F907F906F900895362F90E0FC018A
:104B6000E35DF34F4491FC01E957F44F2491FC01BC
:104B7000E951F44F9491992309F46CC0442309F44A
:104B800055C050E0FA013197E231F10508F04EC00E
:104B90008827EE58FF4F8F4F0C946C428091800015
:104BA0008F7707C0809180008F7D03C08091800047
:104BB000877F809380003AC084B58F7702C084B528
:104BC0008F7D84BD33C08091B0008F7703C080910A
:104BD000B0008F7D8093B00029C0809190008F77C6
:104BE00007C0809190008F7D03C080919000877FE7
:104BF000809390001BC08091A0008F7707C08091A8
:104C0000A0008F7D03C08091A000877F8093A000CB
:104C10000DC0809120018F7707C0809120018F7D8A
:104C200003C080912001877F80932001E92FF0E06D
:104C3000EE0FFF1FE353F44FA591B4919FB7F89483
:104C4000311104C08C912095282302C0EC912E2BA9
:104C50002C939FBF08953FB7F894809127059091BA
:104C60002805A0912905B0912A0526B5A89B05C065
:104C70002F3F19F00196A11DB11D3FBFBA2FA92FDB
:104C8000982F8827820F911DA11DB11DBC01CD0158
:104C900042E0660F771F881F991F4A95D1F7089544
:104CA0008F929F92AF92BF92CF92DF92EF92FF923C
:104CB0006B017C010E942B264B015C01C114D104C5
:104CC000E104F104F1F00E942B26DC01CB018819EC
:104CD0009909AA09BB09883E9340A105B10570F363
:104CE00021E0C21AD108E108F10888EE880E83E0BD
:104CF000981EA11CB11CC114D104E104F10419F7E0
:104D0000DDCFFF90EF90DF90CF90BF90AF909F905E
:104D10008F9008952FB7F894609123057091240522
:104D200080912505909126052FBF08951F920F921F
:104D30000FB60F9211242F933F938F939F93AF93AE
:104D4000BF938091230590912405A0912505B091F2
:104D500026053091220523E0230F2D3720F40196FC
:104D6000A11DB11D05C026E8230F0296A11DB11D8E
:104D7000209322058093230590932405A093250575
:104D8000B09326058091270590912805A0912905CB
:104D9000B0912A050196A11DB11D8093270590931E
:104DA0002805A0932905B0932A05BF91AF919F9143
:104DB0008F913F912F910F900FBE0F901F901895DC
:104DC0006EE673E00C94022FCF93DF930E9496213E
:104DD000EC0187E394E00E94E0268C0F9D1FDF9199
:104DE000CF9108950C94022FFC01538D448D252FF3
:104DF00030E0842F90E0821B930B541710F0CF9675
:104E0000089501970895FC01918D828D981761F0A6
:104E1000828DDF01A80FB11D5D968C91928D9F5FF1
:104E20009F73928F90E008958FEF9FEF0895FC019C
:104E3000918D828D981731F0828DE80FF11D858D4F
:104E400090E008958FEF9FEF0895FC01918D228DE2
:104E5000892F90E0805C9F4F821B91098F73992767
:104E600008958AE993E00E94252721E0892B09F41F
:104E700020E0822F089587E394E00E94252721E017
:104E8000892B09F420E0822F0895FC01848DDF0135
:104E9000A80FB11DA35ABF4F2C91848D90E00196AD
:104EA0008F739927848FA689B7892C93A089B1899C
:104EB0008C91837080648C93938D848D981306C03D
:104EC0000288F389E02D80818F7D80830895EF92A1
:104ED000FF920F931F93CF93DF93EC0181E0888FB4
:104EE0009B8D8C8D981305C0E889F989808185FD9B
:104EF00026C0F62E0B8D10E00F5F1F4F0F7311278A
:104F0000E02E8C8DE8120CC00FB607FCFACFE889B2
:104F1000F989808185FFF5CFCE010E944527F1CF29
:104F20008B8DFE01E80FF11DE35AFF4FF0829FB712
:104F3000F8940B8FEA89FB89808180620AC09FB751
:104F4000F894EE89FF896083E889F989808183700C
:104F5000806480839FBF81E090E0DF91CF911F91BB
:104F60000F91FF90EF900895CF93DF93EC01888D20
:104F70008823C9F0EA89FB89808185FD05C0A8895D
:104F8000B9898C9186FD0FC00FB607FCF5CF8081E3
:104F900085FFF2CFA889B9898C9185FFEDCFCE012D
:104FA0000E944527E7CFDF91CF91089580E090E000
:104FB000892B21F00E943B27811121C080E090E0E5
:104FC000892B21F00E94312781111CC080E090E0E4
:104FD000892B41F080E090E0892B21F00E940000B5
:104FE000811113C080E090E0892BA1F080E090E077
:104FF000892B81F00E94000081110AC008950E944F
:105000000000DCCF0E940000E1CF0E940000EACF48
:105010000C94000008950E94C7431F920F920FB690
:105020000F9211240BB60F922F933F934F935F93E0
:105030006F937F938F939F93AF93BF93EF93FF9360
:105040008AE993E00E944527FF91EF91BF91AF91CC
:105050009F918F917F916F915F914F913F912F9190
:105060000F900BBE0F900FBE0F901F9018951F92C0
:105070000F920FB60F9211240BB60F922F938F93AE
:105080009F93EF93FF93E091AA03F091AB0380818C
:10509000E091B003F091B10382FD12C09081809144
:1050A000B3038F5F8F732091B403821751F0E091A7
:1050B000B303F0E0E656FC4F958F8093B30301C035
:1050C0008081FF91EF919F918F912F910F900BBE57
:1050D0000F900FBE0F901F9018951F920F920FB652
:1050E0000F9211240BB60F922F933F934F935F9320
:1050F0006F937F938F939F93AF93BF93EF93FF93A0
:1051000087E394E00E944527FF91EF91BF91AF9113
:105110009F918F917F916F915F914F913F912F91CF
:105120000F900BBE0F900FBE0F901F9018951F92FF
:105130000F920FB60F9211240BB60F922F938F93ED
:105140009F93EF93FF93E0914704F091480480818F
:10515000E0914D04F0914E0482FD12C09081809147
:1051600050048F5F8F7320915104821751F0E091AA
:105170005004F0E0E95CFB4F958F8093500401C030
:105180008081FF91EF919F918F912F910F900BBE96
:105190000F900FBE0F901F901895AF92BF92CF92B5
:1051A000DF92EF92FF920F931F93CF93DF93FC0157
:1051B000A18DB28D9C9185A189238C93A38DB48DF3
:1051C0009C9186A189238C93A2E0B1E08C91877891
:1051D0008C937C91862F807CC82FC695C695C695EA
:1051E000962F937000E2909FC00111248C2B872B87
:1051F0008C938EB1877C8EB97EB1862F8C7014E033
:10520000819FE0011124962F9072892F90E095954F
:105210008795959587958C2B872B8EB9A59884B308
:105220006071660F682B64BBC58DD68D988187A190
:1052300089238883C58DD68D988183A1892B888306
:10524000C38DD48D988182A1892B888313E2A12EEE
:10525000B12CC5010197F1F78C9187788C931C9143
:10526000652F7727882799276B017C01C0ECCC221A
:10527000DD24EE24FF24C3E0F694E794D794C7948A
:10528000CA95D1F7062F03700295000F007EC02A41
:10529000C12ACC921EB1177C1EB9CEB1062F0C705C
:1052A000000F000F6B017C01D0E2CD22DD24EE2443
:1052B000FF24D2E0F694E794D794C794DA95D1F717
:1052C000C02ACC2ACEB8A59814B36071660F612BA2
:1052D00064BB658D768DEB01988187A189238883D6
:1052E000658D768DEB01988183A1892B8883C5011B
:1052F0000197F1F78C9187788C931C91BA018827DC
:1053000099276B017C01D0ECCD22DD24EE24FF2413
:10531000C3E0F694E794D794C794CA95D1F7062FC3
:1053200003700295000F007EC02AC12ACC921EB1E4
:10533000177C1EB91EB1062F0C70000F000F6B01F9
:105340007C01C0E2CC22DD24EE24FF24D2E0F694DE
:10535000E794D794C794DA95D1F7C02AC12ACEB87A
:10536000A59814B36071660F612B64BB658D768D53
:10537000EB01988187A189238883658D768DEB0168
:10538000988183A1892B8883C5010197F1F78C91BE
:1053900087788C931C919927852F742F632F6B012D
:1053A0007C01D0ECCD22DD24EE24FF24C3E0F69472
:1053B000E794D794C794CA95D1F7062F0370029546
:1053C000000F007EC02AC12ACC921EB1177C1EB9E4
:1053D0001EB1062F0C70000F000F6B017C01C0E2A4
:1053E000CC22DD24EE24FF24D2E0F694E794D79477
:1053F000C794DA95D1F7C02AC12ACEB8A598F4B2DD
:105400006071660F6F2964BB658D768DEB019881A5
:1054100087A189238883658D768DEB01988183A18F
:10542000892B8883E5012197F1F78C9187788C93FC
:105430008C9169017A01D0ECCD22DD24EE24FF2489
:1054400013E0F694E794D794C7941A95D1F7922F66
:1054500093709295990F907EC92AC82ACC928EB1EA
:10546000877C8EB96EB1822F8C70782F770F770F73
:10547000DA01C90180729927AA27BB2702E0B695F5
:10548000A795979587950A95D1F7872B862B8EB987
:10549000A59884B32071220F282B24BBA58DB68D2F
:1054A0009C9187A189238C93A58DB68D9C9183A116
:1054B000892B8C93A18DB28D9C9181A1892B8C938A
:1054C000DF91CF911F910F91FF90EF90DF90CF90E0
:1054D000BF90AF900895EF92FF920F931F93CF93D9
:1054E000DF93EC017B01888D811169C12D892150E9
:1054F000233070F430E0F901E75BFD4F808190E0EC
:10550000220F331FF901ED5BFD4F4081518104C033
:1055100040E050E080E090E0E98DFA8D30812DA1EF
:1055200023232083EB8DFC8D30812EA12323208328
:1055300020910201277820930201209102012093FB
:1055400002012EB1277C2EB92EB12EB9A59824B315
:1055500024BBED8DFE8D30812FA123232083ED8D83
:10556000FE8D30812BA1232B2083209102012778EF
:105570002093020120910201209302012EB1277C89
:105580002EB9739AA59824B324BBED8DFE8D30817E
:105590002FA123232083ED8DFE8D30812BA1232B82
:1055A0002083EB8DFC8D30812AA1232B2083209139
:1055B0000201277820930201209102012093020129
:1055C0002EB1277C2EB92EB12EB9A59824B324BBB9
:1055D000ED8DFE8D30812FA123232083ED8DFE8D57
:1055E00030812BA1232B2083209102012778209347
:1055F0000201609102019C01207C3327F90123E024
:10560000F595E7952A95E1F79C012370332775E01E
:10561000220F331F7A95E1F72E2B262B20930201C0
:105620002EB1277C2EB96EB19C012C703327F90165
:10563000EE0FFF1FEE0FFF1F9C01207233273595E1
:105640002795359527952E2B262B2EB9A59884B313
:1056500084BBED8DFE8D90818FA189238083ED8D9C
:10566000FE8D90818BA1892B8083EB8DFC8D9081A9
:105670008EA1892380838091020187788093020123
:1056800080910201809302018EB1877C8EB98EB128
:105690008EB9A59884B384BBED8DFE8D90818FA1CA
:1056A00089238083ED8DFE8D90818BA1892B808352
:1056B00080910201877880930201809102018062CB
:1056C000809302018EB1877C8EB9739AA59884B3BA
:1056D00084BBED8DFE8D90818FA189238083ED8D1C
:1056E000FE8D90818BA1892B8083EB8DFC8D908129
:1056F0008AA1892B8083809102018778809302019F
:1057000020910201CA0113E0969587951A95E1F759
:1057100080769927822B809302018EB1877C8EB987
:105720008EB18EB9A59884B384BBED8DFE8D90812A
:105730008FA189238083ED8DFE8D90818BA1892B94
:105740008083809102018778809302012091020179
:10575000CA018370992705E0880F991F0A95E1F720
:10576000822B809302018EB1877C8EB92EB1CA0143
:105770008C709927BC01660F771F660F771FCA01CF
:10578000807299279595879595958795862B822B7D
:105790008EB9A59824B3CA0180719927880F991FE3
:1057A000822B84BBED8DFE8D90818FA18923808318
:1057B000ED8DFE8D90818BA1892B808312C081504D
:1057C000833078F40A851B850150110928853985B5
:1057D0002150310940E050E060E070E0CE010E94CD
:1057E0006E0620E03CE241E050E0B701CE01DF91DF
:1057F000CF911F910F91FF90EF900C94AA228F925E
:105800009F92AF92BF92CF92DF92EF92FF920F934F
:105810001F93CF93DF93EC014701121613060CF090
:105820006BC0101611060CF067C0A885B9856A1701
:105830007B070CF061C0CA84DB844C155D050CF05D
:105840005BC07901E60EF71EC701019797FD54C0B2
:105850005801A40EB51EF5013197F7FD4DC077FF35
:1058600049C060E070E057FD02C0580102C040E04E
:1058700050E08A179B072CF0CD0101977D01E61AB5
:10588000F70AEC15FD052CF0F60131975601A41A24
:10589000B50A8F019C01CE010E946E069701D501C9
:1058A0000E9474429B01AC01B401CE010E94AA2265
:1058B000888D811110C00A851B850150110928852A
:1058C00039852150310940E050E060E070E0CE01C0
:1058D0000E946E0611C0CE01DF91CF911F910F91F2
:1058E000FF90EF90DF90CF90BF90AF909F908F9000
:1058F0000C94542D7901B7CFDF91CF911F910F9167
:10590000FF90EF90DF90CF90BF90AF909F908F90DF
:105910000895CF92DF92EF92FF920F931F93CF9350
:10592000DF93EC016801121613060CF04FC077FDEF
:105930004DC088859985681779070CF047C08A851E
:105940009B85481759070CF041C07901E40EF51EFC
:1059500087010150110917FD39C057FF35C040E0DC
:1059600050E00817190734F08C01015011097C012F
:10597000E41AF50A9B01CE010E946E069701FF0C06
:10598000440B550BB601CE010E94AA22888D8111CD
:1059900010C00A851B8501501109288539852150C1
:1059A000310940E050E060E070E0CE010E946E06F8
:1059B0000DC0CE01DF91CF911F910F91FF90EF901D
:1059C000DF90CF900C94542D7901CBCFDF91CF9104
:1059D0001F910F91FF90EF90DF90CF900895CF929D
:1059E000DF92EF92FF920F931F93CF93DF93EC011F
:1059F0006801121613060CF04EC057FD4CC08A8584
:105A00009B85481759070CF046C0E885F9856E1745
:105A10007F070CF040C07901E60EF71EC701019721
:105A200097FD39C077FF35C060E070E08E179F07A3
:105A30002CF0CF0101977F01E61AF70A8A019C0139
:105A4000CE010E946E069701FF0C440B550BB60168
:105A5000CE010E94AA22888D811110C00A851B8563
:105A600001501109288539852150310940E050E065
:105A700060E070E0CE010E946E060DC0CE01DF91A5
:105A8000CF911F910F91FF90EF90DF90CF900C94EA
:105A9000542D7901CBCFDF91CF911F910F91FF90C2
:105AA000EF90DF90CF900895CF93DF93FC01A18D0D
:105AB000B28D9C9185A189238C9320853185C90164
:105AC0000197892F990F990B2150A38DB48D4C917B
:105AD00036A134233C93A2E0B1E03C9137783C936B
