:100000000C94D4000C9405010C9405010C9405018A
:100010000C9405010C9405010C9405010C94050148
:100020000C9405010C9405010C9405010C94050138
:100030000C9405010C9405010C9405010C94050128
:100040000C9405010C9405010C9405010C94050118
:100050000C9405010C9405010C9405010C942305E6
:100060000C9405010C9497050C946D050C940501F6
:100070000C9405010C9405010C9405010C940501E8
:100080000C9405010C9405010C9405010C940501D8
:100090000C9405010C9405010C9405010C940501C8
:1000A0000C9405010C9405010C9405010C940501B8
:1000B0000C9405010C9405010C9405010C940501A8
:1000C0000C9405010C9405010C9405010C94050198
:1000D0000C9405010C9405010C9405010C94050188
:1000E0000C94050107634236B79BD8A71A396856A6
:1000F00018AEBAAB558C1D3CB7CC5763BD6DEDFD4A
:10010000753EF6177231BF000000803F0800000006
:10011000BE922449123EABAAAA2ABECDCCCC4C3EFC
:1001200000000080BEABAAAAAA3E00000000BF00EB
:100130000000803F0000000000084178D3BB4387E7
:10014000D1133D190E3CC3BD4282AD2B3E68EC82FB
:1001500076BED98FE1A93E4C80EFFFBE01C4FF7F80
:100160003F00000000000C949F010C9459010C9476
:100170004A020C9431010C9448020C9436010C9400
:1001800007010C94FE020C946A040C9447020C9430
:10019000CD050C9467010C9470030C9445010C94EC
:1001A000EC010C944902CD0511241FBECFEFD1E222
:1001B000DEBFCDBF00E00CBF12E0A0E0B2E0EEED8C
:1001C000FAE100E00BBF02C007900D92AC39B10715
:1001D000D9F723E0ACE9B2E001C01D92A438B20720
:1001E000E1F710E0C4EDD0E000E006C0219701097E
:1001F000802FFE010E943F0CC33DD10780E008071D
:10020000A9F70E94B3060C946D0D0C940000CF92D8
:10021000DF92EF92FF920F931F93CF93DF936C01C6
:100220007A018B01C0E0D0E0CE15DF0581F0D80166
:100230006D918D01D601ED91FC910190F081E02D41
:10024000C6011995892B11F02196EECF7E01C701C9
:10025000DF91CF911F910F91FF90EF90DF90CF90A2
:1002600008950895089580E090E00895FC01538D6D
:10027000448D252F30E0842F90E0821B930B541780
:1002800010F0CF96089501970895FC01918D828D0D
:10029000981761F0828DDF01A80FB11D5D968C91DA
:1002A000928D9F5F9F73928F90E008958FEF9FEFE5
:1002B0000895FC01918D828D981731F0828DE80FA1
:1002C000F11D858D90E008958FEF9FEF0895FC015B
:1002D000918D228D892F90E0805C9F4F821B910928
:1002E0008F73992708958FEB92E00E94670121E0B8
:1002F000892B09F420E0822F0895FC01848DDF0111
:10030000A80FB11DA35ABF4F2C91848D90E0019688
:100310008F739927848FA689B7892C93A089B18977
:100320008C91837080648C93938D848D981306C018
:100330000288F389E02D80818F7D80830895EF927C
:10034000FF920F931F93CF93DF93EC0181E0888F8F
:100350009B8D8C8D981305C0E889F989808185FD76
:1003600026C0F62E0B8D10E00F5F1F4F0F73112765
:10037000E02E8C8DE8120CC00FB607FCFACFE8898E
:10038000F989808185FFF5CFCE010E947D01F1CFF3
:100390008B8DFE01E80FF11DE35AFF4FF0829FB7EE
:1003A000F8940B8FEA89FB89808180620AC09FB72D
:1003B000F894EE89FF896083E889F98980818370E8
:1003C000806480839FBF81E090E0DF91CF911F9197
:1003D0000F91FF90EF900895CF93DF93EC01888DFC
:1003E0008823C9F0EA89FB89808185FD05C0A88939
:1003F000B9898C9186FD0FC00FB607FCF5CF8081BF
:1004000085FFF2CFA889B9898C9185FFEDCFCE0108
:100410000E947D01E7CFDF91CF91089580E090E0C9
:10042000892B21F00E947301811125C080E090E0AA
:10043000892B41F080E090E0892B21F00E940000A0
:1004400081111CC080E090E0892B41F080E090E0B9
:10045000892B21F00E940000811113C080E090E000
:10046000892BA1F080E090E0892B81F00E940000B0
:1004700081110AC008950E940000D8CF0E94000098
:10048000E1CF0E940000EACF0C9400000895089587
:1004900008950895CF92DF92EF92FF92CF93DF936A
:1004A000FC01C685D785209100023091010287EBBF
:1004B0009AE0289FB001299F700D389F700D11247C
:1004C0006D5D784E7093010260930002072E000C60
:1004D000880B990B0E947B096B017C0120E030E0C6
:1004E000A9010E94CC0887FF0AC02AE635ED4CE43A
:1004F0005DE4C701B6010E9460086B017C012AE639
:1005000035ED4CE45DE4C701B6010E94D10820E05E
:1005100030E048EA51E40E942B0A0E9443096A50E5
:10052000710979836883DF91CF91FF90EF90DF901D
:10053000CF900895009769F0FC0101900020E9F741
:100540003197AF01481B590BBC018FEB92E00C9423
:10055000070180E090E00895CF93DF930E949A0214
:10056000EC018CE192E00E949A028C0F9D1FDF91BA
:10057000CF910895CF92DF92EF92FF920F931F9346
:10058000CF93DF93CDB7DEB7A1970FB6F894DEBF58
:100590000FBECDBF9C0140E050E019A28E010F5D5F
:1005A0001F4F8AE0C82ED12CE12CF12CCA01B901D1
:1005B000A70196010E941D0C605DF80162938F01F6
:1005C000211531054105510589F7CF010E949A0295
:1005D0008C018CE192E00E949A02800F911FA196FB
:1005E0000FB6F894DEBF0FBECDBFDF91CF911F9144
:1005F0000F91FF90EF90DF90CF900895CF93DF930E
:10060000EC018FE192E00E949A02EE81FF818081ED
:1006100091818536910528F081E392E00E94AC0239
:1006200002C00E94BA0284E392E00E949A02E88526
:10063000F985808191810E94BA0283E492E00E9450
:100640009A02EA85FB85808191810E94BA0288E541
:1006500092E00E949A02EC85FD85808191810E9442
:10066000BA028CE692E00E949A02EC81FD818081C0
:100670009181892B19F08FE792E002C082E892E025
:100680000E94AC028CE192E00E949A02EE81FF810E
:1006900080819181EA81FB81C29748F481E090E0FA
:1006A0009183808386E892E00E94AC0202C01182AE
:1006B0001082E885F98580819181E881F981C2976E
:1006C00050F481E090E09183808382E992E0DF91B1
:1006D000CF910C94AC0211821082DF91CF910895DA
:1006E000CF93DF93BC0180919C0290919D02DB012E
:1006F0001896ED91FC9119970097E1F00197A9F5F3
:100700008091B4029091B502009711F080FD04C071
:1007100080819181029703C08081918101969183AC
:10072000808380819181059700F510929D0210923F
:100730009C021BC08091B4029091B502009711F009
:1007400080FD04C080819181029603C080819181E7
:10075000019791838083808191810B9730F081E0B4
:1007600090E090939D0280939C02EB012881398157
:10077000D9018D919C91AE81BF810197B9F58D9181
:100780009C9111978036910554F0E90119821882E5
:10079000EB018A859B85EC011982188231C0823376
:1007A0009105C8F44091B4025091B502EB018A85DD
:1007B0009B85EC014115510511F040FD05C04881B4
:1007C00059814E5F5F4F04C0488159814F5F5F4F31
:1007D0005983488315C0C3978C9790F4EB014A85E1
:1007E0005B85EA0188819981029608C08D919C9170
:1007F00011970B972CF481E090E0E90199838883AD
:10080000E90188819981892B59F4808191819C012A
:10081000220F331F280F391F8D919C9111970DC006
:10082000EB018A859B85EC01288139818D919C9112
:100830001197820F931F20813181821B930B97FFA9
:1008400003C01D921C9202C08D939C93DF91CF91A7
:1008500008950E94680DAF92BF92CF92DF92EF92FF
:10086000FF920F931F93CF93DF935B017C01C0E056
:10087000D0E000E010E0CA15DB0504F5F701C190F7
:10088000D1907F01BE010D2E000C880B990B0E94A8
:100890007B099B01AC0160E070E080E090E40E9485
:1008A000980A0E944309C69E9001C79E300DD69EAD
:1008B000300D1124020F131F2196DDCFC801DF91E7
:1008C000CF911F910F91FF90EF90DF90CF90BF904D
:1008D000AF900895AF92BF92CF92DF92EF92FF92C6
:1008E0000F931F93CF93DF93CDB7DEB768970FB603
:1008F000F894DEBF0FBECDBF5C01DC01ED91FC9131
:10090000E080F18088EC90E00E94470C8C01FC01B3
:10091000B0968FE090E09701082E02C0359527959C
:100920000A94E2F72170332732932293019798F7C4
:10093000F801E080F18082819381E82AF92A84819C
:100940009581E82AF92A86819781E82AF92A808503
:1009500091859A8B898B828593859C8B8B8B8485E3
:1009600095859E8B8D8B86859785988F8F8B64E080
:1009700070E0CE0141960E942B046C01D801509684
:100980008D919C9151979A83898352968D919C91D8
:1009900053979C838B8354968D919C9155979E83FE
:1009A0008D8356968D919C91579798878F835896F3
:1009B0008D919C9159979A8789875A968D919C9190
:1009C0005B979C878B875C968D919C915D979E87AA
:1009D0008D875E968D919C915F97988B8F8768E04D
:1009E00070E0CE0101960E942B04EF28D9F0892BEC
:1009F000C9F0D5011296ED91FC91139780819181F8
:100A0000181619067CF4BEE0CB16D10411F0CD28DF
:100A100049F0853091051CF41182108203C00597BE
:100A20009183808368960FB6F894DEBF0FBECDBF6A
:100A3000DF91CF911F910F91FF90EF90DF90CF90BA
:100A4000BF90AF9008951F920F920FB60F9211248E
:100A50002F933F938F939F93AF93BF938091BB024C
:100A60009091BC02A091BD02B091BE023091BA0239
:100A700023E0230F2D3720F40196A11DB11D05C0E1
:100A800026E8230F0296A11DB11D2093BA02809380
:100A9000BB029093BC02A093BD02B093BE028091B2
:100AA000B6029091B702A091B802B091B902019636
:100AB000A11DB11D8093B6029093B702A093B80216
:100AC000B093B902BF91AF919F918F913F912F91B8
:100AD0000F900FBE0F901F9018951F920F920FB698
:100AE0000F9211240BB60F922F933F934F935F9366
:100AF0006F937F938F939F93AF93BF93EF93FF93E6
:100B00008FEB92E00E947D01FF91EF91BF91AF9139
:100B10009F918F917F916F915F914F913F912F9115
:100B20000F900BBE0F900FBE0F901F9018951F9245
:100B30000F920FB60F9211240BB60F922F938F9333
:100B40009F93EF93FF93E091CF02F091D0028081C9
:100B5000E091D502F091D60282FD12C09081809181
:100B6000D8028F5F8F732091D902821751F0E091E4
:100B7000D802F0E0E154FD4F958F8093D80201C078
:100B80008081FF91EF919F918F912F910F900BBEDC
:100B90000F900FBE0F901F9018951092C2021092E6
:100BA000C10288EE93E0A0E0B0E08093C30290938E
:100BB000C402A093C502B093C6028EE092E0909367
:100BC000C0028093BF0285EC90E09093CC028093AA
:100BD000CB0284EC90E09093CE028093CD0280EC27
:100BE00090E09093D0028093CF0281EC90E09093BC
:100BF000D2028093D10282EC90E09093D402809351
:100C0000D30286EC90E09093D6028093D5021092A6
:100C1000D8021092D9021092DA021092DB0288E018
:100C200090E00E94470C90937F0380937E0388E0BE
:100C300090E00E94470C90937D0380937C0388E0B2
:100C400090E00E94470C90937B0380937A0388E0A6
:100C500090E00E94470C909379038093780388E09A
:100C600090E00E94470C909377038093760388E08E
:100C700090E00E94470C909375038093740388E082
:100C800090E00E94470C909373038093720388E076
:100C900090E00E94470C909371038093700388E06A
:100CA00090E00E94470C90936F0380936E038091B5
:100CB0007B00886080937B0085E480937C0080913A
:100CC0007A00806480937A0080917A0086FDFCCF60
:100CD000809178002091790090E0922B90936D03A1
:100CE00080936C038CE090E00E94470C90936B0320
:100CF00080936A0384E090E00E94470C909369031C
:100D00008093680380E190E00E94470C9093670312
:100D1000809366038EE090E00E94470C90936503F9
:100D2000809364038AE090E00E94470C90936303F1
:100D30008093620384E090E00E94470C90936103EB
:100D40008093600384E090E00E94470C90935F03DF
:100D500080935E038AE090E00E94470C90935D03CD
:100D600080935C030895789484B5826084BD84B5D3
:100D7000816084BD85B5826085BD85B5816085BD96
:100D800080916E00816080936E001092810080914E
:100D900081008260809381008091810081608093D6
:100DA0008100809180008160809380008091B100FB
:100DB00084608093B1008091B00081608093B00026
:100DC0008091910082608093910080919100816078
:100DD0008093910080919000816080939000809139
:100DE000A10082608093A1008091A1008160809326
:100DF000A1008091A00081608093A00080912101DA
:100E00008260809321018091210181608093210182
:100E10008091200181608093200180917A0084601C
:100E200080937A0080917A00826080937A0080912A
:100E30007A00816080937A0080917A008068809344
:100E40007A001092C100E091CF02F091D00282E0CE
:100E50008083E091CB02F091CC021082E091CD0230
:100E6000F091CE028FEC80831092D702E091D302F2
:100E7000F091D40286E08083E091D102F091D20219
:100E8000808180618083E091D102F091D2028081E3
:100E900088608083E091D102F091D20280818068E5
:100EA0008083E091D102F091D20280818F7D808396
:100EB000E0916A03F0916B0382EB92E0918380836F
:100EC0004CE653E05783468300EB12E0118700871E
:100ED000CEEAD2E0D387C287E0917C03F0917D0314
:100EE0002AE633E03183208320E733E03383228313
:100EF000E0916803F09169032CEAE22E22E0F22EE1
:100F0000F182E08222E032E033832283E0917A03AF
:100F1000F0917B0368E673E0718360836AE674E0B6
:100F200073836283E0916603F0916703AAEAB2E0FB
:100F3000B183A08368EA72E07383628395838483BC
:100F4000578346833187208713870287D587C487D5
:100F5000F786E686E0917803F09179030F2EF6E6A6
:100F6000EF2EF3E0FF2EF02DF182E0820F2EFAE457
:100F7000EF2EF2E0FF2EF02DF382E282E091640387
:100F8000F0916503B183A083738362839583848327
:100F9000578346833187208713870287D587C48785
:100FA000E0917603F0917703C4E6D3E0D183C08368
:100FB000CEEFD2E0D383C283E0916203F09163036A
:100FC000B183A0837383628395838483578346832D
:100FD00031872087E0917403F091750322E633E0B6
:100FE0003183208328E432E033832283E09160035D
:100FF000F091610327EA32E03183208326EA32E070
:1010000033832283E0917003F091710320E633E093
:101010003183208327E432E033832283E0915E032F
:10102000F0915F0324EA32E03383228342EA52E004
:1010300051834083E0916E03F0916F036EE573E09E
:101040007183608361E371E073836283E0915C0389
:10105000F0915D039183808380EA92E093838283A1
:101060008EE992E095838483578346833187208776
:10107000E0917203F09173038CE593E09183808398
:1010800089E492E093838283C0917E03D0917F03B1
:10109000209749F0EA81FB818881998119950C801C
:1010A000DD81C02DF5CF8091B4029091B5020196FB
:1010B0009093B5028093B4020E940E02E5CF50587F
:1010C000BB27AA270E9477080C94F1090E94E30924
:1010D00038F00E94EA0920F039F49F3F19F426F411
:1010E0000C94E0090EF4E095E7FB0C94DA09E92F83
:1010F0000E94020A58F3BA1762077307840795071C
:1011000020F079F4A6F50C94240A0EF4E0950B2E49
:10111000BA2FA02D0B01B90190010C01CA01A00149
:101120001124FF27591B99F0593F50F4503E68F1A4
:101130001A16F040A22F232F342F4427585FF3CFE5
:10114000469537952795A795F0405395C9F77EF4B6
:101150001F16BA0B620B730B840BBAF09150A1F0FF
:10116000FF0FBB1F661F771F881FC2F70EC0BA0F85
:10117000621F731F841F48F4879577956795B7950D
:10118000F7959E3F08F0B0CF9395880F08F0992708
:10119000EE0F9795879508950E94B60908F481E0AF
:1011A00008950E94E5080C94F1090E94EA0958F09C
:1011B0000E94E30940F029F45F3F29F00C94DA091A
:1011C00051110C94250A0C94E0090E94020A68F35C
:1011D0009923B1F3552391F3951B550BBB27AA27F0
:1011E00062177307840738F09F5F5F4F220F331F2A
:1011F000441FAA1FA9F335D00E2E3AF0E0E832D0F2
:1012000091505040E695001CCAF72BD0FE2F29D0F4
:10121000660F771F881FBB1F261737074807AB07C6
:10122000B0E809F0BB0B802DBF01FF2793585F4F3B
:101230003AF09E3F510578F00C94DA090C94250A97
:101240005F3FE4F3983ED4F3869577956795B7951D
:10125000F7959F5FC9F7880F911D9695879597F928
:101260000895E1E0660F771F881FBB1F62177307A1
:101270008407BA0720F0621B730B840BBA0BEE1FB6
:1012800088F7E09508950E944A096894B1110C947A
:10129000250A08950E940A0A88F09F5798F0B92FEE
:1012A0009927B751B0F0E1F0660F771F881F991F9B
:1012B0001AF0BA95C9F714C0B13091F00E94240A0F
:1012C000B1E008950C94240A672F782F8827B85F1F
:1012D00039F0B93FCCF3869577956795B395D9F7F3
:1012E0003EF490958095709561957F4F8F4F9F4FFD
:1012F0000895E89409C097FB3EF490958095709509
:1013000061957F4F8F4F9F4F9923A9F0F92F96E951
:10131000BB279395F695879577956795B795F111C6
:10132000F8CFFAF4BB0F11F460FF1BC06F5F7F4F63
:101330008F4F9F4F16C0882311F096E911C0772375
:1013400021F09EE8872F762F05C0662371F096E87E
:10135000862F70E060E02AF09A95660F771F881F4D
:10136000DAF7880F9695879597F90895990F0008F1
:10137000550FAA0BE0E8FEEF16161706E807F90767
:10138000C0F012161306E407F50798F0621B730B02
:10139000840B950B39F40A2661F0232B242B252B83
:1013A00021F408950A2609F4A140A6958FEF811D26
:1013B000811D089597F99F6780E870E060E00895C7
:1013C0009FEF80EC089500240A941616170618065D
:1013D0000906089500240A94121613061406050639
:1013E0000895092E0394000C11F4882352F0BB0FCA
:1013F00040F4BF2B11F460FF04C06F5F7F4F8F4F2D
:101400009F4F089557FD9058440F551F59F05F3F67
:1014100071F04795880F97FB991F61F09F3F79F016
:1014200087950895121613061406551FF2CF469598
:10143000F1DF08C0161617061806991FF1CF86951A
:101440007105610508940895E894BB2766277727FE
:10145000CB0197F908950E943E0A0C94F1090E946D
:10146000E30938F00E94EA0920F0952311F00C946A
:10147000DA090C94E00911240C94250A0E94020A4E
:1014800070F3959FC1F3950F50E0551F629FF001D7
:10149000729FBB27F00DB11D639FAA27F00DB11DF0
:1014A000AA1F649F6627B00DA11D661F829F222779
:1014B000B00DA11D621F739FB00DA11D621F839F00
:1014C000A00D611D221F749F3327A00D611D231FD6
:1014D000849F600D211D822F762F6A2F11249F5724
:1014E00050409AF0F1F088234AF0EE0FFF1FBB1F27
:1014F000661F771F881F91505040A9F79E3F5105E6
:1015000080F00C94DA090C94250A5F3FE4F3983ECE
:10151000D4F3869577956795B795F795E7959F5F8F
:10152000C1F7FE2B880F911D9695879597F9089521
:10153000FA01EE0FFF1F309621053105A1F161156B
:10154000710561F48038BFE39B0749F168949038D6
:10155000810561F08038BFEF9B0741F099234AF580
:10156000FF3FE1053105210519F1E8940894E7955D
:10157000D901AA2329F4AB2FBE2FF85FD0F310C0F6
:10158000FF5F70F4A695E0F7F73950F019F0FF3AD5
:1015900038F49F779F930DD00F9007FC90580895D3
:1015A00046F00C94E00960E070E080E89FE3089565
:1015B0004FE79F775F934F933F932F930E94930B37
:1015C0002F913F914F915F910E942B0A0C94F00A4A
:1015D00029F416F00C94DA090C94240A0C94E0090E
:1015E0000E940A0AA8F39638A0F707F80F92E89429
:1015F0002BE33AEA48EB5FE70E94410A0F920F9211
:101600000F924DB75EB70F920E94DB0BE4EEF0E055
:101610000E94220B4F915F91EF91FF91E595EE1F94
:10162000FF1F49F0FE57E0684427EE0F441FFA956C
:10163000E1F74195550B0E94550B0F9007FE0C9456
:10164000490B0895DF93CF931F930F93FF92EF926F
:10165000DF927B018C01689406C0DA2EEF010E94B4
:101660003E0AFE01E894A591259135914591559149
:10167000A6F3EF010E947708FE019701A801DA9412
:1016800069F7DF90EF90FF900F911F91CF91DF915D
:1016900008959B01AC0160E070E080E89FE30C944A
:1016A000D1080C94DA090C940F0C0E940A0AD8F3A2
:1016B0009923C9F3940F511DA3F39150504094F016
:1016C00059F0882332F0660F771F881F91505040E1
:1016D000C1F79E3F51052CF7880F911D9695879570
:1016E00097F908955F3FACF0983E9CF0BB27869534
:1016F00077956795B79508F4B1609395C1F7BB0FDF
:1017000058F711F460FFE8CF6F5F7F4F8F4F9F4F07
:10171000E3CF0C94250A16F00C940F0C0C94E009FE
:1017200068940C94DA090E940A0AA8F39923C1F379
:10173000AEF3DF93CF931F930F93FF92C92FDD2753
:1017400088232AF02197660F771F881FDAF720E099
:1017500030E040E85FEB9FE3883920F0803E38F0CE
:1017600021968F770E946008ECE0F1E004C00E94AF
:101770006008E9E3F1E00E94220B8B01BE01EC015D
:10178000FB2E6F5771097595771F880B990B0E9477
:101790007B0928E132E741E35FE30E943E0AAF2D77
:1017A0009801AE01FF900F911F91CF91DF910E94A0
:1017B00077080C94F109FA01DC01AA0FBB1F9B0109
:1017C000AC01BF5728F4222733274427507820C084
:1017D000B75190F4AB2F0024469537952795011CFF
:1017E000A395D2F3002071F0220F331F441FB3954D
:1017F000DAF30ED00C945F0861307105A0E88A0717
:10180000B94630F49B01AC0166277727882790788A
:10181000309621F0208331834283538308959F3F84
:1018200031F0915020F4879577956795B795880F9B
:10183000911D9695879597F90895A1E21A2EAA1BF6
:10184000BB1BFD010DC0AA1FBB1FEE1FFF1FA21770
:10185000B307E407F50720F0A21BB30BE40BF50B6D
:10186000661F771F881F991F1A9469F760957095F6
:10187000809590959B01AC01BD01CF010895EE0FBD
:10188000FF1F881F8BBF0790F691E02D19940F93CF
:101890001F93CF93DF938230910510F482E090E0A4
:1018A000E0918203F091830320E030E0A0E0B0E01B
:1018B000309719F1408151810281138148175907EE
:1018C000C8F08417950769F4109731F012960C93BD
:1018D000129713961C9327C00093820310938303DF
:1018E00022C02115310519F04217530718F49A0147
:1018F000BD01EF01DF01F801DBCF21153105F9F062
:10190000281B390B2430310580F48A819B816115B5
:10191000710521F0FB019383828304C090938303BC
:1019200080938203FE01329644C0FE01E20FF31F52
:101930008193919322503109398328833AC02091B1
:10194000800330918103232B41F4209106023091D2
:101950000702309381032093800320910402309189
:1019600005022115310541F42DB73EB7409108021B
:1019700050910902241B350BE0918003F091810303
:10198000E217F307A0F42E1B3F0B2817390778F056
:10199000AC014E5F5F4F2417350748F04E0F5F1FB5
:1019A00050938103409380038193919302C0E0E0C0
:1019B000F0E0CF01DF91CF911F910F910895CF9368
:1019C000DF93009709F481C0FC01329713821282E1
:1019D000A0918203B0918303109781F4208131811B
:1019E000820F931F209180033091810328173907BC
:1019F00051F5F0938103E093800367C0ED0120E08F
:101A000030E0CE17DF0740F44A815B819E0141152B
:101A10005105F1F0EA01F5CFD383C28340815181B2
:101A2000840F951FC817D90759F488819981840FAD
:101A3000951F0296918380838A819B819383828301
:101A40002115310529F4F0938303E09382033DC00F
:101A5000E901FB83EA8349915991C40FD51FEC1723
:101A6000FD0761F480819181840F951F0296E90141
:101A700099838883828193819B838A83E0E0F0E06D
:101A800012968D919C911397009719F0FD01DC013E
:101A9000F7CF8D919C9111979D012E5F3F4F820F43
:101AA000931F20918003309181032817390769F42F
:101AB000309729F4109283031092820302C013829C
:101AC0001282B0938103A0938003DF91CF91089598
:0E1AD00081E090E0F8940C946D0DF894FFCF37
:101ADE0001006400000084038000000000009F01EC
:101AEE0007013601EC016701450159010D0A00425B
:101AFE00415454455259204C4556454C3A200909FB
:101B0E0000300A004655454C204C4556454C3A206F
:101B1E00090900504F57455220434F4E53554D50D3
:101B2E0054494F4E3A200900504F574552204745D1
:101B3E004E45524154494F4E3A20090043484152B6
:101B4E0047494E47205354415455533A2009004FAC
:101B5E004E004F46460042415454455259204C4F78
:0C1B6E0057004675656C204C4F57000076
:00000001FF
