:100000000C9476000C949E000C949E000C949E0020
:100010000C949E000C949E000C949E000C949E00E8
:100020000C949E000C949E000C949E000C949E00D8
:100030000C949E000C949E000C949E000C949E00C8
:100040000C94AF040C949E000C941F050C94F904BE
:100050000C949E000C949E000C949E000C949E00A8
:100060000C949E000C949E0007634236B79BD8A761
:100070001A39685618AEBAAB558C1D3CB7CC5763CD
:10008000BD6DEDFD753EF6177231BF000000803F7B
:1000900008000000BE922449123EABAAAA2ABECD97
:1000A000CCCC4C3E00000080BEABAAAAAA3E000009
:1000B0000000BF000000803F000000000008417801
:1000C000D3BB4387D1133D190E3CC3BD4282AD2B38
:1000D0003E68EC8276BED98FE1A93E4C80EFFFBE30
:1000E00001C4FF7F3F0000000000510511241FBE26
:1000F000CFEFD8E0DEBFCDBF11E0A0E0B1E0E8E394
:10010000F9E102C005900D92AC39B107D9F722E0B0
:10011000ACE9B1E001C01D92A637B207E1F710E0EB
:10012000C6E7D0E004C02197FE010E946E0BC537E0
:10013000D107C9F70E9422060C949A0C0C94000077
:100140003FB7F8948091B1019091B201A091B301B1
:10015000B091B40126B5A89B05C02F3F19F00196B8
:10016000A11DB11D3FBFBA2FA92F982F8827820F3D
:10017000911DA11DB11DBC01CD0142E0660F771F8D
:10018000881F991F4A95D1F70895CF92DF92EF9279
:10019000FF920F931F93CF93DF936C017A018B0132
:1001A000C0E0D0E0CE15DF0581F0D8016D918D0162
:1001B000D601ED91FC910190F081E02DC6010995E9
:1001C000892B11F02196EECF7E01C701DF91CF91EF
:1001D0001F910F91FF90EF90DF90CF9008950895B9
:1001E000089580E090E00895FC01538D448D252F03
:1001F00030E0842F90E0821B930B541710F0CF96C1
:10020000089501970895FC01918D828D981761F0F2
:10021000828DDF01A80FB11D5D968C91928D9F5F3D
:100220009F73928F90E008958FEF9FEF0895FC01E8
:10023000918D828D981731F0828DE80FF11D858D9B
:1002400090E008958FEF9FEF0895FC01918D228D2E
:10025000892F90E0805C9F4F821B91098F739927B3
:10026000089585EB91E00E94250121E0892B09F496
:1002700020E0822F0895FC01848DDF01A80FB11DBD
:10028000A35ABF4F2C91848D90E001968F739927CC
:10029000848FA689B7892C93A089B1898C918370AA
:1002A00080648C93938D848D981306C00288F389A3
:1002B000E02D80818F7D80830895EF92FF920F93D0
:1002C0001F93CF93DF93EC0181E0888F9B8D8C8D02
:1002D000981305C0E889F989808185FD26C0F62E2E
:1002E0000B8D10E00F5F1F4F0F731127E02E8C8DC9
:1002F000E8120CC00FB607FCFACFE889F9898081B3
:1003000085FFF5CFCE010E943B01F1CF8B8DFE0121
:10031000E80FF11DE35AFF4FF0829FB7F8940B8F5F
:10032000EA89FB89808180620AC09FB7F894EE89D0
:10033000FF896083E889F989808183708064808384
:100340009FBF81E090E0DF91CF911F910F91FF90CF
:10035000EF900895CF93DF93EC01888D8823C9F047
:10036000EA89FB89808185FD05C0A889B9898C91BE
:1003700086FD0FC00FB607FCF5CF808185FFF2CF59
:10038000A889B9898C9185FFEDCFCE010E943B01F0
:10039000E7CFDF91CF91089580E090E0892B29F09D
:1003A0000E94310181110C9400000895CF92DF92D8
:1003B000EF92FF92CF93DF93FC01C685D785209102
:1003C00000013091010187EB9AE0289FB001299F3D
:1003D000700D389F700D11246D5D784E7093010182
:1003E00060930001072E000C880B990B0E94AA084D
:1003F0006B017C0120E030E0A9010E94FB0787FF30
:100400000AC02AE635ED4CE45DE4C701B6010E945E
:100410008F076B017C012AE635ED4CE45DE4C701F2
:10042000B6010E94000820E030E048EA51E40E9452
:100430005A090E9472086A50710979836883DF91B2
:10044000CF91FF90EF90DF90CF900895009769F0E3
:10045000FC0101900020E9F73197AF01481B590BCF
:10046000BC0185EB91E00C94C50080E090E008951C
:10047000CF93DF930E942602EC018CE191E00E9471
:1004800026028C0F9D1FDF91CF910895CF92DF92AE
:10049000EF92FF920F931F93CF93DF93CDB7DEB709
:1004A000A1970FB6F894DEBF0FBECDBF9C0140E010
:1004B00050E019A28E010F5D1F4F8AE0C82ED12C8B
:1004C000E12CF12CCA01B901A70196010E944C0B45
:1004D000605DF80162938F012115310541055105D9
:1004E00089F7CF010E9426028C018CE191E00E94E5
:1004F0002602800F911FA1960FB6F894DEBF0FBEA3
:10050000CDBFDF91CF911F910F91FF90EF90DF90C2
:10051000CF900895CF93DF93EC018FE191E00E949B
:100520002602EE81FF81808191818536910528F038
:1005300081E391E00E94380202C00E94460284E3F7
:1005400091E00E942602E885F985808191810E94D0
:10055000460283E491E00E942602EA85FB858081C1
:1005600091810E94460288E591E00E942602EC8576
:10057000FD85808191810E9446028CE691E00E9477
:100580002602EC81FD8180819181892B19F08FE712
:1005900091E002C082E891E00E9438028CE191E093
:1005A0000E942602EE81FF8180819181EA81FB8198
:1005B000C29748F481E090E09183808386E891E0DF
:1005C0000E94380202C011821082E885F98580817C
:1005D0009181E881F981C29750F481E090E09183A4
:1005E000808382E991E0DF91CF910C9438021182EF
:1005F0001082DF91CF910895CF93DF93BC0180915A
:100600009C0190919D01DB011896ED91FC91199749
:100610000097E1F00197A9F58091AA019091AB01B3
:10062000009711F080FD04C080819181029703C082
:10063000808191810196918380838081918105974A
:1006400000F510929D0110929C011BC08091AA019F
:100650009091AB01009711F080FD04C080819181E1
:10066000029603C08081918101979183808380816C
:1006700091810B9730F081E090E090939D01809301
:100680009C01EB0128813981D9018D919C91AE812A
:10069000BF810197B9F58D919C9111978036910595
:1006A00054F0E90119821882EB018A859B85EC01DF
:1006B0001982188231C082339105C8F44091AA0191
:1006C0005091AB01EB018A859B85EC0141155105E9
:1006D00011F040FD05C0488159814E5F5F4F04C055
:1006E000488159814F5F5F4F5983488315C0C39735
:1006F0008C9790F4EB014A855B85EA0188819981AA
:10070000029608C08D919C9111970B972CF481E073
:1007100090E0E90199838883E90188819981892B97
:1007200059F4808191819C01220F331F280F391FBA
:100730008D919C9111970DC0EB018A859B85EC01F1
:10074000288139818D919C911197820F931F20816F
:100750003181821B930B97FF03C01D921C9202C034
:100760008D939C93DF91CF9108950E94950CAF9249
:10077000BF92CF92DF92EF92FF920F931F93CF938E
:10078000DF935B017C01C0E0D0E000E010E0CA151F
:10079000DB0504F5F701C190D1907F01BE010D2E5C
:1007A000000C880B990B0E94AA089B01AC0160E029
:1007B00070E080E090E40E94C7090E947208C69E23
:1007C0009001C79E300DD69E300D1124020F131FCD
:1007D0002196DDCFC801DF91CF911F910F91FF903E
:1007E000EF90DF90CF90BF90AF900895AF92BF92FF
:1007F000CF92DF92EF92FF920F931F93CF93DF93ED
:10080000CDB7DEB768970FB6F894DEBF0FBECDBF89
:100810005C01DC01ED91FC91E080F18088EC90E0DE
:100820000E94740B8C01FC01B0968FE090E0970160
:10083000082E02C0359527950A94E2F721703327D8
:1008400032932293019798F7F801E080F18082813A
:100850009381E82AF92A84819581E82AF92A8681F8
:100860009781E82AF92A808591859A8B898B8285E0
:1008700093859C8B8B8B848595859E8B8D8B8685B4
:100880009785988F8F8B64E070E0CE0141960E942F
:10089000B7036C01D80150968D919C9151979A8322
:1008A000898352968D919C9153979C838B83549608
:1008B0008D919C9155979E838D8356968D919C9199
:1008C000579798878F8358968D919C9159979A87BF
:1008D00089875A968D919C915B979C878B875C96B4
:1008E0008D919C915D979E878D875E968D919C9151
:1008F0005F97988B8F8768E070E0CE0101960E9429
:10090000B703EF28D9F0892BC9F0D5011296ED91E4
:10091000FC91139780819181181619067CF4BEE032
:10092000CB16D10411F0CD2849F0853091051CF487
:100930001182108203C005979183808368960FB659
:10094000F894DEBF0FBECDBFDF91CF911F910F9105
:10095000FF90EF90DF90CF90BF90AF9008951F92DF
:100960000F920FB60F9211242F933F938F939F9363
:10097000AF93BF938091AD019091AE01A091AF0173
:10098000B091B0013091AC0123E0230F2D3720F45A
:100990000196A11DB11D05C026E8230F0296A11DD9
:1009A000B11D2093AC018093AD019093AE01A09353
:1009B000AF01B093B0018091B1019091B201A091CB
:1009C000B301B091B4010196A11DB11D8093B10195
:1009D0009093B201A093B301B093B401BF91AF91D2
:1009E0009F918F913F912F910F900FBE0F901F906D
:1009F00018951F920F920FB60F9211242F933F93C9
:100A00004F935F936F937F938F939F93AF93BF9316
:100A1000EF93FF9385EB91E00E943B01FF91EF91F3
:100A2000BF91AF919F918F917F916F915F914F9106
:100A30003F912F910F900FBE0F901F9018951F920E
:100A40000F920FB60F9211242F938F939F93EF93D2
:100A5000FF93E091C501F091C6018081E091CB0147
:100A6000F091CC0182FD12C090818091CE018F5F08
:100A70008F732091CF01821751F0E091CE01F0E009
:100A8000EB54FE4F958F8093CE0101C08081FF9182
:100A9000EF919F918F912F910F900FBE0F901F900C
:100AA0001895CF92DF92EF92FF920F931F93CF93FF
:100AB000DF931092B8011092B70188EE93E0A0E0A6
:100AC000B0E08093B9019093BA01A093BB01B093B9
:100AD000BC018EE091E09093B6018093B50185EC66
:100AE00090E09093C2018093C10184EC90E09093D8
:100AF000C4018093C30180EC90E09093C601809381
:100B0000C50181EC90E09093C8018093C70182EC0D
:100B100090E09093CA018093C90186EC90E0909395
:100B2000CC018093CB011092CE011092CF01109294
:100B3000D0011092D10185E480937C0080917A00ED
:100B4000806480937A0080917A0086FDFCCF80914A
:100B500078002091790090E0922B9093710280931D
:100B600070028CE090E00E94740B90936F0280936F
:100B70006E0284E090E00E94740B90936D0280936B
:100B80006C0280E190E00E94740B90936B02809362
:100B90006A028EE090E00E94740B90936902809349
:100BA00068028AE090E00E94740B90936702809341
:100BB000660288E090E00E94740B6C0190936502DD
:100BC0008093640288E090E00E94740B7C01909313
:100BD00063028093620288E090E00E94740B8C01B3
:100BE000909361028093600288E090E00E94740B11
:100BF000EC0190935F0280935E0288E090E00E9497
:100C0000740B90935D0280935C02D0925302C09269
:100C10005202F0925502E092540210935702009350
:100C20005602D0935902C093580290935B0280936E
:100C30005A02DF91CF911F910F91FF90EF90DF90BB
:100C4000CF900895789484B5826084BD84B5816026
:100C500084BD85B5826085BD85B5816085BD809187
:100C60006E00816080936E001092810080918100FF
:100C700082608093810080918100816080938100F7
:100C8000809180008160809380008091B1008460B9
:100C90008093B1008091B00081608093B00080911A
:100CA0007A00846080937A0080917A0082608093D9
:100CB0007A0080917A00816080937A0080917A0036
:100CC000806880937A001092C100E091C501F09194
:100CD000C60182E08083E091C101F091C2011082DF
:100CE000E091C301F091C4018FEC80831092CD019B
:100CF000E091C901F091CA0186E08083E091C701CB
:100D0000F091C801808180618083E091C701F091FA
:100D1000C801808188608083E091C701F091C8019B
:100D2000808180688083E091C701F091C801808153
:100D30008F7D8083E0916E02F0916F0248EA51E06E
:100D40005183408320E732E03783268306EA11E0AF
:100D500011870087C4EAD1E0D387C287E09164029B
:100D6000F09165028EE692E0918380838CEF92E0B1
:100D700093838283E0916C02F0916D0292EAE92EF6
:100D800091E0F92EF182E08282E091E09383828308
:100D9000E0916202F09163026CE672E0718360831D
:100DA00066EF73E073836283E0916A02F0916B02F5
:100DB000A0EAB1E0B183A0836EE971E0738362833E
:100DC00055834483378326839187808713870287DF
:100DD000D587C487F786E686E0916002F0916102CC
:100DE0000F2EFAE6EF2EF2E0FF2EF02DF182E082D8
:100DF0000F2EF6EDEF2EF1E0FF2EF02DF382E282C2
:100E0000E0916802F0916902B183A08373836283E9
:100E1000558344833783268391878087138702878E
:100E2000D587C487E0915E02F0915F02C8E6D2E008
:100E3000D183C083CAE8D2E0D383C283E091660243
:100E4000F0916702B183A0837383628355834483E7
:100E50003783268391878087E0915C02F0915D0261
:100E600086E692E0918380838FEE90E09383828385
:100E700002E512E0C0E0D0E0C430D10551F0F80145
:100E8000A081B1811296ED91FC9113978D919C9167
:100E90000995A0915A02B0915B021296ED91FC91D6
:100EA00013978D919C9109950E94A0004B015C01C4
:100EB00088EEC82E83E0D82EE12CF12C0E94A000F1
:100EC000DC01CB0188199909AA09BB09883E934026
:100ED000A105B10598F3F1E0CF1AD108E108F108B6
:100EE00028EE820E23E0921EA11CB11CC114D10475
:100EF000E104F10419F721960E5F1F4FC530D105AB
:100F000009F0BACF8091AA019091AB01019690931C
:100F1000AB018093AA010E94CC01AACF5058BB27F5
:100F2000AA270E94A6070C9420090E94120938F0F3
:100F30000E94190920F039F49F3F19F426F40C940B
:100F40000F090EF4E095E7FB0C940909E92F0E94C4
:100F5000310958F3BA17620773078407950720F021
:100F600079F4A6F50C9453090EF4E0950B2EBA2FE4
:100F7000A02D0B01B90190010C01CA01A00111249F
:100F8000FF27591B99F0593F50F4503E68F11A164B
:100F9000F040A22F232F342F4427585FF3CF4695DC
:100FA00037952795A795F0405395C9F77EF41F16FE
:100FB000BA0B620B730B840BBAF09150A1F0FF0FC8
:100FC000BB1F661F771F881FC2F70EC0BA0F621FB4
:100FD000731F841F48F4879577956795B795F795A4
:100FE0009E3F08F0B0CF9395880F08F09927EE0F39
:100FF0009795879508950E94E50808F481E0089583
:101000000E9414080C9420090E94190958F00E94AB
:10101000120940F029F45F3F29F00C94090951119D
:101020000C9454090C940F090E94310968F3992318
:10103000B1F3552391F3951B550BBB27AA276217D4
:101040007307840738F09F5F5F4F220F331F441FE1
:10105000AA1FA9F335D00E2E3AF0E0E832D0915015
:101060005040E695001CCAF72BD0FE2F29D0660F02
:10107000771F881FBB1F261737074807AB07B0E845
:1010800009F0BB0B802DBF01FF2793585F4F3AF04B
:101090009E3F510578F00C9409090C9454095F3F68
:1010A000E4F3983ED4F3869577956795B795F795D1
:1010B0009F5FC9F7880F911D9695879597F90895B9
:1010C000E1E0660F771F881FBB1F62177307840755
:1010D000BA0720F0621B730B840BBA0BEE1F88F764
:1010E000E09508950E9479086894B1110C94540910
:1010F00008950E94390988F09F5798F0B92F9927D1
:10110000B751B0F0E1F0660F771F881F991F1AF0F2
:10111000BA95C9F714C0B13091F00E945309B1E0FB
:1011200008950C945309672F782F8827B85F39F0FA
:10113000B93FCCF3869577956795B395D9F73EF48B
:1011400090958095709561957F4F8F4F9F4F089533
:10115000E89409C097FB3EF4909580957095619551
:101160007F4F8F4F9F4F9923A9F0F92F96E9BB2707
:101170009395F695879577956795B795F111F8CF83
:10118000FAF4BB0F11F460FF1BC06F5F7F4F8F4FEE
:101190009F4F16C0882311F096E911C0772321F0E4
:1011A0009EE8872F762F05C0662371F096E8862F7C
:1011B00070E060E02AF09A95660F771F881FDAF7D3
:1011C000880F9695879597F90895990F0008550F00
:1011D000AA0BE0E8FEEF16161706E807F907C0F0BD
:1011E00012161306E407F50798F0621B730B840BC5
:1011F000950B39F40A2661F0232B242B252B21F49F
:1012000008950A2609F4A140A6958FEF811D811D3E
:10121000089597F99F6780E870E060E008959FEF78
:1012200080EC089500240A9416161706180609067D
:10123000089500240A94121613061406050608954C
:10124000092E0394000C11F4882352F0BB0F40F4D4
:10125000BF2B11F460FF04C06F5F7F4F8F4F9F4F14
:10126000089557FD9058440F551F59F05F3F71F096
:101270004795880F97FB991F61F09F3F79F08795FD
:101280000895121613061406551FF2CF4695F1DF86
:1012900008C0161617061806991FF1CF8695710516
:1012A000610508940895E894BB2766277727CB014A
:1012B00097F908950E946D090C9420090E94120963
:1012C00038F00E94190920F0952311F00C940909B7
:1012D0000C940F0911240C9454090E94310970F3E5
:1012E000959FC1F3950F50E0551F629FF001729FCB
:1012F000BB27F00DB11D639FAA27F00DB11DAA1FDA
:10130000649F6627B00DA11D661F829F2227B00D26
:10131000A11D621F739FB00DA11D621F839FA00DB1
:10132000611D221F749F3327A00D611D231F849F01
:10133000600D211D822F762F6A2F11249F57504058
:101340009AF0F1F088234AF0EE0FFF1FBB1F661FD3
:10135000771F881F91505040A9F79E3F510580F09C
:101360000C9409090C9454095F3FE4F3983ED4F3BC
:10137000869577956795B795F795E7959F5FC1F740
:10138000FE2B880F911D9695879597F90895FA0180
:10139000EE0FFF1F309621053105A1F16115710592
:1013A00061F48038BFE39B0749F168949038810568
:1013B00061F08038BFEF9B0741F099234AF5FF3F6A
:1013C000E1053105210519F1E8940894E795D90163
:1013D000AA2329F4AB2FBE2FF85FD0F310C0FF5F14
:1013E00070F4A695E0F7F73950F019F0FF3A38F4A9
:1013F0009F779F930DD00F9007FC9058089546F06B
:101400000C940F0960E070E080E89FE308954FE7D7
:101410009F775F934F933F932F930E94C20A2F9120
:101420003F914F915F910E945A090C941F0A29F431
:1014300016F00C9409090C9453090C940F090E949E
:101440003909A8F39638A0F707F80F92E8942BE330
:101450003AEA48EB5FE70E9470090F920F920F92F1
:101460004DB75EB70F920E940A0BE8E6F0E00E94CB
:10147000510A4F915F91EF91FF91E595EE1FFF1F8C
:1014800049F0FE57E0684427EE0F441FFA95E1F754
:101490004195550B0E94840A0F9007FE0C94780A20
:1014A0000895DF93CF931F930F93FF92EF92DF92F4
:1014B0007B018C01689406C0DA2EEF010E946D0951
:1014C000FE01E894A5912591359145915591A6F39A
:1014D000EF010E94A607FE019701A801DA9469F7BF
:1014E000DF90EF90FF900F911F91CF91DF910895C2
:1014F0009B01AC0160E070E080E89FE30C94000881
:101500000C9409090C943E0B0E943909D8F39923D5
:10151000C9F3940F511DA3F39150504094F059F02A
:10152000882332F0660F771F881F91505040C1F713
:101530009E3F51052CF7880F911D9695879597F939
:1015400008955F3FACF0983E9CF0BB278695779559
:101550006795B79508F4B1609395C1F7BB0F58F73D
:1015600011F460FFE8CF6F5F7F4F8F4F9F4FE3CF46
:101570000C94540916F00C943E0B0C940F096894CB
:101580000C9409090E943909A8F39923C1F3AEF319
:10159000DF93CF931F930F93FF92C92FDD278823EB
:1015A0002AF02197660F771F881FDAF720E030E0D6
:1015B00040E85FEB9FE3883920F0803E38F02196C9
:1015C0008F770E948F07E0E9F0E004C00E948F0748
:1015D000EDEBF0E00E94510A8B01BE01EC01FB2E05
:1015E0006F5771097595771F880B990B0E94AA0890
:1015F00028E132E741E35FE30E946D09AF2D9801D6
:10160000AE01FF900F911F91CF91DF910E94A6072D
:101610000C942009FA01DC01AA0FBB1F9B01AC014D
:10162000BF5728F4222733274427507820C0B751CA
:1016300090F4AB2F0024469537952795011CA39570
:10164000D2F3002071F0220F331F441FB395DAF359
:101650000ED00C948E0761307105A0E88A07B94658
:1016600030F49B01AC016627772788279078309665
:1016700021F0208331834283538308959F3F31F0CB
:10168000915020F4879577956795B795880F911DB0
:101690009695879597F90895A1E21A2EAA1BBB1B70
:1016A000FD010DC0AA1FBB1FEE1FFF1FA217B3072E
:1016B000E407F50720F0A21BB30BE40BF50B661F44
:1016C000771F881F991F1A9469F760957095809508
:1016D00090959B01AC01BD01CF010895EE0FFF1F56
:1016E0000590F491E02D09940F931F93CF93DF930E
:1016F0008230910510F482E090E0E0917402F09164
:10170000750220E030E0A0E0B0E0309719F14081B0
:1017100051810281138148175907C8F08417950732
:1017200069F4109731F012960C93129713961C934C
:1017300027C0009374021093750222C02115310551
:1017400019F04217530718F49A01BD01EF01DF01A8
:10175000F801DBCF21153105F9F0281B390B2430B6
:10176000310580F48A819B816115710521F0FB01AF
:101770009383828304C09093750280937402FE0168
:10178000329644C0FE01E20FF31F819391932250E1
:101790003109398328833AC0209172023091730253
:1017A000232B41F4209106013091070130937302FD
:1017B0002093720220910401309105012115310519
:1017C00041F42DB73EB74091080150910901241B07
:1017D000350BE0917202F0917302E217F307A0F467
:1017E0002E1B3F0B2817390778F0AC014E5F5F4F77
:1017F0002417350748F04E0F5F1F50937302409334
:1018000072028193919302C0E0E0F0E0CF01DF919A
:10181000CF911F910F910895CF93DF93009709F413
:1018200081C0FC01329713821282A0917402B091A0
:101830007502109781F420813181820F931F2091CE
:101840007202309173022817390751F5F093730231
:10185000E093720267C0ED0120E030E0CE17DF07B1
:1018600040F44A815B819E0141155105F1F0EA0186
:10187000F5CFD383C28340815181840F951FC81750
:10188000D90759F488819981840F951F0296918315
:1018900080838A819B81938382832115310529F47A
:1018A000F0937502E09374023DC0E901FB83EA8383
:1018B00049915991C40FD51FEC17FD0761F4808140
:1018C0009181840F951F0296E90199838883828113
:1018D00093819B838A83E0E0F0E012968D919C9146
:1018E0001397009719F0FD01DC01F7CF8D919C91C2
:1018F00011979D012E5F3F4F820F931F209172021F
:10190000309173022817390769F4309729F410923F
:1019100075021092740202C013821282B093730295
:10192000A0937202DF91CF91089581E090E0F89446
:081930000C949A0CF894FFCF0F
:1019380001006400000076028000000000005D01E4
:10194800C500F400AA012501030117010D0A004290
:10195800415454455259204C4556454C3A200909A2
:1019680000300A004655454C204C4556454C3A2017
:10197800090900504F57455220434F4E53554D507B
:1019880054494F4E3A200900504F57455220474579
:101998004E45524154494F4E3A200900434841525E
:1019A80047494E47205354415455533A2009004F54
:1019B8004E004F46460042415454455259204C4F20
:0C19C80057004675656C204C4F5700001E
:00000001FF
