:100000000C94C5010C94F6010C94F6010C94F601C5
:100010000C94F6010C94F6010C94F6010C94F60184
:100020000C94F6010C94F6010C94F6010C94F60174
:100030000C94F6010C94F6010C94F6010C94F60164
:100040000C94F6010C94F6010C94F6010C94F60154
:100050000C94F6010C94F6010C94F6010C9408092A
:100060000C94F6010C947C090C9452090C94F60142
:100070000C94F6010C94F6010C94F6010C94F60124
:100080000C94F6010C94F6010C94F6010C94F60114
:100090000C94F6010C94F6010C94F6010C94F60104
:1000A0000C94F6010C94F6010C94F6010C94F601F4
:1000B0000C94F6010C94F6010C94F6010C94F601E4
:1000C0000C94F6010C94F6010C94F6010C94F601D4
:1000D0000C94F6010C94F6010C94F6010C94F601C4
:1000E0000C94F601CA05D005D605E205EE057D069D
:1000F000FA0503060C0618062406300641064D06CE
:100100007D06590665067106A406A70696069A0698
:100110009E06DE06AB06AF06B506B906BD06C306EB
:10012000C706CB06DE06D106D506D90607634236DA
:10013000B79BD8A71A39685618AEBAAB558C1D3C78
:10014000B7CC5763BD6DEDFD753EF6177231BF003C
:100150000000803F08000000BE922449123EABAA76
:10016000AA2ABECDCCCC4C3E00000080BEABAAAAD1
:10017000AA3E00000000BF000000803F0000000019
:1001800000084178D3BB4387D1133D190E3CC3BD52
:100190004282AD2B3E68EC8276BED98FE1A93E4CFF
:1001A00080EFFFBE01C4FF7F3F00000000000C9401
:1001B000A7060C94B5060C9403060C9441060C9407
:1001C0004D060C94D9060C9496060C949A060C9441
:1001D00030060C9418060C94D6050C94DE060C948C
:1001E00027020C9459060C940D080C9422050C94CB
:1001F00052070C94FA050C948F020C940C060C9484
:10020000E2050C94D1060C944D080C947D060C94D8
:10021000D6020C9456040C94A4060C94C7060C94B5
:1002200058020C944A020C94EE050C9424060C948B
:10023000D0050C94F2060C949E060C94C6040C9403
:10024000CA050C94BD060C94B2090C9431030C94AD
:10025000D5060C94F8010C94B9060C94AB060C94DA
:10026000CB060C94AF060C9465060C94C3060C9454
:1002700071060C9436026364696E6F7073757858FA
:100280005B0000002200250028002B002E0031001A
:10029000340002010000050108010B0100002100EB
:1002A000240027002A002D00300033000101000047
:1002B000040107010A0105050505070508080808E6
:1002C000020202020A0A08080404040401010101EE
:1002D00001010101030303030303030304070707E9
:1002E0000C0C0C0C0C0C0C0C02020202060606068E
:1002F000060606060B0B0B0B0B0B0B0B010210205B
:10030000200808102040102040800201020108044B
:1003100002010102040810204080804020100804DF
:100320000201800402018040201008040201080438
:10033000020101020408102040800102040810207C
:10034000408000000A0B02090C0D0E08070304018F
:10035000000000000000000000000000000000009D
:10036000000000000000000000000000000012116A
:10037000100000000000000000000000000000006D
:100380000000000000000000B20911241FBECFEFE2
:10039000D1E2DEBFCDBF00E00CBF12E0A0E0B2E0D2
:1003A000E4EAF7E200E00BBF02C007900D92AC3A1E
:1003B000B107D9F723E0ACEAB2E001C01D92AE3933
:1003C000B207E1F711E0C5ECD1E000E006C02197EB
:1003D0000109802FFE010E94320FC43CD10780E04A
:1003E0000807A9F70E94A00A0C94D0130C940000EF
:1003F000CF92DF92EF92FF920F931F93CF93DF93F1
:100400006C017A018B01C0E0D0E0CE15DF0589F0E8
:10041000D8016D918D01D601ED91FC910190F08193
:10042000E02DC6011995892B11F47E0102C0219699
:10043000ECCFC701DF91CF911F910F91FF90EF900B
:10044000DF90CF900895089580E090E00895FC013A
:10045000538D448D252F30E0842F90E0821B930B29
:10046000541710F0CF96089501970895FC01918DCF
:10047000828D981761F0828DDF01A80FB11D5D9606
:100480008C91928D9F5F9F73928F90E008958FEF74
:100490009FEF0895FC01918D828D981731F0828D28
:1004A000E80FF11D858D90E008958FEF9FEF08957F
:1004B000FC01918D228D892F90E0805C9F4F821BE3
:1004C00091098F739927089581ED92E00E94580257
:1004D00021E0892B09F420E0822F0895FC01848D0E
:1004E000DF01A80FB11DA35ABF4F2C91848D90E05E
:1004F00001968F739927848FA689B7892C93A08939
:10050000B1898C9180648C93938D848D981306C0EF
:100510000288F389E02D80818F7D80830895EF929A
:10052000FF920F931F93CF93DF93EC0181E0888FAD
:100530009B8D8C8D981305C0E889F989808185FD94
:1005400024C0F62E0B8D10E00F5F1F4F0F73112785
:10055000E02E8C8DE8120CC00FB607FCFACFE889AC
:10056000F989808185FFF5CFCE010E946E02F1CF1F
:100570008B8DFE01E80FF11DE35AFF4FF0820B8FC8
:10058000EA89FB898081806207C0EE89FF896083E8
:10059000E889F98980818064808381E090E0DF913F
:1005A000CF911F910F91FF90EF900895CF93DF931C
:1005B000EC01888D8823C9F0EA89FB89808185FD5B
:1005C00005C0A889B9898C9186FD0FC00FB607FCBC
:1005D000F5CF808185FFF2CFA889B9898C9185FFFD
:1005E000EDCFCE010E946E02E7CFDF91CF9108954B
:1005F00080E090E0892B21F00E946402811125C0E7
:1006000080E090E0892B41F080E090E0892B21F0A0
:100610000E94000081111CC080E090E0892B41F015
:1006200080E090E0892B21F00E940000811113C02E
:1006300080E090E0892BA1F080E090E0892B81F0B0
:100640000E94000081110AC008950E940000D8CFC6
:100650000E940000E1CF0E940000EACF0C9400004D
:1006600008950895EF92FF920F931F93CF93DF9316
:10067000E1EDF2E0A089B18982E08C93A485B58593
:100680001C92A685B7858FEC8C93108EA489B589B2
:1006900086E08C93A289B3898C9180618C93A28926
:1006A000B3898C9188608C93A289B3898C9180687E
:1006B0008C930288F389E02D80818F7D8083E09187
:1006C0007C03F0917D0384EC92E0918380834EE77C
:1006D00053E05783468302EC12E011870087C0EC99
:1006E000D2E0D387C287E0918E03F0918F032CE78D
:1006F00033E03183208322E537E033832283E091A6
:100700007A03F0917B032EEBE22E22E0F22EF182AF
:10071000E08222E032E033832283E0918C03F09187
:100720008D036AE773E0718360836DE478E073831F
:100730006283E0917803F0917903ACEBB2E0B1838E
:10074000A0836AEB72E0738362839583848357830B
:1007500046833187208713870287D587C487F7862A
:10076000E686E0918A03F0918B030F2EF8E7EF2ED7
:10077000F3E0FF2EF02DF182E0820F2EF6E5EF2E52
:10078000F4E0FF2EF02DF382E282E0917603F09107
:100790007703B183A08373836283958384835783B4
:1007A00046833187208713870287D587C487E091E6
:1007B0008803F0918903C6E7D3E0D183C083C2E206
:1007C000D5E0D383C283E0917403F0917503B183C4
:1007D000A0837383628395838483578346833187A1
:1007E0002087E0918603F091870324E733E031838B
:1007F000208321E333E033832283E0917203F0917D
:10080000730329EB32E03183208328EB32E033831A
:100810002283E0918203F091830322E733E0318366
:10082000208326EC34E033832283E0917003F0913F
:10083000710326EB32E03383228344EB52E0518391
:100840004083E0918003F091810360E773E071835E
:1008500060836DE078E073836283E0916E03F091D2
:100860006F039183808382EB92E09383828380EB9A
:1008700092E09583848357834683318720878EEA6D
:1008800092E093878287E0918403F09185038EE65E
:1008900093E09183808382EF96E093838283DF915C
:1008A000CF911F910F91FF90EF900895CF92DF921B
:1008B000EF92FF92CF93DF93FC01C685D7852091FD
:1008C00000023091010287EB9AE0289FB001299F36
:1008D000700D389F700D11246D5D784E709301027C
:1008E00060930002072E000C880B990B0E946E0C7F
:1008F0006B017C0120E030E0A9010E94BF0B87FF63
:100900000AC02AE635ED4CE45DE4C701B6010E9459
:10091000530B6B017C012AE635ED4CE45DE4C70125
:10092000B6010E94C40B20E030E048EA51E40E9486
:100930001E0D0E94360C6A50710979836883DF911D
:10094000CF91FF90EF90DF90CF900895009769F0DE
:10095000FC0101900020E9F73197AF01481B590BCA
:10096000BC0181ED92E00C94F80180E090E00895E4
:10097000CF93DF930E94A604EC0180E292E00E94F4
:10098000A6048C0F9D1FDF91CF91089582E992E01C
:100990000E94A60483E292E00E94A60485E292E00F
:1009A0000E94A60487E292E00E94A60489E292E0F7
:1009B0000E94A6048BE292E00C94A604CF92DF92F0
:1009C000EF92FF920F931F93CF93DF93CDB7DEB7D4
:1009D000A1970FB6F894DEBF0FBECDBF9C0140E0DB
:1009E00050E019A28E010F5D1F4F8AE0C82ED12C56
:1009F000E12CF12CCA01B901A70196010E94100F48
:100A0000605DF80162938F012115310541055105A3
:100A100089F7CF010E94A6048C0180E292E00E9437
:100A2000A604800F911FA1960FB6F894DEBF0FBEEB
:100A3000CDBFDF91CF911F910F91FF90EF90DF908D
:100A4000CF900895CF93DF93EC018DE292E00E9466
:100A5000A604EE81FF81808191818536910528F081
:100A60008FE392E00E94B80402C00E94DE0482E498
:100A700092E00E94A604E885F985808191810E9418
:100A8000DE0481E592E00E94A604EA85FB85808170
:100A900091810E94DE0486E692E00E94A604EC8525
:100AA000FD85808191810E94DE048AE792E00E94A8
:100AB000A604EC81FD8180819181892B19F08DE85C
:100AC00092E002C080E992E00E94B80480E292E0E5
:100AD0000E94A604EE81FF8180819181EA81FB81E1
:100AE000C29748F481E090E09183808384E992E0AA
:100AF0000E94B80402C011821082E885F9858081C5
:100B00009181E881F981C29750F481E090E091836E
:100B1000808380EA92E0DF91CF910C94B804118237
:100B20001082DF91CF9108950F931F93CF93DF939E
:100B300090E0BC0164507D4FFB01A491AC014A548C
:100B40005D4FFA012491222399F030E0220F331FE8
:100B5000F901E456FD4FC591D4912E573D4FF9014F
:100B6000059114912FB7F8943881A32BA8832FBF38
:100B70009C012E5B3C4FF901849190E0FC01319780
:100B8000E231F10508F0B9C08827EE58FF4F8F4FCA
:100B90000C94320F84B5806884BD8DE087BD1DC183
:100BA00084B5806284BD8DE088BD17C180918000CE
:100BB0008068809380008DE090E09093890080931E
:100BC00088000BC1809180008062809380008DE05E
:100BD00090E090938B0080938A00FFC0809180000A
:100BE0008860809380008DE090E090938D008093EA
:100BF0008C00F3C08091B00080688093B0008DE0DD
:100C00008093B300EAC08091B00080628093B0000E
:100C10008DE08093B400E1C0809190008068809363
:100C200090008DE090E09093990080939800D5C05B
:100C3000809190008062809390008DE090E090938E
:100C40009B0080939A00C9C0809190008860809337
:100C500090008DE090E090939D0080939C00BDC03B
:100C60008091A00080688093A0008091A0008F7B7D
:100C70008093A0008DE090E09093A9008093A8005D
:100C8000ACC08091A00080628093A0008DE090E0D5
:100C90009093AB008093AA00A0C08091A0008860D0
:100CA0008093A0008DE090E09093AD008093AC0025
:100CB00094C0809120018068809320018DE090E0B5
:100CC000909329018093280188C08091200180623F
:100CD000809320018DE090E090932B0180932A0176
:100CE0007CC0809120018860809320018DE090E09D
:100CF00090932D0180932C0170C0F9018491FB0128
:100D00006491FA014491442309F467C0882309F4EB
:100D100055C090E0FC013197E231F10508F04EC07A
:100D20008827EC57FF4F8F4F0C94320F8091800033
:100D30008F7707C0809180008F7D03C080918000F5
:100D4000877F809380003AC084B58F7702C084B5D6
:100D50008F7D84BD33C08091B0008F7703C08091B8
:100D6000B0008F7D8093B00029C0809190008F7774
:100D700007C0809190008F7D03C080919000877F95
:100D8000809390001BC08091A0008F7707C0809156
:100D9000A0008F7D03C08091A000877F8093A0007A
:100DA0000DC0809120018F7707C0809120018F7D39
:100DB00003C080912001877F80932001E42FF0E021
:100DC000EE0FFF1FEE57FD4FA591B4918FB7F8942A
:100DD0009C91609569236C938FBFDF91CF911F9198
:100DE0000F910895CF93DF93FC0186819781892B22
:100DF00039F1C285D385888199818F3F910541F46E
:100E000019821882A081B18181E090E08D939C933A
:100E1000A281B38181E090E08D939C930480F58161
:100E2000E02D118210826881798180E090E00E943B
:100E30006C0C20E030E04CE451E40E94530B26C0DF
:100E4000A085B1858D919C91892B49F1C285D3856F
:100E5000688179816115710521F4A081B1811D92AC
:100E60001C92A281B3811D921C920480F581E02D19
:100E700081E090E09183808380E090E00E946C0CA0
:100E800020E030E04CE451E40E94520B0E943D0C03
:100E9000862F68837983DF91CF910C949405DF913D
:100EA000CF910895CF93DF93BC018091AC029091D4
:100EB000AD02DB011896ED91FC9119970097E1F0D6
:100EC0000197A9F58091C6029091C702009711F091
:100ED00080FD04C080819181029703C0808191814F
:100EE00001969183808380819181059700F510920E
:100EF000AD021092AC021BC08091C6029091C70255
:100F0000009711F080FD04C080819181029603C09A
:100F100080819181019791838083808191810B975A
:100F200030F081E090E09093AD028093AC02EB0151
:100F300028813981D9018D919C91AE81BF81019722
:100F4000B9F58D919C9111978036910554F0E90186
:100F500019821882EB018A859B85EC01198218821F
:100F600031C082339105C8F44091C6025091C70246
:100F7000EB018A859B85EC014115510511F040FD7F
:100F800005C0488159814E5F5F4F04C04881598137
:100F90004F5F5F4F5983488315C0C3978C9790F478
:100FA000EB014A855B85EA0188819981029608C038
:100FB0008D919C9111970B972CF481E090E0E901C1
:100FC00099838883E90188819981892B59F48081EB
:100FD00091819C01220F331F280F391F8D919C9105
:100FE00011970DC0EB018A859B85EC012881398121
:100FF0008D919C911197820F931F20813181821BCB
:10100000930B97FF03C01D921C9202C08D939C937B
:10101000DF91CF9108950E9467100895AF92BF921B
:10102000CF92DF92EF92FF920F931F93CF93DF93B4
:101030006B017C01C0E0D0E000E010E0CC15DD05E4
:1010400004F5F701A190B1907F01BE010D2E000CB7
:10105000880B990B0E946E0C9B01AC0160E070E064
:1010600080E090E40E948B0D0E94360CA69E9001B9
:10107000A79E300DB69E300D1124020F131F21962E
:10108000DDCFC801DF91CF911F910F91FF90EF90BD
:10109000DF90CF90BF90AF900895AF92BF92CF9264
:1010A000DF92EF92FF920F931F93CF93DF93CDB711
:1010B000DEB768970FB6F894DEBF0FBECDBF6C01E8
:1010C000DC01ED91FC91E080F18088EC90E00E94E1
:1010D0003A0F8C01FC01B0962FE030E0C701022EE0
:1010E00002C0959587950A94E2F7817099279293AB
:1010F00082932150310990F7F801E280F3808081DA
:101100009181E82AF92A84819581E82AF92A868141
:101110009781E82AF92A808591859A8B898B828527
:1011200093859C8B8B8B848595859E8B8D8B8685FB
:101130009785988F8F8B64E070E0CE0141960E9476
:101140000E085C01D80150968D919C9151979A831D
:10115000898352968D919C9153979C838B8354964F
:101160008D919C9155979E838D8356968D919C91E0
:10117000579798878F8358968D919C9159979A8706
:1011800089875A968D919C915B979C878B875C96FB
:101190008D919C915D979E878D875E968D919C9198
:1011A0005F97988B8F8768E070E0CE0101960E9470
:1011B0000E08EF28E1F0892BD1F0D6011296ED91BF
:1011C000FC911397208131811216130684F4BEE03E
:1011D000AB16B10411F0AB2851F0253031051CF4E9
:1011E0001182108204C02550310931832083689612
:1011F0000FB6F894DEBF0FBECDBFDF91CF911F9128
:101200000F91FF90EF90DF90CF90BF90AF90089537
:101210001F920F920FB60F9211242F933F938F932B
:101220009F93AF93BF938091CD029091CE02A091F6
:10123000CF02B091D0023091CC0223E0230F2D37A2
:1012400020F40196A11DB11D05C026E8230F0296CA
:10125000A11DB11D2093CC028093CD029093CE02AC
:10126000A093CF02B093D0028091C8029091C9029E
:10127000A091CA02B091CB020196A11DB11D80932D
:10128000C8029093C902A093CA02B093CB02BF9147
:10129000AF919F918F913F912F910F900FBE0F9023
:1012A0001F9018951F920F920FB60F9211240BB634
:1012B0000F922F933F934F935F936F937F938F93EF
:1012C0009F93AF93BF93EF93FF9381ED92E00E94C2
:1012D0006E02FF91EF91BF91AF919F918F917F919E
:1012E0006F915F914F913F912F910F900BBE0F9097
:1012F0000FBE0F901F9018951F920F920FB60F926E
:1013000011240BB60F922F938F939F93EF93FF931C
:10131000E091E102F091E2028081E091E702F09138
:10132000E80282FD12C090818091EA028F5F8F7384
:101330002091EB02821751F0E091EA02F0E0EF52C7
:10134000FD4F958F8093EA0201C08081FF91EF915C
:101350009F918F912F910F900BBE0F900FBE0F900A
:101360001F9018951092D4021092D30288EE93E049
:10137000A0E0B0E08093D5029093D602A093D7026C
:10138000B093D80282E192E09093D2028093D1028E
:1013900085EC90E09093DE028093DD0284EC90E097
:1013A0009093E0028093DF0280EC90E09093E20261
:1013B0008093E10281EC90E09093E4028093E30259
:1013C00082EC90E09093E6028093E50286EC90E058
:1013D0009093E8028093E7021092EA021092EB02E7
:1013E0001092EC021092ED0288E090E00E943A0F19
:1013F000909393038093920388E090E00E943A0FC9
:10140000909391038093900388E090E00E943A0FBC
:1014100090938F0380938E0388E090E00E943A0FB0
:1014200090938D0380938C0388E090E00E943A0FA4
:1014300090938B0380938A0388E090E00E943A0F98
:10144000909389038093880388E090E00E943A0F8C
:10145000909387038093860388E090E00E943A0F80
:10146000909385038093840388E090E00E943A0F74
:10147000909383038093820388E090E00E943A0F68
:10148000909381038093800380917B008860809398
:101490007B0085E480937C0080917A008064809357
:1014A0007A0080917A0086FDFCCF809178002091AF
:1014B000790090E0922B90937F0380937E038CE0E1
:1014C00090E00E943A0F90937D0380937C0384E028
:1014D00090E00E943A0F90937B0380937A0380E11F
:1014E00090E00E943A0F90937903809378038EE006
:1014F00090E00E943A0F90937703809376038AE0FE
:1015000090E00E943A0F909375038093740384E0F7
:1015100090E00E943A0F909373038093720384E0EB
:1015200090E00E943A0F90937103809370038CE0D7
:1015300090E00E943A0F90936F0380936E0308959A
:10154000789484B5826084BD84B5816084BD85B59E
:10155000826085BD85B5816085BD80916E008160AA
:1015600080936E0010928100809181008260809350
:101570008100809181008160809381008091800052
:101580008160809380008091B10084608093B1007D
:101590008091B00081608093B00080919100826062
:1015A000809391008091910081608093910080915F
:1015B00090008160809390008091A1008260809370
:1015C000A1008091A10081608093A1008091A00082
:1015D00081608093A000809121018260809321012D
:1015E000809121018160809321018091200181609F
:1015F0008093200180917A00846080937A008091AA
:101600007A00826080937A0080917A008160809372
:101610007A0080917A00806880937A001092C100ED
:101620000E94320304E012E089EAE82E82E0F82EFC
:10163000CC24C394D12C809106029091070201978B
:1016400031F40E94320310920702109206021F9397
:101650000F93FF92EF920E946C100F900F900F90DB
:101660000F90892B21F0D0920702C0920602C09100
:101670009203D0919303209749F0EA81FB818881FE
:10168000998119950C80DD81C02DF5CF8091C6021E
:101690009091C70201969093C7028093C6020E9460
:1016A000F802C9CF5058BB27AA270E946A0B0C9496
:1016B000E40C0E94D60C38F00E94DD0C20F039F4C6
:1016C0009F3F19F426F40C94D30C0EF4E095E7FB3D
:1016D0000C94CD0CE92F0E94F50C58F3BA17620751
:1016E00073078407950720F079F4A6F50C94170D7D
:1016F0000EF4E0950B2EBA2FA02D0B01B90190012D
:101700000C01CA01A0011124FF27591B99F0593F70
:1017100050F4503E68F11A16F040A22F232F342FB8
:101720004427585FF3CF469537952795A795F04006
:101730005395C9F77EF41F16BA0B620B730B840B1B
:10174000BAF09150A1F0FF0FBB1F661F771F881FD3
:10175000C2F70EC0BA0F621F731F841F48F487952B
:1017600077956795B795F7959E3F08F0B0CF93951D
:10177000880F08F09927EE0F9795879508950E9496
:10178000A90C08F481E008950E94D80B0C94E40C95
:101790000E94DD0C58F00E94D60C40F029F45F3F07
:1017A00029F00C94CD0C51110C94180D0C94D30C01
:1017B0000E94F50C68F39923B1F3552391F3951B1F
:1017C000550BBB27AA2762177307840738F09F5F62
:1017D0005F4F220F331F441FAA1FA9F335D00E2ECF
:1017E0003AF0E0E832D091505040E695001CCAF73C
:1017F0002BD0FE2F29D0660F771F881FBB1F2617FF
:1018000037074807AB07B0E809F0BB0B802DBF01D5
:10181000FF2793585F4F3AF09E3F510578F00C94A4
:10182000CD0C0C94180D5F3FE4F3983ED4F38695ED
:1018300077956795B795F7959F5FC9F7880F911DC5
:101840009695879597F90895E1E0660F771F881FB1
:10185000BB1F621773078407BA0720F0621B730B64
:10186000840BBA0BEE1F88F7E09508950E943D0C9B
:101870006894B1110C94180D08950E94FD0C88F025
:101880009F5798F0B92F9927B751B0F0E1F0660F44
:10189000771F881F991F1AF0BA95C9F714C0B13085
:1018A00091F00E94170DB1E008950C94170D672F69
:1018B000782F8827B85F39F0B93FCCF386957795B4
:1018C0006795B395D9F73EF490958095709561959D
:1018D0007F4F8F4F9F4F0895E89409C097FB3EF4C8
:1018E00090958095709561957F4F8F4F9F4F99236D
:1018F000A9F0F92F96E9BB279395F69587957795EB
:101900006795B795F111F8CFFAF4BB0F11F460FFAA
:101910001BC06F5F7F4F8F4F9F4F16C0882311F002
:1019200096E911C0772321F09EE8872F762F05C016
:10193000662371F096E8862F70E060E02AF09A95B1
:10194000660F771F881FDAF7880F9695879597F9A6
:101950000895990F0008550FAA0BE0E8FEEF161640
:101960001706E807F907C0F012161306E407F50793
:1019700098F0621B730B840B950B39F40A2661F007
:10198000232B242B252B21F408950A2609F4A140AA
:10199000A6958FEF811D811D089597F99F6780E8B7
:1019A00070E060E008959FEF80EC089500240A94B1
:1019B0001616170618060906089500240A9412162A
:1019C0001306140605060895092E0394000C11F45D
:1019D000882352F0BB0F40F4BF2B11F460FF04C00A
:1019E0006F5F7F4F8F4F9F4F089557FD9058440F63
:1019F000551F59F05F3F71F04795880F97FB991F6E
:101A000061F09F3F79F0879508951216130614062A
:101A1000551FF2CF4695F1DF08C0161617061806B7
:101A2000991FF1CF86957105610508940895E89492
:101A3000BB2766277727CB0197F908950E94310DC0
:101A40000C94E40C0E94D60C38F00E94DD0C20F0BF
:101A5000952311F00C94CD0C0C94D30C11240C9400
:101A6000180D0E94F50C70F3959FC1F3950F50E08F
:101A7000551F629FF001729FBB27F00DB11D639F40
:101A8000AA27F00DB11DAA1F649F6627B00DA11DE6
:101A9000661F829F2227B00DA11D621F739FB00D8C
:101AA000A11D621F839FA00D611D221F749F3327FC
:101AB000A00D611D231F849F600D211D822F762F95
:101AC0006A2F11249F5750409AF0F1F088234AF072
:101AD000EE0FFF1FBB1F661F771F881F91505040DE
:101AE000A9F79E3F510580F00C94CD0C0C94180D75
:101AF0005F3FE4F3983ED4F3869577956795B79565
:101B0000F795E7959F5FC1F7FE2B880F911D96957E
:101B1000879597F90895FA01EE0FFF1F309621057A
:101B20003105A1F16115710561F48038BFE39B07B0
:101B300049F168949038810561F08038BFEF9B07C8
:101B400041F099234AF5FF3FE1053105210519F1DF
:101B5000E8940894E795D901AA2329F4AB2FBE2F66
:101B6000F85FD0F310C0FF5F70F4A695E0F7F73987
:101B700050F019F0FF3A38F49F779F930DD00F90F3
:101B800007FC9058089546F00C94D30C60E070E088
:101B900080E89FE308954FE79F775F934F933F93CC
:101BA0002F930E94860E2F913F914F915F910E943B
:101BB0001E0D0C94E30D29F416F00C94CD0C0C942E
:101BC000170D0C94D30C0E94FD0CA8F39638A0F7C7
:101BD00007F80F92E8942BE33AEA48EB5FE70E949C
:101BE000340D0F920F920F924DB75EB70F920E9475
:101BF000CE0EECE2F1E00E94150E4F915F91EF9155
:101C0000FF91E595EE1FFF1F49F0FE57E06844275E
:101C1000EE0F441FFA95E1F74195550B0E94480ECF
:101C20000F9007FE0C943C0E0895DF93CF931F9303
:101C30000F93FF92EF92DF927B018C01689406C0B4
:101C4000DA2EEF010E94310DFE01E894A591259155
:101C5000359145915591A6F3EF010E946A0BFE0163
:101C60009701A801DA9469F7DF90EF90FF900F9148
:101C70001F91CF91DF9108959B01AC0160E070E06E
:101C800080E89FE30C94C40B0C94CD0C0C94020FD1
:101C90000E94FD0CD8F39923C9F3940F511DA3F3AF
:101CA0009150504094F059F0882332F0660F771F1E
:101CB000881F91505040C1F79E3F51052CF7880F67
:101CC000911D9695879597F908955F3FACF0983EE2
:101CD0009CF0BB27869577956795B79508F4B1601A
:101CE0009395C1F7BB0F58F711F460FFE8CF6F5F12
:101CF0007F4F8F4F9F4FE3CF0C94180D16F00C942D
:101D0000020F0C94D30C68940C94CD0C0E94FD0C23
:101D1000A8F39923C1F3AEF3DF93CF931F930F93EF
:101D2000FF92C92FDD2788232AF02197660F771F9E
:101D3000881FDAF720E030E040E85FEB9FE3883966
:101D400020F0803E38F021968F770E94530BE4E517
:101D5000F1E004C00E94530BE1E8F1E00E94150E8F
:101D60008B01BE01EC01FB2E6F5771097595771F32
:101D7000880B990B0E946E0C28E132E741E35FE388
:101D80000E94310DAF2D9801AE01FF900F911F9170
:101D9000CF91DF910E946A0B0C94E40CFA01DC01F4
:101DA000AA0FBB1F9B01AC01BF5728F42227332782
:101DB0004427507820C0B75190F4AB2F00244695AB
:101DC00037952795011CA395D2F3002071F0220FBF
:101DD000331F441FB395DAF30ED00C94520B6130CD
:101DE0007105A0E88A07B94630F49B01AC0166276B
:101DF000772788279078309621F02083318342839B
:101E0000538308959F3F31F0915020F48795779543
:101E10006795B795880F911D9695879597F90895C1
:101E2000A1E21A2EAA1BBB1BFD010DC0AA1FBB1FDE
:101E3000EE1FFF1FA217B307E407F50720F0A21B50
:101E4000B30BE40BF50B661F771F881F991F1A94BD
:101E500069F760957095809590959B01AC01BD01E7
:101E6000CF010895EE0FFF1F881F8BBF0790F691DB
:101E7000E02D1994CF93DF938230910510F482E026
:101E800090E0E0919603F091970320E030E0C0E00D
:101E9000D0E0309711F14081518148175907C0F0C7
:101EA0004817590761F482819381209719F09B8329
:101EB0008A832BC0909397038093960326C02115A5
:101EC000310519F04217530718F49A01BE01DF01DA
:101ED000EF010280F381E02DDCCF2115310509F1FE
:101EE000281B390B2430310590F412968D919C916A
:101EF00013976115710521F0FB019383828304C060
:101F00009093970380939603FD01329644C0FD01A0
:101F1000E20FF31F81939193225031092D933C934B
:101F20003AC02091940330919503232B41F42091E2
:101F30000A0230910B023093950320939403209171
:101F40000802309109022115310541F42DB73EB741
:101F500040910C0250910D02241B350BE09194032B
:101F6000F0919503E217F307A0F42E1B3F0B2817FF
:101F7000390778F0AC014E5F5F4F2417350748F002
:101F80004E0F5F1F50939503409394038193919359
:101F900002C0E0E0F0E0CF01DF91CF9108950F9310
:101FA0001F93CF93DF93009709F48CC0FC01329705
:101FB0001382128200919603109197030115110567
:101FC00081F420813181820F931F209194033091FD
:101FD00095032817390779F5F0939503E093940357
:101FE00071C0D80140E050E0AE17BF0750F4129620
:101FF0002D913C911397AD012115310509F1D901BE
:10200000F3CF9D01DA013383228360817181860FD2
:10201000971F8217930769F4EC0128813981260FF5
:10202000371F2E5F3F4F318320838A819B819383AB
:102030008283452B29F4F0939703E093960342C0E3
:102040001396FC93EE931297ED01499159919E01DD
:10205000240F351FE217F30771F480819181840FFB
:10206000951F029611969C938E938281938113966D
:102070009C938E931297E0E0F0E0D80112968D9138
:102080009C911397009719F0F8018C01F6CF8D9170
:102090009C9198012E5F3F4F820F931F20919403D4
:1020A000309195032817390769F4309729F4109275
:1020B00097031092960302C0138212821093950325
:1020C00000939403DF91CF911F910F91089581E0C8
:1020D00090E0F8940C94D013CF93DF93CDB7DEB794
:1020E000AE014A5F5F4FFA0161917191AF0180913A
:1020F0009803909199030E943412DF91CF91089533
:1021000020FD09C0FC0123FD05C022FF02C073832E
:10211000628351834083089544FD10C046FD10C082
:10212000DB01FC01AA0FBB1FEE1FFF1F1094D1F7AC
:102130006A0F7B1F8E1F9F1F31E003C033E001C079
:1021400034E0660F771F881F991F3150D1F7620F57
:10215000711D811D911D08950F931F93CF93DF93E0
:102160008C01C8010E947613EC0197FD08C00E9403
:102170006213892BB1F7B801CE010E94B413CE01CE
:10218000DF91CF911F910F9108958F929F92AF92FF
:10219000BF92CF92DF92EF92FF920F931F93CF9354
:1021A000DF931F92CDB7DEB78C01C62E7A0129834B
:1021B0000E947613AC01552729814B32510521F03D
:1021C0004D32510569F42068CA94C11002C080E004
:1021D00076C0C80129830E947613298197FDF7CF25
:1021E000322F3D7FD32E322F307349F5803339F5AE
:1021F000BB24BA94BC0C09F44EC0C80129830E94C8
:102200007613298197FD47C0382F3F7D383569F413
:102210008D2D8264D82ECA94CA94CC20E1F1C801D5
:102220000E94761397FF0BC036C026FF04C02D2DE9
:102230002260D22E03C03D2D3261D32ECB2C812CB7
:10224000912C540120ED280F283080F0D4FE04C0DA
:10225000B8010E94B4131CC02A3040F0D6FEF8CF5B
:102260002F7D3FEE320F363098F727504D2DC501A8
:10227000B4010E948C104B015C018D2D8260D82E20
:10228000CA94CC2059F0C8010E94761397FFDACF88
:10229000D1FC04C09CCF812C912C5401D7FE08C0E6
:1022A000B094A09490948094811C911CA11CB11CAA
:1022B0002D2DB501A401C7010E94801081E00F906F
:1022C000DF91CF911F910F91FF90EF90DF90CF9012
:1022D000BF90AF909F908F9008956F927F928F9252
:1022E0009F92AF92BF92CF92DF92EF92FF920F93A5
:1022F0001F93CF93DF93CDB7DEB7A1970FB6F894B6
:10230000DEBF0FBECDBF5C017A01CE0101966C012C
:1023100080E2F60111928A95E9F7F501838040E0A9
:1023200050E0912C712C70E0A1E0B0E0F90183FC49
:10233000859183FE81918F01982F9F01811103C0A8
:1023400080E090E07CC08E3519F44115510549F1CB
:10235000E72FF0E0E417F5073CF48D3559F18D32A5
:1023600019F4772001F103C0711001C0982E892F54
:102370008695869586958601080F111D892F877091
:102380003D0101C0660C8A95EAF7F8018081862933
:102390008083991559F0991510F49F5FE8CF9150FB
:1023A000E6CF71E004C07724739401C0712C4F5FB5
:1023B0005F4FBCCF772019F08E8180628E837111C0
:1023C00003C09924939416C0F6019E012F5D3F4FE0
:1023D000808180958193E217F307D1F7F2CFE11462
:1023E000F10429F0F7018083C70101967C01615057
:1023F000912CF9F0C50169A30E94761369A197FD9C
:1024000016C0282F269526952695F601E20FF11D78
:10241000208130E0AC014770552702C035952795E3
:102420004A95E2F720FDDBCFB5010E94B41391106D
:1024300087CFE114F10411F0F7011082C801A196D1
:102440000FB6F894DEBF0FBECDBFDF91CF911F91C5
:102450000F91FF90EF90DF90CF90BF90AF909F9043
:102460008F907F906F9008954F925F927F928F929E
:102470009F92AF92BF92CF92DF92EF92FF920F9313
:102480001F93CF93DF931F92CDB7DEB76C012B0163
:102490005A01FC0117821682712CF601F380F201B9
:1024A000F3FC8591F3FE8191382F2F01882309F4E5
:1024B000F3C090E039830E9462133981892B21F0A7
:1024C000C6010E94AC10E9CF353241F4F201F3FCB1
:1024D0003591F3FE31912F01353269F4C60139830C
:1024E0000E947613398197FDD5C03817B1F2B60135
:1024F0000E94B413D1C03A3239F4F3FC3591F3FEA3
:1025000031912F0151E001C050E0420110E020ED77
:10251000230F2A3090F45260612F70E080E090E049
:1025200040E259830E948C10162FF401F3FC359180
:10253000F3FE31914F015981EACF052F232F24015A
:1025400051FF03C0111102C0A7C01FEF383619F0A8
:102550003C3659F011C0F401F3FC2591F3FE2191B2
:102560002F01283649F4052F08600460F201F3FCBE
:102570002591F3FE21912F01222309F48DC0622FB2
:1025800070E086E792E029830E946B132981892BF2
:1025900009F482C000FD07C0F501E080F180C501AB
:1025A00002965C0102C0E12CF12C2E3651F4F601AA
:1025B0004681578160E070E0202FC7010E948010A3
:1025C0006CCF233691F401FF11E0C6010E9476130F
:1025D00097FD60C0E114F10429F0F7018083C70181
:1025E00001967C01115089F751C02B3559F49201A5
:1025F000A701612FC6010E946D112C01892B09F0E2
:1026000045C03FC0C60129830E94AC10298197FDB7
:1026100041C02F3659F128F4243631F1293649F1D9
:1026200027C0233769F02537F9F022C0E114F104FF
:1026300029F0F7018082C70101967C01115071F0E9
:10264000C6010E9476134C0197FD08C00E946213D8
:10265000892B61F3B601C4010E94B413E114F104A3
:10266000A9F0F701108212C0006203C0006101C02E
:102670000064202FA701612FC6010E94C51081119F
:1026800005C0F6018381807329F406C000FD05CFE3
:10269000739403CF772019F0872D90E002C08FEF5D
:1026A0009FEF0F90DF91CF911F910F91FF90EF90CF
:1026B000DF90CF90BF90AF909F908F907F905F9072
:1026C0004F90089591110C94CD13803219F08950D8
:1026D0008550C8F70895FC010590061621F00020EA
:1026E000D9F7C00108953197CF010895CF93DF93B3
:1026F000EC012B8120FF33C026FF0AC02F7B2B83E8
:102700008E819F8101969F838E838A8190E029C06C
:1027100022FF0FC0E881F9818081082E000C990BFF
:10272000009719F420622B831AC03196F983E8834D
:102730000EC0EA85FB85199597FF09C02B8101968C
:1027400011F080E201C080E1822B8B8308C02E81D2
:102750003F812F5F3F4F3F832E83992702C08FEF2A
:102760009FEFDF91CF910895FB01238120FF12C0DD
:1027700026FD10C08F3F3FEF930761F082832F7DCE
:1027800020642383268137812150310937832683B2
:10279000992708958FEF9FEF089599278827089527
:0427A000F894FFCFDB
:1027A400010064000100010000009E03800000009D
:1027B40000008F02F8012702D602580236024A02AC
:1027C4000D0A0042004C00520044004800424154AB
:1027D40054455259204C4556454C3A20090900307D
:1027E4000A004655454C204C4556454C3A200909AB
:1027F40000504F57455220434F4E53554D50544966
:102804004F4E3A200900504F5745522047454E45F8
:10281400524154494F4E3A200900434841524749D6
:102824004E47205354415455533A2009004F4E000B
:102834004F46460042415454455259204C4F57008C
:0C2844004675656C204C4F570025640061
:00000001FF
