:100000000C9476000C949E000C949E000C949E0020
:100010000C949E000C949E000C949E000C949E00E8
:100020000C949E000C949E000C949E000C949E00D8
:100030000C949E000C949E000C949E000C949E00C8
:100040000C9489040C949E000C94F9040C94D30431
:100050000C949E000C949E000C949E000C949E00A8
:100060000C949E000C949E0007634236B79BD8A761
:100070001A39685618AEBAAB558C1D3CB7CC5763CD
:10008000BD6DEDFD753EF6177231BF000000803F7B
:1000900008000000BE922449123EABAAAA2ABECD97
:1000A000CCCC4C3E00000080BEABAAAAAA3E000009
:1000B0000000BF000000803F000000000008417801
:1000C000D3BB4387D1133D190E3CC3BD4282AD2B38
:1000D0003E68EC8276BED98FE1A93E4C80EFFFBE30
:1000E00001C4FF7F3F00000000002B0511241FBE4C
:1000F000CFEFD8E0DEBFCDBF11E0A0E0B1E0ECE390
:10010000F9E102C005900D92AC39B107D9F722E0B0
:10011000ACE9B1E001C01D92A638B207E1F710E0EA
:10012000C6E7D0E004C02197FE010E94640BC537EA
:10013000D107C9F70E9414060C949C0C0C94000083
:10014000CF92DF92EF92FF920F931F93CF93DF93A3
:100150006C017A018B01C0E0D0E0CE15DF0589F09B
:10016000D8016D918D01D601ED91FC910190F08146
:10017000E02DC6010995892B11F47E0102C021965C
:10018000ECCFC701DF91CF911F910F91FF90EF90BE
:10019000DF90CF90089508950895089508950895E3
:1001A00080E090E00895FC01538D448D252F30E0D0
:1001B000842F90E0821B930B541710F0CF96089574
:1001C00001970895FC01918D828D981761F0828DC1
:1001D000DF01A80FB11D5D968C91928D9F5F9F737B
:1001E000928F90E008958FEF9FEF0895FC01918D1D
:1001F000828D981731F0828DE80FF11D858D90E08A
:1002000008958FEF9FEF0895FC01918D228D892F26
:1002100090E0805C9F4F821B91098F73992708950E
:100220008FEB91E00E94040121E0892B09F420E08A
:10023000822F0895FC01848DDF01A80FB11DA35A00
:10024000BF4F2C91848D90E001968F739927848FF6
:10025000A689B7892C93A089B1898C9180648C93ED
:10026000938D848D981306C00288F389E02D8081D8
:100270008F7D80830895EF92FF920F931F93CF930A
:10028000DF93EC0181E0888F9B8D8C8D981305C0E6
:10029000E889F989808185FD24C0F62E0B8D10E058
:1002A0000F5F1F4F0F731127E02E8C8DE8120CC0CB
:1002B0000FB607FCFACFE889F989808185FFF5CF71
:1002C000CE010E941A01F1CF8B8DFE01E80FF11DC6
:1002D000E35AFF4FF0820B8FEA89FB8980818062AD
:1002E00007C0EE89FF896083E889F989808180648D
:1002F000808381E090E0DF91CF911F910F91FF907B
:10030000EF900895CF93DF93EC01888D8823C9F097
:10031000EA89FB89808185FD05C0A889B9898C910E
:1003200086FD0FC00FB607FCF5CF808185FFF2CFA9
:10033000A889B9898C9185FFEDCFCE010E941A0161
:10034000E7CFDF91CF91089580E090E0892B29F0ED
:100350000E94100181110C9400000895CF92DF9249
:10036000EF92FF92CF93DF93FC01C685D785209152
:1003700000013091010187EB9AE0289FB001299F8D
:10038000700D389F700D11246D5D784E70930101D2
:1003900060930001072E000C880B990B0E94A008A7
:1003A0006B017C0120E030E0A9010E94F10787FF8A
:1003B0000AC02AE635ED4CE45DE4C701B6010E94AF
:1003C00085076B017C012AE635ED4CE45DE4C7014D
:1003D000B6010E94F60720E030E048EA51E40E94AE
:1003E00050090E9468086A50710979836883DF9117
:1003F000CF91FF90EF90DF90CF900895009769F034
:10040000FC0101900020E9F73197AF01481B590B1F
:10041000BC018FEB91E00C94A00080E090E0089587
:10042000CF93DF930E94FE01EC018CE191E00E94EA
:10043000FE018C0F9D1FDF91CF910895CF92DF9227
:10044000EF92FF920F931F93CF93DF93CDB7DEB759
:10045000A1970FB6F894DEBF0FBECDBF9C0140E060
:1004600050E019A28E010F5D1F4F8AE0C82ED12CDB
:10047000E12CF12CCA01B901A70196010E94420B9F
:10048000605DF80162938F01211531054105510529
:1004900089F7CF010E94FE018C018CE191E00E945E
:1004A000FE01800F911FA1960FB6F894DEBF0FBE1C
:1004B000CDBFDF91CF911F910F91FF90EF90DF9013
:1004C000CF900895CF93DF93EC018FE191E00E94EC
:1004D000FE01EE81FF81808191818536910528F0B2
:1004E00081E391E00E94100202C00E941E0284E398
:1004F00091E00E94FE01E885F985808191810E944A
:100500001E0283E491E00E94FE01EA85FB85808162
:1005100091810E941E0288E591E00E94FE01EC8517
:10052000FD85808191810E941E028CE691E00E94EF
:10053000FE01EC81FD8180819181892B19F08FE78B
:1005400091E002C082E891E00E9410028CE191E00B
:100550000E94FE01EE81FF8180819181EA81FB8111
:10056000C29748F481E090E09183808386E891E02F
:100570000E94100202C011821082E885F9858081F4
:100580009181E881F981C29750F481E090E09183F4
:10059000808382E991E0DF91CF910C941002118267
:1005A0001082DF91CF910895CF93DF93BC018091AA
:1005B0009C0190919D01DB011896ED91FC9119979A
:1005C0000097E1F00197A9F58091B4019091B501F0
:1005D000009711F080FD04C080819181029703C0D3
:1005E000808191810196918380838081918105979B
:1005F00000F510929D0110929C011BC08091B401E6
:100600009091B501009711F080FD04C08081918127
:10061000029603C0808191810197918380838081BC
:1006200091810B9730F081E090E090939D01809351
:100630009C01EB0128813981D9018D919C91AE817A
:10064000BF810197B9F58D919C91119780369105E5
:1006500054F0E90119821882EB018A859B85EC012F
:100660001982188231C082339105C8F44091B401D7
:100670005091B501EB018A859B85EC01411551052F
:1006800011F040FD05C0488159814E5F5F4F04C0A5
:10069000488159814F5F5F4F5983488315C0C39785
:1006A0008C9790F4EB014A855B85EA0188819981FA
:1006B000029608C08D919C9111970B972CF481E0C4
:1006C00090E0E90199838883E90188819981892BE8
:1006D00059F4808191819C01220F331F280F391F0B
:1006E0008D919C9111970DC0EB018A859B85EC0142
:1006F000288139818D919C911197820F931F2081C0
:100700003181821B930B97FF03C01D921C9202C084
:100710008D939C93DF91CF9108950E94970CAF9297
:10072000BF92CF92DF92EF92FF920F931F93CF93DE
:10073000DF936B017C01C0E0D0E000E010E0CC155D
:10074000DD0504F5F701A190B1907F01BE010D2EEA
:10075000000C880B990B0E94A0089B01AC0160E083
:1007600070E080E090E40E94BD090E946808A69EA7
:100770009001A79E300DB69E300D1124020F131F5D
:100780002196DDCFC801DF91CF911F910F91FF908E
:10079000EF90DF90CF90BF90AF900895AF92BF924F
:1007A000CF92DF92EF92FF920F931F93CF93DF933D
:1007B000CDB7DEB768970FB6F894DEBF0FBECDBFDA
:1007C0006C01DC01ED91FC91E080F18088EC90E01F
:1007D0000E946A0B8C01FC01B0962FE030E0C7014B
:1007E000022E02C0959587950A94E2F781709927A9
:1007F000929382932150310990F7F801E280F380BF
:1008000080819181E82AF92A84819581E82AF92A50
:1008100086819781E82AF92A808591859A8B898B30
:10082000828593859C8B8B8B848595859E8B8D8B08
:1008300086859785988F8F8B64E070E0CE01419616
:100840000E948F035C01D80150968D919C91519725
:100850009A83898352968D919C9153979C838B8325
:1008600054968D919C9155979E838D8356968D912C
:100870009C91579798878F8358968D919C91599703
:100880009A8789875A968D919C915B979C878B87D5
:100890005C968D919C915D979E878D875E968D91DC
:1008A0009C915F97988B8F8768E070E0CE010196EE
:1008B0000E948F03EF28E1F0892BD1F0D601129628
:1008C000ED91FC911397208131811216130684F467
:1008D000BEE0AB16B10411F0AB2851F02530310564
:1008E0001CF41182108204C0255031093183208309
:1008F00068960FB6F894DEBF0FBECDBFDF91CF91E3
:100900001F910F91FF90EF90DF90CF90BF90AF902D
:1009100008951F920F920FB60F9211242F933F93B9
:100920008F939F93AF93BF938091BB019091BC0134
:10093000A091BD01B091BE013091BA0123E0230F17
:100940002D3720F40196A11DB11D05C026E8230F07
:100950000296A11DB11D2093BA018093BB01909313
:10096000BC01A093BD01B093BE018091B6019091EE
:10097000B701A091B801B091B9010196A11DB11DB7
:100980008093B6019093B701A093B801B093B901D9
:10099000BF91AF919F918F913F912F910F900FBE7B
:1009A0000F901F9018951F920F920FB60F9211245F
:1009B0002F933F934F935F936F937F938F939F9367
:1009C000AF93BF93EF93FF938FEB91E00E941A01D7
:1009D000FF91EF91BF91AF919F918F917F916F9117
:1009E0005F914F913F912F910F900FBE0F901F90ED
:1009F00018951F920F920FB60F9211242F938F9379
:100A00009F93EF93FF93E091CF01F091D00180810C
:100A1000E091D501F091D60182FD12C090818091C4
:100A2000D8018F5F8F732091D901821751F0E09127
:100A3000D801F0E0E154FE4F958F8093D80101C0BA
:100A40008081FF91EF919F918F912F910F900FBE19
:100A50000F901F9018951092C2011092C10188EE5C
:100A600093E0A0E0B0E08093C3019093C401A09311
:100A7000C501B093C6018EE091E09093C0018093D0
:100A8000BF0185EC90E09093CC018093CB0184EC86
:100A900090E09093CE018093CD0180EC90E0909314
:100AA000D0018093CF0181EC90E09093D2018093AC
:100AB000D10182EC90E09093D4018093D30186EC35
:100AC00090E09093D6018093D5011092D8011092B6
:100AD000D9011092DA011092DB0188E090E00E94C7
:100AE0006A0B909381028093800288E090E00E94DC
:100AF0006A0B90937F0280937E0285E480937C0052
:100B000080917A00806480937A0080917A0086FDDB
:100B1000FCCF809178002091790090E0922B909307
:100B20007D0280937C028CE090E00E946A0B90939F
:100B30007B0280937A0284E090E00E946A0B90939B
:100B400079028093780280E190E00E946A0B909392
:100B50007702809376028EE090E00E946A0B909379
:100B60007502809374028AE090E00E946A0B909371
:100B700073028093720284E090E00E946A0B90936B
:100B800071028093700284E090E00E946A0B90935F
:100B90006F0280936E028AE090E00E946A0B90934D
:100BA0006D0280936C0288E090E00E946A0B909343
:100BB0006B0280936A0288E090E00E946A0B909337
:100BC00069028093680288E090E00E946A0B90932B
:100BD00067028093660288E090E00E946A0B90931F
:100BE00065028093640288E090E00E946A0B909313
:100BF00063028093620288E090E00E946A0B909307
:100C000061028093600288E090E00E946A0B9093FA
:100C10005F0280935E0288E090E00E946A0B9093EE
:100C20005D0280935C020895789484B5826084BDEF
:100C300084B5816084BD85B5826085BD85B58160E0
:100C400085BD80916E00816080936E00109281005E
:100C50008091810082608093810080918100816019
:100C600080938100809180008160809380008091DA
:100C7000B10084608093B1008091B0008160809366
:100C8000B00080917A00846080937A0080917A002D
:100C9000826080937A0080917A00816080937A00EC
:100CA00080917A00806880937A001092C100E09170
:100CB000CF01F091D00182E08083E091CB01F091EF
:100CC000CC011082E091CD01F091CE018FEC8083B8
:100CD0001092D701E091D301F091D40186E0808396
:100CE000E091D101F091D201808180618083E09117
:100CF000D101F091D201808188608083E091D1019F
:100D0000F091D201808180688083E091D101F091DF
:100D1000D20180818F7D8083E0917A02F0917B0205
:100D200082EB91E0918380834CE752E057834683C6
:100D300000EB11E011870087CEEAD1E0D387C287AC
:100D4000E0916A02F0916B022AE732E0318320835E
:100D500024ED32E033832283E0917802F09179022E
:100D60002CEAE22E21E0F22EF182E08222E031E054
:100D700033832283E0916802F091690268E772E0B0
:100D8000718360836EEC73E073836283E09176021B
:100D9000F0917702AAEAB1E0B183A08368EA71E03A
:100DA0007383628395838483578346833187208747
:100DB00013870287D587C487F786E686E0916602A7
:100DC000F09167020F2EF6E7EF2EF2E0FF2EF02DE6
:100DD000F182E0820F2EFEEAEF2EF1E0FF2EF02DE1
:100DE000F382E282E0917402F0917502B183A083F4
:100DF00073836283958384835783468331872087F7
:100E000013870287D587C487E0916402F091650259
:100E1000C4E7D2E0D183C083C2E6D2E0D383C283E9
:100E2000E0917202F0917302B183A08373836283B5
:100E3000958384835783468331872087E0916202BC
:100E4000F091630222E732E0318320832BEC30E023
:100E500033832283E0917002F091710227EA31E03E
:100E60003183208326EA31E033832283E0915E02DE
:100E7000F0915F0220E732E0318320832CEC30E0F8
:100E800033832283E0916E02F0916F0224EA31E015
:100E90003383228342EA51E051834083E0915C0234
:100EA000F0915D026EE672E0718360836DEC70E03C
:100EB00073836283E0916C02F0916D029183808371
:100EC00080EA91E0938382838EE991E09583848325
:100ED0005783468331872087E0916002F091610259
:100EE0008CE692E0918380838EEC90E09383828302
:100EF0008091B4019091B50101969093B5018093D2
:100F0000B4010E94A401F4CF5058BB27AA270E9425
:100F10009C070C9416090E94080938F00E940F09DA
:100F200020F039F49F3F19F426F40C9405090EF4CF
:100F3000E095E7FB0C94FF08E92F0E94270958F37E
:100F4000BA17620773078407950720F079F4A6F5AE
:100F50000C9449090EF4E0950B2EBA2FA02D0B012D
:100F6000B90190010C01CA01A0011124FF27591BEE
:100F700099F0593F50F4503E68F11A16F040A22FF4
:100F8000232F342F4427585FF3CF46953795279565
:100F9000A795F0405395C9F77EF41F16BA0B620B64
:100FA000730B840BBAF09150A1F0FF0FBB1F661FAB
:100FB000771F881FC2F70EC0BA0F621F731F841FEE
:100FC00048F4879577956795B795F7959E3F08F014
:100FD000B0CF9395880F08F09927EE0F97958795D6
:100FE00008950E94DB0808F481E008950E940A0831
:100FF0000C9416090E940F0958F00E94080940F04D
:1010000029F45F3F29F00C94FF0851110C944A0910
:101010000C9405090E94270968F39923B1F355231D
:1010200091F3951B550BBB27AA27621773078407FB
:1010300038F09F5F5F4F220F331F441FAA1FA9F391
:1010400035D00E2E3AF0E0E832D091505040E6957F
:10105000001CCAF72BD0FE2F29D0660F771F881FE0
:10106000BB1F261737074807AB07B0E809F0BB0BD3
:10107000802DBF01FF2793585F4F3AF09E3F5105E7
:1010800078F00C94FF080C944A095F3FE4F3983E13
:10109000D4F3869577956795B795F7959F5FC9F7D0
:1010A000880F911D9695879597F90895E1E0660F51
:1010B000771F881FBB1F621773078407BA0720F0CA
:1010C000621B730B840BBA0BEE1F88F7E095089533
:1010D0000E946F086894B1110C944A0908950E9407
:1010E0002F0988F09F5798F0B92F9927B751B0F082
:1010F000E1F0660F771F881F991F1AF0BA95C9F79C
:1011000014C0B13091F00E944909B1E008950C94E7
:101110004909672F782F8827B85F39F0B93FCCF39A
:10112000869577956795B395D9F73EF49095809518
:10113000709561957F4F8F4F9F4F0895E89409C038
:1011400097FB3EF490958095709561957F4F8F4FFA
:101150009F4F9923A9F0F92F96E9BB279395F69510
:10116000879577956795B795F111F8CFFAF4BB0F8E
:1011700011F460FF1BC06F5F7F4F8F4F9F4F16C0F2
:10118000882311F096E911C0772321F09EE8872F7C
:10119000762F05C0662371F096E8862F70E060E038
:1011A0002AF09A95660F771F881FDAF7880F9695B1
:1011B000879597F90895990F0008550FAA0BE0E855
:1011C000FEEF16161706E807F907C0F01216130609
:1011D000E407F50798F0621B730B840B950B39F449
:1011E0000A2661F0232B242B252B21F408950A26AF
:1011F00009F4A140A6958FEF811D811D089597F9EF
:101200009F6780E870E060E008959FEF80EC0895AC
:1012100000240A94161617061806090608950024D5
:101220000A9412161306140605060895092E03944F
:10123000000C11F4882352F0BB0F40F4BF2B11F4C3
:1012400060FF04C06F5F7F4F8F4F9F4F089557FD22
:101250009058440F551F59F05F3F71F04795880F24
:1012600097FB991F61F09F3F79F0879508951216BB
:1012700013061406551FF2CF4695F1DF08C0161667
:1012800017061806991FF1CF869571056105089418
:101290000895E894BB2766277727CB0197F908952F
:1012A0000E9463090C9416090E94080938F00E94F4
:1012B0000F0920F0952311F00C94FF080C940509F8
:1012C00011240C944A090E94270970F3959FC1F3D9
:1012D000950F50E0551F629FF001729FBB27F00DE4
:1012E000B11D639FAA27F00DB11DAA1F649F662739
:1012F000B00DA11D661F829F2227B00DA11D621F88
:10130000739FB00DA11D621F839FA00D611D221F41
:10131000749F3327A00D611D231F849F600D211D25
:10132000822F762F6A2F11249F5750409AF0F1F0A8
:1013300088234AF0EE0FFF1FBB1F661F771F881F11
:1013400091505040A9F79E3F510580F00C94FF0842
:101350000C944A095F3FE4F3983ED4F38695779561
:101360006795B795F795E7959F5FC1F7FE2B880FB7
:10137000911D9695879597F90895FA01EE0FFF1F35
:10138000309621053105A1F16115710561F48038B0
:10139000BFE39B0749F168949038810561F080387C
:1013A000BFEF9B0741F099234AF5FF3FE105310567
:1013B000210519F1E8940894E795D901AA2329F4A5
:1013C000AB2FBE2FF85FD0F310C0FF5F70F4A6956F
:1013D000E0F7F73950F019F0FF3A38F49F779F9310
:1013E0000DD00F9007FC9058089546F00C94050915
:1013F00060E070E080E89FE308954FE79F775F9398
:101400004F933F932F930E94B80A2F913F914F9192
:101410005F910E9450090C94150A29F416F00C945F
:10142000FF080C9449090C9405090E942F09A8F3A0
:101430009638A0F707F80F92E8942BE33AEA48EBC6
:101440005FE70E9466090F920F920F924DB75EB749
:101450000F920E94000BE8E6F0E00E94470A4F91CD
:101460005F91EF91FF91E595EE1FFF1F49F0FE5749
:10147000E0684427EE0F441FFA95E1F74195550BBC
:101480000E947A0A0F9007FE0C946E0A0895DF936B
:10149000CF931F930F93FF92EF92DF927B018C010A
:1014A000689406C0DA2EEF010E946309FE01E894F9
:1014B000A5912591359145915591A6F3EF010E9493
:1014C0009C07FE019701A801DA9469F7DF90EF907D
:1014D000FF900F911F91CF91DF9108959B01AC0177
:1014E00060E070E080E89FE30C94F6070C94FF083E
:1014F0000C94340B0E942F09D8F39923C9F3940F4D
:10150000511DA3F39150504094F059F0882332F0CC
:10151000660F771F881F91505040C1F79E3F5105BD
:101520002CF7880F911D9695879597F908955F3F41
:10153000ACF0983E9CF0BB27869577956795B7955C
:1015400008F4B1609395C1F7BB0F58F711F460FF31
:10155000E8CF6F5F7F4F8F4F9F4FE3CF0C944A09C7
:1015600016F00C94340B0C94050968940C94FF0845
:101570000E942F09A8F39923C1F3AEF3DF93CF9311
:101580001F930F93FF92C92FDD2788232AF02197FD
:10159000660F771F881FDAF720E030E040E85FEB46
:1015A0009FE3883920F0803E38F021968F770E94A3
:1015B0008507E0E9F0E004C00E948507EDEBF0E06C
:1015C0000E94470A8B01BE01EC01FB2E6F57710987
:1015D0007595771F880B990B0E94A00828E132E7C8
:1015E00041E35FE30E946309AF2D9801AE01FF90D4
:1015F0000F911F91CF91DF910E949C070C941609C7
:10160000FA01DC01AA0FBB1F9B01AC01BF5728F4F4
:10161000222733274427507820C0B75190F4AB2FAE
:101620000024469537952795011CA395D2F30020F9
:1016300071F0220F331F441FB395DAF30ED00C94D0
:10164000840761307105A0E88A07B94630F49B0130
:10165000AC016627772788279078309621F0208381
:1016600031834283538308959F3F31F0915020F49A
:10167000879577956795B795880F911D969587956E
:1016800097F90895A1E21A2EAA1BBB1BFD010DC0FC
:10169000AA1FBB1FEE1FFF1FA217B307E407F50722
:1016A00020F0A21BB30BE40BF50B661F771F881FFE
:1016B000991F1A9469F760957095809590959B0194
:1016C000AC01BD01CF010895EE0FFF1F0590F4910D
:1016D000E02D0994CF93DF938230910510F482E0DE
:1016E00090E0E0918402F091850220E030E0C0E0DB
:1016F000D0E0309711F14081518148175907C0F06F
:101700004817590761F482819381209719F09B83D0
:101710008A832BC0909385028093840226C0211572
:10172000310519F04217530718F49A01BE01DF0181
:10173000EF010280F381E02DDCCF2115310509F1A5
:10174000281B390B2430310590F412968D919C9111
:1017500013976115710521F0FB019383828304C007
:101760009093850280938402FD01329644C0FD016E
:10177000E20FF31F81939193225031092D933C93F3
:101780003AC02091820230918302232B41F42091B0
:101790000601309107013093830220938202209149
:1017A0000401309105012115310541F42DB73EB7F3
:1017B0004091080150910901241B350BE0918202F0
:1017C000F0918302E217F307A0F42E1B3F0B2817BA
:1017D000390778F0AC014E5F5F4F2417350748F0AA
:1017E0004E0F5F1F50938302409382028193919327
:1017F00002C0E0E0F0E0CF01DF91CF9108950F93B8
:101800001F93CF93DF93009709F48CC0FC013297AC
:101810001382128200918402109185020115110534
:1018200081F420813181820F931F209182023091B7
:1018300083022817390779F5F0938302E093820237
:1018400071C0D80140E050E0AE17BF0750F41296C7
:101850002D913C911397AD012115310509F1D90165
:10186000F3CF9D01DA013383228360817181860F7A
:10187000971F8217930769F4EC0128813981260F9D
:10188000371F2E5F3F4F318320838A819B81938353
:101890008283452B29F4F0938502E093840242C0B1
:1018A0001396FC93EE931297ED01499159919E0185
:1018B000240F351FE217F30771F480819181840FA3
:1018C000951F029611969C938E9382819381139615
:1018D0009C938E931297E0E0F0E0D80112968D91E0
:1018E0009C911397009719F0F8018C01F6CF8D9118
:1018F0009C9198012E5F3F4F820F931F209182028F
:10190000309183022817390769F4309729F410922F
:1019100085021092840202C0138212821093830205
:1019200000938202DF91CF911F910F91089581E082
:0C19300090E0F8940C949C0CF894FFCF0D
:10193C0001006400000086028000000000003B01F2
:10194C00A000D30082010401E200F6000D0A00425F
:10195C00415454455259204C4556454C3A2009099E
:10196C0000300A004655454C204C4556454C3A2013
:10197C00090900504F57455220434F4E53554D5077
:10198C0054494F4E3A200900504F57455220474575
:10199C004E45524154494F4E3A200900434841525A
:1019AC0047494E47205354415455533A2009004F50
:1019BC004E004F46460042415454455259204C4F1C
:0C19CC0057004675656C204C4F5700001A
:00000001FF
