:100000000C9452060C9483060C9483060C9483067D
:100010000C9483060C9483060C9483060C9483063C
:100020000C9483060C9483060C9483060C9483062C
:100030000C9483060C9483060C9483060C9483061C
:100040000C9483060C9483060C9483060C9483060C
:100050000C9483060C9483060C9483060C947C37D2
:100060000C9483060C947F320C9455320C948306C6
:100070000C9483060C9483060C9483060C948306DC
:100080000C9483060C9483060C9483060C948306CC
:100090000C942B320C9401320C9483060C9483063E
:1000A0000C9483060C9483060C9483060C948306AC
:1000B0000C9483060C9483060C9483060C9483069C
:1000C0000C9483060C9483060C9483060C9483068C
:1000D0000C9483060C9483060C9483060C9483067C
:1000E0000C94830623292629152919291D295D2900
:1000F0002A292E29342938293C29422946294A29E6
:100100005D2950295429582907634236B79BD8A73F
:100110001A39685618AEBAAB558C1D3CB7CC57632C
:10012000BD6DEDFD753EF6177231BF000000803FDA
:1001300008000000BE922449123EABAAAA2ABECDF6
:10014000CCCC4C3E00000080BEABAAAAAA3E000068
:100150000000BF000000803F000000000008417860
:10016000D3BB4387D1133D190E3CC3BD4282AD2B97
:100170003E68EC8276BED98FE1A93E4C80EFFFBE8F
:1001800001C4FF7F3F00000000000C9434290C9450
:1001900038290C94BD2D0C9446290C942E290C94CE
:1001A00054290C94EF300C9447340C9461310C9426
:1001B000322D0C942A290C9426290C9433120C9479
:1001C000DB350C94882C0C9465360C942E1A0C9408
:1001D00086170C9423290C945D290C94392C0C94CB
:1001E00037190C9419290C9442290C94712A0C94F7
:1001F00020310C9466110C94702A0C94D3470C9403
:100200004A290C947B160C94CB160C9458290C9408
:1002100015290C94A8310C9412310C941D290C94BE
:1002200050290C9418130C94CB360C94902F0C94EA
:100230003C290C94990F0C9430370C94352D0C9468
:10024000FE300C94312D0C94FD150C9429112E893F
:10025000298F2B02E200E401E510E601E710E870C7
:10026000F200EA00EB20EC3CEDC8E938F1011B1A82
:100270001A022461255C183619011F88FF051F80AA
:10028000FF051F90FF051FD4FF0517053609283805
:10029000FF28283C02000300040005EF06000700C9
:1002A0000801093F0100B903FF8357FFFAB30400B7
:1002B000000606B60125B00168CC0105B10600159F
:1002C0001C1C83AAC0065050013C1E08B407024003
:1002D000002A2A0D783A01553601C0350100440242
:1002E00000021100FF962900FF32150030009A002D
:1002F000100011002000100028341200020013002A
:100300004610FF00280012001200FF002800100015
:10031000203413004630FF0046003000000031005A
:1003200002043200070333000403340004003500E4
:1003300001043600070737000503380010063900AE
:100340001006010000010200000303003010080045
:1003500008080A0008006000002761000100900002
:100360003E019200000193000001A0000030A300B4
:10037000100007000100070021000700230007000C
:1003800033000700330100000100FF0032000100CC
:100390000001020000070300301004000000080004
:1003A0000202090000000A0000000C0000000D001D
:1003B00000000F00000010000000110007001200F4
:1003C000000013000000FF00C8001000901611008C
:1003D0002702FF00320012001A00FF003200130053
:1003E000001829002A00FF00320030000000310010
:1003F0000000320000003500060236000808370011
:10040000070038000102390000003C0000003D00F8
:1004100000002000000021000000500000005100FA
:10042000EF005200000053003F01600000A7610090
:1004300003006A000000900010009200000093008A
:1004400003009500001197000000980000000700CD
:1004500033016D6174636865732074686520747519
:10046000746F7269616C2E00416C736F2069662035
:100470007573696E672074686520627265616B6F61
:1004800075742C20646F75626C652D636865636B91
:10049000207468617420616C6C20776972696E6782
:1004A000004966207573696E672074686520627202
:1004B00065616B6F757420626F6172642C20697462
:1004C0002073686F756C64204E4F54206265202342
:1004D000646566696E6564210073686F756C64207D
:1004E00061707065617220696E20746865206C6946
:1004F0006272617279206865616465722028456C5A
:1005000065676F6F5F5446542E68292E00202023A4
:10051000646566696E65205553455F456C65676F18
:100520006F5F534849454C445F50494E4F55540006
:100530004966207573696E672074686520456C652F
:10054000676F6F20322E3822205446542041726447
:1005500075696E6F20736869656C642C20746865BA
:10056000206C696E653A00556E6B6E6F776E204C2D
:1005700043442064726976657220636869703A202A
:1005800000466F756E6420307839333238204C4322
:10059000442064726976657200466F756E6420301F
:1005A0007839333431204C43442064726976657263
:1005B00000466F756E642048583833353744204CF8
:1005C00043442064726976657200466F756E6420DC
:1005D000494C4939333431204C43442064726976A4
:1005E000657200466F756E6420485838333437475B
:1005F000204C43442064726976657200466F756EC4
:1006000064204C47445034353335204C43442064F7
:10061000726976657200466F756E6420494C49397F
:10062000333238204C434420647269766572004648
:100630006F756E6420494C4939333235204C434440
:1006400020647269766572005573696E6720456C27
:1006500065676F6F20322E34222054465420427238
:1006600065616B6F757420426F6172642050696EB2
:100670006F757400544654204C4344207465737461
:1006800000000020002300260029002C002F00324B
:10069000000001000003010601090100000A0B022D
:1006A000090C0D0E08070304010000000000000003
:1006B000000000000000000000000000000000003A
:1006C00000000000000000121110000000000000F7
:1006D000000000000000000000000000000000001A
:1006E0000000000000003E5B4F5B3E3E6B4F6B3EE8
:1006F0001C3E7C3E1C183C7E3C181C577D571C1C25
:100700005E7F5E1C00183C1800FFE7C3E7FF00187F
:10071000241800FFE7DBE7FF30483A060E26297968
:100720002926407F050507407F05253F5A3CE73CC9
:100730005A7F3E1C1C08081C1C3E7F14227F22147A
:100740005F5F005F5F06097F017F006689956A60D1
:100750006060606094A2FFA29408047E04081020E8
:100760007E201008082A1C08081C2A08081E1010E1
:1007700010100C1E0C1E0C30383E3830060E3E0E8B
:1007800006000000000000005F00000007000700F6
:10079000147F147F14242A7F2A12231308646236DC
:1007A000495620500008070300001C224100004168
:1007B000221C002A1C7F1C2A08083E0808008070A2
:1007C00030000808080808000060600020100804D5
:1007D000023E5149453E00427F4000724949494628
:1007E0002141494D331814127F1027454545393CA6
:1007F0004A49493141211109073649494936464993
:1008000049291E00001400000040340000000814B4
:10081000224114141414140041221408020159092D
:10082000063E415D594E7C1211127C7F4949493682
:100830003E414141227F4141413E7F494949417FFB
:10084000090909013E414151737F0808087F0041B1
:100850007F41002040413F017F081422417F4040FA
:1008600040407F021C027F7F0408107F3E414141CF
:100870003E7F090909063E4151215E7F091929463B
:10088000264949493203017F01033F4040403F1F51
:100890002040201F3F4038403F6314081463030486
:1008A0007804036159494D43007F414141020408E6
:1008B0001020004141417F040201020440404040B9
:1008C00040000307080020545478407F28444438EF
:1008D0003844444428384444287F38545454180039
:1008E000087E090218A4A49C787F080404780044B8
:1008F0007D40002040403D007F1028440000417FA3
:1009000040007C047804787C08040478384444442B
:1009100038FC1824241818242418FC7C0804040823
:10092000485454542404043F44243C4040207C1C3C
:100930002040201C3C4030403C44281028444C902F
:1009400090907C4464544C44000836410000007789
:100950000000004136080002010204023C26232662
:100960003C1EA1A161123A4040207A385454555996
:1009700021555579412254547842215554784020CC
:10098000545579400C1E52721239555555593954E7
:1009900054545939555454580000457C410002457F
:1009A0007D420001457C407D1211127DF0282528F2
:1009B000F07C545545002054547C547C0A097F49EE
:1009C00032494949323A4444443A324A4848303A32
:1009D0004141217A3A42402078009DA0A07D3D42CD
:1009E00042423D3D4040403D3C24FF2424487E4956
:1009F00043662B2FFC2F2BFF0929F620C0887E0988
:100A00000320545479410000447D413048484A3223
:100A1000384040227A007A0A0A727D0D19317D260B
:100A200029292F28262929292630484D40203808F1
:100A300008080808080808382F10C8ACBA2F102872
:100A400034FA00007B000008142A142222142A140D
:100A5000085500550055AA55AA55AAFF55FF55FF40
:100A6000000000FF00101010FF00141414FF00100D
:100A700010FF00FF1010F010F0141414FC001414F8
:100A8000F700FF0000FF00FF1414F404FC14141717
:100A9000101F10101F101F1414141F00101010F03E
:100AA000000000001F101010101F10101010F01088
:100AB000000000FF101010101010101010FF100098
:100AC0000000FF140000FF00FF00001F10170000CF
:100AD000FC04F414141710171414F404F40000FFA9
:100AE00000F714141414141414F700F71414141742
:100AF0001410101F101F141414F4141010F010F020
:100B000000001F101F0000001F14000000FC140054
:100B100000F010F01010FF10FF141414FF14101048
:100B2000101F00000000F010FFFFFFFFFFF0F0F0CB
:100B3000F0F0FFFFFF0000000000FFFF0F0F0F0F9E
:100B40000F3844443844FC4A4A4A347E02020606BE
:100B5000027E027E0263554941633844443C0440AE
:100B60007E201E2006027E020299A5E7A5991C2A76
:100B7000492A1C4C7201724C304A4D4D3030487835
:100B80004830BC625A463D3E494949007E01010158
:100B90007E2A2A2A2A2A44445F444440514A444037
:100BA00040444A51400000FF0103E080FF0000087C
:100BB000086B6B083612362436060F090F06000044
:100BC00018180000001010003040FF0101001F0144
:100BD000011E00191D1712003C3C3C3C00000000A7
:100BE0000000002100240027002A002D00300033DF
:100BF0000001010000040107010A01010210202088
:100C00000808102040102040800201020108040260
:100C100001010204081020408080402010080402D6
:100C2000018004020180402010080402010804022F
:100C30000101020408102040800102040810204035
:100C40008000002200250028002B002E00310034F7
:100C50000002010000050108010B0105050505075B
:100C60000508080808020202020A0A080804040427
:100C70000401010101010101010303030303030353
:100C800003040707070C0C0C0C0C0C0C0C020202E2
:100C90000206060606060606060B0B0B0B0B0B0BD5
:100CA0000B00D34711241FBECFEFD1E2DEBFCDBF73
:100CB00000E00CBF18E0A0E0B2E0EEEFFEE900E0DB
:100CC0000BBF02C007900D92AA37B107D9F72BE0EE
:100CD000AAE7B8E001C01D92A730B207E1F716E01D
:100CE000C2E5D6E000E006C021970109802FFE0191
:100CF0000E94114EC135D10780E00807A9F70E9474
:100D000074390C947D4F0C940000BF92CF92DF9207
:100D1000EF92FF920F931F93CF93DF93EC017A0131
:100D2000C901E98DFA8D30812DA123232083288DDF
:100D3000211134C52D89223089F0233021F1213051
:100D400079F5EFEEF0E09F01201B310BAB01EE19BE
:100D5000FF098C01CF017B01B90123C02FEE30E0E8
:100D6000D901A81BB90BC901861B970B2FE331E0F2
:100D7000B901601B710B8901041B150BA801FC0153
:100D80007B01BD010EC04FE351E09A01281B390BD6
:100D9000461B570BF701C8018A01B701790101C051
:100DA000FB01AB8DBC8D3C912EA123232C93209174
:100DB0000201277820930201209102012093020171
:100DC0002EB1277C2EB92EB12EB9A59824B324BB01
:100DD000AD8DBE8D3C912FA123232C93AD8DBE8D67
:100DE0003C912BA1232B2C93209102012778209357
:100DF0000201209102012860209302012EB1277C7C
:100E00002EB92EB12EB9A598A59AAD8DBE8D3C9167
:100E10002FA123232C93AD8DBE8D3C912BA1232B91
:100E20002C93272F332727FD3A95CB8CDC8CD601CA
:100E3000BC90AAA1BA2AD601BC92A0910201A778BF
:100E4000A0930201B0900201D901A07CBB276D01E3
:100E5000B3E0D594C794BA95E1F7D901A370BB2745
:100E6000689414F8AA0FBB1F1694E1F7AC29AB29BC
:100E7000A0930201AEB1A77CAEB9BEB0D901AC70EF
:100E8000BB276D01CC0CDD1CCC0CDD1CD901A07284
:100E9000BB27B595A795B595A795AC29AB29AEB954
:100EA000A598A4B320713327220F331F2A2B24BB0C
:100EB000AD8DBE8D3C912FA123232C93AD8DBE8D86
:100EC0003C912BA1232B2C93209102012778209376
:100ED0000201A09102019B01207C3327690123E0DC
:100EE000D594C7942A95E1F79B0123703327B5E089
:100EF000220F331FBA95E1F72C292A2B20930201E8
:100F00002EB1277C2EB9AEB19B012C70332769011D
:100F1000CC0CDD1CCC0CDD1C9B01207233273595DD
:100F20002795359527952C292A2B2EB9A598A4B35A
:100F30009B0120713327220F331F2A2B24BBAD8D39
:100F4000BE8D3C912FA123232C93AD8DBE8D3C9162
:100F50002BA1232B2C93AB8DBC8D3C912EA1232355
:100F60002C93209102012778209302012091020105
:100F7000209302012EB1277C2EB92EB12EB9A5984F
:100F800024B324BBAD8DBE8D3C912FA123232C9384
:100F9000AD8DBE8D3C912BA1232B2C932091020172
:100FA00027782093020120910201286220930201F8
:100FB0002EB1277C2EB92EB12EB9A598A59AAD8D4C
:100FC000BE8D3C912FA123232C93AD8DBE8D3C91E2
:100FD0002BA1232B2C93292F332727FD3A95AB8D5B
:100FE000BC8D7C916AA1672B6C936091020167783C
:100FF00060930201A0910201B901607C77276B0127
:10100000B3E0D594C794BA95E1F7B9016370772737
:10101000B5E0660F771FBA95E1F76C296A2B6093EC
:1010200002016EB1677C6EB9AEB1B9016C70772701
:101030006B01CC0CDD1CCC0CDD1CB9016072772778
:1010400075956795759567956C296A2B6EB9A59806
:1010500064B320713327220F331F262B24BBAD8DA1
:10106000BE8D3C912FA123232C93AD8DBE8D3C9141
:101070002BA1232B2C93209102012778209302018E
:10108000609102019C01207C3327D90123E0B595B2
:10109000A7952A95E1F79C012370332775E0220F6D
:1010A000331F7A95E1F72A2B262B209302012EB1CC
:1010B000277C2EB96EB19C012C703327D901AA0F61
:1010C000BB1FAA0FBB1F9C012072332735952795A4
:1010D000359527952A2B262B2EB9A59824B38071F8
:1010E0009927880F991F822B84BBAD8DBE8D9C9153
:1010F0008FA189238C93AD8DBE8D9C918BA1892B63
:101100008C93AB8DBC8D9C918EA189238C93809107
:10111000020187788093020180910201809302018D
:101120008EB1877C8EB98EB18EB9A59884B384BBFD
:10113000AD8DBE8D9C918FA189238C93AD8DBE8D7D
:101140009C918BA1892B8C9380910201877880934D
:101150000201809102018864809302018EB1877C34
:101160008EB98EB18EB9A598A59AAD8DBE8D9C9184
:101170008FA189238C93AD8DBE8D9C918BA1892BE2
:101180008C938F2D992787FD9A95AB8DBC8D3C91C3
:101190002AA1232B2C93209102012778209302016E
:1011A000609102019C01207C3327D90123E0B59591
:1011B000A7952A95E1F79C012370332775E0220F4C
:1011C000331F7A95E1F72A2B262B209302012EB1AB
:1011D000277C2EB96EB19C012C703327D901AA0F40
:1011E000BB1FAA0FBB1F9C01207233273595279583
:1011F000359527952A2B262B2EB9A59824B38071D7
:101200009927880F991F822B84BBAD8DBE8D9C9131
:101210008FA189238C93AD8DBE8D9C918BA1892B41
:101220008C938091020187788093020120910201C2
:10123000C701807C9927BC01B3E075956795BA9585
:10124000E1F7C7018370992735E0880F991F3A9518
:10125000E1F7862B822B809302018EB1877C8EB9B9
:101260002EB1C7018C709927BC01660F771F660FDE
:10127000771FC701807299279595879595958795D2
:10128000862B822B8EB9A59884B3970120713327C2
:10129000220F331F282B24BBAD8DBE8D9C918FA1B7
:1012A00089238C93AD8DBE8D9C918BA1892B8C93C2
:1012B000AB8DBC8D9C918EA189238C938091020172
:1012C00087788093020180910201809302018EB1A0
:1012D000877C8EB98EB18EB9A59884B384BBAD8D51
:1012E000BE8D9C918FA189238C93AD8DBE8D9C91D9
:1012F0008BA1892B8C9380910201877880930201C6
:10130000809102018866809302018EB1877C8EB93C
:101310008EB18EB9A598A59AAD8DBE8D9C918FA1E9
:1013200089238C93AD8DBE8D9C918BA1892B8C9341
:10133000812F992787FD9A95AB8DBC8D3C912AA171
:10134000232B2C9320910201277820930201609196
:1013500002019C01207C3327D90133E0B595A79584
:101360003A95E1F79C012370332775E0220F331F74
:101370007A95E1F72A2B262B209302012EB1277CA8
:101380002EB96EB19C012C703327D901AA0FBB1F57
:10139000AA0FBB1F9C0120723327359527953595E1
:1013A00027952A2B262B2EB9A59824B3807199272F
:1013B000880F991F822B84BBAD8DBE8D9C918FA110
:1013C00089238C93AD8DBE8D9C918BA1892B8C93A1
:1013D0008091020187788093020120910201C80167
:1013E000807C9927BC01B3E075956795BA95E1F7C4
:1013F000C8018370992735E0880F991F3A95E1F766
:10140000862B822B809302018EB1877C8EB92EB100
:10141000C8018C709927BC01660F771F660F771F74
:10142000C801807299279595879595958795862B04
:10143000822B8EB9A59884B300711127000F111F5C
:10144000082B04BBAD8DBE8D9C918FA189238C93FD
:10145000AD8DBE8D9C918BA1892B8C93AB8DBC8D5A
:101460009C918EA189238C9380910201877880932F
:10147000020180910201809302018EB1877C8EB9B6
:101480008EB18EB9A59884B384BBAD8DBE8D9C9171
:101490008FA189238C93AD8DBE8D9C918BA1892BBF
:1014A0008C938091020187788093020180910201E0
:1014B000809302018EB1877C8EB9739AA59884B30C
:1014C00084BBAD8DBE8D9C918FA189238C93AD8DF6
:1014D000BE8D9C918BA1892B8C938F2F992787FD93
:1014E0009A95AB8DBC8D3C912AA1232B2C932091F6
:1014F0000201277820930201609102019C01207C67
:101500003327D90133E0B595A7953A95E1F79C01CA
:101510002370332775E0220F331F7A95E1F72A2BCA
:10152000262B209302012EB1277C2EB96EB19C018F
:101530002C703327D901AA0FBB1FAA0FBB1F9C0118
:101540002072332735952795359527952A2B262BFD
:101550002EB9A59824B380719927880F991F822BE3
:1015600084BBAD8DBE8D9C918FA189238C93AD8D55
:10157000BE8D9C918BA1892B8C93809102018778E1
:101580008093020120910201CF01807C9927BC0148
:10159000A3E075956795AA95E1F7CF018370992728
:1015A000B5E0880F991FBA95E1F7862B822B8093BF
:1015B00002018EB1877C8EB92EB1CF018C70992734
:1015C000BC01660F771F660F771FCF0180729927C6
:1015D0009595879595958795862B822B8EB9A5989D
:1015E00084B3E071FF27EE0FFF1FE82BE4BBED8D06
:1015F000FE8D90818FA189238083ED8DFE8D90815A
:101600008BA1892B8083EB8DFC8D90818EA189230A
:10161000808380910201877880930201809102018A
:10162000809302018EB1877C8EB98EB18EB9A59858
:1016300084B384BBED8DFE8D90818FA1892380833F
:10164000ED8DFE8D90818BA1892B8083809102018D
:101650008778809302018091020180628093020169
:101660008EB1877C8EB9739AA59884B384BBED8DB7
:10167000FE8D90818FA189238083ED8DFE8D9081D9
:101680008BA1892B8083852F992787FD9A95EB8DD8
:10169000FC8D30812AA1232B208320910201277801
:1016A00020930201609102019C01207C3327F90103
:1016B00033E0F595E7953A95E1F79C0123703327E0
:1016C00075E0220F331F7A95E1F72E2B262B2093FE
:1016D00002012EB1277C2EB96EB19C012C703327EC
:1016E000F901EE0FFF1FEE0FFF1F9C012072332741
:1016F00035952795359527952E2B262B2EB9A59810
:1017000024B380719927880F991F822B84BBED8D9C
:10171000FE8D90818FA189238083ED8DFE8D908138
:101720008BA1892B808380910201877880930201AD
:1017300020910201CA01807C9927BC0103E07595C4
:1017400067950A95E1F7CA018370992735E0880FFC
:10175000991F3A95E1F7862B822B809302018EB177
:10176000877C8EB92EB1CA018C709927BC01660F97
:10177000771F660F771FCA01807299279595879505
:1017800095958795862B822B8EB9A59884B3407149
:101790005527440F551F482B44BB81C3213009F006
:1017A0008BC3272F332727FD3A95EB8DFC8D508176
:1017B0004EA14523408340910201477840930201A6
:1017C000409102014064409302014EB1477C4EB902
:1017D0004EB14EB9A59844B344BBED8DFE8D5081FA
:1017E0004FA145234083ED8DFE8D50814BA1452BAC
:1017F0004083EB8DFC8D50814AA1452B4083409165
:101800000201477840930201E0910201A901407C66
:101810005527DA0153E0B595A7955A95E1F7A90147
:1018200043705527F5E0440F551FFA95E1F74A2B11
:101830004E2B409302014EB1477C4EB9EEB1A90147
:101840004C705527DA01AA0FBB1FAA0FBB1FA901B5
:101850004072552755954795559547954A2B4E2BE0
:101860004EB9A59844B320713327220F331F242B80
:1018700024BBED8DFE8D30812FA123232083ED8DA0
:10188000FE8D30812BA1232B2083EB8DFC8D3081AD
:101890002EA1232320832091020127782093020187
:1018A000209102012066209302012EB1277C2EB9DF
:1018B0002EB12EB9A59824B324BBED8DFE8D3081B9
:1018C0002FA123232083ED8DFE8D30812BA1232B8F
:1018D0002083EB8DFC8D30812AA1232B2083209146
:1018E0000201277820930201409102019B01207C94
:1018F0003327F901B3E0F595E795BA95E1F79B0138
:101900002370332755E0220F331F5A95E1F72E2B12
:10191000242B209302012EB1277C2EB94EB19B01BE
:101920002C703327F901EE0FFF1FEE0FFF1F9B01F5
:101930002072332735952795359527952E2B242B07
:101940002EB9A59844B39B0120713327220F331F72
:10195000242B24BBED8DFE8D30812FA123232083EA
:10196000ED8DFE8D30812BA1232B20832F2D33274E
:1019700027FD3A95EB8DFC8D50814EA14523408388
:101980004091020147784093020140910201406476
:10199000409302014EB1477C4EB9749AA59844B366
:1019A00044BBED8DFE8D50814FA145234083ED8DCD
:1019B000FE8D50814BA1452B4083EB8DFC8D5081DA
:1019C0004AA1452B40834091020147784093020190
:1019D00060910201A901407C5527FA0173E0F59559
:1019E000E7957A95E1F7A90143705527F5E0440F93
:1019F000551FFA95E1F74E2B462B409302014EB14D
:101A0000477C4EB96EB1A9014C705527FA01EE0F13
:101A1000FF1FEE0FFF1FA9014072552755954795EF
:101A2000559547954E2B462B4EB9A59844B320713A
:101A30003327220F331F242B24BBED8DFE8D3081E5
:101A40002FA123232083ED8DFE8D30812BA1232B0D
:101A50002083EB8DFC8D30812EA1232320832091C8
:101A60000201277820930201209102012066209331
:101A700002012EB1277C2EB9749AA59824B324BBF9
:101A8000ED8DFE8D30812FA123232083ED8DFE8DE2
:101A900030812BA1232B2083EB8DFC8D30812AA15B
:101AA000232B20832091020127782093020140916B
:101AB00002019701207C3327B901E3E07595679512
:101AC000EA95E1F7970123703327F5E0220F331FE2
:101AD000FA95E1F7262B242B209302012EB1277CC7
:101AE0002EB94EB197012C703327B901660F771FBD
:101AF000660F771F97012072332735952795359507
:101B00002795262B242B2EB9A59844B39701207135
:101B10003327220F331F242B24BBED8DFE8D308104
:101B20002FA123232083ED8DFE8D30812BA1232B2C
:101B30002083292F332727FD3A95EB8DFC8D50818B
:101B40004EA1452340834091020147784093020112
:101B500040910201409302014EB1477C4EB9749A04
:101B6000A59844B344BBED8DFE8D50814FA1452314
:101B70004083ED8DFE8D50814BA1452B4083EB8D35
:101B8000FC8D50814AA1452B40834091020147784A
:101B90004093020160910201A901407C5527FA019E
:101BA00073E0F595E7957A95E1F7A901437055271C
:101BB000F5E0440F551FFA95E1F74E2B462B409365
:101BC00002014EB1477C4EB96EB1A9014C70552748
:101BD000FA01EE0FFF1FEE0FFF1FA90140725527FC
:101BE00055954795559547954E2B462B4EB9A5983B
:101BF00044B320713327220F331F242B24BBED8DD8
:101C0000FE8D30812FA123232083ED8DFE8D308129
:101C10002BA1232B2083EB8DFC8D30812EA1232340
:101C20002083209102012778209302012091020154
:101C30002062209302012EB1277C2EB9749AA598B8
:101C400024B324BBED8DFE8D30812FA1232320836F
:101C5000ED8DFE8D30812BA1232B2083EB8DFC8D10
:101C600030812AA1232B2083209102012778209301
:101C70000201409102019C01207C3327B901E3E07D
:101C800075956795EA95E1F79C0123703327F5E098
:101C9000220F331FFA95E1F7262B242B2093020104
:101CA0002EB1277C2EB94EB19C012C703327B9017F
:101CB000660F771F660F771F9C01207233273595BB
:101CC000279535952795262B242B2EB9A59824B337
:101CD00080719927880F991F822B84BBED8DFE8D13
:101CE00090818FA189238083ED8DFE8D90818BA1C2
:101CF000892B8083812F992787FD9A95EB8DFC8D09
:101D000030812EA123232083209102012778209364
:101D1000020120910201209302012EB1277C2EB9ED
:101D2000759AA59824B324BBED8DFE8D30812FA12B
:101D300023232083ED8DFE8D30812BA1232B208347
:101D4000EB8DFC8D30812AA1232B20832091020171
:101D5000277820930201409102019C01207C3327C7
:101D6000B90153E0759567955A95E1F79C01237089
:101D7000332775E0220F331F7A95E1F7262B242BAA
:101D8000209302012EB1277C2EB94EB19C012C70FC
:101D90003327B901660F771F660F771F9C012072EA
:101DA00033273595279535952795262B242B2EB946
:101DB000A59824B380719927880F991F822B84BB23
:101DC000ED8DFE8D90818FA189238083ED8DFE8D19
:101DD00090818BA1892B8083EB8DFC8D90818EA1CE
:101DE000892380838091020187788093020180910A
:101DF00002018062809302018EB1877C8EB9759A50
:101E0000A59884B384BBED8DFE8D90818FA189232D
:101E10008083ED8DFE8D90818BA1892B8083EB8D4E
:101E2000FC8D90818AA1892B808380910201877823
:101E30008093020120910201C801807C9927AC01A6
:101E4000B3E055954795BA95E1F7C8018370992796
:101E500035E0880F991F3A95E1F7842B822B809308
:101E600002018EB1877C8EB92EB1C8018C70992782
:101E7000AC01440F551F440F551FC80180729927AC
:101E80009595879595958795842B822B8EB9A598E6
:101E900084B300711127000F111F082B04BBED8DB7
:101EA000FE8D90818FA189238083ED8DFE8D9081A1
:101EB0008BA1892B80832DC02250223050F5AB019D
:101EC000770F660B770BBA0155274427092E000CB4
:101ED000AA0BBB0B9A01AB01282B392B4A2B5B2B8E
:101EE0006AE2CE010E94A932C701FF0CAA0BBB0B0C
:101EF000BC0155274427C801110FAA0BBB0B9A013F
:101F0000AB01282B392B4A2B5B2B6BE2CE010E94B5
:101F1000A932E98DFA8D908189A1892B8083DF9187
:101F2000CF911F910F91FF90EF90DF90CF90BF90D6
:101F30000895EF92FF920F931F93CF93DF93EC01DD
:101F40001092E10A1092E00A1092E30A1092E20A5B
:101F500082E08093E80AEE81FF81808191818B305D
:101F60009105E8F42091520930915309223031054E
:101F70006CF01092E70A1092E60A1092E50A1092AD
:101F8000E40A10925309109252092DC02F5F3F4F5F
:101F9000309353092093520980E098EF1CC0C397F7
:101FA000C0F420915209309153092130310509F3D1
:101FB00080E09CEF9093E70A8093E60A9093E50A0D
:101FC0008093E40A2F5F3F4F3093530920935209C7
:101FD0000AC080EE97E09093E70A8093E60A909318
:101FE000E50A8093E40A6EE576E084ED9AE00E94CB
:101FF0002D3984ED9AE00E940F38E885F9858081BB
:1020000091818B309105B8F48091500990915109DC
:10201000823091056CF01092E70A1092E60A109255
:10202000E50A1092E40A109251091092500926C054
:1020300020E038EF0BC0C397B8F48091500990911D
:1020400051098130910539F320E03CEF3093E70AE4
:102050002093E60A3093E50A2093E40A01969093D0
:102060005109809350090AC080EE97E09093E70AE7
:102070008093E60A9093E50A8093E40A66E676E0A8
:1020800084ED9AE00E942D3984ED9AE00E940F3889
:1020900080917E0890917F08892B09F4B3C08091CC
:1020A0004E0990914F09892B09F0ACC0109205029E
:1020B000109204021092E10A1092E00A81E490E08A
:1020C0009093E30A8093E20A80E098EF9093E70A06
:1020D0008093E60A9093E50A8093E40A6BE676E043
:1020E00084ED9AE00E942D39C0914C09D0914D09A0
:1020F0002196D0934D09C0934C098FEF99E00E942F
:10210000FE30181619063CF481E090E090934F09D8
:1021100080934E0904C010924F0910924E0980918D
:102120004E0990914F09892B09F08CC060970CF4EF
:1021300089C080914A0990914B090597BCF5C0E090
:10214000D0E081E4E82EF12C00E018EF1092E10AD3
:102150001092E00AF092E30AE092E20AC0FD09C0A0
:102160001092E70A1092E60A1092E50A1092E40A29
:1021700008C01093E70A0093E60A1093E50A00935B
:10218000E40A6BE676E084ED9AE00E942D3984ED56
:102190009AE00E940F3862E370E080E090E00E94D5
:1021A000B5292196C431D10589F61AC01092E10AE9
:1021B0001092E00A81E490E09093E30A8093E20AAF
:1021C00080E098EF9093E70A8093E60A9093E50AFF
:1021D0008093E40A6BE676E084ED9AE00E942D3964
:1021E00080914A0990914B098A3091052CF0109208
:1021F0004B0910924A0926C0019690934B0980938F
:102200004A0920C01092E10A1092E00A81E490E0AD
:102210009093E30A8093E20A1092E70A1092E60A8A
:102220001092E50A1092E40A6BE676E084ED9AE0FB
:102230000E942D3910924D0910924C0910924F09AD
:1022400010924E09DF91CF911F910F91FF90EF9067
:102250000895CF92DF92EF92FF92DC011296ED91FA
:10226000FC911397C080D180E280F38020E030E0C1
:1022700048EC52E4C701B6010E94364A18166CF0C9
:1022800020E030E040EF51E4C701B6010E94ED4B81
:1022900018161CF460E776E00CC020E030E040EF58
:1022A00051E4C701B6010E94364A181654F060E89E
:1022B00076E08FEF99E0FF90EF90DF90CF900C9455
:1022C0003238FF90EF90DF90CF900895CF93DF9357
:1022D000EC0160E976E08FEF99E00E942D39EE8104
:1022E000FF81608171816536710538F062EA76E0C0
:1022F0008FEF99E00E94323806C04AE050E08FEF3D
:1023000099E00E94133865EA76E08FEF99E00E9429
:102310002D39E885F985608171814AE050E08FEFC1
:1023200099E00E94133864EB76E08FEF99E00E9409
:102330002D39EA85FB85608171814AE050E08FEF9D
:1023400099E00E94133869EC76E08FEF99E00E94E3
:102350002D39EC85FD85608171814AE050E08FEF79
:1023600099E00E9413386DED76E08FEF99E00E94BE
:102370002D39EC81FD8180819181892B19F060EFED
:1023800076E002C063EF76E08FEF99E00E9432388A
:102390008FEF99E00E940F38809182089091830816
:1023A000892B31F067EF76E08FEF99E00E943238A9
:1023B0008091800890918108892B31F06EEF76E052
:1023C0008FEF99E00E943238EE81FF818081918108
:1023D000EA81FB81C29758F481E090E09183808389
:1023E00066E077E08FEF99E00E94323802C01182F8
:1023F0001082E885F98580819181E881F981C29711
:1024000058F481E090E09183808362E177E08FEF80
:1024100099E00E94323802C0118210826BE177E0AD
:102420008FEF99E00E942D39E091C00AF091C10A26
:102430000190F081E02D608171818FEF99E00E9421
:102440007A3061E377E08FEF99E00E942D39E889D7
:10245000F98940815181628173818FEF99E0DF9129
:10246000CF910C946730CF92DF92EF92FF920F934F
:102470001F93CF93DF93EC01EDE3FCE06491EDE972
:10248000FCE0E491F0E0EE0FFF1FEF57F94F85916C
:10249000949100E412E42FE030E0462F0E942F399F
:1024A000611571058105910549F0DC01CB010196AB
:1024B000A11DB11DBC01CD019F7003C060E070E0A3
:1024C000CB010E94E34A0E94204B0E94AD4A072E96
:1024D000000C880B990B0E94E54A2EE63FED4BE27B
:1024E0005FE30E94F24B0E94204B0E94AD4A613D87
:1024F00047E074071CF080ED97E00AC06436710570
:102500002CF0709349096093480906C084E690E076
:10251000909349098093480900914809109149090D
:10252000E881F98111830083C0914609D091470960
:10253000209729F4609144097091450907C0FE0174
:10254000EE0FFF1FEC5CF64F60817181601B710B19
:1025500077FF03C0719561957109072E000C880BF8
:10256000990B209731F50E94E54A6B017C0180911F
:10257000440990914509BC0180E090E00E94E34A43
:102580002DEC3CEC4CEC5DE30E94F24B9B01AC016A
:10259000C701B6010E94ED4B1816ECF510933709F0
:1025A0000093360981E090E09093470980934609B3
:1025B00032C00E94E54A6B017C01FE01EE0FFF1F55
:1025C000EC5CF64F80819181BC0180E090E00E943C
:1025D000E34A2DEC3CEC4CEC5DE30E94F24B9B019A
:1025E000AC01C701B6010E94ED4B1816A4F4FE0120
:1025F000EE0FFF1FEA5CF64F11830083C730D10551
:102600002CF0109247091092460905C02196D093EC
:102610004709C0934609B8018FEF99E0DF91CF9148
:102620001F910F91FF90EF90DF90CF900C947A3034
:102630002F923F924F925F926F927F928F929F92D2
:10264000AF92BF92CF92DF92EF92FF920F931F93C0
:10265000CF93DF93CDB7DEB7C251D8400FB6F89411
:10266000DEBF0FBECDBFC55FD74F99838883CB50E8
:10267000D8409E012F5F3D4FC150D84F39832883EA
:10268000CF5FD74080E092E0F9019C011192215088
:102690003040E1F76E013FEFC31A39EFD30ABE01B4
:1026A0006F5F7D4F7B018E010F5F1B4F8BE8A82E64
:1026B000BB24B39482E40E947129BC01990F880B5A
:1026C000990B0E94E54A2AE037ED43E25CE30E9461
:1026D000F24B20E030E040E251E40E94F24B20E077
:1026E00030E040E251E40E94C9490E94AD4AF8013D
:1026F000619371938F01F701119211927F01C501CE
:102700000197F1F70C151D05A9F68FEFEEE0F2E049
:10271000DE01B95F01900D928A95E1F78FEFEDE050
:10272000F3E0D80101900D928A95E1F780E092E004
:10273000ECE0F4E0DE01119601900D920197E1F7D3
:10274000FE01EF5FFB4F80E090E040E050E020E8CA
:1027500030E0821793072CF0821B930B3595279559
:10276000F8CF820F931F4F5F5F4F4F3F5105B9F076
:102770004817590794F422813381DC01AA0FBB1F4B
:1027800061E074E06C0F7D1FA60FB71F6D917C9107
:102790001197738362832D933C933296D8CF88E050
:1027A00090E0CF5FD74F99838883C150D840412CA8
:1027B000512C41E050E0BA01660F771FFB01EE0F8C
:1027C000FF1FC75FD74FF983E883C950D8409E01E8
:1027D0002F5F3D4F3901CE018F5F9B4F5C0100E0C1
:1027E00010E0041715070CF0ECC0D301CF5ED74FF3
:1027F000B982A882C151D8401801C801840D951D25
:10280000E0E0F7E0EC0FFD1FE80FF91FC35FD74FC3
:10281000F983E883CD50D84021E036E02C0F3D1FEE
:10282000280F391FC15FD74F39832883CF50D84035
:102830003FEF2316310411F00CF0BAC0C35FD74F3D
:10284000E881F981CD50D8408080082C000C99088F
:10285000CF5ED74F28813981C151D840260F371F0D
:10286000C95FD74F39832883C750D840F9010190F9
:10287000F081E02DCD5FD74FF983E883C350D84076
:10288000C15FD74FE881F981CF50D840E0800E2C4E
:10289000000CFF089D01260F371FCB5FD74F3983F0
:1028A0002883C550D840F90180819181CD5FD74FF1
:1028B000E881F981C350D8408E9E90018F9E300DE3
:1028C0009E9E300D1124E89E6001E99ED00CF89E7A
:1028D000D00C11242C193D0937FF02C0215E3F4F57
:1028E000F5E035952795FA95E1F7889E6001899E78
:1028F000D00C989ED00C1124CD5FD74FE881F98180
:10290000C350D840EE9EC001EF9E900DFE9E900DEC
:1029100011248C0D9D1D97FD4F96E5E095958795AB
:10292000EA95E1F7CF5ED74FE881F981C151D840F0
:10293000E080F180E21AF30AC95FD74FE881F9819C
:10294000C750D840F182E082ED90FC901197E81AD0
:10295000F90ACB5FD74FE881F981C550D840F182A1
:10296000E082CF5ED74FE881F981C151D840E08045
:10297000F1802E0D3F1D31832083CD90DC90119787
:102980008C0D9D1D11969C938E93260E371EC75F4E
:10299000D74F28813981C950D840E20FF31FCF5E4D
:1029A000D74FF983E883C151D840A20FB31F40CF5E
:1029B0000F5F1F4F82E0A80EB11C92E0690E711CE0
:1029C00010CF57FF02C040E050E0440E551ECF5FCD
:1029D000D74FE881F981C150D8403197CF5FD74FA9
:1029E000F983E883C150D840AB01EF2B09F0E3CE67
:1029F000BE016D5F7B4FDE01AD5FBD4FEE24E39402
:102A0000F12C00E010E041E050E08D919D91FB0140
:102A100021913191BF0137FF03C0319521953109D3
:102A20002115F2E03F0714F02FEF31E0E1E0F0E094
:102A3000EC0FFD1F2E0F3F1FF901208130E097FFA3
:102A400003C09195819591098115F2E09F0714F0DB
:102A50008FEF91E0E1E0F0E0EC0FFD1F8E0F9F1F84
:102A6000FC018081280F311D0217130714F489011E
:102A70007A014F5F5F4F4038510539F6C55FD74F38
:102A8000E881F981CB50D8400081118182E38E9D8D
:102A9000B0018F9D700D1124072E000C880B990B2F
:102AA0000E94E54A6B017C0120E030E0A9010E9410
:102AB000ED4B181624F0F7FAF094F7F8F094F801BB
:102AC000C082D182E282F382E0913409F09135092B
:102AD000EE0FFF1FEE0FFF1FEC50F74FC082D182A9
:102AE000E282F382B701A6018FEF99E00E9467307E
:102AF00004EF18E0F80141915191619171918F01BA
:102B000022E08FEF99E00E944B3860E477E08FEF8E
:102B100099E00E942D39F9E004331F0759F78FEF30
:102B200099E00E940F3880913409909135098031E5
:102B300091052CF0109235091092340905C00196C8
:102B40009093350980933409CE5ED74F0FB6F89431
:102B5000DEBF0FBECDBFDF91CF911F910F91FF90D0
:102B6000EF90DF90CF90BF90AF909F908F907F902D
:102B70006F905F904F903F902F900895AF92BF92CB
:102B8000CF92DF92EF92FF920F931F93CF93DF9339
:102B90006B017C01C0E0D0E000E010E0CC15DD0569
:102BA00004F5F701A190B1907F01BE010D2E000C3C
:102BB000880B990B0E94E54A9B01AC0160E070E034
:102BC00080E090E40E945F4C0E94AD4AA69E900176
:102BD000A79E300DB69E300D1124020F131F2196B3
:102BE000DDCFC801DF91CF911F910F91FF90EF9042
:102BF000DF90CF90BF90AF900895CF92DF92EF9289
:102C0000FF92CF93DF93EC0185E40E947129BC0110
:102C1000990F880B990B0E94E54A20E030E040EACA
:102C200050E40E94F24B20E030EC4FE754E40E9465
:102C30003B4A20E030E048EC52E40E94F24B6B014A
:102C40007C01AB01BC018FEF99E00E946730EA8103
:102C5000FB81C082D182E282F38220E030E048EC46
:102C600052E4C701B6010E94364AE881F98118167C
:102C70002CF081E090E09183808302C01182108269
:102C8000608171818FEF99E00E947A30E881F9814B
:102C900080819181892B41F10E9470376B0163E43F
:102CA00077E08FEF99E00E94323888E1C81A8CEF04
:102CB000D80A0D2C000CEE08FF080E9470376C1526
:102CC0007D058E059F05C8F38FEF99E00E94FE30C9
:102CD000181619064CF4CE01DF91CF91FF90EF90BA
:102CE000DF90CF900C942911DF91CF91FF90EF905E
:102CF000DF90CF9008950F931F93CF93DF93EC0154
:102D000069E477E08FEF99E00E9432380E947037D3
:102D1000609358097093590980935A0990935B09FD
:102D20000E947037009158091091590920915A0951
:102D300030915B09DC01CB01801B910BA20BB30B23
:102D4000803D9740A105B10558F38FEF99E00E94AF
:102D50000F388FEF99E00E94FE308936910519F403
:102D6000E881F98105C08436910559F4EA81FB8137
:102D700081E090E091838083DF91CF911F910F914B
:102D8000089564E677E08FEF99E0DF91CF911F918E
:102D90000F910C942D39AF92BF92CF92DF92EF92A8
:102DA000FF920F931F93CF93DF93CDB7DEB7689752
:102DB0000FB6F894DEBF0FBECDBF6C01DC01ED9104
:102DC000FC91E080F18088EC90E00E944B4E8C01F9
:102DD000FC01B0962FE030E0C701022E02C09595AD
:102DE00087950A94E2F781709927929382932150F4
:102DF000310990F7F801E280F38080819181E82A1F
:102E0000F92A84819581E82AF92A86819781E82A1E
:102E1000F92A808591859A8B898B828593859C8BF5
:102E20008B8B848595859E8B8D8B86859785988FDA
:102E30008F8B64E070E0CE0141960E94BE155C016C
:102E4000D80150968D919C9151979A83898352967F
:102E50008D919C9153979C838B8354968D919C91DB
:102E600055979E838D8356968D919C915797988701
:102E70008F8358968D919C9159979A8789875A96F6
:102E80008D919C915B979C878B875C968D919C9193
:102E90005D979E878D875E968D919C915F97988BAD
:102EA0008F8768E070E0CE0101960E94BE15EF2882
:102EB000E1F0892BD1F0D6011296ED91FC91139798
:102EC000208131811216130684F4BEE0AB16B104E2
:102ED00011F0AB2851F0253031051CF4118210821D
:102EE00004C0255031093183208368960FB6F894C9
:102EF000DEBF0FBECDBFDF91CF911F910F91FF902D
:102F0000EF90DF90CF90BF90AF9008954F925F9277
:102F10006F927F928F929F92AF92BF92CF92DF92E9
:102F2000EF92FF920F931F93CF93DF938C010E9438
:102F300090296093F0087093F1088093F2089093C1
:102F4000F3086B017C0128E5C20E22E0D21EE11CD1
:102F5000F11C0E949029C616D706E806F906C8F3A8
:102F600083E40E947129D8011696ED91FC91179780
:102F700082E390E091838083ED91FC918081918147
:102F8000019709F063C16BE777E08FEF99E00E944A
:102F900032380E94703760935809709359098093B2
:102FA0005A0990935B090E947037C0905809D090DD
:102FB0005909E0905A09F0905B09B0EDCB0EB7E0EB
:102FC000DB1EE11CF11C6C157D058E059F0558F379
:102FD0008FEF99E00E94FE30181619060CF036C1EA
:102FE0008FEF99E00E940F380E9490296093F008BB
:102FF0007093F1088093F2089093F3086B017C01C1
:10300000E4EFCE0EE1E0DE1EE11CF11C0E949029EF
:103010006C157D058E059F05C8F384E40E94712917
:10302000EC0185E40E9471297C0125E0D22EDC9E12
:10303000C001DD9E900D1124CFEFD3E0BE010E94B0
:10304000DB4D072E000C880B990B0E94E54A26E603
:1030500036E646E25FE30E94F24B20E030E040E0DB
:1030600052E40E94F24B20E030E044E052E40E943F
:10307000CA492B013C01DE9CC001DF9C900D11244C
:10308000BE010E94DB4D072E000C880B990B0E949D
:10309000E54A26E636E646E25FE30E94F24B20E090
:1030A00030E040E052E40E94F24B20E030E044E0A7
:1030B00052E40E94CA494B015C01B301A2018FEFA7
:1030C00099E00E946730B501A4018FEF99E00E945A
:1030D0006730D8011E96CD90DC901F97F601408294
:1030E0005182628273825096ED91FC915197808259
:1030F0009182A282B382C091EE08D091EF08FE01C6
:10310000EE0FFF1FEE0FFF1FE255F74F4082518277
:1031100062827382FE01EE0FFF1FEE0FFF1FEE545F
:10312000F74F80829182A282B3821C96ED90FC9030
:103130001D97209731F52AE939E949E95FE3609164
:10314000E6087091E7088091E8089091E9080E94EC
:10315000F24B9B01AC01D6016D917D918D919C91BB
:103160000E94ED4B18164CF12AE939E949E95FE371
:103170006091EA087091EB088091EC089091ED085D
:1031800030C0FE01EE0FFF1FEE0FFF1FEA55F74F95
:103190002AE939E949E95FE360817181828193819C
:1031A0000E94F24B9B01AC01D6016D917D918D91F6
:1031B0009C910E94ED4B181634F481E090E0F701E9
:1031C0009183808321C0CC0FDD1FCC0FDD1FC6553E
:1031D000D74F2AE939E949E95FE3688179818A8132
:1031E0009B810E94F24B9B01AC01C501B4010E947E
:1031F000ED4B181634F481E090E0D7018D939C9349
:1032000003C0F7011182108260EA77E08FEF99E046
:103210000E942D39D8011C96ED91FC911D9760817B
:1032200071818FEF99E00E947A308091EE08909141
:10323000EF080296803191052CF49093EF0880936B
:10324000EE0804C01092EF081092EE08DF91CF91C3
:103250001F910F91FF90EF90DF90CF90BF90AF90B4
:103260009F908F907F906F905F904F9008958F9276
:103270009F92AF92BF92CF92DF92EF92FF92CF9345
:10328000DF93EC0181E090E09093AD088093AC086F
:10329000E0900202F0900302EE81FF818081918133
:1032A000019769F4C7014996853F21E0920714F020
:1032B00084EF91E090930302809302020EC0E885B0
:1032C000F98580819181019751F4C701499797FF52
:1032D000F1CF109203021092020211821082AA858D
:1032E000BB858D919C9111978436910508F061C042
:1032F0000E947037609358097093590980935A0956
:1033000090935B098DE20E94483061E08DE20E945B
:10331000F4288090020290900302092C000CAA0865
:10332000BB088091580990915909A0915A09B09110
:103330005B09880E991EAA1EBB1E0E947037861656
:103340009706A806B90628F30E94703760935809BB
:103350007093590980935A0990935B098DE20E94FA
:10336000483060E08DE20E94F42884EF91E06C0127
:10337000CE18DF080D2C000CEE08FF0880905809CD
:1033800090905909A0905A09B0905B098C0C9D1C33
:10339000AE1CBF1C0E94703786169706A806B90699
:1033A00068F3EA85FB858081918101969183808312
:1033B00021C04A815B81FA01208131818881998114
:1033C000232B31F021E030E0FC013183208303C066
:1033D000FC01118210821D921C92FA01118210824E
:1033E000EC81FD81118210828AEF90E090930302BC
:1033F000809302028FEF99E00E940F386CEA77E029
:103400008FEF99E00E942D39EA85FB8560817181FB
:103410004AE050E08FEF99E00E9413386BEB77E0C1
:103420008FEF99E00E942D39809102029091030262
:103430000E94143069EC77E08FEF99E00E943238F7
:103440008FEF99E0DF91CF91FF90EF90DF90CF90D9
:10345000BF90AF909F908F900C940F38EF92FF9297
:103460000F931F93CF93DF93EC01790177FD3EC655
:1034700057FD3CC688859985681779070CF036C6D4
:103480008A859B85481759070CF030C6E98DFA8D5F
:1034900090818DA189238083888D811192C28D892D
:1034A000823059F08330B1F08130D1F48FEE90E06A
:1034B000841B950BAB01BC0113C08FEE90E09C0107
:1034C000261B370BB9018FE391E09C01241B350BC0
:1034D000A90106C08FE391E0861B970BBA01AC01EE
:1034E000EB8DFC8D90818EA18923808380910201D8
:1034F00087788093020180910201809302018EB14E
:10350000877C8EB98EB18EB9A59884B384BBED8DBE
:10351000FE8D90818FA189238083ED8DFE8D90811A
:103520008BA1892B8083809102018778809302018F
:1035300080910201809302018EB1877C8EB9739ACB
:10354000A59884B384BBED8DFE8D90818FA18923D6
:103550008083ED8DFE8D90818BA1892B8083872FB9
:10356000992787FD9A95EB8DFC8D30812AA1232B1D
:10357000208320910201277820930201E09102012B
:103580009C01207C3327D901F3E0B595A795FA95E6
:10359000E1F79C0123703327B5E0220F331FBA9562
:1035A000E1F72A2B2E2B209302012EB1277C2EB976
:1035B000EEB19C012C703327D901AA0FBB1FAA0FB3
:1035C000BB1F9C012072332735952795359527958C
:1035D0002A2B2E2B2EB9A59824B380719927880FFA
:1035E000991F822B84BBED8DFE8D90818FA1892345
:1035F0008083ED8DFE8D90818BA1892B80838091BE
:10360000020187788093020120910201CB01807C26
:103610009927FC01A3E0F595E795AA95E1F7CB0181
:1036200083709927B5E0880F991FBA95E1F78E2B23
:10363000822B809302018EB1877C8EB92EB1CB0193
:103640008C709927FC01EE0FFF1FEE0FFF1FCB01BF
:103650008072992795958795959587958E2B822BC6
:103660008EB9A59884B360717727660F771F682B92
:1036700064BBED8DFE8D90818FA189238083ED8DBC
:10368000FE8D90818BA1892B8083EB8DFC8D9081A9
:103690008EA1892380838091020187788093020123
:1036A00080910201809302018EB1877C8EB98EB128
:1036B0008EB9A59884B384BBED8DFE8D90818FA1CA
:1036C00089238083ED8DFE8D90818BA1892B808352
:1036D00080910201877880930201809102018062CB
:1036E000809302018EB1877C8EB9739AA59884B3BA
:1036F00084BBED8DFE8D90818FA189238083ED8D1C
:10370000FE8D90818BA1892B8083852F992787FD42
:103710009A95EB8DFC8D30812AA1232B208320915B
:103720000201277820930201609102019C01207C14
:103730003327F90133E0F595E7953A95E1F79C01D8
:103740002370332775E0220F331F7A95E1F72E2B74
:10375000262B209302012EB1277C2EB96EB19C013D
:103760002C703327F901EE0FFF1FEE0FFF1F9C0196
:103770002072332735952795359527952E2B262BA7
:103780002EB9A59824B380719927880F991F822B91
:1037900084BBED8DFE8D90818FA189238083ED8D7B
:1037A000FE8D90818BA1892B808380910201877887
:1037B0008093020120910201CA01807C9927BC01FB
:1037C00003E0759567950A95E1F7CA01837099271B
:1037D00035E0880F991F3A95E1F7862B822B80936D
:1037E00002018EB1877C8EB92EB1CA018C709927E7
:1037F000BC01660F771F660F771FCA018072992779
:103800009595879595958795862B822B8EB9A5984A
:1038100084B340715527440F551F482B44BBED8D91
:10382000FE8D90818FA189238083ED8DFE8D908107
:103830008BA1892B8083EB8DFC8D90818EA18923B8
:103840008083809102018778809302018091020138
:10385000809302018EB1877C8EB98EB18EB9A59806
:1038600084B384BBED8DFE8D90818FA189238083ED
:10387000ED8DFE8D90818BA1892B8083809102013B
:103880008778809302018091020180648093020115
:103890008EB1877C8EB9739AA59884B384BBED8D65
:1038A000FE8D90818FA189238083ED8DFE8D908187
:1038B0008BA1892B8083EB8DFC8D90818AA1892B34
:1038C00080838091020187788093020140910201F8
:1038D0008F2D99279C01207C3327B90113E0759522
:1038E00067951A95E1F79C012370332705E0220FB5
:1038F000331F0A95E1F7262B242B209302012EB1CA
:10390000277C2EB94EB19C012C703327B901660F6C
:10391000771F660F771F9C012072332735952795F7
:1039200035952795262B242B2EB9A59824B3807185
:103930009927880F991F822B84BBED8DFE8D908176
:103940008FA189238083ED8DFE8D90818BA1892BA2
:103950008083809102018778809302012091020187
:10396000C701807C9927AC0173E0559547957A95FE
:10397000E1F7C70183709927E5E0880F991FEA9561
:10398000E1F7842B822B809302018EB1877C8EB964
:103990002EB1C7018C709927AC01440F551F440FFD
:1039A000551FC7018072992795958795959587959D
:1039B000842B822B8EB9A59884B330E1E322FF24B7
:1039C000CFC2813009F0CFC2ED89E150E33028F455
:1039D000F0E0E45FF94F808101C080E0EB8DFC8D69
:1039E00020819EA1922390839091020197789093D9
:1039F0000201909102019064909302019EB1977C24
:103A00009EB9749AA598A59AED8DFE8D20819FA1EF
:103A100092239083ED8DFE8D20819BA1922B90832C
:103A2000EB8DFC8D20819AA1922B908390910201C5
:103A300097789093020120910201982F907C96959F
:103A400096959695922B909302019EB1977C9EB984
:103A50002EB1982F9072892F90E095958795959526
:103A60008795822B8EB9A59884B384BBED8DFE8D8E
:103A700090818FA189238083ED8DFE8D90818BA114
:103A8000892B8083872F992787FD9A95EB8DFC8D55
:103A900030812EA1232320832091020127782093B7
:103AA0000201209102012064209302012EB1277CA3
:103AB0002EB92EB12EB9A59824B324BBED8DFE8D61
:103AC00030812FA123232083ED8DFE8D30812BA10A
:103AD000232B2083EB8DFC8D30812AA1232B208387
:103AE00020910201277820930201E09102019C01BC
:103AF000207C3327D90113E0B595A7951A95E1F7F6
:103B00009C012370332705E0220F331F0A95E1F74C
:103B10002A2B2E2B209302012EB1277C2EB9EEB139
:103B20009C012C703327D901AA0FBB1FAA0FBB1F02
:103B30009C012072332735952795359527952A2B9B
:103B40002E2B2EB9A59824B380719927880F991F21
:103B5000822B84BBED8DFE8D90818FA18923808384
:103B6000ED8DFE8D90818BA1892B8083EB8DFC8D5B
:103B700090818EA189238083809102018778809330
:103B80000201809102018066809302018EB1877CE0
:103B90008EB98EB18EB9A59884B384BBED8DFE8DA0
:103BA00090818FA189238083ED8DFE8D90818BA1E3
:103BB000892B8083EB8DFC8D90818AA1892B80835A
:103BC0008091020187788093020120910201CB014C
:103BD000807C9927FC01B3E0F595E795BA95E1F76C
:103BE000CB018370992715E0880F991F1A95E1F78B
:103BF0008E2B822B809302018EB1877C8EB92EB1E1
:103C0000CB018C709927FC01EE0FFF1FEE0FFF1FF9
:103C1000CB018072992795958795959587958E2BE1
:103C2000822B8EB9A59884B360717727660F771FB2
:103C3000682B64BBED8DFE8D90818FA189238083DD
:103C4000ED8DFE8D90818BA1892B8083852F992707
:103C500087FD9A95EB8DFC8D30812EA12323208347
:103C60002091020127782093020120910201206413
:103C7000209302012EB1277C2EB9749AA59824B303
:103C800024BBED8DFE8D30812FA123232083ED8D6C
:103C9000FE8D30812BA1232B2083EB8DFC8D308179
:103CA0002AA1232B2083209102012778209302014F
:103CB000609102019C01207C3327F901A3E0F59576
:103CC000E795AA95E1F79C0123703327B5E0220F11
:103CD000331FBA95E1F72E2B262B209302012EB12C
:103CE000277C2EB96EB19C012C703327F901EE0FA1
:103CF000FF1FEE0FFF1F9C0120723327359527957C
:103D0000359527952E2B262B2EB9A59824B3807197
:103D10009927880F991F822B84BBED8DFE8D908192
:103D20008FA189238083ED8DFE8D90818BA1892BBE
:103D30008083EB8DFC8D90818EA18923808380917F
:103D4000020187788093020180910201806680934E
:103D500002018EB1877C8EB9749AA59884B384BB16
:103D6000ED8DFE8D90818FA189238083ED8DFE8D59
:103D700090818BA1892B8083EB8DFC8D90818AA112
:103D8000892B8083809102018778809302012091A2
:103D90000201CA01807C9927BC01E3E07595679513
:103DA000EA95E1F7CA0183709927F5E0880F991F1A
:103DB000FA95E1F7862B822B809302018EB1877CE6
:103DC0008EB92EB1CA018C709927BC01660F771F7E
:103DD000660F771FCA0180729927959587959595EB
:103DE0008795862B822B8EB9A59884B34071552771
:103DF000440F551F482B44BBED8DFE8D90818FA144
:103E000089238083ED8DFE8D90818BA1892B80830A
:103E1000EB8DFC8D90818EA189238083809102019E
:103E2000877880930201809102018064809302016F
:103E30008EB1877C8EB9739AA59884B384BBED8DBF
:103E4000FE8D90818FA189238083ED8DFE8D9081E1
:103E50008BA1892B8083EB8DFC8D90818AA1892B8E
:103E60008083809102018778809302014091020152
:103E70008F2D99279C01207C3327B90123E075956C
:103E800067952A95E1F79C012370332755E0220FAF
:103E9000331F5A95E1F7262B242B209302012EB1D4
:103EA000277C2EB94EB19C012C703327B901660FC7
:103EB000771F660F771F9C01207233273595279552
:103EC00035952795262B242B2EB9A59824B38071E0
:103ED0009927880F991F822B84BBED8DFE8D9081D1
:103EE0008FA189238083ED8DFE8D90818BA1892BFD
:103EF00080838091020187788093020120910201E2
:103F0000C701807C9927AC01B3E055954795BA95D8
:103F1000E1F7C7018370992715E0880F991F1A955B
:103F2000E1F7842B822B809302018EB1877C8EB9BE
:103F30002EB1C7018C709927AC01440F551F440F57
:103F4000551FC701807299279595879595958795F7
:103F5000842B822B8EB9A59884B390E1E922FF24AB
:103F6000EE0CFF1CAFC08250823008F0B9C00A8549
:103F70001B85015011092885398521503109CE0151
:103F80000E948506E98DFA8D90818DA18923808319
:103F9000EB8DFC8D90818EA189238083809102011D
:103FA00087788093020180910201809302018EB193
:103FB000877C8EB98EB188638EB9A59884B384BB93
:103FC000ED8DFE8D90818FA189238083ED8DFE8DF7
:103FD00090818BA1892B8083EB8DFC8D90818AA1B0
:103FE000892B808380910201877880930201409120
:103FF00002018F2D99279C01207C332753E03695B1
:1040000027955A95E1F7382F33703295330F307E6C
:10401000232B242B209302012EB1277C2EB94EB1E5
:10402000282F2C70522F550F550F9C0120723327CB
:104030003695279536952795252B242B2EB9A598AF
:1040400094B38071880F892B84BBED8DFE8D908198
:104050008FA189238083ED8DFE8D90818BA1892B8B
:104060008083809102018778809302012091020170
:10407000C701807C992773E0969587957A95E1F73B
:104080009E2D93709295990F907E892B822B809311
:1040900002018EB1877C8EB92EB18E2D8C70382F97
:1040A000330F330FC70180729927969587959695A0
:1040B0008795832B822B8EB9A59884B39E2D907102
:1040C000E92EEE0CE82AE4BAED8DFE8D90818FA1E9
:1040D00089238083ED8DFE8D90818BA1892B808338
:1040E000E98DFA8D908189A1892B8083DF91CF9111
:1040F0001F910F91FF90EF9008956F927F928F9292
:104100009F92AF92BF92CF92DF92EF92FF920F9366
:104110001F93CF93DF93FC013B01A18DB28D9C9146
:1041200085A189238C93A38DB48D9C9186A189232D
:104130008C93808D823011F181111EC0809102011B
:1041400087788093020180910201809302018EB1F1
:10415000877C8EB98EB18EB9A59884B384BBA58DAA
:10416000B68D9C9187A189238C93A58DB68D9C914A
:1041700083A1892B8C9312C0833081F4809102013A
:1041800087788093020180910201809302018EB1B1
:10419000877C8EB98EB188638EB90EC08091020182
:1041A00087788093020180910201806480930201EC
:1041B0008EB1877C8EB9739AA59884B384BBA58D84
:1041C000B68D9C9187A189238C93A58DB68D9C91EA
:1041D00083A1892B8C93A38DB48D9C9182A1892B73
:1041E0008C9380910201877880930201B091020143
:1041F000872F90E07C01A3E0EA22FF24A5E0EE0CEB
:10420000FF1CAA95E1F78C01007C1127C3E01595EE
:104210000795CA95E1F7AE2DA02BBA2BB0930201FA
:10422000BEB1B77CBEB91EB16C01B0E2CB22DD24B9
:10423000D594C794D594C7947C01CCE0EC22FF249C
:10424000EE0CFF1CEE0CFF1CBC2DBE291B2B1EB957
:10425000A59814B380719927880F991FF82E812B88
:1042600084BB058D168DE801988187A189238883F9
:10427000058D168DE801988183A1892B8883809113
:104280000201877880930201809102016B01D3E0E3
:10429000CD22DD24D5E0CC0CDD1CDA95E1F78B01D5
:1042A000007C112793E0159507959A95E1F71C2D51
:1042B000102B812B809302018EB1877C8EB98EB139
:1042C0005B0190E2A922BB24B594A794B594A7946E
:1042D0006B01CCE0CC22DD24CC0CDD1CCC0CDD1C35
:1042E0000A2D0C29802B8EB9A59884B3607177278D
:1042F000660F771F762F682B64BB858D968DEC013A
:10430000E88067A16E216883858D968DEC01E88039
:1043100063A16E296883215031094109510949017E
:104320005A0136E0B694A794979487943A95D1F7BA
:10433000C40176109CC1019708F465C060E1A58DA9
:10434000B68DCC9177A17C237C93A58DB68DCC9135
:1043500073A17C2B7C93A58DB68DCC9177A17C230A
:104360007C93A58DB68DCC9173A17C2B7C93A58D70
:10437000B68DCC9177A17C237C93A58DB68DCC9105
:1043800073A17C2B7C93A58DB68DCC9177A17C23DA
:104390007C93A58DB68DCC9173A17C2B7C93A58D40
:1043A000B68DCC9177A17C237C93A58DB68DCC91D5
:1043B00073A17C2B7C93A58DB68DCC9177A17C23AA
:1043C0007C93A58DB68DCC9173A17C2B7C93A58D10
:1043D000B68DCC9177A17C237C93A58DB68DCC91A5
:1043E00073A17C2B7C93A58DB68DCC9177A17C237A
:1043F0007C93A58DB68DCC9173A17C2B7C93615061
:1044000009F09DCF98CF2F732150C8F0A58DB68DA0
:104410009C9187A189238C93A58DB68D9C9183A1B6
:10442000892B8C93A58DB68D9C9187A189238C9324
:10443000A58DB68D9C9183A1892B8C93E5CFA18D01
:10444000B28D9C9181A1892B8C93DF91CF911F918B
:104450000F91FF90EF90DF90CF90BF90AF909F9023
:104460008F907F906F900895C0910201C778C0939C
:104470000201C0910201CA2BC0930201CEB1C77CD8
:10448000CEB9CEB1CB2BCEB9A598C4B3CF29C4BB7E
:10449000C58DD68DD880E7A0ED20E882C58DD68D5C
:1044A000D880E3A0ED28E882C0910201C778C093CC
:1044B0000201C0910201C12BC0930201CEB1C77CA1
:1044C000CEB9CEB1C02BCEB9A598C4B3C72BC4BB4F
:1044D000C58DD68DD880E7A0ED20E882C58DD68D1C
:1044E000D880E3A0ED28E882C0910201C778C0938C
:1044F0000201C0910201CA2BC0930201CEB1C77C58
:10450000CEB9CEB1CB2BCEB9A598C4B3CF29C4BBFD
:10451000C58DD68DD880E7A0ED20E882C58DD68DDB
:10452000D880E3A0ED28E882C0910201C778C0934B
:104530000201C0910201C12BC0930201CEB1C77C20
:10454000CEB9CEB1C02BCEB9A598C4B3C72BC4BBCE
:10455000C58DD68DD880E7A0ED20E882C58DD68D9B
:10456000D880E3A0ED28E882C0910201C778C0930B
:104570000201C0910201CA2BC0930201CEB1C77CD7
:10458000CEB9CEB1CB2BCEB9A598C4B3CF29C4BB7D
:10459000C58DD68DD880E7A0ED20E882C58DD68D5B
:1045A000D880E3A0ED28E882C0910201C778C093CB
:1045B0000201C0910201C12BC0930201CEB1C77CA0
:1045C000CEB9CEB1C02BCEB9A598C4B3C72BC4BB4E
:1045D000C58DD68DD880E7A0ED20E882C58DD68D1B
:1045E000D880E3A0ED28E882C0910201C778C0938B
:1045F0000201C0910201CA2BC0930201CEB1C77C57
:10460000CEB9CEB1CB2BCEB9A598C4B3CF29C4BBFC
:10461000C58DD68DD880E7A0ED20E882C58DD68DDA
:10462000D880E3A0ED28E882C0910201C778C0934A
:104630000201C0910201C12BC0930201CEB1C77C1F
:10464000CEB9CEB1C02BCEB9A598C4B3C72BC4BBCD
:10465000C58DD68DD880E7A0ED20E882C58DD68D9A
:10466000D880E3A0ED28E882615009F0FDCE0197E3
:1046700010F060E1F9CE2F73215008F4E0CE809164
:104680000201877880930201809102018A2B809336
:1046900002018EB1877C8EB98EB18B2B8EB9A59815
:1046A00084B38F2984BBC58DD68D988187A189233A
:1046B0008883C58DD68D988183A1892B888380912D
:1046C000020187788093020180910201812B8093FF
:1046D00002018EB1877C8EB98EB1802B8EB9A598E0
:1046E00084B3872B84BBC58DD68D988187A1892300
:1046F0008883C58DD68D988183A1892B8883BCCF73
:10470000CF93DF93FC01A18DB28D9C9185A189236C
:104710008C9320853185C9010197892F990F990BB9
:104720002150A38DB48D4C9136A134233C93A2E04B
:10473000B1E03C9137783C933C913C933EB1377C5F
:104740003EB9749AA59834B334BBC58DD68D4881D3
:1047500037A134233883C58DD68D488133A1342BBE
:104760003883C38DD48D488132A1342B38833C915A
:1047700037783C933C91AC01407C5527BA0143E02B
:10478000759567954A95E1F7AC014370552775E03B
:10479000440F551F7A95E1F7462B432B4C933EB1BE
:1047A000377C3EB93EB1AC014C705527BA01660F5B
:1047B000771F660F771FAC014072552755954795B7
:1047C00055954795462B432B4EB9A59834B3807128
:1047D0009927880F991F832B84BBC58DD68D98810F
:1047E00087A189238883C58DD68D988183A1892B44
:1047F0008883C38DD48D988186A1892388838C91E9
:1048000087788C938C9180628C938EB1877C8EB9E3
:10481000749AA59884B384BBC58DD68D988187A1E1
:1048200089238883C58DD68D988183A1892B888320
:10483000C38DD48D988182A1892B88838C918778B0
:104840008C933C91822F807C482F469546954695C7
:10485000922F937050E2959FC0011124842B832BDB
:104860008C938EB1877C8EB93EB1822F8C7094E090
:10487000899FA0011124922F9072892F90E0959525
:10488000879595958795842B832B8EB9A59884B3AE
:104890002071220F282B24BBC58DD68D988187A12E
:1048A00089238883C58DD68D988183A1892B8883A0
:1048B00022853385C9010197892F990F990B2150C2
:1048C000C38DD48D488136A1342338833C91377809
:1048D0003C933C913C933EB1377C3EB9759AA59888
:1048E00034B334BBC58DD68D488137A1342338838A
:1048F000C58DD68D488133A1342B3883C38DD48D9B
:10490000488132A1342B38833C9137783C933C91D9
:10491000AC01407C5527BA01C3E075956795CA95EF
:10492000E1F7AC0143705527D5E0440F551FDA95E8
:10493000E1F7462B432B4C933EB1377C3EB93EB159
:10494000AC014C705527BA01660F771F660F771FB1
:10495000AC01407255275595479555954795462B7F
:10496000432B4EB9A59834B380719927880F991FAE
:10497000832B84BBC58DD68D988187A1892388839D
:10498000C58DD68D988183A1892B8883C38DD48DC5
:10499000988186A1892388838C9187788C938C91C8
:1049A00080628C938EB1877C8EB9759AA59884B3FA
:1049B00084BBC58DD68D988187A189238883C58DB9
:1049C000D68D988183A1892B8883C38DD48D9881BE
:1049D00082A1892B88838C9187788C933C91822F3C
:1049E000807C482F469546954695922F937050E2CD
:1049F000959FC0011124842B832B8C938EB1877CCF
:104A00008EB93EB1822F8C7094E0899FA001112451
:104A1000922F9072892F90E095958795959587951F
:104A2000842B832B8EB9A59884B32071220F282B59
:104A300024BBA58DB68D9C9187A189238C93A58DD0
:104A4000B68D9C9183A1892B8C93A18DB28D9C9165
:104A500081A1892B8C93DF91CF910895EF92FF92E2
:104A60000F931F93CF93DF9383708093E90A209174
:104A7000D80A3091D90A4091DA0A5091DB0A813084
:104A800059F0833049F03093DD0A2093DC0A5093CB
:104A9000DF0A4093DE0A08C05093DD0A4093DC0A27
:104AA0003093DF0A2093DE0AE091ED0AF091EE0ADE
:104AB00090818091F90A892380838091EC0A811189
:104AC000D7C0E091E90AE150E33040F4F0E0EE0FA6
:104AD000FF1FEE5EF94F8081918102C080E390E17B
:104AE000E091EF0AF091F00A30812091FA0A232335
:104AF0002083209102012778209302012091020156
:104B0000209302012EB1277C2EB92EB12EB9A59883
:104B100024B324BBE091F10AF091F20A3081209194
:104B2000FB0A23232083E091F10AF091F20A3081FD
:104B30002091F70A232B20832091020127782093CC
:104B40000201209102012066209302012EB1277CF0
:104B50002EB92EB12EB9A59824B324BBE091F10A49
:104B6000F091F20A30812091FB0A23232083E09107
:104B7000F10AF091F20A30812091F70A232B208369
:104B8000E091EF0AF091F00A30812091F60A232B90
:104B900020832091020127782093020120910201B5
:104BA000209302012EB1277C2EB92EB12EB9A598E3
:104BB000A59AE091F10AF091F20A30812091FB0A66
:104BC00023232083E091F10AF091F20A30812091B1
:104BD000F70A232B208320910201277820930201DA
:104BE00020910201209302012EB1277C2EB94EB1F3
:104BF0009C012C703327B901660F771F660F771F52
:104C00009C01207233273595279535952795262BBE
:104C1000242B2EB9A59824B380719927880F991F4A
:104C2000822B84BBE091F10AF091F20A908180918D
:104C3000FB0A89238083E091F10AF091F20A9081C6
:104C40008091F70A892B80830091DE0A1091DF0A98
:104C5000015011092091DC0A3091DD0A21503109FF
:104C600040E050E060E070E084ED9AE00E9485064C
:104C70008091EC0A813009F075C0E091E90AE150B9
:104C8000E33028F4F0E0E15FF94F808101C080E07B
:104C9000E091EF0AF091F00A20819091FA0A9223B4
:104CA0009083909102019778909302019091020174
:104CB0009064909302019EB1977C9EB9749AA598D6
:104CC000A59AE091F10AF091F20A20819091FB0AF5
:104CD00092239083E091F10AF091F20A2081909161
:104CE000F70A922B9083E091EF0AF091F00A20816D
:104CF0009091F60A922B908390910201977890936D
:104D0000020120910201982F907C96959695969598
:104D1000922B909302019EB1977C9EB92EB1982F51
:104D20009072892F90E09595879595958795822B20
:104D30008EB9A59884B384BBE091F10AF091F20A90
:104D400090818091FB0A89238083E091F10AF091A0
:104D5000F20A90818091F70A892B808384ED9AE092
:104D60000E9480238091EC0A823009F097C08091E4
:104D7000E90A813089F060F0823031F0833079F4D3
:104D8000F8E2EF2EF12C0BC0A8E4EA2EF12C07C0BC
:104D9000E8E8EE2EF12C03C078EEE72EF12CE0913E
:104DA000EF0AF091F00A90818091FA0A89238083BA
:104DB00080910201877880930201809102018064D2
:104DC000809302018EB1877C8EB98EB188618EB9D5
:104DD000A598A59AE091F10AF091F20A908180914C
:104DE000FB0A89238083E091F10AF091F20A908115
:104DF0008091F70A892B8083E091EF0AF091F00A05
:104E000090818091F60A892B8083809102018778B6
:104E10008093020120910201C701807C992753E011
:104E2000969587955A95E1F7822B809302018EB172
:104E3000877C8EB98EB1806290E2E922FF24F694DD
:104E4000E794F694E794E82AEEB8A59884B384BB77
:104E5000E091F10AF091F20A90818091FB0A892396
:104E60008083E091F10AF091F20A90818091F70A33
:104E7000892B80830091DE0A1091DF0A015011090D
:104E80002091DC0A3091DD0A2150310940E050E0E8
:104E900060E070E084ED9AE00E9485068091EC0A63
:104EA000833009F091C08091E90A813071F050F0AF
:104EB000823029F0833059F4C0E6D0E008C0C0E069
:104EC000D0E005C0C0ECD0E002C0C0EAD0E0E09184
:104ED000EF0AF091F00A90818091FA0A8923808389
:104EE00080910201877880930201809102018064A1
:104EF000809302018EB1877C8EB98EB188618EB9A4
:104F0000A598A59AE091F10AF091F20A908180911A
:104F1000FB0A89238083E091F10AF091F20A9081E3
:104F20008091F70A892B8083E091EF0AF091F00AD3
:104F300090818091F60A892B808380910201877885
:104F40008093020120910201CE01807C992733E0F9
:104F5000969587953A95E1F7822B809302018EB161
:104F6000877C8EB98EB1C072DD27D695C795D69550
:104F7000C795C82BCEB9A59884B384BBE091F10A3C
:104F8000F091F20A90818091FB0A89238083E0915D
:104F9000F10AF091F20A90818091F70A892B8083BF
:104FA0000091DE0A1091DF0A015011092091DC0AFC
:104FB0003091DD0A2150310940E050E060E070E0BE
:104FC00084ED9AE00E948506DF91CF911F910F91A9
:104FD000FF90EF9008950F931F93CF93DF938C0171
:104FE000C0E0D0E0F801EC0FFD1F6491662371F082
:104FF000E091FF09F091000A0190F081E02D8FEF20
:1050000099E01995892B11F02196ECCFCE01DF9113
:10501000CF911F910F910895CF93DF930E94EB27BB
:10502000EC018FEF99E00E940F388C0F9D1FDF91EC
:10503000CF910895E4EDFAE0A78DB0A19C9180A5F1
:1050400089238C9300C000C000C00000A0E0B1E044
:105050009C912C916CB14CB182B3A78DB0A15C91A5
:1050600034A1352B3C93287138E0239FF0011124A3
:105070009076292F30E095E0359527959A95E1F7C0
:105080002E2B3F2B687070E0660F771F660F771F1F
:10509000262B372B407350E05595479555954795EE
:1050A000242B352B807290E095958795822B08955F
:1050B000CF92DF92EF92FF920F931F93CF93DF93E4
:1050C000C4EDDAE0E98DFA8D20819DA192239083D1
:1050D000EB8DFC8D20819EA192239083E2E0F1E094
:1050E0009081977890834081282F207C522F56956D
:1050F00056955695982F937060E2969F90011124D3
:10510000252B242B20839EB1977C9EB94EB1282F4E
:105110002C7094E0299FB0011124982F9072292FB0
:1051200030E03595279535952795262B242B2EB9DC
:10513000A59894B38071880F892B84BBED8DFE8D6B
:1051400090818FA189238083ED8DFE8D90818BA12D
:10515000892B808301E011E0F801808187788083CA
:105160008DB1877C8DB99D98EB8DFC8D90818AA146
:10517000892B808383EC90E00197F1F70E941A2835
:10518000C82ED12CE12CF12CFE2CED2CDC2CCC24C7
:105190000E941A28C82AFE2CED2CDC2CCC240E945C
:1051A0001A28C82AFE2CED2CDC2CCC240E941A28AC
:1051B000E98DFA8D208199A1922B9083F80190813D
:1051C000986790839DB198639DB99D9AA7019601B8
:1051D000282BCA01B901DF91CF911F910F91FF9048
:1051E000EF90DF90CF900895362F90E0FC01E556C8
:1051F000F94F4491FC01E550F44F2491FC01E55A2C
:10520000F34F9491992309F46BC0442309F455C0DA
:1052100050E0FA013197E231F10508F04EC08827DD
:10522000EE58FF4F8F4F0C94114E809180008F7776
:1052300007C0809180008F7D03C080918000877FB0
:10524000809380003AC084B58F7702C084B58F7D8B
:1052500084BD33C08091B0008F7703C08091B000CF
:105260008F7D8093B00029C0809190008F7707C018
:10527000809190008F7D03C080919000877F809304
:1052800090001BC08091A0008F7707C08091A00084
:105290008F7D03C08091A000877F8093A0000DC008
:1052A000809120018F7707C0809120018F7D03C0FE
:1052B00080912001877F80932001E92FF0E0EE0F9D
:1052C000FF1FEF5BF34FA591B4918FB7F894EC916A
:1052D000311103C020952E2301C02E2B2C938FBF9C
:1052E0000895863308F0865390917B00282F28700C
:1052F000977F922B90937B008770806480937C00D3
:1053000080917A00806480937A0080917A0086FD93
:10531000FCCF809178002091790090E0922B089545
:105320003FB7F8948091540990915509A09156097E
:10533000B091570926B5A89B05C02F3F19F00196DB
:10534000A11DB11D3FBFBA2FA92F982F8827820F0B
:10535000911DA11DB11DBC01CD0142E0660F771F5B
:10536000881F991F4A95D1F708958F929F92AF9207
:10537000BF92CF92DF92EF92FF926B017C010E946D
:1053800090294B015C01C114D104E104F104F1F056
:105390000E949029DC01CB0188199909AA09BB094F
:1053A000883E9340A105B10570F321E0C21AD108EF
:1053B000E108F10888EE880E83E0981EA11CB11C5C
:1053C000C114D104E104F10419F7DDCFFF90EF908F
:1053D000DF90CF90BF90AF909F908F900895E09115
:1053E000ED0AF091EE0A90818091F50A892B808375
:1053F000E091F10AF091F20A90818091F70A892BED
:105400008083E091F30AF091F40A90818091F80A88
:10541000892B80838091FD0A882371F060E00E94CF
:10542000F42862E070E080E090E00E94B52961E03D
:105430008091FD0A0E94F428E091ED0AF091EE0AB5
:1054400090818091F90A89238083E091EF0AF0919D
:10545000F00A90818091FA0A892380838091020169
:1054600087788093020180910201809302018EB1BE
:10547000877C8EB98EB18EB9A59884B384BBE09138
:10548000F10AF091F20A90818091FB0A89238083CE
:10549000E091F10AF091F20A90818091F70A892B4C
:1054A000808383E0E091F10AF091F20A20819091EB
:1054B000FB0A92239083E091F10AF091F20A208195
:1054C0009091F70A922B9083815061F7E091ED0A59
:1054D000F091EE0A90818091F50A892B80830895DE
:1054E00008952F923F924F925F926F927F928F9288
:1054F0009F92AF92BF92CF92DF92EF92FF920F9363
:105500001F93CF93DF93CDB7DEB72D970FB6F894E7
:10551000DEBF0FBECDBF9D878C876A30A1F4DC0152
:1055200054962C9154971E968D919C911F97B8E09C
:105530002B9F800D911D1124EC85FD859787868713
:1055400015861486FBC06D3009F4F8C0AC85BD85A6
:105550005496BC91B983EC85FD850288F389E02DD2
:10556000FD83EC83AC85BD8550960D90BC91A02D3C
:10557000BF83AE83EC85FD8586849784C484D584FF
:1055800080859185C816D906C4F0AC85BD85549632
:105590004C915497242F30E01C968D919C911D972F
:1055A000B6E04B9F800D911D1124EC85FD859587FC
:1055B0008487468941119EC0C1C0AC85BD851A96BD
:1055C0008D919C911B9788169906FCF6B981AB2E9C
:1055D000B12CC601E6E0BE9F800D911D1124181666
:1055E00019069CF6C50123E0880F991F2A95E1F75B
:1055F000880D991D1816190644F6AC85BD85579679
:105600008C91811103C0603B08F06F5FB5E06B9F28
:10561000B001112416011A82FB01EC19FD09F9876A
:10562000E8879401285F3F4F3B872A873A813530CE
:1056300049F0E885F985E20DF31DEF51F94F5491DA
:105640005B8301C01B82240134018B8180FF13C066
:10565000AC85BD85ED91FC91B981B13031F4008408
:10566000F185E02D2E813F8119C00288F389E02D5C
:10567000EE80FF801EC0EC81FD812E813F81E2170C
:10568000F307F1F0AC85BD85ED91FC91B981B130A6
:1056900059F40084F185E02D2C813D81A301B101F5
:1056A0008C859D8519950CC00288F389E02DEC80CE
:1056B000FD8085019501A201B6018C859D85199516
:1056C000EB81E695EB83FFEF6F1A7F0A4A0C5B1CB8
:1056D0002A853B856216730609F0B7CF3A813F5F92
:1056E0003A835FEF251A350ACA0CDB1C363009F005
:1056F0009DCF4BCF4AEF4203B001439F700D112461
:10570000AC85BD8518964D915C911997460F571F32
:10571000481759079CF483E0220F331F8A95E1F75D
:105720001E968D919C911F97280F391F1F963C93B1
:105730002E931E971D961C921E921C9781E090E05E
:105740002D960FB6F894DEBF0FBECDBFDF91CF917F
:105750001F910F91FF90EF90DF90CF90BF90AF908F
:105760009F908F907F906F905F904F903F902F9081
:105770000895EF92FF920F931F93DC01ED91FC913E
:1057800011971A960D911C911B9718962D913C918B
:1057900019970288F389E02D7B0140E050E060E03A
:1057A00070E019951F910F91FF90EF9008956F92FF
:1057B0007F928F929F92AF92BF92CF92DF92EF92A1
:1057C000FF920F931F93CF93DF936C015A0148010F
:1057D000EB013B01620E731EC615D70574F4D601AA
:1057E000ED91FC910484F585E02D87019401A501DC
:1057F000BE01C60119952196EFCFDF91CF911F9180
:105800000F91FF90EF90DF90CF90BF90AF909F905F
:105810008F907F906F900895EF92FF920F931F9358
:10582000DC01ED91FC91260F371F215031090284D4
:10583000F385E02D78018A0119951F910F91FF9052
:10584000EF900895EF92FF920F931F937801DC0180
:10585000ED91FC91240F351F89010150110902843B
:10586000F385E02D9B0119951F910F91FF90EF900B
:1058700008956F927F928F929F92AF92BF92CF9234
:10588000DF92EF92FF920F931F93CF93DF93EC0180
:105890004B015A0169013801E881F9810684F785D5
:1058A000E02D87011995E881F981A501460D571D65
:1058B000415051090684F785E02D9601B401CE01CF
:1058C0001995E881F9810484F585E02D9301A501FE
:1058D000B401CE011995E881F981C80CD91CB60133
:1058E000615071090484F585E02D9301A501CE0175
:1058F0001995DF91CF911F910F91FF90EF90DF905D
:10590000CF90BF90AF909F908F907F906F900895B1
:105910002F923F924F925F926F927F928F929F92BF
:10592000AF92BF92CF92DF92EF92FF920F931F93AD
:10593000CF93DF9300D0CDB7DEB74C017B836A8372
:105940006A01590117019801241B350B37FF03C069
:10595000319521953109C5014A815B81841B950BE5
:1059600097FF03C091958195910951E05983821762
:10597000930714F019820BC09A2D8B2D5801092F13
:10598000182F9A818B81DB82CA82C92ED82E8A81F8
:105990009B81A816B9065CF49C2D8D2D6801092FFA
:1059A000182F9A818B81BB82AA82A92EB82E25013D
:1059B000AA81BB814A1A5B0A38016C187D0877FE00
:1059C00003C0719461947108720157FE03C0BFEF68
:1059D000EB1AFB0AF594E794C016D1061CF00FEF02
:1059E0001FEF1FC001E010E01CC0D401ED91FC913D
:1059F000B9810084F185E02D9101BB23C1F04A817A
:105A00005B81B601C4011995E618F708F7FE04C0DA
:105A1000C00ED11EE40CF51CEA81FB813196FB839C
:105A2000EA834A815B81A416B506FCF604C0A60190
:105A30006A817B81E7CF0F900F900F90DF91CF911C
:105A40001F910F91FF90EF90DF90CF90BF90AF909C
:105A50009F908F907F906F905F904F903F902F908E
:105A60000895089580E090E00895CF92DF92EF923C
:105A7000FF920E9470376B017C016093580970930C
:105A8000590980935A0990935B090E947037DC0191
:105A9000CB018C199D09AE09BF09803D9740A10536
:105AA000B10598F38FEF99E00E940F388FEF99E0DE
:105AB0000E94FE309C012B7F22363105B9F09C01FB
:105AC000225731092230310588F09C01277F243686
:105AD000310561F09C01285631092230310530F042
