:100000000C9452060C9483060C9483060C9483067D
:100010000C9483060C9483060C9483060C9483063C
:100020000C9483060C9483060C9483060C9483062C
:100030000C9483060C9483060C9483060C9483061C
:100040000C9483060C9483060C9483060C9483060C
:100050000C9483060C9483060C9483060C94D93775
:100060000C9483060C94812E0C94572E0C948306CA
:100070000C9483060C9483060C9483060C948306DC
:100080000C9483060C9483060C9483060C948306CC
:100090000C94E12E0C94B72E0C9483060C948306DA
:1000A0000C9483060C9483060C9483060C948306AC
:1000B0000C9483060C9483060C9483060C9483069C
:1000C0000C9483060C9483060C9483060C9483068C
:1000D0000C9483060C9483060C9483060C9483067C
:1000E0000C9483061F3722371137153719375937C4
:1000F00026372A373037343738373E374237463796
:1001000059374C375037543707634236B79BD8A717
:100110001A39685618AEBAAB558C1D3CB7CC57632C
:10012000BD6DEDFD753EF6177231BF000000803FDA
:1001300008000000BE922449123EABAAAA2ABECDF6
:10014000CCCC4C3E00000080BEABAAAAAA3E000068
:100150000000BF000000803F000000000008417860
:10016000D3BB4387D1133D190E3CC3BD4282AD2B97
:100170003E68EC8276BED98FE1A93E4C80EFFFBE8F
:1001800001C4FF7F3F00000000000C94D0350C94A8
:1001900015370C946A160C9411370C9438370C945C
:1001A000E51C0C9493280C94162E0C9442370C9456
:1001B0000E2D0C944C330C9459370C944C370C94F2
:1001C00030190C94C1190C94BE240C94FF2C0C947F
:1001D000222D0C94941B0C943E370C946A350C948D
:1001E0001F370C946F1E0C9450370C946B160C94A4
:1001F000611C0C942F180C9454370C94082C0C94FC
:10020000A1250C94D0280C947E180C94E0340C9406
:1002100030370C94CD490C949E290C9419370C94CA
:1002200033190C9422370C94302D0C942A370C94EB
:10023000BF2D0C94572A0C9426370C94722D0C94D5
:1002400034370C944E290C9446370C942F192E8970
:10025000298F2B02E200E401E510E601E710E870C7
:10026000F200EA00EB20EC3CEDC8E938F1011B1A82
:100270001A022461255C183619011F88FF051F80AA
:10028000FF051F90FF051FD4FF0517053609283805
:10029000FF28283C02000300040005EF06000700C9
:1002A0000801093F0100B903FF8357FFFAB30400B7
:1002B000000606B60125B00168CC0105B10600159F
:1002C0001C1C83AAC0065050013C1E08B407024003
:1002D000002A2A0D783A01553601C0350100440242
:1002E00000021100FF962900FF32150030009A002D
:1002F000100011002000100028341200020013002A
:100300004610FF00280012001200FF002800100015
:10031000203413004630FF0046003000000031005A
:1003200002043200070333000403340004003500E4
:1003300001043600070737000503380010063900AE
:100340001006010000010200000303003010080045
:1003500008080A0008006000002761000100900002
:100360003E019200000193000001A0000030A300B4
:10037000100007000100070021000700230007000C
:1003800033000700330100000100FF0032000100CC
:100390000001020000070300301004000000080004
:1003A0000202090000000A0000000C0000000D001D
:1003B00000000F00000010000000110007001200F4
:1003C000000013000000FF00C8001000901611008C
:1003D0002702FF00320012001A00FF003200130053
:1003E000001829002A00FF00320030000000310010
:1003F0000000320000003500060236000808370011
:10040000070038000102390000003C0000003D00F8
:1004100000002000000021000000500000005100FA
:10042000EF005200000053003F01600000A7610090
:1004300003006A000000900010009200000093008A
:1004400003009500001197000000980000000700CD
:1004500033016D6174636865732074686520747519
:10046000746F7269616C2E00416C736F2069662035
:100470007573696E672074686520627265616B6F61
:1004800075742C20646F75626C652D636865636B91
:10049000207468617420616C6C20776972696E6782
:1004A000004966207573696E672074686520627202
:1004B00065616B6F757420626F6172642C20697462
:1004C0002073686F756C64204E4F54206265202342
:1004D000646566696E6564210073686F756C64207D
:1004E00061707065617220696E20746865206C6946
:1004F0006272617279206865616465722028456C5A
:1005000065676F6F5F5446542E68292E00202023A4
:10051000646566696E65205553455F456C65676F18
:100520006F5F534849454C445F50494E4F55540006
:100530004966207573696E672074686520456C652F
:10054000676F6F20322E3822205446542041726447
:1005500075696E6F20736869656C642C20746865BA
:10056000206C696E653A00556E6B6E6F776E204C2D
:1005700043442064726976657220636869703A202A
:1005800000466F756E6420307839333238204C4322
:10059000442064726976657200466F756E6420301F
:1005A0007839333431204C43442064726976657263
:1005B00000466F756E642048583833353744204CF8
:1005C00043442064726976657200466F756E6420DC
:1005D000494C4939333431204C43442064726976A4
:1005E000657200466F756E6420485838333437475B
:1005F000204C43442064726976657200466F756EC4
:1006000064204C47445034353335204C43442064F7
:10061000726976657200466F756E6420494C49397F
:10062000333238204C434420647269766572004648
:100630006F756E6420494C4939333235204C434440
:1006400020647269766572005573696E6720456C27
:1006500065676F6F20322E34222054465420427238
:1006600065616B6F757420426F6172642050696EB2
:100670006F757400544654204C4344207465737461
:100680000000000000003E5B4F5B3E3E6B4F6B3E48
:100690001C3E7C3E1C183C7E3C181C577D571C1C85
:1006A0005E7F5E1C00183C1800FFE7C3E7FF0018E0
:1006B000241800FFE7DBE7FF30483A060E262979C9
:1006C0002926407F050507407F05253F5A3CE73C2A
:1006D0005A7F3E1C1C08081C1C3E7F14227F2214DB
:1006E0005F5F005F5F06097F017F006689956A6032
:1006F0006060606094A2FFA29408047E0408102049
:100700007E201008082A1C08081C2A08081E101041
:1007100010100C1E0C1E0C30383E3830060E3E0EEB
:1007200006000000000000005F0000000700070056
:10073000147F147F14242A7F2A122313086462363C
:10074000495620500008070300001C2241000041C8
:10075000221C002A1C7F1C2A08083E080800807002
:100760003000080808080800006060002010080435
:10077000023E5149453E00427F4000724949494688
:100780002141494D331814127F1027454545393C06
:100790004A494931412111090736494949364649F3
:1007A00049291E0000140000004034000000081415
:1007B000224114141414140041221408020159098E
:1007C000063E415D594E7C1211127C7F49494936E3
:1007D0003E414141227F4141413E7F494949417F5C
:1007E000090909013E414151737F0808087F004112
:1007F0007F41002040413F017F081422417F40405B
:1008000040407F021C027F7F0408107F3E4141412F
:100810003E7F090909063E4151215E7F091929469B
:10082000264949493203017F01033F4040403F1FB1
:100830002040201F3F4038403F63140814630304E6
:100840007804036159494D43007F41414102040846
:100850001020004141417F04020102044040404019
:1008600040000307080020545478407F284444384F
:100870003844444428384444287F38545454180099
:10088000087E090218A4A49C787F08040478004418
:100890007D40002040403D007F1028440000417F03
:1008A00040007C047804787C08040478384444448C
:1008B00038FC1824241818242418FC7C0804040884
:1008C000485454542404043F44243C4040207C1C9D
:1008D0002040201C3C4030403C44281028444C9090
:1008E00090907C4464544C440008364100000077EA
:1008F0000000004136080002010204023C262326C3
:100900003C1EA1A161123A4040207A3854545559F6
:10091000215555794122545478422155547840202C
:10092000545579400C1E5272123955555559395447
:1009300054545939555454580000457C41000245DF
:100940007D420001457C407D1211127DF028252852
:10095000F07C545545002054547C547C0A097F494E
:1009600032494949323A4444443A324A4848303A92
:100970004141217A3A42402078009DA0A07D3D422D
:1009800042423D3D4040403D3C24FF2424487E49B6
:1009900043662B2FFC2F2BFF0929F620C0887E09E8
:1009A0000320545479410000447D413048484A3284
:1009B000384040227A007A0A0A727D0D19317D266C
:1009C00029292F28262929292630484D4020380852
:1009D00008080808080808382F10C8ACBA2F1028D3
:1009E00034FA00007B000008142A142222142A146E
:1009F000085500550055AA55AA55AAFF55FF55FFA1
:100A0000000000FF00101010FF00141414FF00106D
:100A100010FF00FF1010F010F0141414FC00141458
:100A2000F700FF0000FF00FF1414F404FC14141777
:100A3000101F10101F101F1414141F00101010F09E
:100A4000000000001F101010101F10101010F010E8
:100A5000000000FF101010101010101010FF1000F8
:100A60000000FF140000FF00FF00001F101700002F
:100A7000FC04F414141710171414F404F40000FF09
:100A800000F714141414141414F700F714141417A2
:100A90001410101F101F141414F4141010F010F080
:100AA00000001F101F0000001F14000000FC1400B5
:100AB00000F010F01010FF10FF141414FF141010A9
:100AC000101F00000000F010FFFFFFFFFFF0F0F02C
:100AD000F0F0FFFFFF0000000000FFFF0F0F0F0FFF
:100AE0000F3844443844FC4A4A4A347E020206061F
:100AF000027E027E0263554941633844443C04400F
:100B00007E201E2006027E020299A5E7A5991C2AD6
:100B1000492A1C4C7201724C304A4D4D3030487895
:100B20004830BC625A463D3E494949007E010101B8
:100B30007E2A2A2A2A2A44445F444440514A444097
:100B400040444A51400000FF0103E080FF000008DC
:100B5000086B6B083612362436060F090F060000A4
:100B600018180000001010003040FF0101001F01A4
:100B7000011E00191D1712003C3C3C3C0000000007
:100B800000000020002300260029002C002F003246
:100B900000000100000301060109010000210024FA
:100BA0000027002A002D003000330001010000045E
:100BB0000107010A0101021020200808102040103E
:100BC0002040800201020108040201010204081011
:100BD000204080804020100804020180040201802F
:100BE0004020100804020108040201010204081058
:100BF00020408001020408102040800000220025CF
:100C00000028002B002E00310034000201000005F6
:100C10000108010B0105050505070508080808027C
:100C20000202020A0A080804040404010101010185
:100C30000101010303030303030303040707070C74
:100C40000C0C0C0C0C0C0C0202020206060606062A
:100C50000606060B0B0B0B0B0B0B0B00000A0B0213
:100C6000090C0D0E0807030401000000000000003D
:100C70000000000000000000000000000000000074
:100C80000000000000000012111000000000000031
:100C90000000000000000000000000000000000054
:100CA0000000CD4911241FBECFEFD1E2DEBFCDBF82
:100CB00000E00CBF2BE0AAEDB8E001C01D92A43704
:100CC000B207E1F718E0A0E0B2E0EEE3F3EA00E0FB
:100CD0000BBF02C007900D92AA3DB107D9F716E0ED
:100CE000C2E5D6E000E006C021970109802FFE0191
:100CF0000E944C50C135D10780E00807A9F70E9437
:100D0000163A0C949D510C9400008F929F92BF92C2
:100D1000CF92DF92EF92FF920F931F93CF93DF93C7
:100D2000EC01CB017A01E98DFA8D50814DA145236B
:100D30004083488D411163C54D89423089F043306D
:100D400021F1413081F5AFEEB0E0AD01401B510B18
:100D50004B01AE19BF0989019D017B01CA0125C064
:100D60004FEE50E0BA01621B730B9A01281B390B3E
:100D70008FE391E0AC01401B510B8C010E191F0950
:100D80004801D9017A01CB0110C0EFE3F1E0AF01D6
:100D9000421B530B4F01861A970AD7019801840111
:100DA000C7017A0102C04701DB016B8D7C8DFB011D
:100DB00050814EA1452340834091020147784093E2
:100DC000020140910201409302014EB1477C4EB9AD
:100DD0004EB14EB9A59844B344BB6D8D7E8DFB01D9
:100DE00050814FA1452340836D8D7E8DFB01508145
:100DF0004BA1452B4083409102014778409302016B
:100E0000409102014860409302014EB1477C4EB9C7
:100E10004EB14EB9A598A59A6D8D7E8DFB0150817E
:100E20004FA1452340836D8D7E8DFB0150814BA1E9
:100E3000452B4083492F552747FD5A95CB8CDC8C99
:100E4000F60170816AA1672B608360910201677867
:100E500060930201B0900201BA01607C77276B01B8
:100E600063E0D594C7946A95E1F7BA016370772778
:100E7000E5E0660F771FEA95E1F76C296B2960932F
:100E800002016EB1677C6EB9BEB0BA016C70772793
:100E90006B01CC0CDD1CCC0CDD1CBA016072772719
:100EA00075956795759567956C296B296EB9A598A9
:100EB00064B340715527440F551F462B44BB6D8DBD
:100EC0007E8DFB0150814FA1452340836D8D7E8D2A
:100ED000FB0150814BA1452B408340910201477893
:100EE0004093020160910201AC01407C55276A01E8
:100EF00043E0D594C7944A95E1F7AC014370552778
:100F000075E0440F551F7A95E1F74C29462B409325
:100F100002014EB1477C4EB96EB1AC014C70552701
:100F20006A01CC0CDD1CCC0CDD1CAC0140725527D9
:100F300055954795559547954C29462B4EB9A598FB
:100F400064B380719927880F991F862B84BB4D8DC0
:100F50005E8DFA0190818FA1892380834D8D5E8DF6
:100F6000FA0190818BA1892B80834B8D5C8DFA01D6
:100F700090818EA18923808380910201877880935C
:100F8000020180910201809302018EB1877C8EB9AB
:100F90008EB18EB9A59884B384BB4D8D5E8DFA0158
:100FA00090818FA1892380834D8D5E8DFA01908180
:100FB0008BA1892B80838091020187788093020125
:100FC000809102018862809302018EB1877C8EB984
:100FD0008EB18EB9A598A59A4D8D5E8DFA0190813E
:100FE0008FA1892380834D8D5E8DFA0190818BA125
:100FF000892B8083832F992787FD9A956B8D7C8D14
:10100000FB0150814AA1452B408340910201477862
:101010004093020160910201AC01407C55276A01B6
:1010200073E0D594C7947A95E1F7AC0143705527E6
:10103000E5E0440F551FEA95E1F74C29462B409314
:1010400002014EB1477C4EB96EB1AC014C705527D0
:101050006A01CC0CDD1CCC0CDD1CAC0140725527A8
:1010600055954795559547954C29462B4EB9A598CA
:1010700044B380719927880F991F842B84BB4D8DB1
:101080005E8DFA0190818FA1892380834D8D5E8DC5
:10109000FA0190818BA1892B80838091020187784E
:1010A0008093020140910201C901807C9927BC0113
:1010B000F3E075956795FA95E1F7C9018370992773
:1010C00055E0880F991F5A95E1F7862B842B809362
:1010D00002018EB1877C8EB94EB1C9018C709927FF
:1010E000BC01660F771F660F771FC90180729927B1
:1010F0009595879595958795862B842B8EB9A59880
:1011000084B320713327220F331F282B24BB2D8D4E
:101110003E8DF90190818FA1892380832D8D3E8D95
:10112000F90190818BA1892B80832B8D3C8DF90156
:1011300090818EA18923808380910201877880939A
:10114000020180910201809302018EB1877C8EB9E9
:101150008EB18EB9A59884B384BB2D8D3E8DF901D7
:1011600090818FA1892380832D8D3E8DF9019081FF
:101170008BA1892B80838091020187788093020163
:10118000809102018864809302018EB1877C8EB9C0
:101190008EB18EB9A598A59A2D8D3E8DF9019081BD
:1011A0008FA1892380832D8D3E8DF90190818BA1A4
:1011B000892B80838F2D992787FD9A954B8D5C8D88
:1011C000FA0130812AA1232B208320910201277864
:1011D00020930201409102019C01207C3327B90138
:1011E00033E0759567953A95E1F79C0123703327B5
:1011F00055E0220F331F5A95E1F7262B242B20931D
:1012000002012EB1277C2EB94EB19C012C703327E0
:10121000B901660F771F660F771F9C012072332775
:101220003595279535952795262B242B2EB9A598EE
:1012300024B380719927880F991F822B84BB2D8D31
:101240003E8DF90190818FA1892380832D8D3E8D64
:10125000F90190818BA1892B80838091020187788D
:101260008093020120910201C701807C9927AC0183
:1012700063E0559547956A95E1F7C7018370992713
:1012800075E0880F991F7A95E1F7842B822B809364
:1012900002018EB1877C8EB92EB1C7018C7099275F
:1012A000AC01440F551F440F551FC7018072992789
:1012B0009595879595958795842B822B8EB9A598C2
:1012C00044B3970120713327220F331F242B24BBF3
:1012D0002D8D3E8DF90190818FA1892380832D8DE5
:1012E0003E8DF90190818BA1892B80832B8D3C8DC4
:1012F000F90190818EA189238083809102018778F2
:101300008093020180910201809302018EB1877C5B
:101310008EB98EB18EB9A59884B384BB2D8D3E8DC8
:10132000F90190818FA1892380832D8D3E8DF90154
:1013300090818BA1892B8083809102018778809393
:101340000201809102018866809302018EB1877C40
:101350008EB98EB18EB9A598A59A2D8D3E8DF901C5
:1013600090818FA1892380832D8D3E8DF9019081FD
:101370008BA1892B8083812F992787FD9A954B8D8F
:101380005C8DFA0130812AA1232B20832091020158
:10139000277820930201409102019C01207C332791
:1013A000B90123E0759567952A95E1F79C012370B3
:1013B000332755E0220F331F5A95E1F7262B242BB4
:1013C000209302012EB1277C2EB94EB19C012C70C6
:1013D0003327B901660F771F660F771F9C012072B4
:1013E00033273595279535952795262B242B2EB910
:1013F000A59824B380719927880F991F822B84BBED
:101400002D8D3E8DF90190818FA1892380832D8DB3
:101410003E8DF90190818BA1892B808380910201FF
:1014200087788093020120910201C801807C99276E
:10143000AC0163E0559547956A95E1F7C801837063
:10144000992775E0880F991F7A95E1F7842B822BF5
:10145000809302018EB1877C8EB92EB1C8018C7049
:101460009927AC01440F551F440F551FC8018072C6
:1014700099279595879595958795842B822B8EB97D
:10148000A59824B300711127000F111F022B04BB74
:101490002D8D3E8DF90190818FA1892380832D8D23
:1014A0003E8DF90190818BA1892B80832B8D3C8D02
:1014B000F90190818EA18923808380910201877830
:1014C0008093020180910201809302018EB1877C9A
:1014D0008EB98EB18EB9A59884B384BB2D8D3E8D07
:1014E000F90190818FA1892380832D8D3E8DF90193
:1014F00090818BA1892B80838091020187788093D2
:10150000020180910201809302018EB1877C8EB925
:10151000739AA59884B384BB2D8D3E8DF90190817B
:101520008FA1892380832D8D3E8DF90190818BA120
:10153000892B80838B2F992787FD9A954B8D5C8D06
:10154000FA0130812AA1232B2083209102012778E0
:1015500020930201409102019C01207C3327B901B4
:1015600023E0759567952A95E1F79C012370332751
:1015700055E0220F331F5A95E1F7262B242B209399
:1015800002012EB1277C2EB94EB19C012C7033275D
:10159000B901660F771F660F771F9C0120723327F2
:1015A0003595279535952795262B242B2EB9A5986B
:1015B00024B380719927880F991F822B84BB2D8DAE
:1015C0003E8DF90190818FA1892380832D8D3E8DE1
:1015D000F90190818BA1892B80838091020187780A
:1015E0008093020120910201CD01807C9927AC01FA
:1015F00003E0559547950A95E1F7CD01837099274A
:1016000035E0880F991F3A95E1F7842B822B809360
:1016100002018EB1877C8EB92EB1CD018C709927D5
:10162000AC01440F551F440F551FCD0180729927FF
:101630009595879595958795842B822B8EB9A5983E
:1016400084B3A071BB27AA0FBB1FA82BA4BBAD8D71
:10165000BE8D9C918FA189238C93AD8DBE8D9C9165
:101660008BA1892B8C93AB8DBC8D9C918EA18923F2
:101670008C9380910201877880930201809102010E
:10168000809302018EB1877C8EB98EB18EB9A598F8
:1016900084B384BBAD8DBE8D9C918FA189238C9327
:1016A000AD8DBE8D9C918BA1892B8C938091020175
:1016B0008778809302018091020180628093020109
:1016C0008EB1877C8EB9739AA59884B384BBAD8D97
:1016D000BE8D9C918FA189238C93AD8DBE8D9C91E5
:1016E0008BA1892B8C93892D992787FD9A95AB8D9A
:1016F000BC8D3C912AA1232B2C93209102012778A9
:1017000020930201409102019C01207C3327B90102
:10171000A3E075956795AA95E1F79C01237033279F
:10172000B5E0220F331FBA95E1F7262B242B209327
:1017300002012EB1277C2EB94EB19C012C703327AB
:10174000B901660F771F660F771F9C012072332740
:101750003595279535952795262B242B2EB9A598B9
:1017600024B380719927880F991F822B84BBAD8D7C
:10177000BE8D9C918FA189238C93AD8DBE8D9C9144
:101780008BA1892B8C938091020187788093020131
:1017900020910201C401807C9927AC0163E055953A
:1017A00047956A95E1F7C4018370992775E0880F22
:1017B000991F7A95E1F7842B822B809302018EB1D9
:1017C000877C8EB92EB1C4018C709927AC01440F6F
:1017D000551F440F551FC401807299279595879511
:1017E00095958795842B822B8EB9A59884B3F401A7
:1017F000E071FF27EE0FFF1FE82BE4BB80C34130F1
:1018000009F08AC3492F552747FD5A95EB8DFC8D6A
:1018100070816EA167236083609102016778609395
:101820000201609102016064609302016EB1677C05
:101830006EB96EB16EB9A59864B364BBED8DFE8DC3
:1018400070816FA167236083ED8DFE8D70816BA128
:10185000672B6083EB8DFC8D70816AA1672B6083A1
:1018600060910201677860930201E0910201BA0180
:10187000607C7727DB0173E0B595A7957A95E1F752
:10188000BA0163707727F5E0660F771FFA95E1F7E5
:101890006A2B6E2B609302016EB1677C6EB9EEB15C
:1018A000BA016C707727DB01AA0FBB1FAA0FBB1F01
:1018B000BA016072772775956795759567956A2B5C
:1018C0006E2B6EB9A59864B340715527440F551F10
:1018D000462B44BBED8DFE8D50814FA145234083A7
:1018E000ED8DFE8D50814BA1452B4083EB8DFC8D02
:1018F00050814EA145234083409102014778409397
:101900000201409102014066409302014EB1477CC2
:101910004EB94EB14EB9A59844B344BBED8DFE8D82
:1019200050814FA145234083ED8DFE8D50814BA109
:10193000452B4083EB8DFC8D50814AA1452B408384
:101940004091020147784093020160910201AC018D
:10195000407C5527FA01B3E0F595E795BA95E1F794
:10196000AC014370552775E0440F551F7A95E1F798
:101970004E2B462B409302014EB1477C4EB96EB1BF
:10198000AC014C705527FA01EE0FFF1FEE0FFF1F41
:10199000AC014072552755954795559547954E2B67
:1019A000462B4EB9A59864B380719927880F991F6B
:1019B000862B84BBED8DFE8D90818FA18923808342
:1019C000ED8DFE8D90818BA1892B80838F2D9927A2
:1019D00087FD9A95EB8DFC8D50814EA14523408368
:1019E0004091020147784093020140910201406416
:1019F000409302014EB1477C4EB9749AA59844B306
:101A000044BBED8DFE8D50814FA145234083ED8D6C
:101A1000FE8D50814BA1452B4083EB8DFC8D508179
:101A20004AA1452B4083409102014778409302012F
:101A300060910201AC01407C5527FA0173E0F595F5
:101A4000E7957A95E1F7AC0143705527F5E0440F2F
:101A5000551FFA95E1F74E2B462B409302014EB1EC
:101A6000477C4EB96EB1AC014C705527FA01EE0FB0
:101A7000FF1FEE0FFF1FAC0140725527559547958C
:101A8000559547954E2B462B4EB9A59844B380717A
:101A90009927880F991F842B84BBED8DFE8D908133
:101AA0008FA189238083ED8DFE8D90818BA1892B61
:101AB0008083EB8DFC8D90818EA189238083809122
:101AC00002018778809302018091020180668093F1
:101AD00002018EB1877C8EB9749AA59884B384BBB9
:101AE000ED8DFE8D90818FA189238083ED8DFE8DFC
:101AF00090818BA1892B8083EB8DFC8D90818AA1B5
:101B0000892B808380910201877880930201409124
:101B10000201C701807C9927BC01E3E075956795B8
:101B2000EA95E1F7C70183709927F5E0880F991FBF
:101B3000FA95E1F7862B842B809302018EB1877C86
:101B40008EB94EB1C7018C709927BC01660F771F03
:101B5000660F771FC7018072992795958795959590
:101B60008795862B842B8EB9A59844B3F0E1EF229C
:101B7000FF24EE0CFF1CE42AE4BAED8DFE8D90816B
:101B80008FA189238083ED8DFE8D90818BA1892B80
:101B90008083832F992787FD9A95EB8DFC8D50814B
:101BA0004EA14523408340910201477840930201B2
:101BB00040910201409302014EB1477C4EB9749AA4
:101BC000A59844B344BBED8DFE8D50814FA14523B4
:101BD0004083ED8DFE8D50814BA1452B4083EB8DD5
:101BE000FC8D50814AA1452B4083409102014778EA
:101BF0004093020160910201AC01407C5527FA013B
:101C000043E0F595E7954A95E1F7AC014370552718
:101C100075E0440F551F7A95E1F74E2B462B409304
:101C200002014EB1477C4EB96EB1AC014C705527E4
:101C3000FA01EE0FFF1FEE0FFF1FAC014072552798
:101C400055954795559547954E2B462B4EB9A598DA
:101C500044B380719927880F991F842B84BBED8D25
:101C6000FE8D90818FA189238083ED8DFE8D9081E3
:101C70008BA1892B8083EB8DFC8D90818EA1892394
:101C80008083809102018778809302018091020114
:101C90008062809302018EB1877C8EB9749AA59878
:101CA00084B384BBED8DFE8D90818FA189238083C9
:101CB000ED8DFE8D90818BA1892B8083EB8DFC8D2A
:101CC00090818AA1892B80838091020187788093FB
:101CD000020140910201C901807C9927BC01E3E027
:101CE00075956795EA95E1F7C90183709927F5E045
:101CF000880F991FFA95E1F7862B842B80930201B8
:101D00008EB1877C8EB94EB1C9018C709927BC0108
:101D1000660F771F660F771FC90180729927959507
:101D2000879595958795862B842B8EB9A59884B336
:101D300020713327220F331F282B24BBED8DFE8DFE
:101D400090818FA189238083ED8DFE8D90818BA161
:101D5000892B8083812F992787FD9A95EB8DFC8DA8
:101D600030812EA123232083209102012778209304
:101D7000020120910201209302012EB1277C2EB98D
:101D8000759AA59824B324BBED8DFE8D30812FA1CB
:101D900023232083ED8DFE8D30812BA1232B2083E7
:101DA000EB8DFC8D30812AA1232B20832091020111
:101DB000277820930201409102019C01207C332767
:101DC000B90133E0759567953A95E1F79C01237069
:101DD000332755E0220F331F5A95E1F7262B242B8A
:101DE000209302012EB1277C2EB94EB19C012C709C
:101DF0003327B901660F771F660F771F9C0120728A
:101E000033273595279535952795262B242B2EB9E5
:101E1000A59824B380719927880F991F822B84BBC2
:101E2000ED8DFE8D90818FA189238083ED8DFE8DB8
:101E300090818BA1892B8083EB8DFC8D90818EA16D
:101E400089238083809102018778809302018091A9
:101E500002018062809302018EB1877C8EB9759AEF
:101E6000A59884B384BBED8DFE8D90818FA18923CD
:101E70008083ED8DFE8D90818BA1892B8083EB8DEE
:101E8000FC8D90818AA1892B8083809102018778C3
:101E90008093020120910201C801807C9927AC0146
:101EA000B3E055954795BA95E1F7C8018370992736
:101EB00035E0880F991F3A95E1F7842B822B8093A8
:101EC00002018EB1877C8EB92EB1C8018C70992722
:101ED000AC01440F551F440F551FC801807299274C
:101EE0009595879595958795842B822B8EB9A59886
:101EF00024B300711127000F111F022B04BBED8DBD
:101F0000FE8D90818FA189238083ED8DFE8D908140
:101F10008BA1892B80832FC04250423060F5092E5F
:101F2000000CAA0BBB0BDC0199278827A901330FF2
:101F3000660B770B9A01AB01282B392B4A2B5B2BB5
:101F40006AE2CE010E947A30C701FF0CAA0BBB0BDC
:101F5000BC0155274427012E000C220B330BD9015D
:101F6000C801842B952BA62BB72B9C01AD016BE2EE
:101F7000CE010E947A30E98DFA8D908189A1892B5A
:101F80008083DF91CF911F910F91FF90EF90DF90B1
:101F9000CF90BF909F908F9008956F927F928F9275
:101FA0009F92AF92BF92CF92DF92EF92FF920F93E8
:101FB0001F93CF93DF93FC013B01A18DB28D9C91C8
:101FC00085A189238C93A38DB48D9C9186A18923AF
:101FD0008C93808D823011F181111EC0809102019D
:101FE00087788093020180910201809302018EB173
:101FF000877C8EB98EB18EB9A59884B384BBA58D2C
:10200000B68D9C9187A189238C93A58DB68D9C91CB
:1020100083A1892B8C9312C0833081F480910201BB
:1020200087788093020180910201809302018EB132
:10203000877C8EB98EB188638EB90EC08091020103
:10204000877880930201809102018064809302016D
:102050008EB1877C8EB9739AA59884B384BBA58D05
:10206000B68D9C9187A189238C93A58DB68D9C916B
:1020700083A1892B8C93A38DB48D9C9182A1892BF4
:102080008C9380910201877880930201A0910201D4
:10209000872F90E07C01B0ECEB22FF24B3E0F594B5
:1020A000E794BA95E1F78C0103701127C5E0000FA2
:1020B000111FCA95E1F7BE2DB02BAB2BA0930201E7
:1020C000AEB1A77CAEB91EB16C01CCE0CC22DD2450
:1020D000CC0CDD1CCC0CDD1C7C01D0E2ED22FF24FD
:1020E000F594E794F594E794AC2DAE291A2B1EB91C
:1020F000A59814B380719927880F991FF82E812B0A
:1021000084BB058D168DE801988187A1892388837A
:10211000058D168DE801988183A1892B8883809194
:102120000201877880930201809102018B01007C7B
:1021300011276801D3E0D594C794DA95E1F78B01B4
:102140000370112795E0000F111F9A95E1F70C29F4
:10215000802B809302018EB1877C8EB98EB15B019A
:10216000DCE0AD22BB24AA0CBB1CAA0CBB1C6B017F
:1021700090E2C922DD24D594C794D594C7941A2D32
:102180001C29812B8EB9A59884B360717727660FBF
:10219000771F762F682B64BB858D968DEC01E880C8
:1021A00067A16E216883858D968DEC01E88063A11F
:1021B0006E296883215031094109510949015A01A9
:1021C00036E0B694A794979487943A95D1F7C401D2
:1021D000761088C1019708F465C060E1A58DB68DC1
:1021E000CC9177A17C237C93A58DB68DCC9173A1E6
:1021F0007C2B7C93A58DB68DCC9177A17C237C9391
:10220000A58DB68DCC9173A17C2B7C93A58DB68DBD
:10221000CC9177A17C237C93A58DB68DCC9173A1B5
:102220007C2B7C93A58DB68DCC9177A17C237C9360
:10223000A58DB68DCC9173A17C2B7C93A58DB68D8D
:10224000CC9177A17C237C93A58DB68DCC9173A185
:102250007C2B7C93A58DB68DCC9177A17C237C9330
:10226000A58DB68DCC9173A17C2B7C93A58DB68D5D
:10227000CC9177A17C237C93A58DB68DCC9173A155
:102280007C2B7C93A58DB68DCC9177A17C237C9300
:10229000A58DB68DCC9173A17C2B7C93615009F0F8
:1022A0009DCF98CF2F73215008F465C1A58DB68DB1
:1022B0009C9187A189238C93A58DB68D9C9183A138
:1022C000892B8C93A58DB68D9C9187A189238C93A6
:1022D000A58DB68D9C9183A1892B8C93E4CFC09161
:1022E0000201C778C0930201C0910201CB2BC093B9
:1022F0000201CEB1C77CCEB9CEB1CA2BCEB9A5985A
:10230000C4B3CF29C4BBC58DD68DD880E7A0ED203E
:10231000E882C58DD68DD880E3A0ED28E882C091F3
:102320000201C778C0930201C0910201C02BC09383
:102330000201CEB1C77CCEB9CEB1C12BCEB9A59822
:10234000C4B3C72BC4BBC58DD68DD880E7A0ED2004
:10235000E882C58DD68DD880E3A0ED28E882C091B3
:102360000201C778C0930201C0910201CB2BC09338
:102370000201CEB1C77CCEB9CEB1CA2BCEB9A598D9
:10238000C4B3CF29C4BBC58DD68DD880E7A0ED20BE
:10239000E882C58DD68DD880E3A0ED28E882C09173
:1023A0000201C778C0930201C0910201C02BC09303
:1023B0000201CEB1C77CCEB9CEB1C12BCEB9A598A2
:1023C000C4B3C72BC4BBC58DD68DD880E7A0ED2084
:1023D000E882C58DD68DD880E3A0ED28E882C09133
:1023E0000201C778C0930201C0910201CB2BC093B8
:1023F0000201CEB1C77CCEB9CEB1CA2BCEB9A59859
:10240000C4B3CF29C4BBC58DD68DD880E7A0ED203D
:10241000E882C58DD68DD880E3A0ED28E882C091F2
:102420000201C778C0930201C0910201C02BC09382
:102430000201CEB1C77CCEB9CEB1C12BCEB9A59821
:10244000C4B3C72BC4BBC58DD68DD880E7A0ED2003
:10245000E882C58DD68DD880E3A0ED28E882C091B2
:102460000201C778C0930201C0910201CB2BC09337
:102470000201CEB1C77CCEB9CEB1CA2BCEB9A598D8
:10248000C4B3CF29C4BBC58DD68DD880E7A0ED20BD
:10249000E882C58DD68DD880E3A0ED28E882C09172
:1024A0000201C778C0930201C0910201C02BC09302
:1024B0000201CEB1C77CCEB9CEB1C12BCEB9A598A1
:1024C000C4B3C72BC4BBC58DD68DD880E7A0ED2083
:1024D000E882C58DD68DD880E3A0ED28E8826150D2
:1024E00009F0FDCE019710F060E1F9CE2F73215075
:1024F00008F441C0809102018778809302018091A5
:1025000002018B2B809302018EB1877C8EB98EB134
:102510008A2B8EB9A59884B38F2984BBC58DD68D9F
:10252000988187A189238883C58DD68D988183A1C1
:10253000892B8883809102018778809302018091A2
:102540000201802B809302018EB1877C8EB98EB1FF
:10255000812B8EB9A59884B3872B84BBC58DD68D6E
:10256000988187A189238883C58DD68D988183A181
:10257000892B8883BCCFA18DB28D9C9181A1892BA1
:102580008C93DF91CF911F910F91FF90EF90DF908F
:10259000CF90BF90AF909F908F907F906F90089555
:1025A000EF92FF920F931F93CF93DF9383708093EB
:1025B000520B2091410B3091420B4091430B5091B3
:1025C000440B813059F0833049F03093460B20930F
:1025D000450B5093480B4093470B08C05093460B54
:1025E0004093450B3093480B2093470BE091560BDB
:1025F000F091570B90818091620B892380838091A9
:10260000550B8111D7C0E091520BE150E33040F4FB
:10261000F0E0EE0FFF1FE15FFD4F8081918102C06E
:1026200080E390E1E091580BF091590B30812091BB
:10263000630B23232083209102012778209302013A
:1026400020910201209302012EB1277C2EB92EB1D8
:102650002EB9A59824B324BBE0915A0BF0915B0BE3
:1026600030812091640B23232083E0915A0BF09159
:102670005B0B30812091600B232B20832091020182
:102680002778209302012091020120662093020105
:102690002EB1277C2EB92EB12EB9A59824B324BB18
:1026A000E0915A0BF0915B0B30812091640B232356
:1026B0002083E0915A0BF0915B0B30812091600BED
:1026C000232B2083E091580BF091590B30812091FE
:1026D0005F0B232B20832091020127782093020196
:1026E00020910201209302012EB1277C2EB92EB138
:1026F0002EB9A598A59AE0915A0BF0915B0B308109
:102700002091640B23232083E0915A0BF0915B0B03
:1027100030812091600B232B2083209102012778A8
:102720002093020120910201209302012EB1277C07
:102730002EB94EB19C012C703327B901660F771F5B
:10274000660F771F9C0120723327359527953595A5
:102750002795262B242B2EB9A59824B38071992771
:10276000880F991F822B84BBE0915A0BF0915B0B71
:1027700090818091640B89238083E0915A0BF091C2
:102780005B0B90818091600B892B80830091470BBC
:102790001091480B015011092091450B3091460BC7
:1027A0002150310940E050E060E070E08DE39BE0B3
:1027B0000E9485068091550B813009F075C0E0912B
:1027C000520BE150E33028F4F0E0E45FFD4F8081EC
:1027D00001C080E0E091580BF091590B208190915D
:1027E000630B92239083909102019778909302015A
:1027F000909102019064909302019EB1977C9EB9E2
:10280000749AA598A59AE0915A0BF0915B0B2081E0
:102810009091640B92239083E0915A0BF0915B0BA3
:1028200020819091600B922B9083E091580BF09156
:10283000590B208190915F0B922B90839091020114
:1028400097789093020120910201982F907C9695A1
:1028500096959695922B909302019EB1977C9EB986
:102860002EB1982F9072892F90E095958795959528
:102870008795822B8EB9A59884B384BBE0915A0BBF
:10288000F0915B0B90818091640B89238083E091B0
:102890005A0BF0915B0B90818091600B892B8083A8
:1028A0008DE39BE00E9423388091550B823009F024
:1028B00097C08091520B813089F060F0823031F006
:1028C000833079F4F8E2EF2EF12C0BC0A8E4EA2E65
:1028D000F12C07C0E8E8EE2EF12C03C078EEE72ECD
:1028E000F12CE091580BF091590B90818091630B82
:1028F00089238083809102018778809302018091EF
:1029000002018064809302018EB1877C8EB98EB102
:1029100088618EB9A598A59AE0915A0BF0915B0B4E
:1029200090818091640B89238083E0915A0BF09110
:102930005B0B90818091600B892B8083E091580B19
:10294000F091590B908180915F0B892B808380914E
:10295000020187788093020120910201C701807CE7
:10296000992753E0969587955A95E1F7822B8093A6
:1029700002018EB1877C8EB98EB190E2E922FF24EC
:10298000F694E794F694E7948062E82AEEB8A59866
:1029900084B384BBE0915A0BF0915B0B90818091E2
:1029A000640B89238083E0915A0BF0915B0B90813B
:1029B0008091600B892B80830091470B1091480B0D
:1029C000015011092091450B3091460B21503109DE
:1029D00040E050E060E070E08DE39BE00E948506FF
:1029E0008091550B833009F091C08091520B81305A
:1029F00071F050F0823029F0833059F4C0E6D0E015
:102A000008C0C0E0D0E005C0C0ECD0E002C0C0EA21
:102A1000D0E0E091580BF091590B90818091630BBD
:102A200089238083809102018778809302018091BD
:102A300002018064809302018EB1877C8EB98EB1D1
:102A400088618EB9A598A59AE0915A0BF0915B0B1D
:102A500090818091640B89238083E0915A0BF091DF
:102A60005B0B90818091600B892B8083E091580BE8
:102A7000F091590B908180915F0B892B808380911D
:102A8000020187788093020120910201CE01807CAF
:102A9000992733E0969587953A95E1F7822B8093B5
:102AA00002018EB1877C8EB98EB1C072DD27D695BA
:102AB000C795D695C795C82BCEB9A59884B384BBC6
:102AC000E0915A0BF0915B0B90818091640B89230C
:102AD0008083E0915A0BF0915B0B90818091600BA9
:102AE000892B80830091470B1091480B01501109ED
:102AF0002091450B3091460B2150310940E050E0C8
:102B000060E070E08DE39BE00E948506DF91CF914D
:102B10001F910F91FF90EF900895E091560BF09167
:102B2000570B908180915E0B892B8083E0915A0B2B
:102B3000F0915B0B90818091600B892B8083E091F9
:102B40005C0BF0915D0B90818091610B892B8083F0
:102B50008091660B882371F060E00E94F03662E09D
:102B600070E080E090E00E94933761E08091660B16
:102B70000E94F036E091560BF091570B90818091B6
:102B8000620B89238083E091580BF091590B90815F
:102B90008091630B892380838091020187788093E1
:102BA000020180910201809302018EB1877C8EB96F
:102BB0008EB18EB9A59884B384BBE0915A0BF09185
:102BC0005B0B90818091640B89238083E0915A0B89
:102BD000F0915B0B90818091600B892B808383E067
:102BE000E0915A0BF0915B0B20819091640B922342
:102BF0009083E0915A0BF0915B0B20819091600BD8
:102C0000922B9083815061F7E091560BF091570B16
:102C1000908180915E0B892B808308950F931F9381
:102C2000CF93DF938C01C0E0D0E0F801EC0FFD1FE3
:102C30006491662341F08BEC99E00E94722D892B00
:102C400011F02196F2CFCE01DF91CF911F910F911C
:102C50000895CF93DF930E940E16EC018BEC99E060
:102C60000E94602F8C0F9D1FDF91CF910895EDE39F
:102C7000FBE0A78DB0A19C9180A589238C9300C017
:102C800000C000C00000A0E0B1E05C913C919CB1AC
:102C90004CB182B3A78DB0A16C9124A1262B2C93AB
:102CA000387168E0369F90011124352F30763295C7
:102CB00036953770232B9870990F990F922B242FEC
:102CC000207326952695292B807290E095958795FF
:102CD000822B089508952F923F924F925F926F92A8
:102CE0007F928F929F92AF92BF92CF92DF92EF929C
:102CF000FF920F931F93CF93DF93CDB7DEB72D973E
:102D00000FB6F894DEBF0FBECDBF9D878C876A30AB
:102D1000A1F4DC0154962C9154971E968D919C91B0
:102D20001F97B8E02B9F800D911D1124EC85FD8528
:102D30009787868715861486F8C06D3009F4F5C02C
:102D4000AC85BD851C96CD90DC901D9718968D9115
:102D50009C911997C816D906BCF0EC85FD8544896D
:102D6000242F30E084859585F6E04F9F800D911DDE
:102D70001124AC85BD851D969C938E931C97569609
:102D80004C914111AEC0D1C0EC85FD8586849784FD
:102D9000828593858816990604F7F489F983AF2E06
:102DA000B12CC60126E0F29F800D911D112418164A
:102DB00019069CF6C50123E0880F991F2A95E1F7B3
:102DC000880D991D1816190644F6AC85BD855796D1
:102DD0008C91811103C0603B08F06F5FEC85FD852D
:102DE0000288F389E02DFD83EC83AC85BD85509688
:102DF0000D90BC91A02DBF83AE83B5E06B9FB00159
:102E0000112416011A82FB01EC19FD09F987E887E4
:102E10009401285F3F4F3B872A873A81353049F03C
:102E2000E885F985E20DF31DEF57F94F54915B8367
:102E300001C01B82240134018B8180FF13C0AC854B
:102E4000BD85ED91FC91B981B13031F40084F185FB
:102E5000E02D2E813F8119C00288F389E02DEE809C
:102E6000FF801EC0EC81FD812E813F81E217F307B8
:102E7000F1F0AC85BD85ED91FC91B981B13059F48B
:102E80000084F185E02D2C813D81A301B1018C8569
:102E90009D8519950CC00288F389E02DEC80FD809A
:102EA00085019501A201B6018C859D851995EB815F
:102EB000E695EB83FFEF6F1A7F0A4A0C5B1C2A85AD
:102EC0003B852615370509F0B7CF3A813F5F3A8336
:102ED0005FEF251A350ACA0CDB1C363009F09DCF8E
:102EE0003CCF4AEF4203B001439F700D1124AC85E3
:102EF000BD8518964D915C911997460F571F48173D
:102F000059079CF483E0220F331F8A95E1F71E9640
:102F10008D919C911F97280F391F1F963C932E93DC
:102F20001E971D961C921E921C9781E090E02D9694
:102F30000FB6F894DEBF0FBECDBFDF91CF911F91CA
:102F40000F91FF90EF90DF90CF90BF90AF909F9048
:102F50008F907F906F905F904F903F902F9008954B
:102F6000EF92FF920F931F93DC011A960D911C9123
:102F70001B9718962D913C911997ED91FC91028821
:102F8000F389E02D7B0140E050E060E070E01995AE
:102F90001F910F91FF90EF9008956F927F928F9203
:102FA0009F92AF92BF92CF92DF92EF92FF920F93D8
:102FB0001F93CF93DF936C015A014801EB013B0152
:102FC000620E731EC615D70574F4D601ED91FC91FF
:102FD0000484F585E02D87019401A501BE01C60199
:102FE00019952196EFCFDF91CF911F910F91FF900F
:102FF000EF90DF90CF90BF90AF909F908F907F9099
:103000006F900895EF92FF920F931F93260F371F33
:1030100021503109DC01ED91FC910284F385E02D12
:1030200078018A0119951F910F91FF90EF900895F3
:10303000EF92FF920F931F93240F351F21503109F8
:10304000DC01ED91FC910284F385E02D780189018A
:103050009B0119951F910F91FF90EF9008956F922A
:103060007F928F929F92AF92BF92CF92DF92EF9218
:10307000FF920F931F93CF93DF93EC014B015A0103
:1030800069013801E881F9810684F785E02D87011F
:103090001995A501460D571D41505109E881F98147
:1030A0000684F785E02D9601B401CE011995E881DB
:1030B000F9810484F585E02D9301A501B401CE01C9
:1030C0001995C80CD91CB60161507109E881F981C4
:1030D0000484F585E02D9301A501CE011995DF91BA
:1030E000CF911F910F91FF90EF90DF90CF90BF9005
:1030F000AF909F908F907F906F9008952F923F9206
:103100004F925F926F927F928F929F92AF92BF92F7
:10311000CF92DF92EF92FF920F931F93CF93DF93A3
:1031200000D000D0CDB7DEB72C017E836D836A015D
:103130005901C801FC82EB824801841A950A97FE66
:1031400003C091948194910835012D813E81621ACA
:10315000730A77FE03C0719461947108681479044E
:103160005CF43A2D2B2D5C01832F922F3D812E8113
:10317000DE82CD82C32ED22EAD81BE81AA16BB06C1
:103180005CF43C2D2D2D6C01832F922F3D812E81DF
:10319000BE82AD82A32EB22E85012D813E81021BFF
:1031A000130B1C012C183D0837FE03C031942194E9
:1031B0003108780117FF03C03FEFE31AF30AF594D3
:1031C000E794C816D9062CF08FEF9FEF9A83898376
:1031D00004C0A1E0B0E0BA83A9832D813E81A2168C
:1031E000B30624F1D201ED91FC910084F185E02D2C
:1031F0002B813C816814790424F44D815E81B601F1
:1032000003C0A6016D817E81C2011995E218F30801
:10321000F7FE06C029813A81C20ED31EE00EF11ED0
:103220008D819E8101969E838D83D7CF26960FB682
:10323000F894DEBF0FBECDBFDF91CF911F910F91EC
:10324000FF90EF90DF90CF90BF90AF909F908F90C6
:103250007F906F905F904F903F902F9008950895CA
:1032600080E090E00895CF92DF92EF92FF9266EBBC
:1032700076E08BEC99E00E94832F0E94CD376B01A2
:103280007C0160931D0970931E0980931F09909320
:1032900020090E94CD37DC01CB018C199D09AE09B4
:1032A000BF09883E9340A105B10598F38BEC99E0E6
:1032B0000E94602F8BEC99E00E940E2D9C012B7FC9
:1032C00022363105B9F09C012257310922303105EF
:1032D00088F09C01277F2436310561F09C01285637
:1032E00031092230310530F08737910519F08037E8
:1032F0009105D9F5BC0188E69AE00E94B03262ECF3
:1033000076E08BEC99E00E94832F0E94CD376B0111
:103310007C0160931D0970931E0980931F0990938F
:1033200020090E94CD37DC01CB018C199D09AE0923
:10333000BF09883E9340A105B10598F38BEC99E055
:103340000E940E2D8437910531F084369105A1F449
:1033500060EC76E002C06EEB76E088E69AE0FF90E3
:10336000EF90DF90CF900C94832F68ED76E08BEC9C
:1033700099E00E947830C9CFFF90EF90DF90CF9016
:103380000895CF92DF92EF92FF92CF93DF93EC01FB
:103390000E94CD3760931D0970931E0980931F0909
:1033A000909320096FEE76E08BEC99E00E94832FDA
:1033B0000E94CD37C0901D09D0901E09E0901F09D2
:1033C000F0902009DC01CB018C199D09AE09BF09E1
:1033D000883E9340A105B10558F3E888F9888BEC45
:1033E00099E00E940E2DF70191838083E889F98985
:1033F000608171818BEC99E00E94B032E889F98993
:10340000808191811816190644F4E0910D0BF0911A
:103410000E0B0280F381E02D199580912D0990917A
:103420002E09892B09F447C00E84DF85C02D209119
:1034300002023091030287EB9AE0289FB001299F96
:10344000700D389F700D11246D5D784E70930302DE
:1034500060930202072E000C880B990B0E94C24B4E
:103460006B017C0120E030E0A9010E94BB4B87FF8B
:103470000AC02AE635ED4CE45DE4C701B6010E94BE
:10348000FA4C6B017C012AE635ED4CE45DE4C701A2
:10349000B6010E94664D20E030E048EA51E40E9407
:1034A000214C0E94D84D6A5071097983688310922B
:1034B0002E0910922D0980912B0990912C09892BAE
:1034C00009F42BC110924A0B1092490B80E590E051
:1034D00090934C0B80934B0B81E08093510B8FEFBB
:1034E0009FEF9093500B80934F0B90934E0B8093D4
:1034F0004D0B67EF76E08DE39BE00E94783064E04F
:1035000077E08DE39BE00E94832F6BE177E08DE312
:103510009BE00E94783063E277E08DE39BE00E94BD
:10352000832F6EE277E08DE39BE00E9478306AE3C0
:1035300077E08DE39BE00E94832F60E477E08DE3EA
:103540009BE00E947830E091350BF091360B0680BD
:10355000F781E02D608171816536710538F062E593
:1035600077E08DE39BE00E94832F06C04AE050E0A5
:103570008DE39BE00E94642F65E577E08DE39BE09F
:103580000E947830E091350BF091360B0084F18584
:10359000E02D608171814AE050E08DE39BE00E9464
:1035A000642F64E677E08DE39BE00E947830E09141
:1035B000350BF091360B0284F385E02D608171812B
:1035C0004AE050E08DE39BE00E94642F69E777E0DA
:1035D0008DE39BE00E947830E091350BF091360B43
:1035E0000484F585E02D608171814AE050E08DE32F
:1035F0009BE00E94642F6DE877E08DE39BE00E94E2
:103600007830E091350BF091360B0480F581E02D98
:1036100080819181892B19F060EA77E002C063EA2A
:1036200077E08DE39BE00E94832F8DE39BE00E9477
:10363000602FE091350BF091360BA681B7818D910B
:103640009C910280F381E02DC29758F481E090E0D4
:103650009183808367EA77E08DE39BE00E94832F6C
:1036600002C011821082E091350BF091360BA085DB
:10367000B1858D919C910190F081E02DC29758F415
:1036800081E090E09183808363EB77E08DE39BE0C2
:103690000E94832F02C0118210826CEB77E08DE3D1
:1036A0009BE00E947830E091290BF0912A0B019069
:1036B000F081E02D608171818DE39BE00E94B0324A
:1036C00062ED77E08DE39BE00E947830E091350B6E
:1036D000F091360B0088F189E02D408151816281A3
:1036E00073818DE39BE00E949D3261EE77E08DE374
:1036F0009BE00E9478304091DA085091DB0860919D
:10370000DC087091DD088DE39BE0DF91CF91FF90A5
:10371000EF90DF90CF900C949D32DF91CF91FF908E
:10372000EF90DF90CF900895CF93DF93EC0160E4AA
:1037300077E08BEC99E00E947830EE81FF81608128
:1037400071816536710538F062E577E08BEC99E0C0
:103750000E94832F06C04AE050E08BEC99E00E9463
:10376000642F65E577E08BEC99E00E947830E8857E
:10377000F985608171814AE050E08BEC99E00E940C
:10378000642F64E677E08BEC99E00E947830EA855C
:10379000FB85608171814AE050E08BEC99E00E94EA
:1037A000642F69E777E08BEC99E00E947830EC8534
:1037B000FD85608171814AE050E08BEC99E00E94C8
:1037C000642F6DE877E08BEC99E00E947830EC8113
:1037D000FD8180819181892B19F060EA77E002C038
:1037E00063EA77E08BEC99E00E94832F8BEC99E001
:1037F0000E94602F8091E6089091E708892B31F0B4
:103800006FEE77E08BEC99E00E94832F8091E408C3
:103810009091E508892B31F066EF77E08BEC99E029
:103820000E94832FEE81FF8180819181EA81FB815B
:10383000C29758F481E090E09183808367EA77E053
:103840008BEC99E00E94832F02C011821082E885E0
:10385000F98580819181E881F981C29758F481E0EE
:1038600090E09183808363EB77E08BEC99E00E949A
:10387000832F02C0118210826CEB77E08BEC99E011
:103880000E947830E091290BF0912A0B0190F08191
:10389000E02D608171818BEC99E00E94B03262ED85
:1038A00077E08BEC99E00E947830E889F9894081D3
:1038B0005181628173818BEC99E0DF91CF910C94FF
:1038C0009D32CF93DF93EC01BC018BEC99E00E9419
:1038D000B032C337D10539F481E090E09093E3082A
:1038E0008093E2084CC0C037D10529F41092E30858
:1038F0001092E20844C0C436D105C1F480912B096E
:1039000090912C09892B59F010922C0910922B09B7
:1039100060E070E08DE39BE00E944C3330C081E0BA
:1039200090E090932C0980932B0929C0C437D105CE
:1039300039F481E090E090932E0980932D091FC007
:10394000CD36D10599F461EE77E08BEC99E00E94D9
:1039500078304091DA085091DB086091DC08709172
:10396000DD088BEC99E00E949D3209C06EE377E0A0
:103970008BEC99E00E94832F6EEF77E008C060E146
:1039800078E08BEC99E00E94832F62E178E08BEC89
:1039900099E00E94832F6091E2087091E3088BEC1C
:1039A00099E00E94B03260912D0970912E098BEC44
:1039B00099E00E94B03260912B0970912C098BEC38
:1039C00099E0DF91CF910C94B032EF92FF920F9378
:1039D0001F93CF93DF93EC0110924A0B1092490B87
:1039E00010924C0B10924B0B82E08093510BEE81A6
:1039F000FF81808191818B309105E0F480912909CC
:103A000090912A09823091056CF01092500B10921F
:103A10004F0B10924E0B10924D0B10922A091092E0
:103A200029092BC0019690932A098093290980E0E7
:103A300098EF1BC0C397B8F48091290990912A0987
:103A40008130910511F320E03CEF3093500B20932F
:103A50004F0B30934E0B20934D0B019690932A09F8
:103A6000809329090AC080EE97E09093500B8093D1
:103A70004F0B90934E0B80934D0B63E278E08DE3F8
:103A80009BE00E9478308DE39BE00E94602FE885E8
:103A9000F985808191818B309105B8F48091270957
:103AA00090912809823091056CF01092500B109281
:103AB0004F0B10924E0B10924D0B10922809109242
:103AC000270926C020E038EF0BC0C397B8F48091D7
:103AD0002709909128098130910539F320E03CEFC6
:103AE0003093500B20934F0B30934E0B20934D0B84
:103AF000019690932809809327090AC080EE97E0E9
:103B00009093500B80934F0B90934E0B80934D0BE3
:103B10006BE278E08DE39BE00E9478308DE39BE0E0
:103B20000E94602F8091DE089091DF08892B09F4B4
:103B3000AFC08091250990912609892B09F0A8C072
:103B400010924A0B1092490B81E490E090934C0B39
:103B500080934B0B80E098EF9093500B80934F0B2A
:103B600090934E0B80934D0B60E378E08DE39BE0E8
:103B70000E947830C0912309D09124092196D093D6
:103B80002409C09323098BEC99E00E940E2D18168E
:103B900019063CF481E090E0909326098093250972
:103BA00004C0109226091092250980912509909150
:103BB0002609892B09F08CC060970CF489C080918C
:103BC0002109909122090597BCF5C0E0D0E081E47D
:103BD000E82EF12C00E018EF10924A0B1092490BDE
:103BE000F0924C0BE0924B0BC0FD09C01092500BB1
:103BF00010924F0B10924E0B10924D0B08C0109369
:103C0000500B00934F0B10934E0B00934D0B60E342
:103C100078E08DE39BE00E9478308DE39BE00E948A
:103C2000602F62E370E080E090E00E94933721967D
:103C3000C431D10589F61AC010924A0B1092490B73
:103C400081E490E090934C0B80934B0B80E098EFD5
:103C50009093500B80934F0B90934E0B80934D0B92
:103C600060E378E08DE39BE00E9478308091210949
:103C7000909122098A3091052CF01092220910921D
:103C8000210926C00196909322098093210920C022
:103C900010924A0B1092490B81E490E090934C0BE8
:103CA00080934B0B1092500B10924F0B10924E0BB7
:103CB00010924D0B60E378E08DE39BE00E9478303A
:103CC00010922409109223091092260910922509B6
:103CD000DF91CF911F910F91FF90EF900895EF9298
:103CE000FF920F931F93CF93DF93EC01790177FD40
:103CF0003EC657FD3CC688859985681779070CF044
:103D000036C68A859B85481759070CF030C6E98D61
:103D1000FA8D90818DA189238083888D811192C233
:103D20008D89823059F08330B1F08130D1F48FEE3B
:103D300090E0841B950BAB01BC0113C08FEE90E0AB
:103D40009C01261B370BB9018FE391E09C01241BDA
:103D5000350BA90106C08FE391E0861B970BBA01D2
:103D6000AC01EB8DFC8D90818EA1892380838091A5
:103D70000201877880930201809102018093020101
:103D80008EB1877C8EB98EB18EB9A59884B384BB71
:103D9000ED8DFE8D90818FA189238083ED8DFE8D29
:103DA00090818BA1892B80838091020187788093F9
:103DB000020180910201809302018EB1877C8EB94D
:103DC000739AA59884B384BBED8DFE8D90818FA1ED
:103DD00089238083ED8DFE8D90818BA1892B80833B
:103DE000872F992787FD9A95EB8DFC8D30812AA12D
:103DF000232B208320910201277820930201E09158
:103E000002019C01207C3327D901F3E0B595A795E9
:103E1000FA95E1F79C0123703327B5E0220F331F99
:103E2000BA95E1F72A2B2E2B209302012EB1277C85
:103E30002EB9EEB19C012C703327D901AA0FBB1FFC
:103E4000AA0FBB1F9C012072332735952795359506
:103E500027952A2B2E2B2EB9A59824B3807199274C
:103E6000880F991F822B84BBED8DFE8D90818FA1D1
:103E700089238083ED8DFE8D90818BA1892B80839A
:103E80008091020187788093020120910201CB0189
:103E9000807C9927FC01A3E0F595E795AA95E1F7C9
:103EA000CB0183709927B5E0880F991FBA95E1F788
:103EB0008E2B822B809302018EB1877C8EB92EB11E
:103EC000CB018C709927FC01EE0FFF1FEE0FFF1F37
:103ED000CB018072992795958795959587958E2B1F
:103EE000822B8EB9A59884B360717727660F771FF0
:103EF000682B64BBED8DFE8D90818FA1892380831B
:103F0000ED8DFE8D90818BA1892B8083EB8DFC8DB7
:103F100090818EA18923808380910201877880938C
:103F2000020180910201809302018EB1877C8EB9DB
:103F30008EB18EB9A59884B384BBED8DFE8D908132
:103F40008FA189238083ED8DFE8D90818BA1892B9C
:103F50008083809102018778809302018091020121
:103F60008062809302018EB1877C8EB9739AA59886
:103F700084B384BBED8DFE8D90818FA189238083D6
:103F8000ED8DFE8D90818BA1892B8083852F9927C4
:103F900087FD9A95EB8DFC8D30812AA1232B208300
:103FA00020910201277820930201609102019C0177
:103FB000207C3327F90133E0F595E7953A95E1F751
:103FC0009C012370332775E0220F331F7A95E1F7A8
:103FD0002E2B262B209302012EB1277C2EB96EB1F9
:103FE0009C012C703327F901EE0FFF1FEE0FFF1F0E
:103FF0009C012072332735952795359527952E2BD3
:10400000262B2EB9A59824B380719927880F991F64
:10401000822B84BBED8DFE8D90818FA189238083BF
:10402000ED8DFE8D90818BA1892B80838091020183
:1040300087788093020120910201CA01807C992730
:10404000BC0103E0759567950A95E1F7CA01837095
:10405000992735E0880F991F3A95E1F7862B822B37
:10406000809302018EB1877C8EB92EB1CA018C700B
:104070009927BC01660F771F660F771FCA018072F0
:1040800099279595879595958795862B822B8EB93F
:10409000A59884B340715527440F551F482B44BB46
:1040A000ED8DFE8D90818FA189238083ED8DFE8D16
:1040B00090818BA1892B8083EB8DFC8D90818EA1CB
:1040C0008923808380910201877880930201809107
:1040D0000201809302018EB1877C8EB98EB18EB9B8
:1040E000A59884B384BBED8DFE8D90818FA189232B
:1040F0008083ED8DFE8D90818BA1892B80838091B3
:10410000020187788093020180910201806480938C
:1041100002018EB1877C8EB9739AA59884B384BB53
:10412000ED8DFE8D90818FA189238083ED8DFE8D95
:1041300090818BA1892B8083EB8DFC8D90818AA14E
:10414000892B8083809102018778809302014091BE
:1041500002018F2D99279C01207C3327B90113E0A0
:10416000759567951A95E1F79C012370332705E053
:10417000220F331F0A95E1F7262B242B20930201EF
:104180002EB1277C2EB94EB19C012C703327B9017A
:10419000660F771F660F771F9C01207233273595B6
:1041A000279535952795262B242B2EB9A59824B332
:1041B00080719927880F991F822B84BBED8DFE8D0E
:1041C00090818FA189238083ED8DFE8D90818BA1BD
:1041D000892B80838091020187788093020120914E
:1041E0000201C701807C9927AC0173E05595479582
:1041F0007A95E1F7C70183709927E5E0880F991F49
:10420000EA95E1F7842B822B809302018EB1877CA3
:104210008EB92EB1C7018C709927AC01440F551F80
:10422000440F551FC70180729927959587959595DD
:104230008795842B822B8EB9A59884B330E1E32235
:10424000FF24CFC2813009F0CFC2ED89E150E330C5
:1042500028F4F0E0E45FFD4F808101C080E0EB8D49
:10426000FC8D20819EA192239083909102019778EA
:1042700090930201909102019064909302019EB18B
:10428000977C9EB9749AA598A59AED8DFE8D208194
:104290009FA192239083ED8DFE8D20819BA1922B77
:1042A0009083EB8DFC8D20819AA1922B908390912D
:1042B000020197789093020120910201982F907C3F
:1042C000969596959695922B909302019EB1977C28
:1042D0009EB92EB1982F9072892F90E09595879571
:1042E00095958795822B8EB9A59884B384BBED8D67
:1042F000FE8D90818FA189238083ED8DFE8D90812D
:104300008BA1892B8083872F992787FD9A95EB8D29
:10431000FC8D30812EA12323208320910201277858
:1043200020930201209102012064209302012EB10A
:10433000277C2EB92EB12EB9A59824B324BBED8DC0
:10434000FE8D30812FA123232083ED8DFE8D3081C2
:104350002BA1232B2083EB8DFC8D30812AA1232BD5
:10436000208320910201277820930201E09102012D
:104370009C01207C3327D90113E0B595A7951A95A8
:10438000E1F79C012370332705E0220F331F0A95C4
:10439000E1F72A2B2E2B209302012EB1277C2EB978
:1043A000EEB19C012C703327D901AA0FBB1FAA0FB5
:1043B000BB1F9C012072332735952795359527958E
:1043C0002A2B2E2B2EB9A59824B380719927880FFC
:1043D000991F822B84BBED8DFE8D90818FA1892347
:1043E0008083ED8DFE8D90818BA1892B8083EB8D59
:1043F000FC8D90818EA18923808380910201877832
:1044000080930201809102018066809302018EB147
:10441000877C8EB98EB18EB9A59884B384BBED8D9F
:10442000FE8D90818FA189238083ED8DFE8D9081FB
:104430008BA1892B8083EB8DFC8D90818AA1892BA8
:10444000808380910201877880930201209102018C
:10445000CB01807C9927FC01B3E0F595E795BA95EF
:10446000E1F7CB018370992715E0880F991F1A9502
:10447000E1F78E2B822B809302018EB1877C8EB95F
:104480002EB1CB018C709927FC01EE0FFF1FEE0FB0
:10449000FF1FCB01807299279595879595958795F4
:1044A0008E2B822B8EB9A59884B360717727660F07
:1044B000771F682B64BBED8DFE8D90818FA18923C2
:1044C0008083ED8DFE8D90818BA1892B8083852F3C
:1044D000992787FD9A95EB8DFC8D30812EA12323A2
:1044E000208320910201277820930201209102016C
:1044F0002064209302012EB1277C2EB9749AA598CE
:1045000024B324BBED8DFE8D30812FA12323208386
:10451000ED8DFE8D30812BA1232B2083EB8DFC8D27
:1045200030812AA1232B2083209102012778209318
:104530000201609102019C01207C3327F901A3E074
:10454000F595E795AA95E1F79C0123703327B5E02F
:10455000220F331FBA95E1F72E2B262B2093020151
:104560002EB1277C2EB96EB19C012C703327F90136
:10457000EE0FFF1FEE0FFF1F9C01207233273595B2
:104580002795359527952E2B262B2EB9A59824B344
:1045900080719927880F991F822B84BBED8DFE8D2A
:1045A00090818FA189238083ED8DFE8D90818BA1D9
:1045B000892B8083EB8DFC8D90818EA18923808354
:1045C00080910201877880930201809102018066C8
:1045D000809302018EB1877C8EB9749AA59884B3BA
:1045E00084BBED8DFE8D90818FA189238083ED8D1D
:1045F000FE8D90818BA1892B8083EB8DFC8D90812A
:104600008AA1892B8083809102018778809302019F
:1046100020910201CA01807C9927BC01E3E07595D5
:104620006795EA95E1F7CA0183709927F5E0880F4D
:10463000991FFA95E1F7862B822B809302018EB1A8
:10464000877C8EB92EB1CA018C709927BC01660F88
:10465000771F660F771FCA018072992795958795F6
:1046600095958795862B822B8EB9A59884B340713A
:104670005527440F551F482B44BBED8DFE8D90816F
:104680008FA189238083ED8DFE8D90818BA1892B55
:104690008083EB8DFC8D90818EA189238083809116
:1046A00002018778809302018091020180648093E7
:1046B00002018EB1877C8EB9739AA59884B384BBAE
:1046C000ED8DFE8D90818FA189238083ED8DFE8DF0
:1046D00090818BA1892B8083EB8DFC8D90818AA1A9
:1046E000892B808380910201877880930201409119
:1046F00002018F2D99279C01207C3327B90123E0EB
:10470000759567952A95E1F79C012370332755E04D
:10471000220F331F5A95E1F7262B242B20930201F9
:104720002EB1277C2EB94EB19C012C703327B901D4
:10473000660F771F660F771F9C0120723327359510
:10474000279535952795262B242B2EB9A59824B38C
:1047500080719927880F991F822B84BBED8DFE8D68
:1047600090818FA189238083ED8DFE8D90818BA117
:10477000892B8083809102018778809302012091A8
:104780000201C701807C9927AC01B3E0559547959C
:10479000BA95E1F7C7018370992715E0880F991F33
:1047A0001A95E1F7842B822B809302018EB1877CCE
:1047B0008EB92EB1C7018C709927AC01440F551FDB
:1047C000440F551FC7018072992795958795959538
:1047D0008795842B822B8EB9A59884B390E1E9222A
:1047E000FF24EE0CFF1CAFC08250823008F0B9C02D
:1047F0000A851B8501501109288539852150310909
:10480000CE010E948506E98DFA8D90818DA18923C4
:104810008083EB8DFC8D90818EA189238083809194
:104820000201877880930201809102018093020146
:104830008EB1877C8EB98EB188638EB9A59884B30A
:1048400084BBED8DFE8D90818FA189238083ED8DBA
:10485000FE8D90818BA1892B8083EB8DFC8D9081C7
:104860008AA1892B8083809102018778809302013D
:10487000409102018F2D99279C01207C332753E022
:10488000369527955A95E1F7382F33703295330FC7
:10489000307E232B242B209302012EB1277C2EB9AE
:1048A0004EB1282F2C70522F550F550F9C0120729E
:1048B00033273695279536952795252B242B2EB90A
:1048C000A59894B38071880F892B84BBED8DFE8DE4
:1048D00090818FA189238083ED8DFE8D90818BA1A6
:1048E000892B808380910201877880930201209137
:1048F0000201C701807C992773E0969587957A9588
:10490000E1F79E2D93709295990F907E892B822BC3
:10491000809302018EB1877C8EB92EB18E2D8C7062
:10492000382F330F330FC7018072992796958795DB
:1049300096958795832B822B8EB9A59884B39E2D4F
:104940009071E92EEE0CE82AE4BAED8DFE8D90818F
:104950008FA189238083ED8DFE8D90818BA1892B82
:104960008083E98DFA8D908189A1892B8083DF91E5
:10497000CF911F910F91FF90EF900895CF92DF920A
:10498000EF92FF920F931F93CF93DF93EC01E7EF2A
:10499000FBE06491E7E5FCE0E491F0E0EE0FFF1F3F
:1049A000EF57F44F8591949100E412E42FE030E04A
:1049B000462F0E94D139611571058105910549F095
:1049C000DC01CB010196A11DB11DBC01CD019F7081
:1049D00003C060E070E0CB010E94C04B0E940E4E0D
:1049E0000E94D84D072E000C880B990B0E94C24BD9
:1049F0002EE63FED4BE25FE30E94214C0E940E4EFB
:104A00000E94D84D613D47E074071CF080ED97E0AF
:104A10000AC0643671052CF07093CA096093C90905
:104A200006C084E690E09093CA098093C90900917A
:104A3000C9091091CA09E881F98111830083C091E5
:104A4000C709D091C809209729F46091C5097091D0
:104A5000C60907C0FE01EE0FFF1FEB54F64F608141
:104A60007181601B710B77FF03C0719561957109AE
:104A7000072E000C880B990B209729F50E94C24B3A
:104A80006B017C016091C5097091C60980E090E0DE
:104A90000E94C04B2DEC3CEC4CEC5DE30E94214CA1
:104AA0009B01AC01C701B6010E94664E1816E4F5E1
:104AB0001093B8090093B70981E090E09093C8097A
:104AC0008093C70931C00E94C24B6B017C01FE017B
:104AD000EE0FFF1FEB54F64F6081718180E090E094
:104AE0000E94C04B2DEC3CEC4CEC5DE30E94214C51
:104AF0009B01AC01C701B6010E94664E1816A4F4D2
:104B0000FE01EE0FFF1FE954F64F11830083C730FB
:104B1000D1052CF01092C8091092C70905C0219642
:104B2000D093C809C093C709B8018BEC99E0DF9115
:104B3000CF911F910F91FF90EF90DF90CF900C9449
:104B4000B0322F923F924F925F926F927F928F92EC
:104B50009F92AF92BF92CF92DF92EF92FF920F930C
:104B60001F93CF93DF93CDB7DEB7C251D8400FB6B6
:104B7000F894DEBF0FBECDBFC55FD74F9983888342
:104B8000CB50D8403E012FEF621A2BEF720A80E023
:104B900092E0F3019C01119221503040E1F7730142
:104BA0008E010F5F1D4F8BE8C82EDD24D39482E465
:104BB0000E94D136BC01990F880B990B0E94C24B01
:104BC0002AE037ED43E25CE30E94214C20E030E034
:104BD00040E251E40E94214C20E030E040E251E408
:104BE0000E94F94C0E94D84DF801619371938F0196
:104BF000F701119211927F01C6010197F1F7061595
:104C00001705A9F68FEFE5E1F2E0DE01B95F01904B
:104C10000D928A95E1F78FEFE4E1F3E0DE01AF5FFB
:104C2000B94F01900D928A95E1F780E092E0E3E1BF
:104C3000F4E0DE01119601900D920197E1F7FE017B
:104C4000EF5FFD4F40E050E080E090E020E830E092
:104C5000821793072CF0821B930B35952795F8CF7D
:104C6000820F931F4F5F5F4F4F3F5105B9F04817B9
:104C7000590794F422813381DC01AA0FBB1F61E044
:104C800072E06C0F7D1FA60FB71F6D917C9111977D
:104C9000738362832D933C933296D8CF88E090E063
:104CA000CF5FD74F99838883C150D840212C312CB6
:104CB00041E050E0BA01660F771FFB01EE0FFF1FC6
:104CC000C75FD74FF983E883C950D84053019E018D
:104CD0002F5F3D4F290100E010E0041715070CF08D
:104CE00002C1CF5ED74FB982A882C151D840D2014C
:104CF000C150D84F19830883CF5FD740C801820DB8
:104D0000931DE0E0F7E0EC0FFD1FE80FF91FC35F14
:104D1000D74FF983E883CD50D84021E036E02C0FFF
:104D20003D1F280F391FC15FD74F39832883CF50CC
:104D3000D840C150D84F88819981CF5FD7408F3FED
:104D4000910511F00CF0C6C0C35FD74FE881F9811F
:104D5000CD50D8408080082C000C99089D01260F6A
:104D6000371FC95FD74F39832883C750D840F9010F
:104D70000190F081E02DCD5FD74FF983E883C350D8
:104D8000D840C15FD74FE881F981CF50D840E0804B
:104D90000E2C000CFF08CF5ED74F28813981C151FE
:104DA000D840260F371FCB5FD74F39832883C55094
:104DB000D840F90180819181CD5FD74FE881F98199
:104DC000C350D8408E9E90018F9E300D9E9E300D18
:104DD0001124E89E6001E99ED00CF89ED00C1124AD
:104DE0002C193D0937FF02C0215E3F4FF5E0359594
:104DF0002795FA95E1F7889E6001899ED00C989ED0
:104E0000D00C1124CD5FD74FE881F981C350D84031
:104E1000EE9DC001EF9D900DFE9D900D11248C0D17
:104E20009D1D97FD4F96E5E095958795EA95E1F7ED
:104E3000ED90FC901197E21AF30AC95FD74FE88111
:104E4000F981C750D840F182E082CF5ED74FE88128
:104E5000F981C151D840E080F180E81AF90ACB5FAE
:104E6000D74FE881F981C550D840F182E082ED90BA
:104E7000FC9011972E0D3F1D11963C932E93CF5E03
:104E8000D74FE881F981C151D840C080D1808C0DC5
:104E90009D1D91838083C150D84F28813981CF5F78
:104EA000D740260F371FC150D84F39832883CF5F93
:104EB000D740C75FD74F88819981C950D840A80F84
:104EC000B91FE80FF91FCF5ED74FF983E883C151AF
:104ED000D8402FCF0F5F1F4F92E0490E511CE2E0E8
:104EE000AE0EB11CFACE57FF02C040E050E0240ED7
:104EF000351ECF5FD74F28813981C150D84021500E
:104F00003109CF5FD74F39832883C150D840AB01D7
:104F1000232B09F0CFCE8E010D5F1D4FDE01AD5F5B
:104F2000BB4FEE24E394F12C60E070E041E050E0F0
:104F30008D919D91F801219131918F0137FF03C02F
:104F40003195219531092115F2E03F0714F02FEF3B
:104F500031E0E1E0F0E0EC0FFD1F2E0F3F1FF90103
:104F6000208130E097FF03C09195819591098115CB
:104F7000F2E09F0714F08FEF91E0E1E0F0E0EC0F3A
:104F8000FD1F8E0F9F1FFC018081280F311D6217AE
:104F9000730714F4B9017A014F5F5F4F4038510530
:104FA00039F6C55FD74FE881F981CB50D8400081F1
:104FB000118182E38E9DB0018F9D700D1124072E0B
:104FC000000C880B990B0E94C24B6B017C0120E006
:104FD00030E0A9010E94664E181624F0F7FAF0940A
:104FE000F7F8F094F801C082D182E282F382E09176
:104FF000B509F091B609EE0FFF1FEE0FFF1FEB583A
:10500000F64FC082D182E282F382B701A6018BEC17
:1050100099E00E949D3205E719E095EBE92E99E0B1
:10502000F92EF80141915191619171918F0122E026
:105030008BEC99E00E949C2F65E378E08BEC99E083
:105040000E947830E016F10661F78BEC99E00E943F
:10505000602F8091B5099091B609803191052CF0AF
:105060001092B6091092B50905C001969093B60941
:105070008093B509CE5ED74F0FB6F894DEBF0FBE52
:10508000CDBFDF91CF911F910F91FF90EF90DF90F7
:10509000CF90BF90AF909F908F907F906F905F90D8
:1050A0004F903F902F900895AF92BF92CF92DF9292
:1050B000EF92FF920F931F93CF93DF935B017C01DD
:1050C000C0E0D0E000E010E0CA15DB0504F5F70110
:1050D000C190D1907F01BE010D2E000C880B990B61
:1050E0000E94C24B9B01AC0160E070E080E090E464
:1050F0000E946B4E0E94D84DC69E9001C79E300DF7
:10510000D69E300D1124020F131F2196DDCFC8014A
:10511000DF91CF911F910F91FF90EF90DF90CF9093
:10512000BF90AF900895CF92DF92EF92FF92DC0193
:105130001296ED91FC911397C080D180E280F380AC
:1051400020E030E048EC52E4C701B6010E94BB4BBE
:1051500018166CF020E030E040EF51E4C701B601D2
:105160000E94664E18161CF468E378E00CC020E03C
:1051700030E040EF51E4C701B6010E94BB4B181666
:1051800054F068E478E08BEC99E0FF90EF90DF90CA
:10519000CF900C94832FFF90EF90DF90CF900895E5
:1051A000CF92DF92EF92FF92CF93DF93EC0185E4F1
:1051B0000E94D136BC01990F880B990B0E94C24BFB
:1051C00020E030E040EA50E40E94214C20E030EC46
:1051D0004FE754E40E94664D20E030E048EC52E492
:1051E0000E94214C6B017C01AB01BC018BEC99E06E
:1051F0000E949D32EA81FB81C082D182E282F382E9
:1052000020E030E048EC52E4C701B6010E94BB4BFD
:10521000E881F98118162CF081E090E09183808379
:1052200002C011821082608171818BEC99E00E9432
:10523000B032E881F98180819181892B41F10E940E
:10524000CD376B0168E578E08BEC99E00E94832F05
:1052500088E1C81A8CEFD80A0D2C000CEE08FF0864
:105260000E94CD376C157D058E059F05C8F38BEC2C
:1052700099E00E940E2D181619064CF4CE01DF910C
:10528000CF91FF90EF90DF90CF900C949328DF9117
:10529000CF91FF90EF90DF90CF9008950F931F93E1
:1052A000CF93DF93EC016EE578E08BEC99E00E9400
:1052B000832F0E94CD3760931D0970931E09809340
:1052C0001F09909320090E94CD3700911D0910916C
:1052D0001E0920911F0930912009DC01CB01801BA0
:1052E000910BA20BB30B803D9740A105B10558F37C
:1052F0008BEC99E00E94602F8BEC99E00E940E2DC0
:105300008936910519F4E881F98105C08436910543
:1053100059F4EA81FB8181E090E091838083DF9101
:10532000CF911F910F91089568ED76E08BEC99E095
:10533000DF91CF911F910F910C947830AF92BF9273
:10534000CF92DF92EF92FF920F931F93CF93DF9351
:10535000CDB7DEB768970FB6F894DEBF0FBECDBFEE
:105360005C01DC01ED91FC91E080F18088EC90E043
:105370000E9477508C01FC01B0968FE090E097017D
:10538000082E02C0359527950A94E2F7217033273D
:1053900032932293019798F7F801E080F18082819F
:1053A0009381E82AF92A84819581E82AF92A86815D
:1053B0009781E82AF92A808591859A8B898B828545
:1053C00093859C8B8B8B848595859E8B8D8B868519
:1053D0009785988F8F8B64E070E0CE0141960E9494
:1053E00054286C01D80150968D919C9151979A83C5
:1053F000898352968D919C9153979C838B8354966D
:105400008D919C9155979E838D8356968D919C91FD
:10541000579798878F8358968D919C9159979A8723
:1054200089875A968D919C915B979C878B875C9618
:105430008D919C915D979E878D875E968D919C91B5
:105440005F97988B8F8768E070E0CE0101960E948D
:105450005428EF28D9F0892BC9F0D5011296ED9187
:10546000FC91139780819181181619067CF4BEE097
:10547000CB16D10411F0CD2849F0853091051CF4EC
:105480001182108203C005979183808368960FB6BE
:10549000F894DEBF0FBECDBFDF91CF911F910F916A
:1054A000FF90EF90DF90CF90BF90AF9008954F9214
:1054B0005F926F927F928F929F92AF92BF92CF92A4
:1054C000DF92EF92FF920F931F93CF93DF938C01A4
:1054D0000E946E376093710970937209809373090B
:1054E000909374096B017C0128E5C20E22E0D21E64
:1054F000E11CF11C0E946E37C616D706E806F906B5
:10550000C8F383E40E94D136D8011696ED91FC9140
:10551000179782E390E091838083ED91FC918081E5
:105520009181019709F063C169E778E08BEC99E01C
:105530000E94832F0E94CD3760931D0970931E092E
:1055400080931F09909320090E94CD37C0901D09B8
:10555000D0901E09E0901F09F0902009B8EECB0E04
:10556000B3E0DB1EE11CF11C6C157D058E059F056B
:1055700058F38BEC99E00E940E2D181619060CF0CA
:1055800036C18BEC99E00E94602F0E946E376093C9
:1055900071097093720980937309909374096B0178
:1055A0007C01E4EFCE0EE1E0DE1EE11CF11C0E9466
:1055B0006E376C157D058E059F05C8F384E40E9447
:1055C000D136EC0185E40E94D1367C0125E0D22E53
:1055D000DC9EC001DD9E900D1124CFEFD3E0BE0113
:1055E0000E94F74F072E000C880B990B0E94C24BAC
:1055F00026E636E646E25FE30E94214C20E030E0FA
:1056000040E052E40E94214C20E030E044E052E4CB
:105610000E94FA4C2B013C01DE9CC001DF9C900DE6
:105620001124BE010E94F74F072E000C880B990B26
:105630000E94C24B26E636E646E25FE30E94214C1A
:1056400020E030E040E052E40E94214C20E030E0D5
:1056500044E052E40E94FA4C4B015C01B301A20108
:105660008BEC99E00E949D32B501A4018BEC99E08E
:105670000E949D32D8011E96CD90DC901F97F601B6
:1056800040825182628273825096ED91FC915197D3
:1056900080829182A282B382C0916F09D0917009F9
:1056A000FE01EE0FFF1FEE0FFF1FE15DF64F408280
:1056B000518262827382FE01EE0FFF1FEE0FFF1F09
:1056C000ED5CF64F80829182A282B3821C96ED90AF
:1056D000FC901D97209731F52AE939E949E95FE304
:1056E00060916709709168098091690990916A09D0
:1056F0000E94214C9B01AC01D6016D917D918D9151
:105700009C910E94664E18164CF12AE939E949E944
:105710005FE360916B0970916C0980916D099091C4
:105720006E0930C0FE01EE0FFF1FEE0FFF1FE95D97
:10573000F64F2AE939E949E95FE3608171818281A5
:1057400093810E94214C9B01AC01D6016D917D910A
:105750008D919C910E94664E181634F481E090E081
:10576000F7019183808321C0CC0FDD1FCC0FDD1F9B
:10577000C55DD64F2AE939E949E95FE36881798156
:105780008A819B810E94214C9B01AC01C501B4011F
:105790000E94664E181634F481E090E0D7018D9394
:1057A0009C9303C0F701118210826EE978E08BECC4
:1057B00099E00E947830D8011C96ED91FC911D97DC
:1057C000608171818BEC99E00E94B03280916F0909
:1057D000909170090296803191052CF49093700994
:1057E00080936F0904C01092700910926F09DF91C5
:1057F000CF911F910F91FF90EF90DF90CF90BF90CE
:10580000AF909F908F907F906F905F904F90089592
:105810008F929F92AF92BF92CF92DF92EF92FF92C0
:10582000CF93DF93EC01E0900402F0900502EE814B
:10583000FF8180819181019769F4C7014996853F75
:1058400021E0920714F084EF91E090930502809399
:1058500004020EC0E885F98580819181019751F499
:10586000C701499797FFF1CF1092050210920402E9
:1058700011821082AA85BB858D919C9111978436E7
:10588000910508F061C00E94CD3760931D097093A7
:105890001E0980931F09909320098DE20E947E3299
:1058A00061E08DE20E94F036809004029090050243
:1058B000092C000CAA08BB0880911D0990911E09B3
:1058C000A0911F09B0912009880E991EAA1EBB1E27
:1058D0000E94CD3786169706A806B90628F30E94BF
:1058E000CD3760931D0970931E0980931F09909313
:1058F00020098DE20E947E3260E08DE20E94F03647
:1059000084EF91E06C01CE18DF080D2C000CEE083E
:10591000FF0880901D0990901E09A0901F09B0906B
:1059200020098C0C9D1CAE1CBF1C0E94CD37861616
:105930009706A806B90668F3EA85FB858081918100
:1059400001969183808321C04A815B81FA01208185
:10595000318188819981232B31F021E030E0FC01F5
:105960003183208303C0FC01118210821D921C929E
:10597000FA0111821082EC81FD81118210828AEF7E
:1059800090E090930502809304028BEC99E00E94D2
:10599000602F6AEA78E08BEC99E00E947830EA8523
:1059A000FB85608171814AE050E08BEC99E00E94B8
:1059B000642F69EB78E08BEC99E00E94783040919D
:1059C000040250910502052E000C660B770B8BEC40
:1059D00099E00E944C3267EC78E08BEC99E00E94F1
:1059E000832F8BEC99E0DF91CF91FF90EF90DF90C8
:1059F000CF90BF90AF909F908F900C94602FFC0140
:105A0000538D448D252F30E0842F90E0821B930B23
:105A1000541710F0CF96089501970895FC01918DC9
:105A2000828D981761F0828DDF01A80FB11D5D9600
:105A30008C91928D9F5F9F73928F90E008958FEF6E
:105A40009FEF0895FC01918D828D981731F0828D22
:105A5000E80FF11D858D90E008958FEF9FEF089579
:105A6000FC01918D228D892F90E0805C9F4F821BDD
:105A700091098F73992708958BEC99E00E94302D3E
:105A800021E0892B09F420E0822F089588E69AE02E
:105A90000E94302D21E0892B09F420E0822F089507
:105AA000FC01848DDF01A80FB11DA35ABF4F2C91BB
:105AB000848D90E001968F739927848FA689B7898A
:105AC0002C93A089B1898C91837080648C93938D81
:105AD000848D981306C00288F389E02D80818F7D24
