:100000000C944C060C947D060C947D060C947D0695
:100010000C947D060C947D060C947D060C947D0654
:100020000C947D060C947D060C947D060C947D0644
:100030000C947D060C947D060C947D060C947D0634
:100040000C947D060C947D060C947D060C947D0624
:100050000C947D060C947D060C947D060C94A735BB
:100060000C947D060C94902E0C94662E0C947D06B8
:100070000C947D060C947D060C947D060C947D06F4
:100080000C947D060C947D060C947D060C947D06E4
:100090000C94F02E0C94C62E0C947D060C947D06C8
:1000A0000C947D060C947D060C947D060C947D06C4
:1000B0000C947D060C947D060C947D060C947D06B4
:1000C0000C947D060C947D060C947D060C947D06A4
:1000D0000C947D060C947D060C947D060C947D0694
:1000E0000C947D06192C1C2C0B2C0F2C132C532C30
:1000F000202C242C2A2C2E2C322C382C3C2C402C1E
:10010000532C462C4A2C4E2C07634236B79BD8A75B
:100110001A39685618AEBAAB558C1D3CB7CC57632C
:10012000BD6DEDFD753EF6177231BF000000803FDA
:1001300008000000BE922449123EABAAAA2ABECDF6
:10014000CCCC4C3E00000080BEABAAAAAA3E000068
:100150000000BF000000803F000000000008417860
:10016000D3BB4387D1133D190E3CC3BD4282AD2B97
:100170003E68EC8276BED98FE1A93E4C80EFFFBE8F
:1001800001C4FF7F3F00000000000C94242C0C945D
:1001900098090C9448090C9481210C9445090C94FD
:1001A0003C2C0C940B2C0C94E32D0C94DF300C9411
:1001B000462C0C94FD320C945C0A0C940F2C0C947D
:1001C0007F060C9423110C947C0D0C9444080C9421
:1001D000962D0C944A2C0C94322C0C94232D0C94B8
:1001E000532C0C9480060C946A100C94132C0C94D1
:1001F000192C0C942A2C0C94462D0C9473320C94CC
:10020000E60B0C9403440C940E0A0C9444090C94D1
:100210002E2C0C94382C0C94C6120C9493080C942D
:10022000322D0C94542D0C949B0C0C943A2E0C945F
:1002300063330C94402C0C944E2C0C941C2C0C947A
:10024000202C2E89298F2B02E200E401E510E60123
:10025000E710E870F200EA00EB20EC3CEDC8E9386A
:10026000F1011B1A1A022461255C183619011F8836
:10027000FF051F80FF051F90FF051FD4FF05170511
:1002800036092838FF28283C02000300040005EF47
:10029000060007000801093F0100B903FF8357FF6B
:1002A000FAB30400000606B60125B00168CC0105CA
:1002B000B10600151C1C83AAC0065050013C1E0844
:1002C000B4070240002A2A0D783A01553601C0359C
:1002D0000100440200021100FF962900FF321500C0
:1002E00030009A0010001100200010002834120085
:1002F000020013004610FF00280012001200FF0049
:1003000028001000203413004630FF004600300063
:1003100000003100020432000703330004033400FC
:1003200004003500010436000707370005033800D4
:10033000100639001006010000010200000303004E
:100340003010080008080A0008006000002761005B
:10035000010090003E019200000193000001A00006
:100360000030A30010000700010007002100070073
:100370002300070033000700330100000100FF00E5
:1003800032000100000102000007030030100400E9
:10039000000008000202090000000A0000000C0032
:1003A00000000D0000000F00000010000000110010
:1003B00007001200000013000000FF00C80010003A
:1003C000901611002702FF00320012001A00FF00F1
:1003D00032001300001829002A00FF00320030000C
:1003E0000000310000003200000035000602360037
:1003F00008083700070038000102390000003C00FF
:1004000000003D000000200000002100000050001E
:1004100000005100EF005200000053003F01600057
:1004200000A7610003006A00000090001000920025
:100430000000930003009500001197000000980051
:100440000000070033016D61746368657320746890
:1004500065207475746F7269616C2E00416C736FE6
:10046000206966207573696E672074686520627202
:1004700065616B6F75742C20646F75626C652D639C
:100480006865636B207468617420616C6C207769A7
:1004900072696E67004966207573696E67207468BB
:1004A0006520627265616B6F757420626F61726442
:1004B0002C2069742073686F756C64204E4F542033
:1004C00062652023646566696E6564210073686FE8
:1004D000756C642061707065617220696E2074684B
:1004E00065206C6962726172792068656164657209
:1004F0002028456C65676F6F5F5446542E68292E1F
:1005000000202023646566696E65205553455F456C
:100510006C65676F6F5F534849454C445F50494E67
:100520004F5554004966207573696E67207468657D
:1005300020456C65676F6F20322E38222054465458
:100540002041726475696E6F20736869656C642CF4
:1005500020746865206C696E653A00556E6B6E6F2D
:10056000776E204C4344206472697665722063681C
:1005700069703A2000466F756E64203078393332E6
:1005800038204C43442064726976657200466F756A
:100590006E6420307839333431204C434420647207
:1005A0006976657200466F756E6420485838333539
:1005B0003744204C43442064726976657200466F6C
:1005C000756E6420494C4939333431204C43442002
:1005D00064726976657200466F756E64204858389B
:1005E00033343747204C4344206472697665720087
:1005F000466F756E64204C47445034353335204C7B
:1006000043442064726976657200466F756E64209B
:10061000494C4939333238204C434420647269765E
:10062000657200466F756E6420494C493933323526
:10063000204C434420647269766572005573696E7C
:100640006720456C65676F6F20322E342220544638
:100650005420427265616B6F757420426F617264E1
:100660002050696E6F757400544654204C434420EA
:100670007465737400000020002300260029002CFC
:10068000002F0032000001000003010601090100F3
:10069000000000003E5B4F5B3E3E6B4F6B3E1C3EDE
:1006A0007C3E1C183C7E3C181C577D571C1C5E7FF2
:1006B0005E1C00183C1800FFE7C3E7FF0018241871
:1006C00000FFE7DBE7FF30483A060E2629792926A6
:1006D000407F050507407F05253F5A3CE73C5A7F90
:1006E0003E1C1C08081C1C3E7F14227F22145F5FE6
:1006F000005F5F06097F017F006689956A60606020
:10070000606094A2FFA29408047E040810207E205A
:100710001008082A1C08081C2A08081E10101010AF
:100720000C1E0C1E0C30383E3830060E3E0E0600F5
:100730000000000000005F00000007000700147FB9
:10074000147F14242A7F2A12231308646236495620
:1007500020500008070300001C2241000041221C19
:10076000002A1C7F1C2A08083E0808008070300000
:100770000808080808000060600020100804023E15
:100780005149453E00427F40007249494946214156
:10079000494D331814127F1027454545393C4A49C5
:1007A0004931412111090736494949364649492904
:1007B0001E00001400000040340000000814224114
:1007C0001414141414004122140802015909063E9D
:1007D000415D594E7C1211127C7F494949363E4198
:1007E0004141227F4141413E7F494949417F0909B9
:1007F00009013E414151737F0808087F00417F4154
:10080000002040413F017F081422417F404040408A
:100810007F021C027F7F0408107F3E4141413E7FE2
:10082000090909063E4151215E7F091929462649D9
:1008300049493203017F01033F4040403F1F2040B0
:10084000201F3F4038403F631408146303047804BA
:10085000036159494D43007F414141020408102082
:10086000004141417F0402010204404040404000F9
:100870000307080020545478407F28444438384403
:10088000444428384444287F385454541800087E7F
:10089000090218A4A49C787F0804047800447D40D1
:1008A000002040403D007F1028440000417F400070
:1008B0007C047804787C080404783844444438FC88
:1008C0001824241818242418FC7C0804040848540C
:1008D00054542404043F44243C4040207C1C2040C9
:1008E000201C3C4030403C44281028444C909090C0
:1008F0007C4464544C4400083641000000770000FA
:10090000004136080002010204023C2623263C1E58
:10091000A1A161123A4040207A38545455592155CA
:1009200055794122545478422155547840205455E9
:1009300079400C1E52721239555555593954545438
:100940005939555454580000457C410002457D42B8
:100950000001457C407D1211127DF0282528F07C95
:10096000545545002054547C547C0A097F4932492F
:100970004949323A4444443A324A4848303A41417B
:10098000217A3A42402078009DA0A07D3D4242421B
:100990003D3D4040403D3C24FF2424487E49436681
:1009A0002B2FFC2F2BFF0929F620C0887E0903205E
:1009B000545479410000447D413048484A3238401F
:1009C00040227A007A0A0A727D0D19317D26292982
:1009D0002F28262929292630484D40203808080884
:1009E0000808080808382F10C8ACBA2F102834FAA5
:1009F00000007B000008142A142222142A1408552F
:100A000000550055AA55AA55AAFF55FF55FF0000ED
:100A100000FF00101010FF00141414FF001010FF4E
:100A200000FF1010F010F0141414FC001414F70060
:100A3000FF0000FF00FF1414F404FC141417101F2F
:100A400010101F101F1414141F00101010F00000BD
:100A500000001F101010101F10101010F0100000D8
:100A600000FF101010101010101010FF10000000E8
:100A7000FF140000FF00FF00001F10170000FC041F
:100A8000F414141710171414F404F40000FF00F702
:100A900014141414141414F700F714141417141065
:100AA000101F101F141414F4141010F010F0000094
:100AB0001F101F0000001F14000000FC140000F0B5
:100AC00010F01010FF10FF141414FF141010101F5A
:100AD00000000000F010FFFFFFFFFFF0F0F0F0F06B
:100AE000FFFFFF0000000000FFFF0F0F0F0F0F3888
:100AF00044443844FC4A4A4A347E02020606027ED6
:100B0000027E0263554941633844443C04407E20E0
:100B10001E2006027E020299A5E7A5991C2A492AF1
:100B20001C4C7201724C304A4D4D30304878483080
:100B3000BC625A463D3E494949007E0101017E2A78
:100B40002A2A2A2A44445F444440514A44404044AB
:100B50004A51400000FF0103E080FF000008086BDD
:100B60006B083612362436060F090F0600001818D7
:100B70000000001010003040FF0101001F01011EA5
:100B800000191D1712003C3C3C3C00000000000016
:100B9000002100240027002A002D0030003300012E
:100BA000010000040107010A0101021020200808C9
:100BB00010204010204080020102010804020101BF
:100BC00002040810204080804020100804020180A8
:100BD00004020180402010080402010804020101FF
:100BE0000204081020408001020408102040800008
:100BF000002200250028002B002E003100340002C6
:100C0000010000050108010B0105050505070508A0
:100C1000080808020202020A0A080804040404017F
:100C200001010101010101030303030303030304A1
:100C30000707070C0C0C0C0C0C0C0C020202020631
:100C4000060606060606060B0B0B0B0B0B0B0B0022
:100C5000000A0B02090C0D0E080703040100000036
:100C60000000000000000000000000000000000084
:100C70000000000000000000000000121110000041
:100C80000000000000000000000000000000000064
:100C9000000000000000034411241FBECFEFD1E28A
:100CA000DEBFCDBF00E00CBF17E0A0E0B2E0E6EC95
:100CB000F6E900E00BBF02C007900D92AA3CB10715
:100CC000D9F72AE0AAECB7E001C01D92AB33B20716
:100CD000E1F716E0CCE4D6E000E006C02197010978
:100CE000802FFE010E94014ACB34D10780E0080723
:100CF000A9F70E9436360C94614B0C9400000895BD
:100D00002F923F924F925F926F927F928F929F921B
:100D1000AF92BF92CF92DF92EF92FF920F931F9309
:100D2000CF93DF93CDB7DEB72D970FB6F894DEBF24
:100D30000FBECDBF9D878C876A30A1F4DC0154962D
:100D40002C9154971E968D919C911F97B8E02B9FE4
:100D5000800D911D1124EC85FD859787868715866A
:100D60001486F8C06D3009F4F5C0AC85BD851C96BD
:100D7000CD90DC901D9718968D919C911997C8166F
:100D8000D906BCF0EC85FD854489242F30E08485AC
:100D90009585F6E04F9F800D911D1124AC85BD8592
:100DA0001D969C938E931C9756964C914111AEC004
:100DB000D1C0EC85FD8586849784828593858816CD
:100DC000990604F7F489F983AF2EB12CC60126E009
:100DD000F29F800D911D1124181619069CF6C5016D
:100DE00023E0880F991F2A95E1F7880D991D1816A1
:100DF000190644F6AC85BD8557968C91811103C0C8
:100E0000603B08F06F5FEC85FD850288F389E02D7B
:100E1000FD83EC83AC85BD8550960D90BC91A02DD3
:100E2000BF83AE83B5E06B9FB001112416011A8217
:100E3000FB01EC19FD09F987E8879401285F3F4F12
:100E40003B872A873A81353049F0E885F985E20DFC
:100E5000F31DE157F94F54915B8301C01B822401BC
:100E600034018B8180FF13C0AC85BD85ED91FC9171
:100E7000B981B13031F40084F185E02D2E813F81BC
:100E800019C00288F389E02DEE80FF801EC0EC813E
:100E9000FD812E813F81E217F307F1F0AC85BD851E
:100EA000ED91FC91B981B13059F40084F185E02DC8
:100EB0002C813D81A301B1018C859D8519950CC0C4
:100EC0000288F389E02DEC80FD8085019501A20167
:100ED000B6018C859D851995EB81E695EB83FFEF37
:100EE0006F1A7F0A4A0C5B1C2A853B85261537053D
:100EF00009F0B7CF3A813F5F3A835FEF251A350A91
:100F0000CA0CDB1C363009F09DCF3CCF4AEF4203C0
:100F1000B001439F700D1124AC85BD8518964D918D
:100F20005C911997460F571F481759079CF483E0A7
:100F3000220F331F8A95E1F71E968D919C911F9782
:100F4000280F391F1F963C932E931E971D961C92B7
:100F50001E921C9781E090E02D960FB6F894DEBFAC
:100F60000FBECDBFDF91CF911F910F91FF90EF90FA
:100F7000DF90CF90BF90AF909F908F907F906F90B9
:100F80005F904F903F902F900895EF92FF920F93B4
:100F90001F93DC011A960D911C911B9718962D91A9
:100FA0003C911997ED91FC910288F389E02D7B012A
:100FB00040E050E060E070E019951F910F91FF90C4
:100FC000EF9008956F927F928F929F92AF92BF920F
:100FD000CF92DF92EF92FF920F931F93CF93DF9305
:100FE0006C015A014801EB013B01620E731EC615EC
:100FF000D70574F4D601ED91FC910484F585E02DBC
:1010000087019401A501BE01C60119952196EFCF74
:10101000DF91CF911F910F91FF90EF90DF90CF90D4
:10102000BF90AF909F908F907F906F900895EF92B8
:10103000FF920F931F93260F371F21503109DC01B8
:10104000ED91FC910284F385E02D78018A011995D8
:101050001F910F91FF90EF900895EF92FF920F93E1
:101060001F93240F351F21503109DC01ED91FC91B4
:101070000284F385E02D780189019B0119951F9168
:101080000F91FF90EF9008956F927F928F929F92B1
:10109000AF92BF92CF92DF92EF92FF920F931F9386
:1010A000CF93DF93EC014B015A0169013801E881CC
:1010B000F9810684F785E02D87011995A501460D74
:1010C000571D41505109E881F9810684F785E02DCB
:1010D0009601B401CE011995E881F9810484F58562
:1010E000E02D9301A501B401CE011995C80CD91CBE
:1010F000B60161507109E881F9810484F585E02D1C
:101100009301A501CE011995DF91CF911F910F9108
:10111000FF90EF90DF90CF90BF90AF909F908F9017
:101120007F906F9008952F923F924F925F926F92AF
:101130007F928F929F92AF92BF92CF92DF92EF9267
:10114000FF920F931F93CF93DF9300D000D0CDB7C2
:10115000DEB72C017E836D836A015901C801FC82D0
:10116000EB824801841A950A97FE03C091948194FA
:10117000910835012D813E81621A730A77FE03C002
:10118000719461947108681479045CF43A2D2B2DE4
:101190005C01832F922F3D812E81DE82CD82C32E72
:1011A000D22EAD81BE81AA16BB065CF43C2D2D2D3E
:1011B0006C01832F922F3D812E81BE82AD82A32EA2
:1011C000B22E85012D813E81021B130B1C012C18B0
:1011D0003D0837FE03C0319421943108780117FF90
:1011E00003C03FEFE31AF30AF594E794C816D90653
:1011F0002CF08FEF9FEF9A83898304C0A1E0B0E0C9
:10120000BA83A9832D813E81A216B30624F1D201AF
:10121000ED91FC910084F185E02D2B813C816814D7
:10122000790424F44D815E81B60103C0A6016D816D
:101230007E81C2011995E218F308F7FE06C02981E4
:101240003A81C20ED31EE00EF11E8D819E81019661
:101250009E838D83D7CF26960FB6F894DEBF0FBE40
:10126000CDBFDF91CF911F910F91FF90EF90DF9055
:10127000CF90BF90AF909F908F907F906F905F9036
:101280004F903F902F900895089580E090E008954A
:10129000CF92DF92EF92FF92CF93DF93FC01C6854E
:1012A000D785209104023091050287EB9AE0289FB0
:1012B000B001299F700D389F700D11246D5D784E1F
:1012C0007093050260930402072E000C880B990BA3
:1012D0000E94D5466B017C0120E030E0A9010E940C
:1012E000264687FF0AC02AE635ED4CE45DE4C701D7
:1012F000B6010E94BA456B017C012AE635ED4CE44B
:101300005DE4C701B6010E942B4620E030E048EAC8
:1013100051E40E94E2470E949D466A507109798318
:101320006883DF91CF91FF90EF90DF90CF90089589
:10133000CF92DF92EF92FF920E949B356B017C016E
:1013400060939A0870939B0880939C0890939D08E3
:101350000E949B35DC01CB018C199D09AE09BF09A8
:10136000803D9740A105B10598F38EE998E00E9471
:101370003B2F8EE998E00E94322D9C012B7F223674
:10138000310509F43FC082379105E1F19C01277FC7
:1013900024363105B9F188369105A1F16DE576E085
:1013A0008EE998E00E943F2F0E949B356B017C01E3
:1013B00060939A0870939B0880939C0890939D0873
:1013C0000E949B35DC01CB018C199D09AE09BF0938
:1013D000803D9740A105B10598F38EE998E00E9401
:1013E000322D8437910531F08436910591F48BE5E7
:1013F00096E002C089E596E0FF90EF90DF90CF90F5
:101400000C944E1D0E94851E84E796E00E944E1D9E
:10141000CBCFFF90EF90DF90CF900895CF92DF92E7
:10142000EF92FF92CF93DF93EC018AE896E00E945F
:101430004E1D0E949B356B017C0160939A0870934E
:101440009B0880939C0890939D080E949B35DC012B
:10145000CB018C199D09AE09BF09803D9740A105BC
:10146000B10598F38EE998E00E943B2F8EE998E051
:101470000E94322D8936910519F4E881F98105C061
:101480008436910569F4EA81FB8181E090E09183E3
:101490008083DF91CF91FF90EF90DF90CF90089500
:1014A0006DE576E08EE998E0DF91CF91FF90EF90C7
:1014B000DF90CF900C943F2FEF92FF920F931F93EA
:1014C000CF93DF93EC011092110A1092100A109240
:1014D000130A1092120A84E08093180AEE81FF81A9
:1014E000808191818B309105E0F4809198089091F2
:1014F0009908823091056CF01092170A1092160A22
:101500001092150A1092140A1092990810929808D5
:101510002BC00196909399088093980880E098EFEB
:101520001BC0C397B8F480919808909199088130B6
:10153000910511F320E03CEF3093170A2093160A2F
:101540003093150A2093140A01969093990880937A
:1015500098080AC080EE97E09093170A8093160AC5
:101560009093150A8093140A65EA76E084E09AE085
:101570000E943F2F84E09AE00E943B2FE885F98586
:10158000808191818B309105B8F48091960890917B
:101590009708823091056CF01092170A1092160A83
:1015A0001092150A1092140A109297081092960839
:1015B00026C020E038EF0BC0C397B8F4809196089E
:1015C000909197088130910539F320E03CEF3093FA
:1015D000170A2093160A3093150A2093140A0196CD
:1015E00090939708809396080AC080EE97E09093B6
:1015F000170A8093160A9093150A8093140A6DEACD
:1016000076E084E09AE00E943F2F84E09AE00E9416
:101610003B2F8091CA079091CB07892B09F4AFC06B
:101620008091940890919508892B09F0A8C0109298
:10163000110A1092100A81E490E09093130A8093AB
:10164000120A80E098EF9093170A8093160A9093FD
:10165000150A8093140A62EB76E084E09AE00E9417
:101660003F2FC0919208D09193082196D093930870
:10167000C09392088EE998E00E94322D1816190640
:101680003CF481E090E0909395088093940804C026
:101690001092950810929408809194089091950862
:1016A000892B09F08CC060970CF489C08091900858
:1016B000909191080597BCF5C0E0D0E081E4E82E58
:1016C000F12C00E018EF1092110A1092100AF0921B
:1016D000130AE092120AC0FD09C01092170A109274
:1016E000160A1092150A1092140A08C01093170ACD
:1016F0000093160A1093150A0093140A62EB76E021
:1017000084E09AE00E943F2F84E09AE00E943B2F01
:1017100062E370E080E090E00E94682C2196C43182
:10172000D10589F61AC01092110A1092100A81E4AC
:1017300090E09093130A8093120A80E098EF9093C0
:10174000170A8093160A9093150A8093140A62EB85
:1017500076E084E09AE00E943F2F8091900890917B
:1017600091088A3091052CF01092910810929008FF
:1017700026C00196909391088093900820C0109203
:10178000110A1092100A81E490E09093130A80935A
:10179000120A1092170A1092160A1092150A109245
:1017A000140A62EB76E084E09AE00E943F2F1092E8
:1017B0009308109292081092950810929408DF9165
:1017C000CF911F910F91FF90EF900895CF93DF93EA
:1017D000EC0167EB76E08EE998E00E943F2FEE8106
:1017E000FF81808191818536910528F089EC96E012
:1017F0000E944E1D04C06AE070E00E94691D6CECFE
:1018000076E08EE998E00E943F2FE885F9856AE04E
:1018100070E0808191810E94691D6BED76E08EE918
:1018200098E00E943F2FEA85FB856AE070E08081A6
:1018300091810E94691D60EF76E08EE998E00E9438
:101840003F2FEC85FD856AE070E0808191810E94E8
:10185000691D64E077E08EE998E00E943F2FEC81FB
:10186000FD8180819181892B19F087E197E002C089
:101870008AE197E00E944E1D8EE998E00E943B2F7E
:101880008091CE079091CF07892B21F08EE197E0D0
:101890000E944E1D8091CC079091CD07892B21F09D
:1018A00085E297E00E944E1DEE81FF81808191814B
:1018B000EA81FB81C29748F481E090E091838083C4
:1018C0008DE297E00E944E1D02C011821082E885D1
:1018D000F98580819181E881F981C29748F481E09E
:1018E00090E09183808389E397E00E944E1D02C0BF
:1018F0001182108262E477E08EE998E00E943F2F27
:10190000E091F009F091F1090190F081E02D8081E2
:1019100091810E94851E68E577E08EE998E00E943B
:101920003F2FE889F9896081718182819381DF91FC
:10193000CF910C94761ECF92DF92EF92FF920F938D
:101940001F93CF93DF93EC01EBEEFBE06491EBE4AC
:10195000FCE0E491F0E0EE0FFF1FEB58F94F8591AA
:10196000949100E412E42FE030E0462F0E94F1351C
:10197000611571058105910549F0DC01CB010196E6
:10198000A11DB11DBC01CD019F7003C060E070E0DE
:10199000CB010E94D3460E9410470E949D46072E0D
:1019A000000C880B990B0E94D5462EE63FED4BE2CA
:1019B0005FE30E94E2470E9410470E949D46613DFE
:1019C00047E074071CF080ED97E00AC064367105AB
:1019D0002CF070938F0860938E0806C084E690E028
:1019E00090938F0880938E0800918E0810918F0835
:1019F000E881F98111830083C0918C08D0918D0812
:101A0000209729F460918A0870918B0807C0FE0125
:101A1000EE0FFF1FE658F74F60817181601B710B5D
:101A200077FF03C0719561957109072E000C880B33
:101A3000990B209729F50E94D5466B017C01609196
:101A40008A0870918B0880E090E00E94D3462DECCC
:101A50003CEC4CEC5DE30E94E2479B01AC01C7010A
:101A6000B6010E94DD471816E4F510937D08009337
:101A70007C0881E090E090938D0880938C0831C0C1
:101A80000E94D5466B017C01FE01EE0FFF1FE65858
:101A9000F74F6081718180E090E00E94D3462DEC89
:101AA0003CEC4CEC5DE30E94E2479B01AC01C701BA
:101AB000B6010E94DD471816A4F4FE01EE0FFF1FC9
:101AC000E458F74F11830083C730D1052CF01092F2
:101AD0008D0810928C0805C02196D0938D08C09374
:101AE0008C08C801DF91CF911F910F91FF90EF906B
:101AF000DF90CF900C94851E2F923F924F925F9271
:101B00006F927F928F929F92AF92BF92CF92DF920D
:101B1000EF92FF920F931F93CF93DF93CDB7DEB772
:101B2000C251D8400FB6F894DEBF0FBECDBFC55F1F
:101B3000D74F99838883CB50D8403E012FEF621A4C
:101B40002BEF720A80E092E0F3019C011192215088
:101B50003040E1F773018E010F5F1D4F8BE8C82EF7
:101B6000DD24D39482E40E94CB2BBC01990F880B17
:101B7000990B0E94D5462AE037ED43E25CE30E94D0
:101B8000E24720E030E040E251E40E94E24720E0FA
:101B900030E040E251E40E94B9450E949D46F801C0
:101BA000619371938F01F701119211927F01C60128
:101BB0000197F1F706151705A9F68FEFECE0F2E0B3
:101BC000DE01B95F01900D928A95E1F78FEFEBE0AE
:101BD000F3E0DE01AF5FB94F01900D928A95E1F716
:101BE00080E092E0EAE0F4E0DE01119601900D92CF
:101BF0000197E1F7FE01EF5FFD4F40E050E080E02C
:101C000090E020E830E0821793072CF0821B930BC2
:101C100035952795F8CF820F931F4F5F5F4F4F3F4A
:101C20005105B9F04817590794F422813381DC013A
:101C3000AA0FBB1F61E072E06C0F7D1FA60FB71FDC
:101C40006D917C911197738362832D933C933296AF
:101C5000D8CF88E090E0CF5FD74F99838883C15079
:101C6000D840212C312C41E050E0BA01660F771F9B
:101C7000FB01EE0FFF1FC75FD74FF983E883C95001
:101C8000D84053019E012F5F3D4F290100E010E035
:101C9000041715070CF002C1CF5ED74FB982A88296
:101CA000C151D840D201C150D84F19830883CF5FAA
:101CB000D740C801820D931DE0E0F7E0EC0FFD1F57
:101CC000E80FF91FC35FD74FF983E883CD50D840A1
:101CD00021E036E02C0F3D1F280F391FC15FD74F81
:101CE00039832883CF50D840C150D84F88819981FB
:101CF000CF5FD7408F3F910511F00CF0C6C0C35F96
:101D0000D74FE881F981CD50D8408080082C000C55
:101D100099089D01260F371FC95FD74F3983288344
:101D2000C750D840F9010190F081E02DCD5FD74F29
:101D3000F983E883C350D840C15FD74FE881F98168
:101D4000CF50D840E0800E2C000CFF08CF5ED74F5C
:101D500028813981C151D840260F371FCB5FD74F1B
:101D600039832883C550D840F90180819181CD5FA6
:101D7000D74FE881F981C350D8408E9E90018F9E45
:101D8000300D9E9E300D1124E89E6001E99ED00C1E
:101D9000F89ED00C11242C193D0937FF02C0215E9A
:101DA0003F4FF5E035952795FA95E1F7889E60015C
:101DB000899ED00C989ED00C1124CD5FD74FE8811E
:101DC000F981C350D840EE9DC001EF9D900DFE9D5E
:101DD000900D11248C0D9D1D97FD4F96E5E0959576
:101DE0008795EA95E1F7ED90FC901197E21AF30AD6
:101DF000C95FD74FE881F981C750D840F182E082AE
:101E0000CF5ED74FE881F981C151D840E080F180A1
:101E1000E81AF90ACB5FD74FE881F981C550D8405D
:101E2000F182E082ED90FC9011972E0D3F1D1196EE
:101E30003C932E93CF5ED74FE881F981C151D840B2
:101E4000C080D1808C0D9D1D91838083C150D84F5F
:101E500028813981CF5FD740260F371FC150D84F17
:101E600039832883CF5FD740C75FD74F8881998157
:101E7000C950D840A80FB91FE80FF91FCF5ED74F40
:101E8000F983E883C151D8402FCF0F5F1F4F92E0F5
:101E9000490E511CE2E0AE0EB11CFACE57FF02C053
:101EA00040E050E0240E351ECF5FD74F28813981A6
:101EB000C150D84021503109CF5FD74F3983288393
:101EC000C150D840AB01232B09F0CFCE8E010D5F5E
:101ED0001D4FDE01AD5FBB4FEE24E394F12C60E0BB
:101EE00070E041E050E08D919D91F8012191319198
:101EF0008F0137FF03C03195219531092115F2E09B
:101F00003F0714F02FEF31E0E1E0F0E0EC0FFD1FB0
:101F10002E0F3F1FF901208130E097FF03C09195FC
:101F2000819591098115F2E09F0714F08FEF91E000
:101F3000E1E0F0E0EC0FFD1F8E0F9F1FFC018081A0
:101F4000280F311D6217730714F4B9017A014F5F2E
:101F50005F4F4038510539F6C55FD74FE881F981A9
:101F6000CB50D8400081118182E38E9DB0018F9DBE
:101F7000700D1124072E000C880B990B0E94D5467A
:101F80006B017C0120E030E0A9010E94DD471816BA
:101F900024F0F7FAF094F7F8F094F801C082D182B7
:101FA000E282F382E0917A08F0917B08EE0FFF1F46
:101FB000EE0FFF1FE65CF74FC082D182E282F38210
:101FC000C701B6010E94761E0AE318E09AE7E92EDF
:101FD00098E0F92EF80161917191819191918F01B1
:101FE00042E00E94A21D66E677E08EE998E00E943A
:101FF0003F2FE016F10671F78EE998E00E943B2F23
:1020000080917A0890917B08803191052CF0109294
:102010007B0810927A0805C0019690937B08809304
:102020007A08CE5ED74F0FB6F894DEBF0FBECDBF95
:10203000DF91CF911F910F91FF90EF90DF90CF90A4
:10204000BF90AF909F908F907F906F905F904F90D8
:102050003F902F900895AF92BF92CF92DF92EF9270
:10206000FF920F931F93CF93DF935B017C01C0E03E
:10207000D0E000E010E0CA15DB0504F5F701C190DF
:10208000D1907F01BE010D2E000C880B990B0E9490
:10209000D5469B01AC0160E070E080E090E40E94D6
:1020A0004F480E949D46C69E9001C79E300DD69E09
:1020B000300D1124020F131F2196DDCFC801DF91CF
:1020C000CF911F910F91FF90EF90DF90CF90BF9035
:1020D000AF900895AF92BF92CF92DF92EF92FF92AE
:1020E0000F931F93CF93DF93CDB7DEB768970FB6EB
:1020F000F894DEBF0FBECDBF5C01DC01ED91FC9119
:10210000E080F18088EC90E00E943B4A8C01FC0169
:10211000B0968FE090E09701082E02C03595279584
:102120000A94E2F72170332732932293019798F7AC
:10213000F801E080F18082819381E82AF92A848184
:102140009581E82AF92A86819781E82AF92A8085EB
:1021500091859A8B898B828593859C8B8B8B8485CB
:1021600095859E8B8D8B86859785988F8F8B64E068
:1021700070E0CE0141960E942B106C01D801509660
:102180008D919C9151979A83898352968D919C91C0
:1021900053979C838B8354968D919C9155979E83E6
:1021A0008D8356968D919C91579798878F835896DB
:1021B0008D919C9159979A8789875A968D919C9178
:1021C0005B979C878B875C968D919C915D979E8792
:1021D0008D875E968D919C915F97988B8F8768E035
:1021E00070E0CE0101960E942B10EF28D9F0892BC8
:1021F000C9F0D5011296ED91FC91139780819181E0
:10220000181619067CF4BEE0CB16D10411F0CD28C7
:1022100049F0853091051CF41182108203C00597A6
:102220009183808368960FB6F894DEBF0FBECDBF52
:10223000DF91CF911F910F91FF90EF90DF90CF90A2
:10224000BF90AF9008954F925F926F927F928F925E
:102250009F92AF92BF92CF92DF92EF92FF920F9335
:102260001F93CF93DF938C010E94763560933608DD
:102270007093370880933808909339086B017C017C
:1022800028E5C20E22E0D21EE11CF11C0E94763528
:10229000C616D706E806F906C8F383E40E94CB2BDE
:1022A000D8011696ED91FC91179782E390E0918307
:1022B0008083ED91FC9180819181019709F055C156
:1022C00089E697E00E944E1D0E949B3560939A0814
:1022D00070939B0880939C0890939D086B017C01F0
:1022E000B0EDCB0EB7E0DB1EE11CF11C0E949B356C
:1022F0006C157D058E059F05C8F38EE998E00E9458
:10230000322D181619060CF030C18EE998E00E94A3
:102310003B2F0E9476356093360870933708809380
:102320003808909339086B017C01E4EFCE0EE1E0B0
:10233000DE1EE11CF11C0E9476356C157D058E05B4
:102340009F05C8F384E40E94CB2BEC0185E40E9436
:10235000CB2B7C0125E0D22EDC9EC001DD9E900DB2
:102360001124CFEFD3E0BE010E94CB49072E000C11
:10237000880B990B0E94D54626E636E646E25FE3D7
:102380000E94E24720E030E040E052E40E94E24751
:1023900020E030E044E052E40E94BA452B013C01C9
:1023A000DE9CC001DF9C900D1124BE010E94CB4930
:1023B000072E000C880B990B0E94D54626E636E6C0
:1023C00046E25FE30E94E24720E030E040E052E472
:1023D0000E94E24720E030E044E052E40E94BA4527
:1023E0004B015C01C301B2010E94761EC501B4011C
:1023F0000E94761ED8011E96CD90DC901F97F601A4
:1024000040825182628273825096ED91FC91519785
:1024100080829182A282B382C0913408D091350823
:10242000FE01EE0FFF1FEE0FFF1FEC50F84F408232
:10243000518262827382FE01EE0FFF1FEE0FFF1FBB
:10244000E850F84F80829182A282B3821C96ED9070
:10245000FC901D97209731F52AE939E949E95FE3B6
:1024600060912C0870912D0880912E0890912F0872
:102470000E94E2479B01AC01D6016D917D918D9147
:102480009C910E94DD4718164CF12AE939E949E987
:102490005FE360913008709131088091320890912B
:1024A000330830C0FE01EE0FFF1FEE0FFF1FE45197
:1024B000F84F2AE939E949E95FE360817181828156
:1024C00093810E94E2479B01AC01D6016D917D9101
:1024D0008D919C910E94DD47181634F481E090E0C4
:1024E000F7019183808321C0CC0FDD1FCC0FDD1F4E
:1024F000C051D84F2AE939E949E95FE36881798118
:102500008A819B810E94E2479B01AC01C501B40115
:102510000E94DD47181634F481E090E0D7018D93D6
:102520009C9303C0F701118210826EE877E08EE978
:1025300098E00E943F2FD8011C96ED91FC911D97C9
:10254000808191810E94851E809134089091350888
:102550000296803191052CF49093350880933408CD
:1025600004C01092350810923408DF91CF911F916A
:102570000F91FF90EF90DF90CF90BF90AF909F9022
:102580008F907F906F905F904F9008958F929F9261
:10259000AF92BF92CF92DF92EF92FF920F931F9371
:1025A000CF93DF93EC010091020210910302EE81C0
:1025B000FF8180819181019769F4C8014996853F27
:1025C00021E0920714F084EF91E09093030280934E
:1025D00002020EC0E885F98580819181019751F44E
:1025E000C801499797FFF1CF10920302109202029F
:1025F00011821082AA85BB858D919C91119784369A
:10260000910508F04CC00E949B354B015C018DE2A6
:102610000E94831D61E08DE20E94EA2BC0900202BD
:10262000D09003020D2C000CEE08FF08C80CD91C3A
:10263000EA1CFB1C0E949B35C616D706E806F90665
:1026400068F30E949B356B017C0160939A0870933C
:102650009B0880939C0890939D088DE20E94831DA7
:1026600060E08DE20E94EA2B84EF91E0801B910BE9
:10267000092E000CAA0BBB0BC80ED91EEA1EFB1EAE
:102680000E949B35C616D706E806F906C8F3EA8508
:10269000FB858081918101969183808321C04A814D
:1026A0005B81FA012081318188819981232B31F06E
:1026B00021E030E0FC013183208303C0FC01118262
:1026C00010821D921C92FA0111821082EC81FD8110
:1026D000118210828AEF90E09093030280930202AD
:1026E0008EE998E00E943B2F6AE977E08EE998E056
:1026F0000E943F2FEA85FB856AE070E0808191812E
:102700000E94691D69EA77E08EE998E00E943F2FF8
:1027100080910202909103020E945F1D87EB97E077
:102720000E944E1D8EE998E0DF91CF911F910F918D
:10273000FF90EF90DF90CF90BF90AF909F908F90E1
:102740000C943B2F8F929F92BF92CF92DF92EF9289
:10275000FF920F931F93CF93DF93EC01CB017A018C
:10276000E98DFA8D50814DA145234083488D41115B
:1027700063C54D89423089F0433021F1413081F504
:10278000AFEEB0E0AD01401B510B4B01AE19BF09DC
:1027900089019D017B01CA0125C04FEE50E0BA01BD
:1027A000621B730B9A01281B390B8FE391E0AC017C
:1027B000401B510B8C010E191F094801D9017A01E8
:1027C000CB0110C0EFE3F1E0AF01421B530B4F010F
:1027D000861A970AD70198018401C7017A0102C0BD
:1027E0004701DB016B8D7C8DFB0150814EA14523A0
:1027F00040834091020147784093020140910201D9
:10280000409302014EB1477C4EB94EB14EB9A598E6
:1028100044B344BB6D8D7E8DFB0150814FA1452398
:1028200040836D8D7E8DFB0150814BA1452B4083F4
:1028300040910201477840930201409102014860B3
:10284000409302014EB1477C4EB94EB14EB9A598A6
:10285000A59A6D8D7E8DFB0150814FA1452340834C
:102860006D8D7E8DFB0150814BA1452B4083492FFF
:10287000552747FD5A95CB8CDC8CF60170816AA1F7
:10288000672B608360910201677860930201B090CA
:102890000201BA01607C77276B0163E0D594C7948D
:1028A0006A95E1F7BA0163707727E5E0660F771F55
:1028B000EA95E1F76C296B29609302016EB1677CA0
:1028C0006EB9BEB0BA016C7077276B01CC0CDD1C01
:1028D000CC0CDD1CBA0160727727759567957595EC
:1028E00067956C296B296EB9A59864B3407155271B
:1028F000440F551F462B44BB6D8D7E8DFB015081CF
:102900004FA1452340836D8D7E8DFB0150814BA1EE
:10291000452B40834091020147784093020160912A
:102920000201AC01407C55276A0143E0D594C7946D
:102930004A95E1F7AC014370552775E0440F551FE8
:102940007A95E1F74C29462B409302014EB1477C22
:102950004EB96EB1AC014C7055276A01CC0CDD1C30
:10296000CC0CDD1CAC01407255275595479555950B
:1029700047954C29462B4EB9A59864B38071992789
:10298000880F991F862B84BB4D8D5E8DFA01908137
:102990008FA1892380834D8D5E8DFA0190818BA15B
:1029A000892B80834B8D5C8DFA0190818EA18923C8
:1029B00080838091020187788093020180910201D7
:1029C000809302018EB1877C8EB98EB18EB9A598A5
:1029D00084B384BB4D8D5E8DFA0190818FA18923D4
:1029E00080834D8D5E8DFA0190818BA1892B808330
:1029F00080910201877880930201809102018862B0
:102A0000809302018EB1877C8EB98EB18EB9A59864
:102A1000A59A4D8D5E8DFA0190818FA189238083C7
:102A20004D8D5E8DFA0190818BA1892B8083832F40
:102A3000992787FD9A956B8D7C8DFB0150814AA16A
:102A4000452B4083409102014778409302016091F9
:102A50000201AC01407C55276A0173E0D594C7940C
:102A60007A95E1F7AC0143705527E5E0440F551F17
:102A7000EA95E1F74C29462B409302014EB1477C81
:102A80004EB96EB1AC014C7055276A01CC0CDD1CFF
:102A9000CC0CDD1CAC0140725527559547955595DA
:102AA00047954C29462B4EB9A59844B38071992778
:102AB000880F991F842B84BB4D8D5E8DFA01908108
:102AC0008FA1892380834D8D5E8DFA0190818BA12A
:102AD000892B808380910201877880930201409145
:102AE0000201C901807C9927BC01F3E075956795C7
:102AF000FA95E1F7C9018370992755E0880F991F6E
:102B00005A95E1F7862B842B809302018EB1877C46
:102B10008EB94EB1C9018C709927BC01660F771F21
:102B2000660F771FC90180729927959587959595AE
:102B30008795862B842B8EB9A59884B32071332773
:102B4000220F331F282B24BB2D8D3E8DF901908140
:102B50008FA1892380832D8D3E8DF90190818BA1DA
:102B6000892B80832B8D3C8DF90190818EA1892347
:102B70008083809102018778809302018091020115
:102B8000809302018EB1877C8EB98EB18EB9A598E3
:102B900084B384BB2D8D3E8DF90190818FA1892353
:102BA00080832D8D3E8DF90190818BA1892B8083AF
:102BB00080910201877880930201809102018864EC
:102BC000809302018EB1877C8EB98EB18EB9A598A3
:102BD000A59A2D8D3E8DF90190818FA18923808347
:102BE0002D8D3E8DF90190818BA1892B80838F2DB6
:102BF000992787FD9A954B8D5C8DFA0130812AA12A
:102C0000232B2083209102012778209302014091F9
:102C100002019C01207C3327B90133E0759567954B
:102C20003A95E1F79C012370332755E0220F331FBB
:102C30005A95E1F7262B242B209302012EB1277CF5
:102C40002EB94EB19C012C703327B901660F771F46
:102C5000660F771F9C012072332735952795359590
:102C60002795262B242B2EB9A59824B3807199275C
:102C7000880F991F822B84BB2D8D3E8DF901908189
:102C80008FA1892380832D8D3E8DF90190818BA1A9
:102C9000892B8083809102018778809302012091A3
:102CA0000201C701807C9927AC0163E055954795E7
:102CB0006A95E1F7C7018370992775E0880F991F1E
:102CC0007A95E1F7842B822B809302018EB1877C69
:102CD0008EB92EB1C7018C709927AC01440F551FD6
:102CE000440F551FC7018072992795958795959533
:102CF0008795842B822B8EB9A59844B397012071B8
:102D00003327220F331F242B24BB2D8D3E8DF90139
:102D100090818FA1892380832D8D3E8DF901908133
:102D20008BA1892B80832B8D3C8DF90190818EA105
:102D300089238083809102018778809302018091AA
:102D40000201809302018EB1877C8EB98EB18EB95B
:102D5000A59884B384BB2D8D3E8DF90190818FA100
:102D6000892380832D8D3E8DF90190818BA1892B44
:102D70008083809102018778809302018091020113
:102D80008866809302018EB1877C8EB98EB18EB930
:102D9000A598A59A2D8D3E8DF90190818FA189234B
:102DA00080832D8D3E8DF90190818BA1892B8083AD
:102DB000812F992787FD9A954B8D5C8DFA01308183
:102DC0002AA1232B2083209102012778209302013E
:102DD000409102019C01207C3327B90123E07595C5
:102DE00067952A95E1F79C012370332755E0220F60
:102DF000331F5A95E1F7262B242B209302012EB185
:102E0000277C2EB94EB19C012C703327B901660F77
:102E1000771F660F771F9C01207233273595279502
:102E200035952795262B242B2EB9A59824B3807190
:102E30009927880F991F822B84BB2D8D3E8DF90118
:102E400090818FA1892380832D8D3E8DF901908102
:102E50008BA1892B80838091020187788093020166
:102E600020910201C801807C9927AC0163E055954F
:102E700047956A95E1F7C8018370992775E0880F37
:102E8000991F7A95E1F7842B822B809302018EB1F2
:102E9000877C8EB92EB1C8018C709927AC01440F84
:102EA000551F440F551FC801807299279595879526
:102EB00095958795842B822B8EB9A59824B30071A4
:102EC0001127000F111F022B04BB2D8D3E8DF90120
:102ED00090818FA1892380832D8D3E8DF901908172
:102EE0008BA1892B80832B8D3C8DF90190818EA144
:102EF00089238083809102018778809302018091E9
:102F00000201809302018EB1877C8EB98EB18EB999
:102F1000A59884B384BB2D8D3E8DF90190818FA13E
:102F2000892380832D8D3E8DF90190818BA1892B82
:102F30008083809102018778809302018091020151
:102F4000809302018EB1877C8EB9739AA59884B361
:102F500084BB2D8D3E8DF90190818FA189238083C3
:102F60002D8D3E8DF90190818BA1892B80838B2F34
:102F7000992787FD9A954B8D5C8DFA0130812AA1A6
:102F8000232B208320910201277820930201409176
:102F900002019C01207C3327B90123E075956795D8
:102FA0002A95E1F79C012370332755E0220F331F48
:102FB0005A95E1F7262B242B209302012EB1277C72
:102FC0002EB94EB19C012C703327B901660F771FC3
:102FD000660F771F9C01207233273595279535950D
:102FE0002795262B242B2EB9A59824B380719927D9
:102FF000880F991F822B84BB2D8D3E8DF901908106
:103000008FA1892380832D8D3E8DF90190818BA125
:10301000892B80838091020187788093020120911F
:103020000201CD01807C9927AC0103E055954795BD
:103030000A95E1F7CD018370992735E0880F991F34
:103040003A95E1F7842B822B809302018EB1877C25
:103050008EB92EB1CD018C709927AC01440F551F4C
:10306000440F551FCD0180729927959587959595A9
:103070008795842B822B8EB9A59884B3A071BB272A
:10308000AA0FBB1FA82BA4BBAD8DBE8D9C918FA199
:1030900089238C93AD8DBE8D9C918BA1892B8C93B4
:1030A000AB8DBC8D9C918EA189238C938091020164
:1030B00087788093020180910201809302018EB192
:1030C000877C8EB98EB18EB9A59884B384BBAD8D43
:1030D000BE8D9C918FA189238C93AD8DBE8D9C91CB
:1030E0008BA1892B8C9380910201877880930201B8
:1030F000809102018062809302018EB1877C8EB93B
:10310000739AA59884B384BBAD8DBE8D9C918FA11D
:1031100089238C93AD8DBE8D9C918BA1892B8C9333
:10312000892D992787FD9A95AB8DBC8D3C912AA15D
:10313000232B2C93209102012778209302014091A8
:1031400002019C01207C3327B901A3E075956795A6
:10315000AA95E1F79C0123703327B5E0220F331FB6
:10316000BA95E1F7262B242B209302012EB1277C60
:103170002EB94EB19C012C703327B901660F771F11
:10318000660F771F9C01207233273595279535955B
:103190002795262B242B2EB9A59824B38071992727
:1031A000880F991F822B84BBAD8DBE8D9C918FA102
:1031B00089238C93AD8DBE8D9C918BA1892B8C9393
:1031C0008091020187788093020120910201C4015D
:1031D000807C9927AC0163E0559547956A95E1F7A6
:1031E000C4018370992775E0880F991F7A95E1F7DC
:1031F000842B822B809302018EB1877C8EB92EB1F5
:10320000C4018C709927AC01440F551F440F551F02
:10321000C401807299279595879595958795842BFC
:10322000822B8EB9A59884B3F401E071FF27EE0FCD
:10323000FF1FE82BE4BB80C3413009F08AC3492F4C
:10324000552747FD5A95EB8DFC8D70816EA1672344
:1032500060836091020167786093020160910201CE
:103260006064609302016EB1677C6EB96EB16EB935
:10327000A59864B364BBED8DFE8D70816FA167234B
:103280006083ED8DFE8D70816BA1672B6083EB8D6C
:10329000FC8D70816AA1672B608360910201677861
:1032A00060930201E0910201BA01607C7727DB01A3
:1032B00073E0B595A7957A95E1F7BA016370772722
:1032C000F5E0660F771FFA95E1F76A2B6E2B609396
:1032D00002016EB1677C6EB9EEB1BA016C707727EE
:1032E000DB01AA0FBB1FAA0FBB1FBA0160727727B1
:1032F00075956795759567956A2B6E2B6EB9A59830
:1033000064B340715527440F551F462B44BBED8DC8
:10331000FE8D50814FA145234083ED8DFE8D508160
:103320004BA1452B4083EB8DFC8D50814EA1452355
:10333000408340910201477840930201409102018D
:103340004066409302014EB1477C4EB94EB14EB932
:10335000A59844B344BBED8DFE8D50814FA145230C
:103360004083ED8DFE8D50814BA1452B4083EB8D2D
:10337000FC8D50814AA1452B408340910201477842
:103380004093020160910201AC01407C5527FA0193
:10339000B3E0F595E795BA95E1F7AC014370552791
:1033A00075E0440F551F7A95E1F74E2B462B40935D
:1033B00002014EB1477C4EB96EB1AC014C7055273D
:1033C000FA01EE0FFF1FEE0FFF1FAC0140725527F1
:1033D00055954795559547954E2B462B4EB9A59833
:1033E00064B380719927880F991F862B84BBED8D5C
:1033F000FE8D90818FA189238083ED8DFE8D90813C
:103400008BA1892B80838F2D992787FD9A95EB8D32
:10341000FC8D50814EA145234083409102014778A5
:1034200040930201409102014064409302014EB179
:10343000477C4EB9749AA59844B344BBED8DFE8D7C
:1034400050814FA145234083ED8DFE8D50814BA1CE
:10345000452B4083EB8DFC8D50814AA1452B408349
:103460004091020147784093020160910201AC0152
:10347000407C5527FA0173E0F595E7957A95E1F7D9
:10348000AC0143705527F5E0440F551FFA95E1F75D
:103490004E2B462B409302014EB1477C4EB96EB184
:1034A000AC014C705527FA01EE0FFF1FEE0FFF1F06
:1034B000AC014072552755954795559547954E2B2C
:1034C000462B4EB9A59844B380719927880F991F50
:1034D000842B84BBED8DFE8D90818FA18923808309
:1034E000ED8DFE8D90818BA1892B8083EB8DFC8DE2
:1034F00090818EA1892380838091020187788093B7
:103500000201809102018066809302018EB1877C66
:103510008EB9749AA59884B384BBED8DFE8D90818D
:103520008FA189238083ED8DFE8D90818BA1892BC6
:103530008083EB8DFC8D90818AA1892B8083809183
:10354000020187788093020140910201C701807CCB
:103550009927BC01E3E075956795EA95E1F7C70106
:1035600083709927F5E0880F991FFA95E1F7862B6C
:10357000842B809302018EB1877C8EB94EB1C70136
:103580008C709927BC01660F771F660F771FC701E4
:10359000807299279595879595958795862B842B8D
:1035A0008EB9A59844B3F0E1EF22FF24EE0CFF1C86
:1035B000E42AE4BAED8DFE8D90818FA1892380836A
:1035C000ED8DFE8D90818BA1892B8083832F992790
:1035D00087FD9A95EB8DFC8D50814EA1452340834C
:1035E00040910201477840930201409102014093CB
:1035F00002014EB1477C4EB9749AA59844B344BBBE
:10360000ED8DFE8D50814FA145234083ED8DFE8DC4
:1036100050814BA1452B4083EB8DFC8D50814AA1FD
:10362000452B40834091020147784093020160910D
:103630000201AC01407C5527FA0143E0F595E7957E
:103640004A95E1F7AC014370552775E0440F551FCB
:103650007A95E1F74E2B462B409302014EB1477C01
:103660004EB96EB1AC014C705527FA01EE0FFF1F39
:10367000EE0FFF1FAC0140725527559547955595A4
:1036800047954E2B462B4EB9A59844B38071992788
:10369000880F991F842B84BBED8DFE8D90818FA1A7
:1036A00089238083ED8DFE8D90818BA1892B808372
:1036B000EB8DFC8D90818EA1892380838091020106
:1036C00087788093020180910201806280930201D9
:1036D0008EB1877C8EB9749AA59884B384BBED8D26
:1036E000FE8D90818FA189238083ED8DFE8D908149
:1036F0008BA1892B8083EB8DFC8D90818AA1892BF6
:1037000080838091020187788093020140910201B9
:10371000C901807C9927BC01E3E075956795EA951E
:10372000E1F7C90183709927F5E0880F991FFA9591
:10373000E1F7862B842B809302018EB1877C8EB9B2
:103740004EB1C9018C709927BC01660F771F660FB7
:10375000771FC901807299279595879595958795CB
:10376000862B842B8EB9A59884B320713327220F22
:10377000331F282B24BBED8DFE8D90818FA18923D3
:103780008083ED8DFE8D90818BA1892B8083812F8D
:10379000992787FD9A95EB8DFC8D30812EA12323EF
:1037A00020832091020127782093020120910201B9
:1037B000209302012EB1277C2EB9759AA59824B3C7
:1037C00024BBED8DFE8D30812FA123232083ED8D31
:1037D000FE8D30812BA1232B2083EB8DFC8D30813E
:1037E0002AA1232B20832091020127782093020114
:1037F000409102019C01207C3327B90133E075958B
:1038000067953A95E1F79C012370332755E0220F25
:10381000331F5A95E1F7262B242B209302012EB15A
:10382000277C2EB94EB19C012C703327B901660F4D
:10383000771F660F771F9C012072332735952795D8
:1038400035952795262B242B2EB9A59824B3807166
:103850009927880F991F822B84BBED8DFE8D908157
:103860008FA189238083ED8DFE8D90818BA1892B83
:103870008083EB8DFC8D90818EA189238083809144
:103880000201877880930201809102018062809317
:1038900002018EB1877C8EB9759AA59884B384BBDA
:1038A000ED8DFE8D90818FA189238083ED8DFE8D1E
:1038B00090818BA1892B8083EB8DFC8D90818AA1D7
:1038C000892B808380910201877880930201209167
:1038D0000201C801807C9927AC01B3E0559547955A
:1038E000BA95E1F7C8018370992735E0880F991FD1
:1038F0003A95E1F7842B822B809302018EB1877C6D
:103900008EB92EB1C8018C709927AC01440F551F98
:10391000440F551FC80180729927959587959595F5
:103920008795842B822B8EB9A59824B3007111271B
:10393000000F111F022B04BBED8DFE8D90818FA116
:1039400089238083ED8DFE8D90818BA1892B8083CF
:103950002FC04250423060F5092E000CAA0BBB0B61
:10396000DC0199278827A901330F660B770B9A0191
:10397000AB01282B392B4A2B5B2B6AE2CE010E942C
:10398000412FC701FF0CAA0BBB0BBC0155274427D5
:10399000012E000C220B330BD901C801842B952B6F
:1039A000A62BB72B9C01AD016BE2CE010E94412FEB
:1039B000E98DFA8D908189A1892B8083DF91CF9148
:1039C0001F910F91FF90EF90DF90CF90BF909F904D
:1039D0008F9008958F929F92AF92BF920F931F93F3
:1039E000CF93DF93CDB7DEB7A1970FB6F894DEBFC4
:1039F0000FBECDBF19A2423008F44AE08E010F5D20
:103A00001F4F842E912CA12CB12CA50194010E9452
:103A1000DF49E62FB901CA0101501109EA3014F457
:103A2000E05D01C0E95CD801EC93232B242B252B0E
:103A300061F7B8018EE998E00E94262FA1960FB693
:103A4000F894DEBF0FBECDBFDF91CF911F910F91D4
:103A5000BF90AF909F908F900895CF92DF92EF929A
:103A6000FF92CF93DF936B017C016DE28EE998E0CA
:103A70000E94962DEC0166277727CB016C197D09F2
:103A80008E099F094AE00E94EA1C8C0F9D1FDF915E
:103A9000CF91FF90EF90DF90CF900895CF93DF9379
:103AA000BC018EE998E00E94262FEC018EE998E097
:103AB0000E943B2F8C0F9D1FDF91CF910895BC0179
:103AC000990F880B990B97FD0C942D1D4AE00C94CF
:103AD000EA1CCF93DF93AB01672B31F4682F8EE99B
:103AE00098E00E94962D05C0BC0180E090E00E9405
:103AF000EA1CEC018EE998E00E943B2F8C0F9D1F81
:103B0000DF91CF91089590E0FC01E755F44F2491A7
:103B1000FC01E75FF34F8491882399F090E0880FD0
:103B2000991FFC01E157F44FA591B491FC01E151BB
:103B3000F44F859194918FB7F894EC91E22BEC932C
:103B40008FBF08958F929F92AF92BF92CF92DF92D4
:103B5000EF92FF920F931F93CF93DF936B017C0142
:103B6000142F9B01AC010E949F48882319F06AEB37
:103B700077E027C046015701E894B7F82FEF3FEFF1
:103B80004FE75FE7C501B4010E949F4881110DC056
:103B90002FEF3FEF4FE75FE7C501B4010E942646D4
:103BA00018161CF46EEB77E00CC02FEF3FEF4FE7D9
:103BB0005FE4C701B6010E94DD47181694F462EC79
:103BC00077E08EE998E0DF91CF911F910F91FF9000
:103BD000EF90DF90CF90BF90AF909F908F900C941C
:103BE000262F2FEF3FEF4FE75FECC701B6010E9492
:103BF000264687FDE4CF20E030E0A901C701B601E9
:103C00000E94264687FF0BC06DE28EE998E00E9475
:103C1000962DEC01F7FAF094F7F8F09402C0C0E0AA
:103C2000D0E000E060E070E080E09FE3101741F03A
:103C300020E030E040E251E40E942B460F5FF6CFD7
:103C4000A70196010E94BA456B017C010E94A4461F
:103C50004B015C014AE00E94EA1CC80FD91F1123E6
:103C6000B9F1C501B4010E94D3469B01AC01C70163
:103C7000B6010E94B9456B017C016EE28EE998E0C5
:103C80000E94962DC80FD91F20E030E040E251E499
:103C9000C701B6010E94E2474B015C010E94A446A5
:103CA0006B01E12CF12C4AE0C701B6010E94EA1C2D
:103CB000C80FD91FC701B6010E94D3469B01AC01B2
:103CC000C501B4010E94B9456B017C011150E1F6B8
:103CD000CE01DF91CF911F910F91FF90EF90DF9078
:103CE000CF90BF90AF909F908F900895CF93DF9328
:103CF00042E00E94A21DEC018EE998E00E943B2F59
:103D00008C0F9D1FDF91CF910895CF93DF93BC015E
:103D1000990F880B990B97FF03C00E942D1D03C0BC
:103D20004AE00E94EA1CEC018EE998E00E943B2FD9
:103D30008C0F9D1FDF91CF910895FC01A089B1895F
:103D400082E08C93A485B5851C92A685B7858FECFF
:103D50008C93108EA489B58986E08C93A289B3894F
:103D60008C9180618C93A289B3898C9188608C93AB
:103D7000A289B3898C9180688C930288F389E02DA5
:103D800080818F7D80830895EF92FF920F931F9320
:103D9000CF93DF9383708093190A2091080A3091A2
:103DA000090A40910A0A50910B0A813059F0833078
:103DB00049F030930D0A20930C0A50930F0A409358
:103DC0000E0A08C050930D0A40930C0A30930F0A54
:103DD00020930E0AE0911D0AF0911E0A90818091B5
:103DE000290A8923808380911C0A8111D7C0E09120
:103DF000190AE150E33040F4F0E0EE0FFF1FE35FFB
:103E0000F94F8081918102C080E390E1E0911F0A27
:103E1000F091200A308120912A0A232320832091C7
:103E200002012778209302012091020120930201D0
:103E30002EB1277C2EB92EB12EB9A59824B324BB60
:103E4000E091210AF091220A308120912B0A23234C
:103E50002083E091210AF091220A30812091270AE3
:103E6000232B2083209102012778209302012091A7
:103E700002012066209302012EB1277C2EB92EB1BB
:103E80002EB9A59824B324BBE091210AF091220A0F
:103E9000308120912B0A23232083E091210AF09185
:103EA000220A30812091270A232B2083E0911F0AC8
:103EB000F091200A30812091260A232B2083209123
:103EC0000201277820930201209102012093020130
:103ED0002EB1277C2EB92EB12EB9A598A59AE091C6
:103EE000210AF091220A308120912B0A232320837A
:103EF000E091210AF091220A30812091270A232B98
:103F00002083209102012778209302012091020151
:103F1000209302012EB1277C2EB94EB19C012C704A
:103F20003327B901660F771F660F771F9C01207238
:103F300033273595279535952795262B242B2EB994
:103F4000A59824B380719927880F991F822B84BB71
:103F5000E091210AF091220A908180912B0A892315
:103F60008083E091210AF091220A90818091270AB2
:103F7000892B808300910E0A10910F0A01501109BC
:103F800020910C0A30910D0A2150310940E050E097
:103F900060E070E084E09AE00E94A21380911C0A25
:103FA000813009F075C0E091190AE150E33028F43E
:103FB000F0E0E65FF94F808101C080E0E0911F0AE8
:103FC000F091200A208190912A0A92239083909167
:103FD000020197789093020190910201906490936E
:103FE00002019EB1977C9EB9749AA598A59AE0911A
:103FF000210AF091220A208190912B0A922390832A
:10400000E091210AF091220A20819091270A922BB7
:104010009083E0911F0AF091200A20819091260A56
:10402000922B9083909102019778909302012091B6
:104030000201982F907C969596959695922B909349
:1040400002019EB1977C9EB92EB1982F9072892F54
:1040500090E09595879595958795822B8EB9A59833
:1040600084B384BBE091210AF091220A908180916F
:104070002B0A89238083E091210AF091220A908102
:104080008091270A892B808384E09AE00E94C833BC
:1040900080911C0A823009F097C08091190A813002
:1040A00089F060F0823031F0833079F4F8E2EF2E5D
:1040B000F12C0BC0A8E4EA2EF12C07C0E8E8EE2EA4
:1040C000F12C03C078EEE72EF12CE0911F0AF0915D
:1040D000200A908180912A0A89238083809102019D
:1040E00087788093020180910201806480930201AD
:1040F0008EB1877C8EB98EB188618EB9A598A59A4C
:10410000E091210AF091220A908180912B0A892363
:104110008083E091210AF091220A90818091270A00
:10412000892B8083E0911F0AF091200A9081809171
:10413000260A892B8083809102018778809302016F
:1041400020910201C701807C992753E096958795BD
:104150005A95E1F7822B809302018EB1877C8EB94C
:104160008EB190E2E922FF24F694E794F694E79466
:104170008062E82AEEB8A59884B384BBE091210A56
:10418000F091220A908180912B0A89238083E0910B
:10419000210AF091220A90818091270A892B80833D
:1041A00000910E0A10910F0A0150110920910C0A7A
:1041B00030910D0A2150310940E050E060E070E09C
:1041C00084E09AE00E94A21380911C0A833009F0D7
:1041D00091C08091190A813071F050F0823029F03D
:1041E000833059F4C0E6D0E008C0C0E0D0E005C09C
:1041F000C0ECD0E002C0C0EAD0E0E0911F0AF0912C
:10420000200A908180912A0A89238083809102016B
:10421000877880930201809102018064809302017B
:104220008EB1877C8EB98EB188618EB9A598A59A1A
:10423000E091210AF091220A908180912B0A892332
:104240008083E091210AF091220A90818091270ACF
:10425000892B8083E0911F0AF091200A9081809140
:10426000260A892B8083809102018778809302013E
:1042700020910201CE01807C992733E096958795A5
:104280003A95E1F7822B809302018EB1877C8EB93B
:104290008EB1C072DD27D695C795D695C795C82B28
:1042A000CEB9A59884B384BBE091210AF091220A8B
:1042B000908180912B0A89238083E091210AF091DB
:1042C000220A90818091270A892B808300910E0A0F
:1042D00010910F0A0150110920910C0A30910D0A1A
:1042E0002150310940E050E060E070E084E09AE065
:1042F0000E94A213DF91CF911F910F91FF90EF9039
:104300000895EF92FF920F931F93CF93DF93EC01E9
:10431000790177FD3EC657FD3CC6888599856817AB
:1043200079070CF036C68A859B85481759070CF02B
:1043300030C6E98DFA8D90818DA189238083888D87
:10434000811192C28D89823059F08330B1F0813071
:10435000D1F48FEE90E0841B950BAB01BC0113C030
:104360008FEE90E09C01261B370BB9018FE391E0A3
:104370009C01241B350BA90106C08FE391E0861B2D
:10438000970BBA01AC01EB8DFC8D90818EA1892336
:1043900080838091020187788093020180910201DD
:1043A000809302018EB1877C8EB98EB18EB9A598AB
:1043B00084B384BBED8DFE8D90818FA18923808392
:1043C000ED8DFE8D90818BA1892B808380910201E0
:1043D00087788093020180910201809302018EB15F
:1043E000877C8EB9739AA59884B384BBED8DFE8DBE
:1043F00090818FA189238083ED8DFE8D90818BA18B
:10440000892B8083872F992787FD9A95EB8DFC8DCB
:1044100030812AA1232B2083209102012778209329
:104420000201E09102019C01207C3327D901F3E0D5
:10443000B595A795FA95E1F79C0123703327B5E070
:10444000220F331FBA95E1F72A2B2E2B209302015E
:104450002EB1277C2EB9EEB19C012C703327D901E7
:10446000AA0FBB1FAA0FBB1F9C01207233273595D3
:104470002795359527952A2B2E2B2EB9A59824B351
:1044800080719927880F991F822B84BBED8DFE8D3B
:1044900090818FA189238083ED8DFE8D90818BA1EA
:1044A000892B80838091020187788093020120917B
:1044B0000201CB01807C9927FC01A3E0F595E795EB
:1044C000AA95E1F7CB0183709927B5E0880F991F72
:1044D000BA95E1F78E2B822B809302018EB1877CF7
:1044E0008EB92EB1CB018C709927FC01EE0FFF1F06
:1044F000EE0FFF1FCB0180729927959587959595B3
:1045000087958E2B822B8EB9A59884B360717727FF
:10451000660F771F682B64BBED8DFE8D90818FA198
:1045200089238083ED8DFE8D90818BA1892B8083E3
:10453000EB8DFC8D90818EA1892380838091020177
:1045400087788093020180910201809302018EB1ED
:10455000877C8EB98EB18EB9A59884B384BBED8D5E
:10456000FE8D90818FA189238083ED8DFE8D9081BA
:104570008BA1892B8083809102018778809302012F
:10458000809102018062809302018EB1877C8EB996
:10459000739AA59884B384BBED8DFE8D90818FA115
:1045A00089238083ED8DFE8D90818BA1892B808363
:1045B000852F992787FD9A95EB8DFC8D30812AA157
:1045C000232B208320910201277820930201609100
:1045D00002019C01207C3327F90133E0F595E79532
:1045E0003A95E1F79C012370332775E0220F331FC2
:1045F0007A95E1F72E2B262B209302012EB1277CF2
:104600002EB96EB19C012C703327F901EE0FFF1FFC
:10461000EE0FFF1F9C0120723327359527953595A6
:1046200027952E2B262B2EB9A59824B38071992778
:10463000880F991F822B84BBED8DFE8D90818FA1F9
:1046400089238083ED8DFE8D90818BA1892B8083C2
:104650008091020187788093020120910201CA01B2
:10466000807C9927BC0103E0759567950A95E1F771
:10467000CA018370992735E0880F991F3A95E1F7B1
:10468000862B822B809302018EB1877C8EB92EB14E
:10469000CA018C709927BC01660F771F660F771FC0
:1046A000CA01807299279595879595958795862B50
:1046B000822B8EB9A59884B340715527440F551F9E
:1046C000482B44BBED8DFE8D90818FA18923808383
:1046D000ED8DFE8D90818BA1892B8083EB8DFC8DE0
:1046E00090818EA1892380838091020187788093B5
:1046F000020180910201809302018EB1877C8EB904
:104700008EB18EB9A59884B384BBED8DFE8D90815A
:104710008FA189238083ED8DFE8D90818BA1892BC4
:104720008083809102018778809302018091020149
:104730008064809302018EB1877C8EB9739AA598AC
:1047400084B384BBED8DFE8D90818FA189238083FE
:10475000ED8DFE8D90818BA1892B8083EB8DFC8D5F
:1047600090818AA1892B8083809102018778809330
:104770000201409102018F2D99279C01207C332753
:10478000B90113E0759567951A95E1F79C012370BF
:10479000332705E0220F331F0A95E1F7262B242B40
:1047A000209302012EB1277C2EB94EB19C012C70B2
:1047B0003327B901660F771F660F771F9C012072A0
:1047C00033273595279535952795262B242B2EB9FC
:1047D000A59824B380719927880F991F822B84BBD9
:1047E000ED8DFE8D90818FA189238083ED8DFE8DCF
:1047F00090818BA1892B808380910201877880939F
:10480000020120910201C701807C9927AC0173E06D
:10481000559547957A95E1F7C70183709927E5E0AB
:10482000880F991FEA95E1F7842B822B8093020170
:104830008EB1877C8EB92EB1C7018C709927AC01DF
:10484000440F551F440F551FC70180729927959536
:10485000879595958795842B822B8EB9A59884B3DF
:1048600030E1E322FF24CFC2813009F0CFC2ED89CD
:10487000E150E33028F4F0E0E65FF94F808101C0B9
:1048800080E0EB8DFC8D20819EA1922390839091FE
:1048900002019778909302019091020190649093A5
:1048A00002019EB1977C9EB9749AA598A59AED8D48
:1048B000FE8D20819FA192239083ED8DFE8D20811E
:1048C0009BA1922B9083EB8DFC8D20819AA1922B42
:1048D00090839091020197789093020120910201B8
:1048E000982F907C969596959695922B9093020191
:1048F0009EB1977C9EB92EB1982F9072892F90E02F
:104900009595879595958795822B8EB9A59884B3B3
:1049100084BBED8DFE8D90818FA189238083ED8DE9
:10492000FE8D90818BA1892B8083872F992787FD0E
:104930009A95EB8DFC8D30812EA12323208320912D
:104940000201277820930201209102012064209324
:1049500002012EB1277C2EB92EB12EB9A59824B311
:1049600024BBED8DFE8D30812FA123232083ED8D7F
:10497000FE8D30812BA1232B2083EB8DFC8D30818C
:104980002AA1232B20832091020127782093020162
:10499000E09102019C01207C3327D90113E0B595F9
:1049A000A7951A95E1F79C012370332705E0220FA4
:1049B000331F0A95E1F72A2B2E2B209302012EB1EB
:1049C000277C2EB9EEB19C012C703327D901AA0F98
:1049D000BB1FAA0FBB1F9C0120723327359527955B
:1049E000359527952A2B2E2B2EB9A59824B38071A7
:1049F0009927880F991F822B84BBED8DFE8D9081A6
:104A00008FA189238083ED8DFE8D90818BA1892BD1
:104A10008083EB8DFC8D90818EA189238083809192
:104A20000201877880930201809102018066809361
:104A300002018EB1877C8EB98EB18EB9A59884B3F0
:104A400084BBED8DFE8D90818FA189238083ED8DB8
:104A5000FE8D90818BA1892B8083EB8DFC8D9081C5
:104A60008AA1892B8083809102018778809302013B
:104A700020910201CB01807C9927FC01B3E0F595E0
:104A8000E795BA95E1F7CB018370992715E0880F78
:104A9000991F1A95E1F78E2B822B809302018EB11C
:104AA000877C8EB92EB1CB018C709927FC01EE0F5B
:104AB000FF1FEE0FFF1FCB018072992795958795F9
:104AC000959587958E2B822B8EB9A59884B36071AE
:104AD0007727660F771F682B64BBED8DFE8D908165
:104AE0008FA189238083ED8DFE8D90818BA1892BF1
:104AF0008083852F992787FD9A95EB8DFC8D3081DA
:104B00002EA12323208320910201277820930201E4
:104B1000209102012064209302012EB1277C2EB93E
:104B2000749AA59824B324BBED8DFE8D30812FA1FE
:104B300023232083ED8DFE8D30812BA1232B208319
:104B4000EB8DFC8D30812AA1232B20832091020143
:104B5000277820930201609102019C01207C332779
:104B6000F901A3E0F595E795AA95E1F79C0123707B
:104B70003327B5E0220F331FBA95E1F72E2B262BF2
:104B8000209302012EB1277C2EB96EB19C012C70AE
:104B90003327F901EE0FFF1FEE0FFF1F9C0120725C
:104BA000332735952795359527952E2B262B2EB90E
:104BB000A59824B380719927880F991F822B84BBF5
:104BC000ED8DFE8D90818FA189238083ED8DFE8DEB
:104BD00090818BA1892B8083EB8DFC8D90818EA1A0
:104BE00089238083809102018778809302018091DC
:104BF00002018066809302018EB1877C8EB9749A1F
:104C0000A59884B384BBED8DFE8D90818FA18923FF
:104C10008083ED8DFE8D90818BA1892B8083EB8D20
:104C2000FC8D90818AA1892B8083809102018778F5
:104C30008093020120910201CA01807C9927BC0166
:104C4000E3E075956795EA95E1F7CA0183709927C6
:104C5000F5E0880F991FFA95E1F7862B822B809358
:104C600002018EB1877C8EB92EB1CA018C70992752
:104C7000BC01660F771F660F771FCA0180729927E4
:104C80009595879595958795862B822B8EB9A598B6
:104C900084B340715527440F551F482B44BBED8DFD
:104CA000FE8D90818FA189238083ED8DFE8D908173
:104CB0008BA1892B8083EB8DFC8D90818EA1892324
:104CC00080838091020187788093020180910201A4
:104CD0008064809302018EB1877C8EB9739AA59807
:104CE00084B384BBED8DFE8D90818FA18923808359
:104CF000ED8DFE8D90818BA1892B8083EB8DFC8DBA
:104D000090818AA1892B808380910201877880938A
:104D10000201409102018F2D99279C01207C3327AD
:104D2000B90123E0759567952A95E1F79C012370F9
:104D3000332755E0220F331F5A95E1F7262B242BFA
:104D4000209302012EB1277C2EB94EB19C012C700C
:104D50003327B901660F771F660F771F9C012072FA
:104D600033273595279535952795262B242B2EB956
:104D7000A59824B380719927880F991F822B84BB33
:104D8000ED8DFE8D90818FA189238083ED8DFE8D29
:104D900090818BA1892B80838091020187788093F9
:104DA000020120910201C701807C9927AC01B3E088
:104DB00055954795BA95E1F7C7018370992715E096
:104DC000880F991F1A95E1F7842B822B809302019B
:104DD0008EB1877C8EB92EB1C7018C709927AC013A
:104DE000440F551F440F551FC70180729927959591
:104DF000879595958795842B822B8EB9A59884B33A
:104E000090E1E922FF24EE0CFF1CAFC082508230FB
:104E100008F0B9C00A851B8501501109288539851C
:104E200021503109CE010E94A213E98DFA8D9081A3
:104E30008DA189238083EB8DFC8D90818EA18923A8
:104E40008083809102018778809302018091020122
:104E5000809302018EB1877C8EB98EB188638EB942
:104E6000A59884B384BBED8DFE8D90818FA189239D
:104E70008083ED8DFE8D90818BA1892B8083EB8DBE
:104E8000FC8D90818AA1892B808380910201877893
:104E900080930201409102018F2D99279C01207C73
:104EA000332753E0369527955A95E1F7382F33701D
:104EB0003295330F307E232B242B209302012EB109
:104EC000277C2EB94EB1282F2C70522F550F550F1D
:104ED0009C01207233273695279536952795252BEB
:104EE000242B2EB9A59894B38071880F892B84BB8D
:104EF000ED8DFE8D90818FA189238083ED8DFE8DB8
:104F000090818BA1892B8083809102018778809387
:104F1000020120910201C701807C992773E09695D8
:104F200087957A95E1F79E2D93709295990F907ED3
:104F3000892B822B809302018EB1877C8EB92EB192
:104F40008E2D8C70382F330F330FC7018072992745
:104F50009695879596958795832B822B8EB9A598E4
:104F600084B39E2D9071E92EEE0CE82AE4BAED8D03
:104F7000FE8D90818FA189238083ED8DFE8D9081A0
:104F80008BA1892B8083E98DFA8D908189A1892B52
:104F90008083DF91CF911F910F91FF90EF90089543
:104FA0000F931F93CF93DF938C01C0E0D0E0F80103
:104FB000EC0FFD1F6491662341F08EE998E00E949A
:104FC000962D892B11F02196F2CFCE01DF91CF9152
:104FD0001F910F910895CF93DF930E94D027EC018A
:104FE0008EE998E00E943B2F8C0F9D1FDF91CF919F
:104FF0000895E4E0FAE0A78DB0A19C9180A58923F3
:105000008C9300C000C000C00000A0E0B1E05C9143
:105010003C919CB14CB182B3A78DB0A16C9124A1FD
:10502000262B2C93387168E0369F90011124352F80
:105030003076329536953770232B9870990F990FEB
:10504000922B242F207326952695292B807290E091
:1050500095958795822B0895CF92DF92EF92FF92DC
:105060000F931F93CF93DF93C4E0DAE0E98DFA8DBD
:1050700020819DA192239083EB8DFC8D20819EA1A8
:1050800092239083E2E0F1E09081977890834081D1
:10509000282F207C522F569556955695982F937011
:1050A00060E2969F90011124252B242B20839EB132
:1050B000977C9EB94EB1282F2C7094E0299FB001A7
:1050C0001124982F9072292F30E03595279535952A
:1050D0002795262B242B2EB9A59894B38071880F81
:1050E000892B84BBED8DFE8D90818FA189238083D8
:1050F000ED8DFE8D90818BA1892B808301E011E0E5
:10510000F8018081877880838DB1877C8DB99D98E7
:10511000EB8DFC8D90818AA1892B808383EC90E0BC
:105120000197F1F70E94F927C82ED12CE12CF12C20
:10513000FE2CED2CDC2CCC240E94F927C82AFE2C56
:10514000ED2CDC2CCC240E94F927C82AFE2CED2C57
:10515000DC2CCC240E94F927E98DFA8D208199A1BD
:10516000922B9083F8019081986790839DB198630A
:105170009DB99D9AA7019601282BCA01B901DF911B
:10518000CF911F910F91FF90EF90DF90CF900895F6
:105190006F927F928F929F92AF92BF92CF92DF9247
:1051A000EF92FF920F931F93CF93DF93FC013B018C
:1051B000A18DB28D9C9185A189238C93A38DB48DF3
:1051C0009C9186A189238C93808D823011F181116D
:1051D0001EC08091020187788093020180910201B4
:1051E000809302018EB1877C8EB98EB18EB9A5985D
:1051F00084B384BBA58DB68D9C9187A189238C93A4
:10520000A58DB68D9C9183A1892B8C9312C0833080
:1052100081F48091020187788093020180910201DC
:10522000809302018EB1877C8EB98EB188638EB96E
:105230000EC0809102018778809302018091020163
:105240008064809302018EB1877C8EB9739AA59891
:1052500084B384BBA58DB68D9C9187A189238C9343
:10526000A58DB68D9C9183A1892B8C93A38DB48D34
:105270009C9182A1892B8C938091020187788093E5
:105280000201A0910201872F90E07C01B0ECEB229B
:10529000FF24B3E0F594E794BA95E1F78C0103702D
:1052A0001127C5E0000F111FCA95E1F7BE2DB02BE5
:1052B000AB2BA0930201AEB1A77CAEB91EB16C01BD
:1052C000CCE0CC22DD24CC0CDD1CCC0CDD1C7C0124
:1052D000D0E2ED22FF24F594E794F594E794AC2D09
:1052E000AE291A2B1EB9A59814B380719927880F7F
:1052F000991FF82E812B84BB058D168DE8019881AE
:1053000087A189238883058D168DE801988183A163
:10531000892B888380910201877880930201809194
:1053200002018B01007C11276801D3E0D594C7945A
:10533000DA95E1F78B010370112795E0000F111F3B
:105340009A95E1F70C29802B809302018EB1877C1E
:105350008EB98EB15B01DCE0AD22BB24AA0CBB1C74
:10536000AA0CBB1C6B0190E2C922DD24D594C79422
:10537000D594C7941A2D1C29812B8EB9A59884B376
:1053800060717727660F771F762F682B64BB858D3A
:10539000968DEC01E88067A16E216883858D968DDE
:1053A000EC01E88063A16E2968832150310941092D
:1053B000510949015A0136E0B694A794979487940D
:1053C0003A95D1F7C401761088C1019708F465C0F9
:1053D00060E1A58DB68DCC9177A17C237C93A58DC2
:1053E000B68DCC9173A17C2B7C93A58DB68DCC9181
:1053F00077A17C237C93A58DB68DCC9173A17C2B5A
:105400007C93A58DB68DCC9177A17C237C93A58DC3
:10541000B68DCC9173A17C2B7C93A58DB68DCC9150
:1054200077A17C237C93A58DB68DCC9173A17C2B29
:105430007C93A58DB68DCC9177A17C237C93A58D93
:10544000B68DCC9173A17C2B7C93A58DB68DCC9120
:1054500077A17C237C93A58DB68DCC9173A17C2BF9
:105460007C93A58DB68DCC9177A17C237C93A58D63
:10547000B68DCC9173A17C2B7C93A58DB68DCC91F0
:1054800077A17C237C93A58DB68DCC9173A17C2BC9
:105490007C93615009F09DCF98CF2F73215008F471
:1054A00065C1A58DB68D9C9187A189238C93A58D0F
:1054B000B68D9C9183A1892B8C93A58DB68D9C91E3
:1054C00087A189238C93A58DB68D9C9183A1892B6F
:1054D0008C93E4CFC0910201C778C0930201C091C0
:1054E0000201CB2BC0930201CEB1C77CCEB9CEB1A5
:1054F000CA2BCEB9A598C4B3CF29C4BBC58DD68D50
:10550000D880E7A0ED20E882C58DD68DD880E3A0B5
:10551000ED28E882C0910201C778C0930201C091D2
:105520000201C02BC0930201CEB1C77CCEB9CEB16F
:10553000C12BCEB9A598C4B3C72BC4BBC58DD68D1E
:10554000D880E7A0ED20E882C58DD68DD880E3A075
:10555000ED28E882C0910201C778C0930201C09192
:105560000201CB2BC0930201CEB1C77CCEB9CEB124
:10557000CA2BCEB9A598C4B3CF29C4BBC58DD68DCF
:10558000D880E7A0ED20E882C58DD68DD880E3A035
:10559000ED28E882C0910201C778C0930201C09152
:1055A0000201C02BC0930201CEB1C77CCEB9CEB1EF
:1055B000C12BCEB9A598C4B3C72BC4BBC58DD68D9E
:1055C000D880E7A0ED20E882C58DD68DD880E3A0F5
:1055D000ED28E882C0910201C778C0930201C09112
:1055E0000201CB2BC0930201CEB1C77CCEB9CEB1A4
:1055F000CA2BCEB9A598C4B3CF29C4BBC58DD68D4F
:10560000D880E7A0ED20E882C58DD68DD880E3A0B4
:10561000ED28E882C0910201C778C0930201C091D1
:105620000201C02BC0930201CEB1C77CCEB9CEB16E
:10563000C12BCEB9A598C4B3C72BC4BBC58DD68D1D
:10564000D880E7A0ED20E882C58DD68DD880E3A074
:10565000ED28E882C0910201C778C0930201C09191
:105660000201CB2BC0930201CEB1C77CCEB9CEB123
:10567000CA2BCEB9A598C4B3CF29C4BBC58DD68DCE
:10568000D880E7A0ED20E882C58DD68DD880E3A034
:10569000ED28E882C0910201C778C0930201C09151
:1056A0000201C02BC0930201CEB1C77CCEB9CEB1EE
:1056B000C12BCEB9A598C4B3C72BC4BBC58DD68D9D
:1056C000D880E7A0ED20E882C58DD68DD880E3A0F4
:1056D000ED28E882615009F0FDCE019710F060E1FD
:1056E000F9CE2F73215008F441C0809102018778D0
:1056F00080930201809102018B2B809302018EB175
:10570000877C8EB98EB18A2B8EB9A59884B38F29E8
:1057100084BBC58DD68D988187A189238883C58D4B
:10572000D68D988183A1892B888380910201877807
:105730008093020180910201802B809302018EB13F
:10574000877C8EB98EB1812B8EB9A59884B3872BB7
:1057500084BBC58DD68D988187A189238883C58D0B
:10576000D68D988183A1892B8883BCCFA18DB28DE2
:105770009C9181A1892B8C93DF91CF911F910F91E7
:10578000FF90EF90DF90CF90BF90AF909F908F9061
:105790007F906F900895863308F0865390917B0038
:1057A000282F2870977F922B90937B0087708064BE
:1057B00080937C0080917A00806480937A0080914D
:1057C0007A0086FDFCCF809178002091790090E0EE
:1057D000922B0895362F90E0FC01E15BF34F44914A
:1057E000FC01E755F44F2491FC01E75FF34F9491DE
:1057F000992309F46CC0442309F455C050E0FA0120
:105800003197E231F10508F04EC08827EE58FF4F7E
:105810008F4F0C94014A809180008F7707C0809150
:1058200080008F7D03C080918000877F80938000FF
:105830003AC084B58F7702C084B58F7D84BD33C0F4
:105840008091B0008F7703C08091B0008F7D8093EE
:10585000B00029C0809190008F7707C080919000A0
:105860008F7D03C080919000877F809390001BC044
:105870008091A0008F7707C08091A0008F7D03C02A
:105880008091A000877F8093A0000DC080912001AF
:105890008F7707C0809120018F7D03C08091200108
:1058A000877F80932001E92FF0E0EE0FFF1FE15189
:1058B000F44FA591B4919FB7F894311104C08C9125
:1058C0002095282302C0EC912E2B2C939FBF089586
:1058D0008F929F92AF92BF92CF92DF92EF92FF9200
:1058E0006B017C010E9476354B015C01C114D1042F
:1058F000E104F104F1F00E947635DC01CB01881956
:105900009909AA09BB09883E9340A105B10570F326
:1059100021E0C21AD108E108F10888EE880E83E080
:10592000981EA11CB11CC114D104E104F10419F7A3
:10593000DDCFFF90EF90DF90CF90BF90AF909F9022
:105940008F900895E0911D0AF0911E0A9081809138
:10595000250A892B8083E091210AF091220A908107
:105960008091270A892B8083E091230AF091240AF1
:1059700090818091280A892B808380912D0A882329
:1059800071F060E00E94EA2B62E070E080E090E05D
:105990000E94682C61E080912D0A0E94EA2BE09120
:1059A0001D0AF0911E0A90818091290A8923808323
:1059B000E0911F0AF091200A908180912A0A8923A0
:1059C0008083809102018778809302018091020197
:1059D000809302018EB1877C8EB98EB18EB9A59865
:1059E00084B384BBE091210AF091220A90818091D6
:1059F0002B0A89238083E091210AF091220A908169
:105A00008091270A892B808383E0E091210AF0911D
:105A1000220A208190912B0A92239083E091210AFF
:105A2000F091220A20819091270A922B9083815035
:105A300061F7E0911D0AF0911E0A90818091250A7C
:105A4000892B80830895FC01538D448D252F30E0F0
:105A5000842F90E0821B930B541710F0CF9608957B
:105A600001970895FC01918D828D981761F0828DC8
:105A7000DF01A80FB11D5D968C91928D9F5F9F7382
:105A8000928F90E008958FEF9FEF0895FC01918D24
:105A9000828D981731F0828DE80FF11D858D90E091
:105AA00008958FEF9FEF0895FC01918D228D892F2E
:105AB00090E0805C9F4F821B91098F739927089516
:105AC0008EE998E00E94542D21E0892B09F420E012
:105AD000822F08958BE399E00E94542D21E0892BB9
